:020000040800F2
:100000000000022025C60008E5BC0008E7BC000887
:10001000FBBC0008FDBC0008FFBC0008000000009D
:1000200000000000000000000000000001BD00080A
:1000300003BD00080000000005BD000829BD000840
:1000400075C6000875C6000875C6000875C60008A4
:1000500075C6000875C600081D8B0008478B000890
:10006000738B00089F8B0008CB8B000875C60008B7
:1000700075C6000875C60008E196000875C6000838
:1000800075C60008C996000875C6000875C6000840
:1000900075C6000875C6000875C60008F78B00080D
:1000A00075C6000875C6000875C6000875C6000844
:1000B000A1940008D99400081195000875C600089D
:1000C00075C6000875C6000875C6000875C6000824
:1000D00075C60008B588000865890008158A0008FB
:1000E000D58C000875C60008B19E000875C60008CA
:1000F00075C6000875C6000875C6000875C60008F4
:1001000075C6000875C6000875C6000875C60008E3
:1001100075C6000875C6000875C6000875C60008D3
:1001200075C6000875C6000875C6000875C60008C3
:1001300075C60008000000000000000075C6000839
:1001400075C6000875C6000875C60008BD9E000883
:1001500075C6000875C60008F9960008998A000857
:1001600075C6000875C6000875C6000875C6000883
:1001700075C6000875C600080000000000000000F9
:0801800075C6000875C60008F1
:1001900010B5054C237833B9044B13B10448AFF3C1
:1001A00000800123237010BD5006002000000000D5
:1001B000D405010808B5034B1BB103490348AFF34D
:1001C000008008BD0000000054060020D40501088E
:1001D00010F8012B11F8013B012A28BF9A42F7D0F1
:1001E000D01A7047034613F8012B002AFBD1181AC6
:1001F000013870470000000000000000000000000F
:1002000001F0FF01102A2BDB10F0070F08D010F8C7
:10021000013B013A8B422DD010F0070F42B3F6D1CB
:10022000F0B441EA012141EA014122F007047FF0E4
:1002300000070023F0E80256083C85EA010586EA3B
:10024000010685FA47F5A3FA87F586FA47F6A5FA77
:1002500087F68EB9EED1F0BC01F0FF0102F0070283
:1002600032B110F8013B013A83EA010313B1F8D12E
:100270000020704701387047002D06BF354603380F
:10028000073815F0010F07D1013015F4807F02BF48
:10029000013015F4C03F0130F0BC0138704700BF99
:1002A00081F0004102E000BF83F0004330B54FEA27
:1002B00041044FEA430594EA050F08BF90EA020F94
:1002C0001FBF54EA000C55EA020C7FEA645C7FEA27
:1002D000655C00F0E2804FEA5454D4EB5555B8BF4A
:1002E0006D420CDD2C4480EA020281EA030382EABB
:1002F000000083EA010180EA020281EA0303362D4D
:1003000088BF30BD11F0004F4FEA01314FF4801C1F
:100310004CEA113102D0404261EB410113F0004F31
:100320004FEA03334CEA133302D0524263EB4303E8
:1003300094EA050F00F0A780A4F10104D5F1200E86
:100340000DDB02FA0EFC22FA05F2801841F10001E1
:1003500003FA0EF2801843FA05F359410EE0A5F1B5
:1003600020050EF1200E012A03FA0EFC28BF4CF0E6
:10037000020C43FA05F3C01851EBE37101F000459C
:1003800007D54FF0000EDCF1000C7EEB00006EEBA9
:100390000101B1F5801F1BD3B1F5001F0CD3490833
:1003A0005FEA30004FEA3C0C04F101044FEA44528A
:1003B00012F5800F80F09A80BCF1004F08BF5FEA11
:1003C000500C50F1000041EB045141EA050130BDF1
:1003D0005FEA4C0C404141EB0101013C28BFB1F503
:1003E000801FE9D291F0000F04BF01460020B1FA4E
:1003F00081F308BF2033A3F10B03B3F120020CDA21
:100400000C3208DD02F1140CC2F10C0201FA0CF0FE
:1004100021FA02F10CE002F11402D8BFC2F1200C63
:1004200001FA02F120FA0CFCDCBF41EA0C01904019
:10043000E41AA2BF01EB0451294330BD6FEA040462
:100440001F3C1CDA0C340EDC04F11404C4F120024D
:1004500020FA04F001FA02F340EA030021FA04F35F
:1004600045EA030130BDC4F10C04C4F1200220FAB6
:1004700002F001FA04F340EA0300294630BD21FAF4
:1004800004F0294630BD94F0000F83F4801306BFBA
:1004900081F480110134013D4EE77FEA645C18BFAE
:1004A0007FEA655C29D094EA050F08BF90EA020F45
:1004B00005D054EA000C04BF1946104630BD91EA3D
:1004C000030F1EBF0021002030BD5FEA545C05D140
:1004D0004000494128BF41F0004130BD14F580047F
:1004E0003CBF01F5801130BD01F0004545F0FE41F3
:1004F00041F470014FF0000030BD7FEA645C1ABF28
:10050000194610467FEA655C1CBF0B46024650EA5E
:10051000013406BF52EA033591EA030F41F400218A
:1005200030BD00BF90F0000F04BF0021704730B510
:100530004FF4806404F132044FF000054FF00001E5
:1005400050E700BF90F0000F04BF0021704730B5A6
:100550004FF4806404F1320410F0004548BF40427B
:100560004FF000013EE700BF42004FEAE2014FEAD0
:1005700031014FEA02701FBF12F07F4393F07F4FAB
:1005800081F06051704732F07F4208BF704793F0AE
:100590007F4F04BF41F40021704730B54FF46074C1
:1005A00001F0004521F000411CE700BF50EA0102C4
:1005B00008BF704730B54FF000050AE050EA01026D
:1005C00008BF704730B511F0004502D5404261EBDD
:1005D00041014FF4806404F132045FEA915C3FF41E
:1005E000D8AE4FF003025FEADC0C18BF03325FEABB
:1005F000DC0C18BF033202EBDC02C2F1200300FA6C
:1006000003FC20FA02F001FA03FE40EA0E0021FA90
:1006100002F11444BDE600BF70B54FF0FF0C4CF47E
:10062000E06C1CEA11541DBF1CEA135594EA0C0F30
:1006300095EA0C0F00F0DEF82C4481EA030621EA6B
:100640004C5123EA4C5350EA013518BF52EA0335A6
:1006500041F4801143F4801338D0A0FB02CE4FF058
:100660000005E1FB02E506F00042E0FB03E54FF088
:100670000006E1FB03569CF0000F18BF4EF0010E80
:10068000A4F1FF04B6F5007F64F5407404D25FEA7C
:100690004E0E6D4146EB060642EAC62141EA55512F
:1006A0004FEAC52040EA5E504FEACE2EB4F1FD0C71
:1006B00088BFBCF5E06F1ED8BEF1004F08BF5FEAEF
:1006C000500E50F1000041EB045170BD06F00046A1
:1006D00046EA010140EA020081EA0301B4EB5C044E
:1006E000C2BFD4EB0C0541EA045170BD41F4801146
:1006F0004FF0000E013C00F3AB8014F1360FDEBF6B
:10070000002001F0004170BDC4F10004203C35DA46
:100710000C341BDC04F11404C4F1200500FA05F3C9
:1007200020FA04F001FA05F240EA020001F000426A
:1007300021F0004110EBD37021FA04F642EB0601E0
:100740005EEA430E08BF20EAD37070BDC4F10C040A
:10075000C4F1200500FA04F320FA05F001FA04F2CE
:1007600040EA020001F0004110EBD37041F10001BA
:100770005EEA430E08BF20EAD37070BDC4F12005C5
:1007800000FA05F24EEA020E20FA04F301FA05F22D
:1007900043EA020321FA04F001F0004121FA04F2D5
:1007A00020EA020000EBD3705EEA430E08BF20EAA5
:1007B000D37070BD94F0000F0FD101F000464000DF
:1007C00041EB010111F4801F08BF013CF7D041EA61
:1007D000060195F0000F18BF704703F00046520065
:1007E00043EB030313F4801F08BF013DF7D043EA36
:1007F0000603704794EA0C0F0CEA135518BF95EAEC
:100800000C0F0CD050EA410618BF52EA4306D1D172
:1008100081EA030101F000414FF0000070BD50EA91
:10082000410606BF1046194652EA430619D094EA1B
:100830000C0F02D150EA013613D195EA0C0F05D105
:1008400052EA03361CBF104619460AD181EA030159
:1008500001F0004141F0FE4141F470014FF0000011
:1008600070BD41F0FE4141F4780170BD70B54FF0AC
:10087000FF0C4CF4E06C1CEA11541DBF1CEA13552C
:1008800094EA0C0F95EA0C0F00F0A7F8A4EB05040E
:1008900081EA030E52EA03354FEA013100F0888005
:1008A0004FEA03334FF0805545EA131343EA1263CE
:1008B0004FEA022245EA111545EA10654FEA002683
:1008C0000EF000419D4208BF964244F1FD0404F53C
:1008D000407402D25B084FEA3202B61A65EB030598
:1008E0005B084FEA32024FF480104FF4002CB6EB55
:1008F000020E75EB030E22BFB61A754640EA0C00D5
:100900005B084FEA3202B6EB020E75EB030E22BF14
:10091000B61A754640EA5C005B084FEA3202B6EB55
:10092000020E75EB030E22BFB61A754640EA9C0014
:100930005B084FEA3202B6EB020E75EB030E22BFE4
:10094000B61A754640EADC0055EA060E18D04FEAA2
:10095000051545EA16754FEA06164FEAC30343EA42
:1009600052734FEAC2025FEA1C1CC0D111F4801F0F
:100970000BD141EA00014FF000004FF0004CB6E708
:1009800011F4801F04BF01430020B4F1FD0C88BFA7
:10099000BCF5E06F3FF6AFAEB5EB030C04BFB6EBB2
:1009A000020C5FEA500C50F1000041EB045170BDA5
:1009B0000EF0004E4EEA113114EB5C04C2BFD4EBD2
:1009C0000C0541EA045170BD41F480114FF0000E56
:1009D000013C90E645EA060E8DE60CEA135594EAD2
:1009E0000C0F08BF95EA0C0F3FF43BAF94EA0C0FD5
:1009F0000AD150EA01347FF434AF95EA0C0F7FF44A
:100A000025AF104619462CE795EA0C0F06D152EA9D
:100A100003353FF4FDAE1046194622E750EA410681
:100A200018BF52EA43067FF4C5AE50EA41047FF492
:100A30000DAF52EA43057FF4EBAE12E74FF0FF3CF7
:100A400006E000BF4FF0010C02E000BF4FF0010CC8
:100A50004DF804CD4FEA410C7FEA6C5C4FEA430C41
:100A600018BF7FEA6C5C1BD001B050EA410C0CBF90
:100A700052EA430C91EA030F02BF90EA020F0020F2
:100A8000704710F1000F91EA030F58BF994208BF59
:100A900090422CBFD8176FEAE37040F00100704716
:100AA0004FEA410C7FEA6C5C02D150EA013C07D16D
:100AB0004FEA430C7FEA6C5CD6D152EA033CD3D0B8
:100AC0005DF8040B704700BF8446104662468C46B2
:100AD0001946634600E000BF01B5FFF7B7FF0028E5
:100AE00048BF10F1000F01BD4DF808EDFFF7F4FF0E
:100AF0000CBF012000205DF808FB00BF4DF808ED99
:100B0000FFF7EAFF34BF012000205DF808FB00BFBB
:100B10004DF808EDFFF7E0FF94BF012000205DF8DD
:100B200008FB00BF4DF808EDFFF7CEFF94BF012092
:100B300000205DF808FB00BF4DF808EDFFF7C4FF8B
:100B400034BF012000205DF808FB00BF4FEA410CD4
:100B50007FEA6C5C02D150EA013C0AD14FEA430CB7
:100B60007FEA6C5C02D152EA033C02D14FF00000F4
:100B700070474FF0010070474FEA410212F5001232
:100B800015D211D56FF47873B3EB625212D94FEAD4
:100B9000C12343F0004343EA505311F0004F23FABE
:100BA00002F018BF404270474FF00000704750EA13
:100BB000013005D111F0004008BF6FF000407047D0
:100BC0004FF00000704700BF4A0011D212F500122A
:100BD00011D20DD56FF47873B3EB62520ED44FEA95
:100BE000C12343F0004343EA505323FA02F0704715
:100BF0004FF00000704750EA013002D14FF0FF3053
:100C000070474FF00000704780F0004002E000BFE6
:100C100081F0004142001FBF5FEA410392EA030FE7
:100C20007FEA226C7FEA236C6AD04FEA1262D2EB31
:100C30001363C1BFD218414048404140B8BF5B4236
:100C4000192B88BF704710F0004F40F4000020F0CF
:100C50007F4018BF404211F0004F41F4000121F0E5
:100C60007F4118BF494292EA030F3FD0A2F101022F
:100C700041FA03FC10EB0C00C3F1200301FA03F16D
:100C800000F0004302D5494260EB4000B0F5000F90
:100C900013D3B0F1807F06D340084FEA310102F14F
:100CA0000102FE2A51D2B1F1004F40EBC25008BF01
:100CB00020F0010040EA03007047490040EB0000CB
:100CC000013A28BFB0F5000FEDD2B0FA80FCACF1CC
:100CD000080CB2EB0C0200FA0CF0AABF00EBC250F9
:100CE00052421843BCBFD0401843704792F0000FE7
:100CF00081F4000106BF80F400000132013BB5E73A
:100D00004FEA41037FEA226C18BF7FEA236C21D0AF
:100D100092EA030F04D092F0000F08BF0846704714
:100D200090EA010F1CBF0020704712F07F4F04D1E2
:100D3000400028BF40F00040704712F100723CBFF5
:100D400000F50000704700F0004343F0FE4040F41F
:100D5000000070477FEA226216BF08467FEA2363DD
:100D60000146420206BF5FEA412390EA010F40F4C8
:100D7000800070474FF0000304E000BF10F0004314
:100D800048BF40425FEA000C08BF704743F09643FB
:100D900001464FF000001CE050EA010208BF704716
:100DA0004FF000030AE000BF50EA010208BF70479D
:100DB00011F0004302D5404261EB41015FEA010CB2
:100DC00002BF84460146002043F0B64308BFA3F1AA
:100DD0008053A3F50003BCFA8CF2083AA3EBC2538C
:100DE00010DB01FA02FC634400FA02FCC2F12002AB
:100DF000BCF1004F20FA02F243EB020008BF20F0E2
:100E00000100704702F1200201FA02FCC2F1200247
:100E100050EA4C0021FA02F243EB020008BF20EA3C
:100E2000DC70704753B94AB9002908BF00281CBFBD
:100E30004FF0FF314FF0FF3000F0AAB9ADF1080CD0
:100E40006DE904CE00F03CF8DDF804E0DDE90223B2
:100E500004B0704738B50022002304460D46FFF762
:100E60004DFE28B920462946BDE8384000F00AB8B2
:100E7000204605F1004100F005F8404261EB4101D8
:100E800038BD00BFD0B50C4B002206460F46FFF719
:100E9000C3FBFFF799FE0446FFF744FB074B002214
:100EA000FFF7BAFB02460B4630463946FFF7FCF91E
:100EB000FFF78AFE2146D0BD0000F03D0000F04162
:100EC0002DE9F047089D04468E46002B4DD18A42FD
:100ED000944669D9B2FA82F252B101FA02F3C2F130
:100EE000200120FA01F10CFA02FC41EA030E9440C1
:100EF0004FEA1C48210CBEFBF8F61FFA8CF708FBE2
:100F000016E341EA034306FB07F199420AD91CEBB9
:100F1000030306F1FF3080F01F81994240F21C81EB
:100F2000023E63445B1AA4B2B3FBF8F008FB103333
:100F300044EA034400FB07F7A7420AD91CEB040468
:100F400000F1FF3380F00A81A74240F20781644438
:100F5000023840EA0640E41B00261DB1D4400023BD
:100F6000C5E900433146BDE8F0878B4209D9002D21
:100F700000F0EF800026C5E9000130463146BDE8AB
:100F8000F087B3FA83F6002E4AD18B4202D3824215
:100F900000F2F980841A61EB030301209E46002DC4
:100FA000E0D0C5E9004EDDE702B9FFDEB2FA82F219
:100FB000002A40F09280A1EB0C014FEA1C471FFA77
:100FC0008CFE0126200CB1FBF7F307FB131140EA5E
:100FD00001410EFB03F0884208D91CEB010103F12B
:100FE000FF3802D2884200F2CB804346091AA4B2ED
:100FF000B1FBF7F007FB101144EA01440EFB00FEC1
:10100000A64508D91CEB040400F1FF3102D2A64525
:1010100000F2BB800846A4EB0E0440EA03409CE7C4
:10102000C6F12007B34022FA07FC4CEA030C20FA71
:1010300007F401FA06F31C43F9404FEA1C4900FA91
:1010400006F3B1FBF9F8200C1FFA8CFE09FB18110E
:1010500040EA014108FB0EF0884202FA06F20BD981
:101060001CEB010108F1FF3A80F08880884240F2D1
:101070008580A8F102086144091AA4B2B1FBF9F015
:1010800009FB101144EA014100FB0EFE8E4508D910
:101090001CEB010100F1FF346CD28E456AD9023895
:1010A000614440EA0840A0FB0294A1EB0E01A1427A
:1010B000C846A64656D353D05DB1B3EB080261EBE8
:1010C0000E0101FA07F722FA06F3F1401F43C5E9C2
:1010D000007100263146BDE8F087C2F12003D840F8
:1010E0000CFA02FC21FA03F3914001434FEA1C473A
:1010F0001FFA8CFEB3FBF7F007FB10360B0C43EA2C
:10110000064300FB0EF69E4204FA02F408D91CEBDB
:10111000030300F1FF382FD29E422DD902386344D9
:101120009B1B89B2B3FBF7F607FB163341EA034179
:1011300006FB0EF38B4208D91CEB010106F1FF38C8
:1011400016D28B4214D9023E6144C91A46EA0046BF
:1011500038E72E46284605E70646E3E61846F8E651
:101160004B45A9D2B9EB020864EB0C0E0138A3E79A
:101170004646EAE7204694E74046D1E7D0467BE77B
:10118000023B614432E7304609E76444023842E7F3
:10119000704700BF03690A6902610B6170478C46A2
:1011A00051B1096941B10161DCF80C10C160CCF8A2
:1011B00004308CF8002001E00021C160027043601F
:1011C000002383607047034620B1002018619860B7
:1011D000D86070476FF00100704738B504460D467F
:1011E000FFF7F1FF00B9256138BD08B5C3681BB131
:1011F0008068FFF7FAFF08BD8160C860FBE708B5AB
:101200000346C06810B1FFF7FAFF08BDD9608B60D4
:10121000FBE738B543687BB104460D46006958B119
:10122000096949B1984738B12A69824205D0E06816
:1012300040B12946FFF7EDFF38BD29462046FFF7AC
:10124000A9FFF4E7E560AC600023EB60F4E7A0B130
:1012500099B108B543684B6003780B70012B06D039
:10126000022B07D003B108BDFFF7BFFFFBE7FFF775
:10127000C6FFF8E7FFF7CDFFF5E77047D0B1F8B547
:101280000C4616461D46074611B10BB90169A04729
:10129000F86820B12B4632462146FFF7EFFF64B1D4
:1012A000012D01D00020F8BD324639693846A047EB
:1012B0000020F8E76FF0010070470020F3E7E8B185
:1012C000F8B50C4616461D46074629B123B90169F3
:1012D000A047069B984214D0F86820B12B463246AE
:1012E0002146FFF7CBFF74B1012D01D00020F8BDDE
:1012F000324639693846A0470020F8E76FF0010010
:1013000070470020F3E70020F1E7F0B108B503468D
:10131000826862B1C06850B1D0609A688260002271
:101320009A60DA6009B118698847002008BD0AB1DF
:10133000D86830B1002AF5D1DA68002AF2D0134615
:10134000F0E7D0609860D860ECE76FF0010070477C
:101350000249034B0A681A607047000028ED00E05C
:101360006C06002010B582B0002401941349144B80
:101370000A681A60EFF3098393B9EFF309830E4B00
:101380001B68002B0FDB13F0804F0FD10A4B1B683B
:1013900013F0020F01D044F00204204602B010BD49
:1013A000EFF30883EBE74FF00104ECE744F00204AD
:1013B000FFF7CEFF0190E9E7700600202CED00E07A
:1013C0007006002010B44FF0E02254690D4B1B78DA
:1013D00000FB03F34FEA430C9369002104E0E01A99
:1013E00002441144614509D21A464FF0E0239B693B
:1013F0009A42FAD0F3D9D21A1144F3E75DF8044BBC
:10140000704700BF7406002010B504E04FF47A70F6
:10141000FFF7D8FF2046441E0028F7D110BD00007A
:10142000014B1861704700BF78060020014B5861DE
:10143000704700BF78060020014B9861704700BFDD
:10144000780600200000000038B50546204C002337
:101450002377FFF767F802460B461BA1D1E900018D
:10146000FFF704FAFFF7B0FBA060E560FFF75AF85A
:1014700002460B4614A1D1E90001FFF7F7F9044633
:101480000D46144B1868FFF74DF822462B46FFF720
:10149000EDF9FFF799FB0138B0F1807F0AD24FF0E8
:1014A000E02358610C4AF02182F8231000229A614F
:1014B00007221A61042006F0ABF9084806F0B4FBD5
:1014C000012038BDAFF300800000000080842E4171
:1014D000780600200804002000ED00E09C060020B3
:1014E00008B5034B01221A771B6903B1984708BD61
:1014F0007806002000220023C0E9002370478242C2
:1015000073EB010C03D2801A61EB03017047101AD0
:1015100063EB01017047000008B50E4B1B7F012BE8
:1015200001D0002008BD0B4B00225A7798681A683A
:101530005968121841F100011A60596001225A7766
:10154000054B1B6803B19847024B9B6903B1984751
:101550000120E7E77806002098060020014BD3E938
:10156000000170477806002008B54FF47A72002316
:101570000249D1E90001FFF755FC08BD78060020BB
:10158000034A13685168C01841F10001704700BF59
:1015900078060020054B1A685B68904271EB0303E4
:1015A00001D2002070470120704700BF780600205C
:1015B000FEE7000010B590F800C04FEADC020CF026
:1015C000070E0A4B19784FF0010C0CFA02F4214374
:1015D000C9B2197013445A780CFA0EFC42EA0C0294
:1015E000D2B25A70002380F8483010BD20A80020E5
:1015F000007800F0070C0D4B03EBD0035A78012163
:1016000001FA0CF122EA01025A70597861B900B569
:101610004FEAD00E05490B78012202FA0EF223EAB6
:1016200002030B705DF804FB704700BF14A8002094
:10163000007800F0070C0D4B03EBD0035A78012122
:1016400001FA0CF122EA01025A70597861B900B529
:101650004FEAD00E05490B78012202FA0EF223EA76
:1016600002030B705DF804FB704700BF20A8002048
:1016700005484FF0FF010170002080F309880348FE
:10168000016881F30888704722ED00E0F806002029
:10169000034690B1A3B103B1B1B100B518784FF0D2
:1016A000000E0A7800F0070002F00702F6450ED897
:1016B0000ED190420AD30BD909E00029EAD101E00A
:1016C0000029E8D0084670471946FBE71946084646
:1016D0005DF804FB064B1B6823B193F84820D2B297
:1016E000012A00D070479A6D01329A65FAE700BF6F
:1016F000AC06002010B5044603786FF3C5030370F1
:10170000DBB26FF3020303700023436083608381C5
:101710000361C3620363436383630022426403641F
:1017200080F85C300366436600F15C017430FFF7BB
:1017300054FD04F12400FFF7DDFE04F11400FFF76F
:10174000D9FE04F11C00FFF7D5FE052384F84830CC
:1017500010BD0000F8B54FF42052002126480AF0D1
:10176000BDFF264B264A1A60264D2B68264C204684
:10177000984702236370012363605322A26000270D
:101780006773A3736B683A462146384698476B687F
:101790001E4A21460420984718E01D4D04EBC70659
:1017A00055F82600FFF7A6FF55F826200023D3643E
:1017B00055F826104B6555F826100B6545F8263070
:1017C0000134E4B2072CE8D90137FFB2072F01D862
:1017D0000024F7E70F4B00221A705A611A61DA6091
:1017E0000D4B1868FFF786FF0C4B01221A700C4B4B
:1017F000F02283F82220F8BDFC060020F806002025
:10180000F8A60020E8020020C8060020D51600082F
:10181000FCA60020FCA70020AC06002029A8002080
:1018200000ED00E010B50446C26C92008B21406DC3
:101830000AF054FF04F15403E26C02F18042013AD1
:1018400003EB820323F007034FF0807243F8042C6C
:10185000084A22F0010243F8082C074A43F80C2CEE
:10186000002243F8202C6FF0020243F8242C443B62
:10187000236510BDC9190008B115000810B584B062
:101880006846FFF737FE02A8FFF734FEFFF766FE53
:1018900002460B46029003910D49D1E90001FFF782
:1018A0002EFE02460B46CDE900230A4B1C6801348C
:1018B0001C60FFF771FA06EE900A07EE904AF8EE08
:1018C000677A87EEA67A044B83ED007A04B010BDE8
:1018D000F0060020E8060020E406002000B583B0F2
:1018E0006846FFF707FE354B1C680CE0FFF736FE35
:1018F000E06121626062A16212E0022384F8483054
:101900002F4B00221A6094F84830002BFBD1A365BE
:101910002046FFF78DFE2A4B1C60A36B002BE5D001
:10192000012384F84830236920469847A36B01338C
:10193000A363A26D636B9A4200D96263236C134464
:101940002364626AA36AE069216AFFF7D8FD024650
:101950000B46CDE90023256CFFF71EFA06EE900A30
:1019600007EE905AB8EE677AC7EE267AC4ED117A80
:101970009FED147A67EE877AC4ED117AA36D226B1E
:1019800013442363A26B012A01D95B082363A08956
:10199000FFF7F6FD6062A162A56B002DADD0FFF7E9
:1019A000FBF906EE900A07EE905AF8EE677A87EE9A
:1019B000A67ABCEEC77A84ED0B7A9EE7B8060020C3
:1019C000AC0600200000C84208B5094B186800B9F1
:1019D00008BD084A13780133DBB21370064A127847
:1019E000934201D0FFF77AFF044B01221A70F9E706
:1019F000B80600202AA80020FCA700202CA8002060
:101A0000B1B110B50C460B4B1B78DBB2022B01D0E9
:101A1000002010BD91F84830022BF9D1486A896A3C
:101A2000FFF7B8FD0028F3D12046FFF7C3FDEFE72D
:101A30000020704729A8002010B590F800C04FEA98
:101A4000DC020CF0070E0A4B19784FF0010C0CFA6F
:101A500002F42143C9B2197013445A780CFA0EFCEF
:101A600042EA0C02D2B25A70042380F8483010BD0A
:101A700014A80020034B044A92E8030083E8030003
:101A8000704700BFB0060020BC060020144B1B7836
:101A90001BB3134B1A78D2B212498A5C13445B7899
:101AA000DBB2CB5C03EBC2000F4951F8200000B160
:101AB000704710B50A4991F800E04FF0010C0CFA9C
:101AC00002F42EEA040E81F800E00A4451780CFA80
:101AD00003F321EA0303537010BD0020704700BFD9
:101AE00014A8002020070108FCA600200000000028
:101AF000074B19680868B0E8F04F1EF0100F08BFD8
:101B0000B0EC108A80F30988BFF36F8F704700BF75
:101B1000B006002008B5FFF7EBFF08BD000000008D
:101B2000EFF30980BFF36F8FDFF850301A681EF0B3
:101B3000100F08BF20ED108A20E9F04F10602DE94A
:101B400009004FF0500080F31188BFF34F8FBFF3AF
:101B50006F8FFFF78FFF4FF0000080F3118809BCF3
:101B600019680868B0E8F04F1EF0100F08BFB0EC1D
:101B7000108A80F30988BFF36F8F7047B00600208A
:101B8000144B1B781BB3134B1A78D2B212498A5CE0
:101B900013445B78DBB2CB5C03EBC2000F4951F816
:101BA000200000B1704710B50A4991F800E04FF0ED
:101BB000010C0CFA02F42EEA040E81F800E00A444B
:101BC00051780CFA03F321EA0303537010BD00208F
:101BD000704700BF20A8002020070108FCA60020B5
:101BE00002484FF0805101607047000004ED00E0B2
:101BF000524B1B78DBB2022B40F09F8070B5504BEC
:101C00001B78BBB9FFF7BCFF4E4B1860FFF73EFFD8
:101C100004464D4B18604D4B1D6895B1494B1E68ED
:101C2000B5426BD02EB131462846FFF731FD8642D2
:101C30003DD070BD0123002245494648FFF71EFBF9
:101C4000E0E7B8B13F4B1D6875B3A84205D0014627
:101C50002846FFF71DFD84421BD0AC4219D0394BFA
:101C60001A6802F150013C4B1960526D5A60FFF73F
:101C7000B7FFDEE7334B1B6843B103F15001364A2F
:101C800011605B6D5360FFF7ABFFD2E7FFF7F6FD26
:101C9000CFE72046FFF7ACFC2B4B1B68022283F8F2
:101CA0004820284A1360DAE7264B1860D7E7284611
:101CB000FFF7BEFC254B1868FFF7BEFE224B1C68E1
:101CC00034B1204B19682046FFF7E2FC84420AD069
:101CD0001C4B1A6802F150011F4B1960526D5A607B
:101CE000FFF77EFFA5E72046FFF782FC164B1B6837
:101CF000022283F84820134A1360E9E728B101461D
:101D00002846FFF7C5FC84420AD00E4B1A6802F140
:101D10005001114B1960526D5A60FFF761FF88E75F
:101D20002846FFF789FE084C2068FFF743FC054B67
:101D300002221A6022681A60E7E7704729A800208B
:101D40002CA80020B8060020C4060020AC06002005
:101D5000011A000800A80020BC06002000000000B6
:101D60002DE9F84F81460E4615461C46744B1B78EC
:101D700053B104EBC503734A52F8233053B14FF00B
:101D8000010A5046BDE8F88FFFF7E4FC6C4B0122D6
:101D90001A70EEE7882000F0ADF98346694F04EB36
:101DA000C50847F828008246C0F8049057F8283044
:101DB0009E603046FEF7B6FB02460B465EA1D1E9B7
:101DC0000001FEF753FD57F82860FEF7FDFEB081D5
:101DD00057F828300A9A1A6157F82820EB00234355
:101DE000137057F82820002382F85C3057F8282019
:101DF000C2F860B057F82820536657F828300B9A7D
:101E0000DA6457F82860900080B200F073F97065CA
:101E100057F82800436D002B00F08880FFF702FD83
:101E20003E46474656F828304FF00008C3F8588021
:101E300056F8273000225A6456F82730C3F84080FD
:101E4000414B197856F8270090F800C0012202FA99
:101E50000CFC41EAEC01C9B2197090F800C003EB28
:101E6000DC03597802FA0CF202F007020A435A70B6
:101E7000C0F82C8056F82730C3F8308056F8273049
:101E8000C3F8348056F827002430FFF733FB56F8A8
:101E900027001430FFF72EFB56F827001C30FFF701
:101EA00029FB56F82790FFF759FBC9F81400C9F829
:101EB000181056F82730C3F8388056F8273083F8C2
:101EC0003C8056F82700FFF775FB56F82780142052
:101ED00000F010F9C8F8700056F82710086F40B3EA
:101EE000FFF77BF9194B1B78B3B956F82710184B3D
:101EF0000222096F1748FFF752F904EBC504114B92
:101F000053F8240000F15C017430FFF766F90F4AC2
:101F100013780133137034E704EBC503094A52F810
:101F20002330196F0B48FFF792F9E6E74FF0000AEC
:101F300027E74FF0000A24E70000000080842E41CC
:101F40002BA80020FCA6002020A80020FCA7002031
:101F50009116000800A8002010B549F64040FFF790
:101F600073FA0020FFF75CFA0020FFF75FFA1448CD
:101F7000FFF762FAFFF7B4FA124C2046FFF7BAFAFD
:101F8000FFF7ECFAC4E90001FFF7FAFD0E4B186009
:101F900050B100F150020D4B1A60426D5A600C4A6C
:101FA00093E8030082E803000A4B5B6801220A49B8
:101FB00003209847FFF75CFBFFF712FE10BD00BF40
:101FC000F11B0008F0060020B8060020BC06002027
:101FD000B0060020E8020020C8060020014B18705F
:101FE000704700BF29A80020012383F31388BFF3A3
:101FF0004F8F0549CA6802F4E062044B1343CB607B
:10200000BFF34F8F00BFFDE700ED00E00400FA05CD
:10201000154A4FF4803313600023536001219182ED
:1020200003E0124A0021D1540133B3F5803FF8D3C5
:102030000F490E4A0A6000238B800E490E4801604A
:1020400002F57040C0F8F83FA0F8FC3F064B4FF691
:10205000F870D86011604FF6F071D9609180996086
:10206000012283F8202070473CA8002000000010C7
:1020700034A80020F8FF001030A800201B4B00E01F
:102080001B681A688242FBD3002B2DD09A8813FA62
:1020900082F282420BD0828800EB020C19688C45D8
:1020A0000DD01A68026098421ED0186070479A8856
:1020B000818811FA82F292B29A801846EBE710B446
:1020C0001C680B4909688C420CD0196889880A443D
:1020D00082801A6812680260984200D018605DF829
:1020E000044B70470160F7E7704700BF34A8002039
:1020F00030A8002070B5044672B62A4B93F8203001
:1021000093B1002C43D00834A2B214F0030F03D0D3
:1021100022F00302043292B21546224B9B689A4287
:1021200039D821490C6807E0FFF772FF1D4B1E4AA2
:102130001A61E6E721461C46A388934202D223682F
:10214000002BF7D104F07040184B984225D1184B62
:102150001B68A34223D013488369013383610E684F
:10216000083623680B60A388991A082909DC0D4BEF
:102170009A68521B9A605A682A445A600023236066
:1021800006E060198180A280FFF778FFEFE7002664
:1021900062B6304670BD0026FAE70026F8E7002652
:1021A000F6E700BF3CA8002034A800200000001083
:1021B00030A80020D8B108B502460D49CB690133DB
:1021C000CB61083852F8083C03B108BD72B632F84A
:1021D00004CC0B464968A1EB0C01596032F8041C91
:1021E0009A680A449A60FFF749FF62B6EDE77047C4
:1021F0003CA8002002460378302B05D0302B0AD0B3
:10220000302B13D0002014E0417878290AD05829C7
:10221000F4D103200DE05178622905D04229EFD195
:10222000012006E0032004E0012002E0022000E09B
:102230001A46134613F8011B39B152782E2AF7D1EA
:102240005A78002AF4D0042070477047034630388B
:10225000C0B2092810D9A3F16102D2B2052A07D968
:10226000A3F14102D2B2052A05D8373BD8B2704754
:10227000573BD8B2704700207047000003464078B3
:102280005C2800D070479878302837D0FAD374286B
:10229000F8D86228F6D3A0F16203122BF2D801A27B
:1022A00052F823F0F1220008852200088522000858
:1022B0008522000885220008852200088522000862
:1022C0008522000885220008852200088522000852
:1022D00085220008F52200088522000885220008D2
:1022E000852200080123000885220008F922000841
:1022F000082070470A207047092070470020704767
:102300000D20BFE770B506460378222B02D0354674
:10231000002409E00136FAE7681EFFF7AFFF3055E9
:10232000013501350134A4B22B7843B15C2BF3D0D5
:10233000222B01D03355F4E700233355F1E7335511
:10234000304670BD2DE9F843064603782D2B17D093
:102350004FF0010900203044FFF74CFF804602286F
:1023600015D0032816D001280ED000230A27B9F172
:10237000FF3F12D0002213441E440024234610E0E5
:102380004FF0FF390120E6E702231F46EFE7012364
:102390000827ECE702231027E9E70122EBE70136E3
:1023A0000124307858B12E28F9D003FB07F5FFF748
:1023B0004DFF2B1804EB840464000136F1E7B8F1FB
:1023C000040F13D194B107EE903AF8EE677A07EE56
:1023D000104AB8EE477AC7EE876A07EE909AF8EE91
:1023E000E77A67EEA67A17EE900A01E003FB09F0A0
:1023F000BDE8F88310B504460023826D013100F07A
:102400000AFE20B10146204600F0C6FE10BD0020A5
:10241000FCE708B5844608460B78272B0BD02D2BFC
:102420000FD0A3F13002D2B2092A0AD9242B0BD043
:1024300093B9002008BD4A78002AF0D0FFF71EFFAC
:10244000F8E7FFF77FFFF5E74278002AF0D0014672
:102450006046FFF7CFFFEDE7FFF754FFEAE72DE90E
:10246000F0478CB00646894615461F4620220021BB
:1024700004A80AF033F999F8028008F00F08A8457B
:1024800001DA05F1FF3800240CE004F1010A57F8E5
:102490002A103046FFF7BDFF0CAB03EB840444F871
:1024A000200C544605F1FF3CA445EEDCB8F1070FC3
:1024B00049D8DFE808F0040A0F151C242E3AD9F891
:1024C000083098470CB0BDE8F087D9F80830049878
:1024D0009847F7E7D9F80830059904989847F1E745
:1024E000D9F80830069A059904989847EAE7D9F888
:1024F0000840079B069A05990498A047E2E7D9F897
:102500000840089B0093079B069A05990498A047EA
:10251000D8E7D9F80840099B0193089B0093079BD3
:10252000069A05990498A047CCE7D9F808400A9B79
:102530000293099B0193089B0093079B069A0599B8
:102540000498A047BEE74FF0FF30BBE708B5044B47
:1025500098664FF400720349184600F095FD08BDD7
:1025600060A80020CCA800200048704760A8002088
:102570000023042B0BDC1946054A52F8232012B124
:1025800001331BB2F5E7024B43F821007047704757
:10259000D8AA00200246002002E01354013080B285
:1025A0000B5C002BF9D11354704784460023184666
:1025B0001CF803207AB110B4CC5C4CB1A24207D114
:1025C000013080B201339BB21CF80320002AF3D102
:1025D0005DF8044B70477047437803F00F03012BFD
:1025E00005D9072B05D9082B05D8C0687047C068E6
:1025F0007047C0687047C068704730B5002306E078
:102600001A1D00EB82020021516001331BB2072B1F
:10261000F6DD0021C1860B4601250DE002699E46CC
:10262000D41812F803C0BCF1220F15D0BDB924781C
:102630005C2C23D001339BB282899A4225D9002990
:10264000ECD10269D418D25C202A01D0002AE5D14D
:10265000002222700125EDE781F00101E6E7C58E39
:10266000072D09D805F1010CA0F836C0043500EBA0
:1026700085056C600025DAE70025D8E772445278BA
:10268000002AD7D001339BB2D4E730BD10B5044641
:102690000023A0F85430B0F850305BB1B0F852309D
:1026A00053B3013B0E3304EB830321695868FDF7F4
:1026B0008FFD00B3B4F852300E3304EB830321696D
:1026C0005868FFF767FF20B1B4F852300133A4F81F
:1026D0005230B4F8503001339BB2A4F85030052B7F
:1026E00002D90523A4F85030B4F85230042B02D993
:1026F0000023A4F8523010BD0423D3E770B505467B
:1027000000240AE000211170221D05EB82025168AD
:10271000013151600CE00134A4B2EB8EA34216D912
:102720002346221D05EB8202526811782229E9D046
:10273000043305EB83035E683046FDF753FD83B237
:10274000013BF25C222AE6D10022F254E3E770BD9D
:10275000002301E001331BB2042B0ADC064A52F8C5
:1027600023000028F6D090F8602012F0020FF1D07C
:1027700000E00020704700BFD8AA002000B583B059
:102780008DF80710836E01210DF10700984703B003
:102790005DF804FB08B5C3898289934200D308BD64
:1027A0000269591CC181D15CFFF7E8FFF7E7C389D3
:1027B00003B9704710B504460821FFF7DFFFE3892E
:1027C000013BE38110BD38B5856E35B10C46084636
:1027D000FDF708FD81B22046A847002038BD000063
:1027E00010B504460160886850B1037853B1E38E98
:1027F000012B18D9A169FDF7EBFCB0B1002202E072
:10280000012200E0012294F8603062F3000384F8B2
:10281000603009492046FFF7D6FF94F8603013F086
:10282000010F04D110BD0022EDE70122EBE70349BF
:102830002046FFF7C8FFF5E73808010844080108FB
:1028400010B5044690F8603013F0010F19D091B91B
:10285000236859682046FFF7B6FF0C492046FFF76A
:10286000B2FFA16859B12046FFF7ADFF08492046E5
:10287000FFF7A9FF10BD0749FFF7A5FFE8E70649E5
:10288000F1E70649FFF79FFFF4E700BF04090108DD
:102890000809010860090108000901080C0901087C
:1028A00010B50446036899680069FDF791FC68B9A2
:1028B00094F8603043F0010384F860300649204604
:1028C000FFF781FF0023A381E38110BD0349204668
:1028D000FFF779FFF6E700BF44080108280901085F
:1028E00008B5FFF735FF10B10149FFF76CFF08BDD0
:1028F000380801080B7843B14A7802F00F02082A21
:1029000003D00268127813420DD090F8603013F0B3
:10291000010F0BD14B7813F0100F01D0002070473E
:102920004FF0FF3070474FF0FF3070470020704786
:1029300000230B72082304E03032013BDBB2CA549F
:10294000000928B100F00F02092AF5D95732F4E73F
:10295000C3F1080040B27047002304E00E4A302162
:10296000D1540133DBB2082BF8D9437803F00F03BD
:10297000012B05D9072B05D9082B05D840687047CE
:10298000406870474068704710B5034C2146406866
:10299000FFF7CEFF204610BDCCAA002010B4041EC5
:1029A00004DB22460023CB720B2011E06242F9E7E0
:1029B000114B83FB023CD317C3EBAC039C4603EBE8
:1029C0008303A2EB43030138C0B230330B54624699
:1029D000002AEDD1002C0ADB1CB90138C0B230232B
:1029E0000B54C0F10B0040B25DF8044B7047013846
:1029F000C0B22D230B54EFE76766666670B584B0EE
:102A000004460E46184B01AD93E8070085E8070021
:102A100016492046FFF7D7FE29463046FFF7BEFF8E
:102A2000C0F10B0129442046FFF7CDFE1049204696
:102A3000FFF7C9FE002307E004AA1A444FF0300C48
:102A400002F80CCC01331BB20A2BF5DD01A930468C
:102A5000FFF76EFF01A92046FFF7B5FE05492046A6
:102A6000FFF7B1FE04B070BD500901083C09010830
:102A7000480901086009010870B505460E46084678
:102A8000FFF76AFF01462846FFF79DFEC0F11604D6
:102A900024B2002C17DD2D212846FFF76FFE013CE4
:102AA00024B2002CF7D1737803F00F03012B0CD95B
:102AB000072B0FD9082B12D9092B15D80D492846F9
:102AC000FFF781FE05E00424E5E70B492846FFF700
:102AD0007AFE70BD09492846FFF775FEF9E70849F7
:102AE0002846FFF770FEF4E706492846FFF76BFE1D
:102AF000EFE700BF700901085C09010864090108DB
:102B00006809010874090108F8B50646876D0F4980
:102B1000FFF759FE002401E0013424B2B6F85C301E
:102B20009C4211DA07EB04156B7803F00F03012BBD
:102B3000F2D829463046FFF7DDFE0028ECD12946C1
:102B40003046FFF799FFE7E7F8BD00BF7C090108B1
:102B500008B5FFF7FDFD08B1FFF7D6FF08BD00007F
:102B6000F8B50646876D1049FFF72DFE002401E0F9
:102B7000013424B2B6F85C309C4214DA07EB041539
:102B80006B7803F00F030E3303F00F03052BEFD820
:102B900029463046FFF7AEFE0028E9D129463046E7
:102BA000FFF76AFFE4E7F8BD9009010808B5FFF7F1
:102BB000CFFD08B1FFF7D4FF08BD0000F8B5064609
:102BC000876D0F49FFF7FFFD002401E0013424B2B7
:102BD000B6F85C309C4211DA07EB04156B7803F011
:102BE0000F03082BF2D129463046FFF783FE002859
:102BF000ECD129463046FFF73FFFE7E7F8BD00BFBD
:102C0000A009010808B5FFF7A3FD08B1FFF7D6FF3B
:102C100008BD0000F8B50646876D0F49FFF7D3FDE4
:102C2000002401E0013424B2B6F85C309C4211DA91
:102C300007EB04156B7803F00F03092BF2D129463B
:102C40003046FFF757FE0028ECD129463046FFF703
:102C500013FFE7E7F8BD00BFB009010808B5FFF7AB
:102C600077FD08B1FFF7D6FF08BD08B5FFF74CFFA9
:102C700008BD000038B5054604E005492846FFF7C1
:102C8000A2FD21464B1EDCB20029F6D138BD00BFA3
:102C9000C009010838B505468489C389E41A24B2FD
:102CA00005E020212846FFF769FD013C24B2002CF5
:102CB000F7DC297B2846FFF7DDFF38BD10B5044659
:102CC000002919DDB0F95420531EA0F85430B0F893
:102CD0005230B0F850108B4238BF0B4659428A42EE
:102CE00001DCA4F854102046FFF7D4FFB4F95430A7
:102CF00083B9A381E38110BD0029FCDAB0F9543017
:102D000001331BB2A0F85430002BECDD0023A0F8F7
:102D10005430F0E7B4F8522005321A440C4981FBD4
:102D20000231D317C3EB610303EB8303D31A0E33D2
:102D300004EB830359682069FFF72CFCA08100286D
:102D4000D9D0E08121692046FFF73DFDD3E700BFE0
:102D50006766666608B50121FFF7B0FF08BD08B5D4
:102D60004FF0FF31FFF7AAFF08BD00002DE9F84F33
:102D70000546B0F834A0838943B102694FF00008DA
:102D800002F80380876D4446C14624E0FFF76DFFDB
:102D900001212846FFF754FD5EE007EB0818414685
:102DA0002846FFF769FE4046FFF7D6FD80463046CD
:102DB000FFF7D2FD01464046FFF7F7FB824528BFEB
:102DC00082461FFA8AFA1FFA84F809F101091FFAEC
:102DD00089F9013424B2B5F85C309C421EDA07EB65
:102DE000041631462846FFF785FD0028F1D1D5F8B5
:102DF00010B03046FFF7B0FD01465846FFF7D5FB4F
:102E0000AB899842E5D1B9F1000FDCD0B9F1010FDF
:102E1000C3D11A492846FFF7D6FCBEE7B9F1000F27
:102E20001AD0B9F1010F19D02C6907EB08173846F1
:102E3000FFF792FD01462046FFF7ACFBA881B9F1F0
:102E4000010F0FD82A69AB890021D154AB89EB81DE
:102E500029692846FFF7B7FCBDE8F88F2846FFF739
:102E600019FFE1E739462846FFF706FE012128460B
:102E7000FFF7E6FCA5F80CA0E4E700BF6009010835
:102E800070B504468389828E013A934207DAC2897B
:102E9000934210D093424ED99B1A1BB223E026498D
:102EA000FFF791FC01212046FFF7CAFC216920466B
:102EB000FFF789FC3FE00269581CA081D1542269C8
:102EC000A3890020D054E3890133E3812046FFF732
:102ED00055FC30E02069E2891A44851815F8015C38
:102EE0008554013B1BB2002BF4DC2269E389581C9A
:102EF000E081D1542269A38901339BB2A3810021CF
:102F0000D154E689013E36B206E02369995D204638
:102F1000FFF734FC013636B2A589AE42F5DBE38912
:102F2000ED1A2DB205E008212046FFF727FC013DF0
:102F30002DB2002DF7DC70BDC409010838B5044678
:102F4000B1F1FF3F14BF00230123C2890AB901294F
:102F500055D0A089824203D0824205D01BB219E02D
:102F6000B1F1FF3FF8D14AE00129F7D1013AE281FE
:102F7000431E9BB2A38122690021D1540121204626
:102F8000FFF778FE3BE020691A44551E825C4255EB
:102F900001331BB2A089E289851AAB42F3DB013809
:102FA000A081B1F1FF3F06D12269A3890021D1544C
:102FB000B4F90E500DE0013AE28108212046FFF7F6
:102FC000DDFBF1E72369595D2046FFF7D7FB0135AB
:102FD0002DB2A3899D42F5DB20212046FFF7CEFBD1
:102FE000A589E389ED1AADB201352DB205E00821BE
:102FF0002046FFF7C3FB013D2DB2002DF7DC38BDA5
:1030000008B50121FFF79AFF08BD08B54FF0FF3161
:10301000FFF794FF08BD2DE9F04780468A46174622
:103020009946B0F85C60836DD31AC3F30F13F31A9B
:103030009EB2002406E04A46504609F0E1FF00B384
:103040000134A4B2B4421BD207EB041595F801C0B9
:103050000CF00F0CBCF1090FF2D029464046FFF7E7
:1030600049FC0028ECD12846FFF776FC0146B9F16F
:10307000000FE0D15046FDF7ABF80028E0D100E0AA
:1030800000252846BDE8F08710B5044672B6002337
:103090008381C381A0F85430A0F85030A0F852309A
:1030A000036090F8600040F0010084F86000216146
:1030B0001648A0FB022C4FEA9C0CA4F834C009E08F
:1030C00003FB0CC0084403F10E0204EB82025060C3
:1030D00001331BB2042BF3DD0D4AA2650D4B9B1A85
:1030E0001B09A4F85C302046FFF742FA0023A26DCA
:1030F00009492046FFF78FFF01462046FFF770FB86
:1031000001212046FFF79CFB62B610BDABAAAAAA1C
:10311000F005010820070108E809010870B5044618
:103120000D46FFF715FB20B10646012C02D0012CFD
:1031300003DC70BDFFF799FDFBE70023826D696832
:10314000FFF769FF0446D8B110493046FFF73BFB53
:103150002046FFF701FC01463046FFF734FB0C4DDB
:1031600029463046FFF72FFB2046FFF735FA014688
:103170003046FFF728FB29463046FFF724FBD8E707
:1031800004493046FFF71FFBD3E700BFF8090108E9
:10319000600901080C0A010808B54B7803F00F0319
:1031A000023B052B16D8DFE803F003060A0D0D0FCE
:1031B0008B68186808BD8B68B3F90000FAE78B6864
:1031C0001878F7E78868F5E78A68536823B11068CC
:1031D0009847EFE70020EDE70020EBE770B584B0FB
:1031E00004460D46274B93E8070004AB03E90700AC
:1031F00029462046FFF7D0FF064669682046FFF7BC
:10320000E2FA21492046FFF7DEFA6B7803F00F035C
:10321000052B10D001A93046FFF7C0FBC0F10B0110
:1032200001AB19442046FFF7CEFA18492046FFF7B4
:10323000CAFA002315E0164D29462046FFF7C3FAC7
:1032400031462046FFF7BFFA29462046FFF7BBFA72
:1032500011E004AA1A444FF0300C02F80CCC0133F0
:103260001BB20A2BF5DD01A93046FFF761FB01A96E
:103270002046FFF7A8FA07492046FFF7A4FA304690
:1032800004B070BD50090108200A0108480901086E
:10329000240A01086009010870B505460C464B7800
:1032A00013F0400F0AD14B7803F00F03023B052BBC
:1032B00007D8DFE803F00B0E1114191D1249FFF7B0
:1032C00082FA21462846FFF789FF70BDA3681A607D
:1032D000F7E7A3681A80F4E7A3681A70F1E71146CC
:1032E000A068FFF757F9ECE70849FFF76CFAE8E741
:1032F000A3689E68002EE4D0186810B11146B0474C
:10330000DFE71046B047DCE7280A0108440A010855
:1033100070B504460D46FFF71BFA20B3064600239E
:10332000826D2146FFF777FE014660B1437803F0D6
:103330000F030E3303F00F03052B0AD82A4630463D
:10334000FFF7AAFF70BD09493046FFF73CFA00209D
:10335000F8E721463046FFF736FA05493046FFF7D1
:1033600032FA0020EEE70020ECE700BF580A01081F
:10337000680A010870B504460D4690F8603043F0C5
:10338000020380F860304B7813F00F0314D0012B48
:1033900023D04A7802F00F020E3202F00F02052A03
:1033A0002AD9082B2CD0002694F860306FF3410303
:1033B00084F86030304670BDFFF7A0F9AB6804F1C7
:1033C0001401E08E984706466B7813F0200FEBD17E
:1033D00001462046FFF712FBE6E700F11403C28E18
:1033E000FFF73DF806466B7813F0200FDCD101465D
:1033F0002046FFF703FBD7E7FFF7F0FE0026D3E7F1
:10340000FFF7EEF90026CFE708B590F860206FF3DC
:10341000820280F86020FFF733FD08BD83895BB32B
:1034200010B5044602690021D15490F8603013F0C1
:10343000010F1ED0FFF72AF92046FFF7DEF8002320
:10344000E381A381E38EB3B10C492046FFF7BBF9BA
:103450000023A26D61692046FFF7DDFD014618B12A
:103460002046FFF787FF06E005492046FFF7ABF946
:1034700001E0FFF715FA10BD704700BF60090108B1
:103480000C0A010810B50446FFF7C8FF01212046C9
:10349000FFF7D6F910BD0000002965D02DE9F047EF
:1034A00006468A46836B13F47F4F08D113F47F09D5
:1034B0000AD113F07F4F0ED14FF0180808E06FF0DB
:1034C000FF094FF0000803E0DFF8A0904FF0080874
:1034D000B76D00240DE04FF07F494FF01008F7E77B
:1034E000AB680BB1304698470023B36333E0013437
:1034F00024B2B6F85C309C422ADA07EB04156B78EC
:1035000003F00F03092BF2D129463046FFF7F2F9F9
:103510000028ECD16B6803EA0901B26B9142E6D155
:10352000FF2101FA08F10B400AFA08F18B42DED1C3
:103530000A43B263B8F1000FD2D06B68A8F108005B
:10354000FF2202FA00F00342CAD04FF0000ACEE791
:10355000BAF1000F01D1BDE8F0870023B3635146F3
:103560003046FFF751FFF6E7704700BF0000FFFF4E
:1035700038B504460D4662B9D0F81230012098479C
:10358000D4F81A3028469847D4F8123000209847CB
:1035900038BDD0F8123000209847F1E770B50546E5
:1035A0000C4600228D21FFF7E3FF14B9074E0024DB
:1035B00008E0074EFBE70022315D2846FFF7D8FF01
:1035C0000134E4B2012CF6D970BD00BFA018010887
:1035D0009C18010870B5054600260BE00122002169
:1035E0002846FFF7C5FF0134E4B214F0800FF5D090
:1035F0000136F6B2072E12D8A6F150010022C9B248
:103600002846FFF7B5FF002211462846FFF7B0FF16
:10361000002210212846FFF7ABFF0024E5E770BD2C
:103620008020704740207047B0B3F8B50E4607467B
:10363000A1B3002519E003EBC50256F82220125D64
:103640009A401143C9B20133DBB2072BF3D90122EF
:103650003846FFF78DFF0134E4B214F0800F02D139
:1036600000210B46F1E70135EDB2072D12D8A5F187
:1036700050010022C9B23846FFF77AFF00221146F6
:103680003846FFF775FF002210213846FFF770FF1C
:103690000024E2E70120F8BD002070470020FAE78F
:1036A0000120704710B50446D0F81630407998478D
:1036B000D4F80A309847D4F806309847D4F80E303A
:1036C000012098476420FDF79FFED4F80E300020BB
:1036D00098470022AE212046FFF74AFF0022D5215D
:1036E0002046FFF745FF002250212046FFF740FF0C
:1036F0000022A8212046FFF73BFF00223F21204661
:10370000FFF736FF0022D3212046FFF731FF0022CA
:1037100011462046FFF72CFF002240212046FFF7EC
:1037200027FF00228D212046FFF722FF00221421CF
:103730002046FFF71DFF002214212046FFF718FF47
:10374000002220212046FFF713FF002202212046FD
:10375000FFF70EFF0022A0212046FFF709FF0022FD
:10376000C8212046FFF704FF0022DA212046FFF798
:10377000FFFE002212212046FFF7FAFE00228121DF
:103780002046FFF7F5FE0022EF212046FFF7F0FE6E
:103790000022D9212046FFF7EBFE0022F12120462E
:1037A000FFF7E6FE0022DB212046FFF7E1FE0022C4
:1037B00030212046FFF7DCFE0022A4212046FFF73F
:1037C000D7FE0022A6212046FFF7D2FE0022AF211D
:1037D0002046FFF7CDFE2046FFF7FCFE012010BD7E
:1037E00008B5084B187004225A7002225A80012230
:1037F0009A80054AC2F80130044A12681846904778
:1038000008BD00BFECAA002010AB0020B0020020D1
:1038100008B50146034BDB68034AD2F8010098471C
:1038200008BD00BFB002002010AB002070B50A4CEC
:1038300008232360094BA3600223A380002525737E
:10384000074E33682A46294620469847B3682946DA
:103850002046984770BD00BFF4AA0020000C02402B
:10386000CC02002070B50A4C08232360094BA360EA
:103870000123A38000252573074E33682A46294675
:1038800020469847B36829462046984770BD00BF38
:1038900030AB0020000C0240CC02002008B520B163
:1038A0000146012802D0002100E00221024B9B6862
:1038B0000248984708BD00BFCC020020F4AA0020AF
:1038C00008B520B10146012802D0002100E0022104
:1038D000024B9B680248984708BD00BFCC020020FD
:1038E00030AB00200C4B00221A705A710B4AC3F8FF
:1038F00016200B4AC3F81A200A4AC3F806200A4ABF
:10390000C3F80E20094AC3F80A20094AC3F8122056
:103910000120084B1870704710AB0020E1370008F9
:103920001138000865380008C13800082D38000833
:103930009D3800084DAB002008B5084B00221A70D6
:10394000FFF7D0FF38B1064B1B680648984710B107
:10395000024B01221A70014B187808BD4CAB0020B5
:103960000000002010AB002010B5054B1C7824B1DE
:103970000146044B9B6804489847204610BD00BF91
:103980004CAB00200000002010AB002010B582B02E
:103990000B4C636998478DF80000A36998478DF830
:1039A0000100BDF80030ADF8043000209DF804306F
:1039B00063F307009DF8053063F30F2002B010BDDC
:1039C0000000002008B5034B9B680BB1984708BD69
:1039D0000020FCE71C000020014B187701207047F5
:1039E00058AB0020014B58770120704758AB00209E
:1039F0002DE9F04788B04A4B5F7F012F00F08980A6
:103A0000022F00F08A80002F43D0002008B0BDE8CC
:103A1000F087DFF814A1DAF8003053F8248018F8A2
:103A20000560DFF80091D9F80C309847ADF8000038
:103A30009DF80030013B5B1BDAF8002052F824109F
:103A400018F803304B5552F82480D9F80C309847B9
:103A5000ADF804009DF80430013B5B1B08F80360DF
:103A60000134E4B22F4BDB689847ADF808009DF8AD
:103A70000930A342CDD80135EDB22A4BDB68984717
:103A8000ADF80C009DF80C30B5EB530F03D23C465B
:103A9000E8E73D46F1E70120B8E7DFF88C80D8F889
:103AA000009059F825301E5D1E4FFB689847ADF811
:103AB00010009DF81130013B5B1B59F82320D8F80A
:103AC000008058F82530125D1A55FB689847ADF80C
:103AD00014009DF81530013B5B1B58F823301E5530
:103AE0000134E4B20F4BDB689847ADF818009DF83D
:103AF0001830A342D1D80135EDB20A4BDB689847A4
:103B0000ADF81C009DF81D30B5EB530F03D2002417
:103B1000E8E70025F1E7012078E7012076E700BF1C
:103B200058AB00201C0000207CAB002020B1034AD1
:103B30001060D0F8130070470020704750AB002091
:103B4000014B1868704700BF50AB002008B5FFF765
:103B5000F7FFD0F826301B69586808BD08B5FFF795
:103B6000EFFF034608B1D0F80F30184608BD08B57E
:103B7000FFF7E6FF18B1C3781BB9022008BD00208B
:103B8000FCE70120FAE738B505460C46FFF7D8FFF9
:103B900028B18580FFF7D4FFC480012038BD002004
:103BA000FCE7000030B583B0124DEB689847ADF8E4
:103BB00000009DF80040EB689847ADF804009DF8C0
:103BC00005500020A84213D2002305E052F820201F
:103BD0000021D1540133DBB2A34206D2064A126857
:103BE000002AF3D1002003B030BD0130C0B2E9E7B4
:103BF0000120F8E71C0000207CAB0020012383405B
:103C0000024A107818431070704700BF54AB002070
:103C1000014B1878704700BF84000020054B1A78CC
:103C200012F0020F05D1012303FA00F01043014BFB
:103C3000187070478400002001238340024A1078E6
:103C400020EA030010707047840000202DE9F8433B
:103C500081460E461746FFF773FF0446DFF82880BB
:103C6000437A027AB0F90610B0F90400D8F800508F
:103C7000A847D8F804803B4632464946D4F80A00A3
:103C8000C047BDE8F88300BF400200202DE9F0479F
:103C900082B082460E4617469846FFF751FF04460B
:103CA000DFF83490437A027AB0F90610B0F90400D4
:103CB000D9F80050A847D9F81490D4F80A109DF804
:103CC00028300193CDF800803B4632465046C84725
:103CD00002B0BDE8F08700BF400200202DE9F047A8
:103CE00082B082460E4617469846FFF729FF0446E3
:103CF000DFF83490437A027AB0F90610B0F9040084
:103D0000D9F80050A847D9F80C90D4F80A109DF8BB
:103D100028300193CDF800803B4632465046C847D4
:103D200002B0BDE8F08700BF400200202DE9F04757
:103D300082B082460E4617469846FFF701FF0446BA
:103D4000DFF83490437A027AB0F90610B0F9040033
:103D5000D9F80050A847D9F81090D4F80A109DF867
:103D600028300193CDF800803B4632465046C84784
:103D700002B0BDE8F08700BF400200202DE9F04707
:103D800084B082460E4617469846FFF7D9FE044691
:103D9000DFF83890437A027AB0F90610B0F90400DF
:103DA000D9F80050A847D9F82090D4F80A009DF817
:103DB000343002939DF830300193CDF800803B46BB
:103DC00032465146C84704B0BDE8F08740020020A3
:103DD0002DE9F04782B082460E4617469846FFF717
:103DE000AFFE0446DFF83490437A027AB0F9061049
:103DF000B0F90400D9F80050A847D9F82490D4F8B5
:103E00000A009DF828300193CDF800803B463246E9
:103E10005146C84702B0BDE8F08700BF400200200D
:103E20002DE9F04782B082460E4617469846FFF7C6
:103E300087FE0446DFF83490437A027AB0F9061020
:103E4000B0F90400D9F80050A847D9F82890D4F860
:103E50000A009DF828300193CDF800803B46324699
:103E60005146C84702B0BDE8F08700BF40020020BD
:103E70002DE9F04383B081460E461746FFF760FEFA
:103E80000446DFF83480437A027AB0F90610B0F9BC
:103E90000400D8F80050A847D8F80880D4F80A00E1
:103EA0009DF8283001930F2300933B463246494644
:103EB000C04703B0BDE8F083400200202DE9F04781
:103EC00082B082460E4617469846FFF739FE0446F2
:103ED000DFF83490437A027AB0F90610B0F90400A2
:103EE000D9F80050A847D9F80890D4F80A009DF8EE
:103EF0002C300193CDF800803B4632465146C847EE
:103F000002B0BDE8F08700BF400200202DE9F04775
:103F100084B082460E4617469846FFF711FE0446C7
:103F2000DFF84090437A027AB0F90610B0F9040045
:103F3000D9F80050A847D9F81C90D4F80A009DF889
:103F4000383003939DF8343002939DF8303001935C
:103F5000CDF800803B4632465146C84704B0BDE824
:103F6000F08700BF400200202DE9F04784B0824670
:103F70000E4617469846FFF7E3FD0446DFF83890F3
:103F8000437A027AB0F90610B0F90400D9F800506B
:103F9000A847D9F81890D4F80A009DF83430029355
:103FA0009DF830300193CDF800803B4632465146B3
:103FB000C84704B0BDE8F087400200202DE9F04773
:103FC00084B082460E4617469846FFF7B9FD044670
:103FD000DFF83890437A027AB0F90610B0F904009D
:103FE000D9F80050A847D9F83890D4F80A009DF8BD
:103FF000343002939DF830300193CDF800803B4679
:1040000032465146C84704B0BDE8F0874002002060
:104010002DE9F04782B082460E4617469846FFF7D4
:104020008FFD0446DFF83090437A027AB0F906102B
:10403000B0F90400D9F80050A847D9F83090D4F866
:104040000A00CDF804800F2300933B4632465146C8
:10405000C84702B0BDE8F087400200202DE9F047D4
:1040600082B082460E4617469846FFF769FD044621
:10407000DFF83490437A027AB0F90610B0F9040000
:10408000D9F80050A847D9F83090D4F80A009DF824
:1040900028300193CDF800803B4632465146C84750
:1040A00002B0BDE8F08700BF400200202DE9F047D4
:1040B00082B082460E4617469846FFF741FD0446F9
:1040C000DFF83490437A027AB0F90610B0F90400B0
:1040D000D9F80050A847D9F83490D4F80A009DF8D0
:1040E00028300193CDF800803B4632465146C84700
:1040F00002B0BDE8F08700BF4002002008B5FFF71E
:104100001FFD08B1007A08BD0020FCE70048704799
:10411000DC00002038B50546FFF712FDD0F821403D
:104120004CB938BD2C4B9B69C2882A4412B2B0F9F5
:1041300004109847E468002CF3D02369002BF9D0D1
:1041400058681B78062BF5D801A252F823F000BF5F
:10415000254100086D4100087F4100089141000899
:10416000A3410008B5410008C74100081B4B9B68EC
:10417000C2882A4412B2B0F904109847DAE7184B03
:104180009B68C2882A4412B2B0F904109847D1E75C
:10419000144B5B68C2882A4412B2B0F904109847E5
:1041A000C8E7114B9B68C2882A4412B2B0F90410C8
:1041B0009847BFE70D4BDB68C2882A4412B2B0F9BA
:1041C00004109847B6E70A4B5B68C2882A4412B2CB
:1041D000B0F904109847ADE7680100208401002081
:1041E00000020020E0010020C4010020980100200E
:1041F000200200200378062B60D8DFE803F00411CA
:104200001E2B3845520019B1012905D000207047F6
:104210004368B3F9040070474368B3F90600704778
:1042200019B1012905D0002070474368B3F9040093
:1042300070474368B3F90600704719B1012905D0EA
:10424000002070474368B3F9040070474368B3F92E
:104250000600704719B1012905D000207047436856
:10426000B3F9040070474368B3F90600704719B109
:10427000012905D0002070474368B3F90400704756
:104280004368B3F90600704719B1012905D0002031
:1042900070474368B3F9040070474368B3F90600F8
:1042A000704719B1012905D0002070474368B3F960
:1042B000040070474368B3F9060070470020704758
:1042C0002DE9F0410C460546D8B1F5B1FCB100210D
:1042D0002846FFF78FFF074601212846FFF78AFF90
:1042E000064600212046FFF785FF80460121204633
:1042F000FFF780FF86420CDB0ED147450EDC2046DF
:1043000008E00029E1D1084604E0204602E0284602
:1043100000E02846BDE8F0812046FBE72846F9E7A3
:10432000004870478800002088B138B5154604461B
:10433000084B9B680A460121984730B1054B9B68A2
:104340002A4600212046984700B9002038BD0020A9
:10435000704700BF6801002030B110B50346034824
:1043600044681846A04710BD00207047680100202F
:1043700030B110B50346034884691846A04710BD04
:10438000002070476801002070B108B5012905D8E8
:10439000012905D0054A1269904700E0002008BDB8
:1043A000024AD2689047FAE700207047680100206F
:1043B000004870479C00002028B108B5034A5268A5
:1043C0009047012008BD0020704700BF84010020F5
:1043D00028B108B5034AD2689047012008BD0020E3
:1043E000704700BF8401002030B110B50346034878
:1043F00084681846A04710BD002070478401002043
:10440000004870471401002038B110B50346044835
:1044100084681846A047012010BD0020704700BFE7
:104420000002002028B108B5034A526890470120D5
:1044300008BD0020704700BF0002002020B108B571
:10444000024AD268904708BD002070470002002051
:1044500080B108B50346D0F81F2007EE902AFDEE84
:10446000E77A17EE902A10B2D3F80D3023B19847AF
:10447000012008BD002070470120FAE7B8B138B527
:1044800004460E4BDB69A3B10C4A92699AB1984776
:1044900005460A4B9B6980F00101C9B22046984746
:1044A0000DB1012038BD2046FFF7D2FFF9E700200B
:1044B00070470020F6E70020F4E700BF000200206C
:1044C000004870470401002020B108B5024A9268F4
:1044D000904708BD00207047E001002020B108B5DA
:1044E000024AD268904708BD00207047E0010020D2
:1044F00030B110B50346034844681846A04710BDC4
:1045000000207047E001002000487047C8000020EC
:1045100050B110B582B084460448446804980090B5
:104520006046A04702B010BD00207047C4010020C3
:1045300030B110B50346034884681846A04710BD43
:1045400000207047C401002020B108B5024A12695A
:10455000904708BD00207047C401002070B138B5F5
:104560000C460546064B5B69984728B1044BDB684F
:1045700021462846984738BD0020FCE700207047B8
:10458000C401002000487047AC00002020B108B5ED
:10459000024A9269904708BD0020704798010020A8
:1045A00058B110B582B094461A46054B5C68049B1E
:1045B00000936346A04702B010BD0020704700BFC3
:1045C0009801002030B110B50346034884681846AE
:1045D000A04710BD002070479801002030B110B5F1
:1045E00003460348C4681846A04710BD0020704722
:1045F0009801002020B108B5024A126A904708BD10
:10460000002070479801002030B110B503460348E0
:10461000446A1846A04710BD00207047980100204A
:10462000004870472C01002030B110B50346034804
:1046300044681846A04710BD0020704720020020A3
:1046400020B108B5024A9268904708BD0020704723
:104650002002002020B108B5024AD268904708BD68
:10466000002070472002002030B110B503460348F7
:1046700004691846A04710BD0020704720020020A2
:1046800008B5FFF7C5FA10F0100F17D00220FFF79A
:10469000C5FA3B4B00221A7010E03A4B1B68984752
:1046A00030B30020FFF7C8FA0220FFF7B7FA344A08
:1046B00013780133DBB21370052B59D0FFF7A8FA3A
:1046C0000346002859D02E4A1278134113F0010FE7
:1046D000EDD0042A52D801A353F822F09B460008DB
:1046E0007D470008FF4600081B470008794700087F
:1046F0000020FFF783FA0120FFF790FAD7E7FFF7D2
:1047000051FA30B10220FFF797FA0320FFF786FA3B
:10471000CDE70120FFF782FAC9E71B4B5B7A002B3C
:10472000C5D0194B1B78E3B100231A461749164828
:104730008069FCF7A3FD68B9FFF75AF9114B5B6874
:10474000134A106898470320FFF776FA0420FFF712
:1047500065FAACE70120FFF751FA0120FFF75EFA96
:10476000A5E70220FFF74AFA0120FFF757FA9EE774
:10477000134600221A70A1E7012008BD0020FCE7C3
:1047800078AB00201C00002058AB002095470008A3
:104790007CAB00202DE9F04186B00C46B1F9043025
:1047A000B3B9B1F906309BB90D7A354BDB68984740
:1047B000ADF804009DF804309D4209D3657A304B72
:1047C000DB689847ADF808009DF809309D422FD26C
:1047D000B4F90650EDB249E02A4F3B6853F8258002
:1047E000274EF3689847ADF80C009DF80C20002187
:1047F000404607F065FF3B6853F82570D4F80A304F
:1048000053F82580F3689847ADF810009DF8102004
:104810004146384607F054FF0135EDB2184BDB68CE
:104820009847ADF814009DF81530AB42D4D823E07A
:104830000025F3E7134B1E6856F82500B4F9043041
:10484000227A0021184407F049FF56F82560B4F990
:104850000400D4F80A10B4F90630EB1A227A51F8A1
:104860002310304407F02CFF0135EDB2B4F90630C7
:10487000627A13449D42DDDB002006B0BDE8F08182
:104880001C0000207CAB002010B5FFF759F990B157
:10489000002409E0D0F80A30027A002153F82400FD
:1048A00007F01CFF0134E4B2FFF74AF9437AA34250
:1048B000F0D8012010BD0020FCE7000008B5FCF78F
:1048C00053FE054B5B68C31A312B03D9024B58606A
:1048D000012008BD0020FCE758AB0020002832D0A2
:1048E000F8B5054603680BB90020F8BD5E7A1F7A5B
:1048F000D3F81D00FDF75EFC2B68D3F80A00FDF726
:1049000059FC002408E02B68D3F80A3053F824003F
:10491000FDF750FC0134E4B2B442F4D307FB06F6D1
:104920000A4B1A6932441A61D9688E1BDE605B69D2
:104930009A4201D90020D8E72868FDF73BFC002304
:104940002B600120D1E70020704700BF58AB00204A
:1049500008B90020704770B50C460546D0F81760BE
:104960003046FBF73FFC02460021304607F0B6FE1A
:10497000C5F81740012070BD08B90020704770B518
:104980000446B0F9065002F0C5F8854219DBB4F9C7
:104990000430002B15DBB4F90660FFF7D1F8457A37
:1049A00002F0B8F82D1AAE4215DAB4F90450FFF748
:1049B000C7F8037A9D420EDA0C4B5B692046984794
:1049C00004E0FFF7C3F8A04201D0012070BD0A2027
:1049D000FFF7A0FBF9E7FFF7B9F8A04201D00020EC
:1049E000F4E76FF00900FFF795FBF8E76801002096
:1049F00008B90020704770B50446B0F9065002F0BF
:104A000089F8854219DBB4F90430002B15DBB4F9C1
:104A10000660FFF795F8457A02F07CF82D1AAE4251
:104A200015DAB4F90450FFF78BF8037A9D420EDAD9
:104A30000C4B1B692046984704E0FFF787F8A0421B
:104A400001D0012070BD0A20FFF764FBF9E7FFF7F2
:104A50007DF8A04201D00020F4E76FF00900FFF7D5
:104A600059FBF8E78401002008B90020704770B5B1
:104A70000446B0F9065002F04DF8854219DBB4F94E
:104A80000430002B15DBB4F90660FFF759F8457ABE
:104A900002F040F82D1AAE4215DAB4F90450FFF7CF
:104AA0004FF8037A9D420EDA0C4B5B69204698471B
:104AB00004E0FFF74BF8A04201D0012070BD0A20AE
:104AC000FFF728FBF9E7FFF741F8A04201D00020EB
:104AD000F4E76FF00900FFF71DFBF8E70002002084
:104AE00008B90020704770B50446B0F9065002F0CE
:104AF00011F8854203DBB4F90430002B15DA94F881
:104B00002330012B09D0022B0BD00BB1012003E085
:104B10001420FFF7FFFA012070BD1420FFF7FAFA06
:104B2000F9E71420FFF7F6FAF5E7B4F90660FFF7A6
:104B300007F8457A01F0EEFF2D1AAE4206DAB4F915
:104B40000450FEF7FDFF037A9D421CDBFEF7FEFFDB
:104B5000A0420CD194F82330012B0AD0022B0DD0A7
:104B60000BB10020D8E76FF01300FFF7D3FA002055
:104B7000D2E76FF01300FFF7CDFAF8E76FF01300FC
:104B8000FFF7C8FAF3E7024B1B6920469847C3E7D3
:104B9000E001002008B90020704770B50446B0F964
:104BA000065001F0B7FF854219DBB4F90430002B41
:104BB00015DBB4F90660FEF7C3FF457A01F0AAFFE2
:104BC0002D1AAE4215DCB4F90450FEF7B9FF037A92
:104BD0009D420EDA0C4B9B692046984704E0FEF795
:104BE000B5FFA04201D0012070BD0A20FFF792FA64
:104BF000F9E7FEF7ABFFA04201D00020F4E76FF029
:104C00000900FFF787FAF8E7C401002008B900207F
:104C1000704770B50446B0F9065001F07BFF85423D
:104C200019DBB4F90430002B15DBB4F90660FEF78C
:104C300087FF457A01F06EFF2D1AAE4215DCB4F9FC
:104C40000450FEF77DFF037A9D420EDA0C4B9B6AFF
:104C50002046984704E0FEF779FFA04201D00120EA
:104C600070BD0A20FFF756FAF9E7FEF76FFFA04282
:104C700001D00020F4E76FF00900FFF74BFAF8E7E6
:104C80009801002008B90020704770B50446B0F9BB
:104C9000065001F03FFF854219DBB4F90430002BC8
:104CA00015DBB4F90660FEF74BFF457A01F032FFE1
:104CB0002D1AAE4215DCB4F90450FEF741FF037A19
:104CC0009D420EDA0C4B9B692046984704E0FEF7A4
:104CD0003DFFA04201D0012070BD0A20FFF71AFA63
:104CE000F9E7FEF733FFA04201D00020F4E76FF0B0
:104CF0000900FFF70FFAF8E72002002038B308B5E3
:104D0000036933B31A78062A25D8DFE802F00408CD
:104D10000C1014181C005868FFF72EFE1AE0586893
:104D2000FFF766FE16E05868FFF79EFE12E058682F
:104D3000FFF7D6FE0EE05868FFF72CFF0AE0586830
:104D4000FFF764FF06E05868FFF79CFF02E00020D1
:104D50007047002008BD0020FCE700002DE9F0416D
:104D6000074688460820FDF7C5F905461420FDF7DB
:104D7000C1F90646FEF7E4FE17B304461EB325B399
:104D800028B36F6085F8008029463046FCF725FA85
:104D9000D4F8210058B13146FCF759FAD4F8213043
:104DA000C4F82630237F01332377012009E0C4F8BB
:104DB0002160084B022200213046FCF7F0F9EDE7B4
:104DC0000020BDE8F0810020FBE70020F9E700208B
:104DD000F7E700BFC14200082DE9F04104460E4646
:104DE00015462220FDF786F968B107460C4BD3F82B
:104DF000008001F08FFE15FA80F31BB23246214687
:104E00003846C04718B900242046BDE8F0813C462A
:104E100006213846FFF7A2FF0028F5D1F3E700BFCF
:104E2000200200202DE9F04383B004460D46904651
:104E30001E464420FDF75EF970B107460D4BD3F8CE
:104E4000009001F067FE18FA80F0009603B22A463F
:104E500021463846C84720B90024204603B0BDE8A3
:104E6000F0833C4605213846FFF778FF0028F4D14F
:104E7000F2E700BF980100202DE9F04104460E46FC
:104E800015461620FDF736F968B107460C4BD3F8E6
:104E9000008001F03FFE15FA80F31BB23246214636
:104EA0003846C04718B900242046BDE8F0813C468A
:104EB00004213846FFF752FF0028F5D1F3E700BF81
:104EC000C40100202DE9F04385B006460D46174683
:104ED0001C462820FDF70EF9B0B18046114BD3F8DF
:104EE000009001F017FE14FA80F40E9B03930D9BC3
:104EF00002939DF83030019324B200943B46324631
:104F000029464046C84720B90024204605B0BDE8E0
:104F1000F083444603214046FFF720FF0028F4D1E8
:104F2000F2E700BFE00100202DE9F04387B006461C
:104F30000F4614461D462820FDF7DCF8D8B1804600
:104F4000134BD3F8009001F0E5FD14FA80F4BDF99D
:104F500044300493BDF940300393BDF93C300293D3
:104F6000BDF93830019324B200943B4632462946BD
:104F70004046C84720B90024204607B0BDE8F0836A
:104F8000444602214046FFF7E9FE0028F4D1F2E74B
:104F9000000200202DE9F04383B004460D46904600
:104FA0001E461120FDF7A6F870B107460D4BD3F849
:104FB000009001F0AFFD18FA80F0009603B22A4687
:104FC00021463846C84720B90024204603B0BDE832
:104FD000F0833C4601213846FFF7C0FE0028F4D19B
:104FE000F2E700BF840100202DE9F04784B00446B9
:104FF0000D46914698462120FDF77CF828B10646DB
:1050000007460021FFF7AAFE20B90027384604B062
:10501000BDE8F0870C4BD3F800A001F07BFD19FA36
:1050200080F09DF8383003939DF8343002939DF85A
:1050300030300193CDF8008003B22A462146304635
:10504000D0470028E2D1E0E76801002010B582B027
:10505000FEF776FD002841D003782BBBFEF770FDEC
:10506000D0F817100123009300231A460820FEF7FA
:105070005DFEFEF765FD0346C07898B90122DA703F
:10508000174B9C69D4B1FEF75BFDD0F81D1020468C
:10509000FCF7DDF80220FEF7C1FD114A1378013359
:1050A0001370012002B010BD437A027A01210191F0
:1050B000009100210846FEF757FFCFE7FEF740FDBD
:1050C000D0F81D40064B9C61FEF73AFD00230122FB
:1050D000D0F81D102046FCF762F8DBE70020E1E77E
:1050E00058AB002000B583B0FEF72AFDD0F82100B0
:1050F0000022009213460349FCF7E1F803B05DF883
:1051000004FB00BFFD4C000838B50446FEF718FD4F
:10511000D0F8262094F90010002A00F09680054669
:10512000D0F82630002B00F09280037FDBB299424A
:1051300001DD037F237094F90030002B09DD94F921
:105140000030002B07DDD16829B1D268013B237004
:10515000F5E7002B10DBC5F82620D5F826301B69B3
:105160001B78062B1AD8DFE803F00F26324A3E568A
:10517000620092680133237094F90030002BEADA60
:1051800091680029F5D1E6E7D5F826301B695B6800
:10519000B3F9064001F0BEFC84425ADBD5F8263054
:1051A000186901F0DFFC002855D0431EDBB2012B4B
:1051B00049D8012038BDD5F826301B695B68B3F9A2
:1051C000064001F0A7FC8442E8DA0120F2E7D5F8B6
:1051D00026301B695B68B3F9064001F09BFC8442F2
:1051E000DCDA0120E6E7D5F826301B695B68B3F905
:1051F000064001F08FFC8442D0DA0120DAE7D5F8CE
:1052000026301B695B68B3F9064001F083FC8442D9
:10521000C4DA0120CEE7D5F826301B695B68B3F904
:10522000064001F077FC8442B8DA0120C2E7D5F8E5
:1052300026301B695B68B3F9064001F06BFC8442C1
:10524000ACDA0120B6E70020B4E70020B2E7002086
:10525000B0E70120AEE70020ACE7000010B5FEF794
:105260006FFCC8B10E4A1278012A17D9C47814B954
:105270000124204610BD0021D0F81D00FCF745F8A0
:105280000220FEF7CBFCFEF75BFC0023C370044A50
:105290001378013B1370ECE70024EAE70024E8E709
:1052A00058AB002010B58AB00E4803694269016B03
:1052B000846B0894446B07940691C16A059104922B
:1052C00003938368029343680193C36900938369DE
:1052D000426A816A006801F023FC034801F03CFC4B
:1052E0000AB010BD48000020FD4000082DE9F04F35
:1052F00087B08246894617469846654B5E69002E00
:105300004DD1644CE3689847ADF800009DF801501A
:10531000E3689847ADF804009DF8043005FB03F3FB
:105320005B4A536103EB830353611361E36898475E
:10533000ADF808009DF809008000FCF7DBFE564B35
:105340001860002848D00024524BDB689847ADF81D
:1053500014009DF81530A3421FD94E4BDB689847C7
:10536000ADF80C004C4DD5F800B09DF80C00FCF7E2
:10537000C1FE4BF824002B6853F8245065B3454B0D
:10538000DB689847ADF810009DF8102000212846F2
:1053900007F0A4F90134E4B2D6E7FFF783FF2E202B
:1053A000FCF7A8FE064600286AD0A0F804A0A0F8E2
:1053B0000690077280F80980002380F825300122CA
:1053C00042708370109BC0F81730314B1B6907FB8C
:1053D00008F94B4504D20026304607B0BDE8F08FEF
:1053E0004FEA8800FCF786FEC6F80A00002849D07C
:1053F0000024444513D2D6F80A503846FCF77AFE0A
:1054000045F82400D6F80A3053F8240000283BD091
:105410003A46002107F062F90134E4B2E9E71C4B97
:105420001A69A2EB09021A61DA684A44DA605A7A08
:1054300001325A72194BC6F80F30194BC6F81330A7
:105440001420FCF757FEC6F81D00F8B13146FBF7F3
:10545000C4FE9DF8443033700023F370337786F830
:10546000263086F8273086F8283086F82930042040
:10547000FCF740FEC6F82A000028ADD10026ABE7B5
:105480000026A9E70026A7E70026A5E70026A3E750
:1054900058AB00201C0000207CAB002048000020FE
:1054A0002C0000202DE9F8431E46164B9B682BB3B9
:1054B00005460F469046144B1B680BB38146984730
:1054C000854212DD012017E00134E4B2B4420AD271
:1054D00015F0010FF8D00B4B9B68E119012209B2BE
:1054E00028469847F0E701352DB208EB09039D42A5
:1054F00001DA0024EAE70120BDE8F8830020FBE799
:105500000020F9E780AB0020B4AB0020016082806E
:10551000C380002303724372704718B18180C28038
:10552000012070470020704710B59DF814C0C8B125
:10553000044680F80CC080F80DC09DF81000A073E0
:105540002046FFF7E3FF9DF80830E3779DF80C3025
:1055500084F82030044BC4F81730044BC4F81B30D7
:10556000012010BD0020FCE7A4180108A8180108BC
:1055700048B1012903D0C0F81B2001207047C0F8B2
:105580001720012070470020704750B1012904D036
:1055900049B9C0F8132001207047C0F80F2001203E
:1055A00070470020704700207047F0B108B50346EF
:1055B000827B012A06D0D2B9027B417B8A420AD083
:1055C000012008BD427B12B901205873F9E700227F
:1055D00042730120F5E7B2FA82F252094273D0F821
:1055E0000F3033B198470120EBE7002070470020CF
:1055F000E7E70120E5E770B108B5827B012A0CD00E
:10560000027B417B8A420AD04273D0F8133043B107
:105610009847012008BD002070470120FAE70120CB
:10562000F8E70120F6E728B108B512B209B2FFF792
:1056300074FF08BD00207047002873D070B584B097
:105640000446837B012B2FD03F4B1B68002B6DD072
:105650003D4B1D6B002D6CD05E69002E6BD0637BC3
:10566000012B32D00123029301930323009394F87A
:105670002030E27FB4F90610B4F90400B047A37BF0
:10568000012B3ED0D4F8171000295AD02E4B1E689B
:10569000A288053201250095B4F9063012B22B48D4
:1056A0000078B047284642E0437B012B07D0002B0F
:1056B0003AD1D0F81330002BC6D09847C4E7D0F8C1
:1056C0000F30002BC0D09847BEE70193032300930F
:1056D00094F82030E27FB4F90610B4F90400A8472A
:1056E000D4F8171049B3184B1E68A288053201255B
:1056F0000095B4F9063012B214480078B047284635
:1057000015E0D4F81B10D1B10F4B1E68A2880932E6
:1057100001250095B4F9063012B20C480078B04764
:10572000284604E000207047002000E0002004B07C
:1057300070BD0020FBE70020F9E70120F7E701201A
:10574000F5E70120F3E700BF80AB00203C0200201A
:1057500068B110B50446FFF7D9FE9DF808302374F0
:10576000002323736373A373E373012010BD002030
:10577000704710B1C160012070470020704718B118
:1057800008B5FFF7CAFE08BD0020704750B108B544
:105790000346007C80F001001874DB6823B1984751
:1057A000012008BD002070470120FAE72DE9F843E9
:1057B000BDF92440BDF92850BDF92C60BDF93080F9
:1057C000002849D094461A460746AC4246DDB54209
:1057D00047DCB44247DB012901D900203FE00173D7
:1057E0004FF0000980F82390BDF920306146FFF7A3
:1057F0008DFE07EE904AF8EEE77A17EE903AC7F87A
:10580000153007EE905AF8EEE77A17EE903AC7F89F
:105810001130A7F81D80641B07EE908AB8EEE77A76
:1058200007EE904AF8EEE77AC7EE877A17EE903ADD
:10583000C7F8193007EE906AF8EEE77A17EE906A2B
:10584000C7F81F6087F8249087F8259087F826907E
:1058500087F82790012002E0002000E00020BDE84A
:10586000F8830020FBE70020F9E718B108B5FFF73F
:1058700054FE08BD0020704718B1C0F80D1001207B
:10588000704700207047034690B399B3D0F81F20AB
:10589000B1F9000007EE900AD3F81900B8EEE77AE4
:1058A00007EE900A67EE277A07EE102A77EE277A3E
:1058B000D3F8152007EE102AB4EEE77AF1EE10FACD
:1058C00005D8C3F81F2000230B8001207047D3F8B0
:1058D000112007EE102AB4EEE77AF1EE10FA02DB9F
:1058E000C3F81F20EFE717EE902AC3F81F20EAE75E
:1058F000002070470020704778B108B5D0F80D201F
:105900006AB1D0F81F3007EE903AFDEEE77A17EE55
:10591000903A18B29047012008BD0020704701203E
:10592000FAE710B1012280F82320704710B190F8F7
:105930002300704700207047F8B5089F099DB0B359
:105940000E4611461A460446AF4201DD0020F8BD5E
:10595000BDF91830FFF7DAFD9DF81C3084F82030CF
:10596000144B1B780C2B1ED0102B1CD0082B03D0F3
:105970009A1D84F8212002E09A1D84F82120063324
:1059800084F82130002323776377A377E377656179
:105990002761ED1BA5610022E26084F8236084F892
:1059A00024300120D3E79A1D84F82120E7E7002066
:1059B000CDE700BF3C02002050B1012904D90022EC
:1059C00080F824200120704780F8241001207047BF
:1059D00000207047F0B110B4034642690069141A00
:1059E00007EE104A8A420FDCDA6107EE901AF8EEF1
:1059F000E77AB8EEC77AC7EE877A17EE902ADA60B0
:105A000001205DF8044B7047884201DBD861ECE768
:105A1000D961EAE70020704728B108B512B209B28F
:105A2000FFF77BFD08BD0020704700002DE9F04F17
:105A30002DED028B85B00769836903EBD37307EB08
:105A40006303002800F00C8104461FB290F8206028
:105A500016F0010F02D10136F6B200E00026A5884B
:105A6000EA1C824BD3F80080814B1878E3881B1A1C
:105A70009BB2043B4FF00109CDF800901BB212B26B
:105A80002168C04705351FFA85F82DB2E1884944E1
:105A90004B4694F8202009B22846FFF703FD94F8FE
:105AA0002430002B49D1E36907EE103AB8EEC77AEB
:105AB000A36907EE903AF8EEE77A87EE278A6B4FF4
:105AC000E1880139CDF800904B46042209B22846FE
:105AD0003E69B04794F8203007EE903AF8EEE77A46
