:020000040800F2
:1000000000000220999E0008659700086997000883
:100010007D97000881970008859700080000000080
:1000200000000000000000000000000089970008A8
:100030008D9700080000000091970008B597000810
:10004000E99E0008E99E0008E99E0008E99E000874
:10005000E99E0008E99E0008E99E0008E99E000864
:10006000E99E0008E99E0008E99E0008E99E000854
:10007000E99E0008E99E00088D740008E99E0008CA
:10008000E99E000875740008E99E0008E99E0008D2
:10009000E99E0008E99E0008E99E0008E99E000824
:1000A000E99E0008E99E0008E99E0008E99E000814
:1000B00091730008AD730008C9730008E99E000839
:1000C000E99E0008E99E0008E99E0008E99E0008F4
:1000D000E99E0008616A00080D6B0008B96B000812
:1000E000E99E0008E99E000851790008E99E000891
:1000F000E99E0008E99E0008E99E0008E99E0008C4
:10010000E99E0008E99E0008E99E0008E99E0008B3
:10011000E99E0008E99E0008E99E0008E99E0008A3
:10012000E99E0008E99E0008E99E0008E99E000893
:10013000E99E00080000000000000000E99E0008A1
:10014000E99E0008E99E0008E99E00085D79000824
:10015000E99E0008E99E0008A5740008396C0008B3
:10016000E99E0008E99E0008E99E0008E99E000853
:10017000E99E0008E99E0008000000000000000061
:08018000E99E0008E99E000859
:1001900010B5054C237833B9044B13B10448AFF3C1
:1001A00000800123237010BDD8040020000000004F
:1001B0007CC00008084B10B51BB108490848AFF3D4
:1001C00000800848036803B910BD074B002BFBD023
:1001D000BDE81040184700BF00000000DC0400200C
:1001E0007CC00008D40400200000000010F8012B9F
:1001F00011F8013B012A28BF9A42F7D0D01A704764
:10020000034613F8012B002AFBD1181A0138704756
:1002100001F0FF01102A2BDB10F0070F08D010F8B7
:10022000013B013A8B422DD010F0070F42B3F6D1BB
:10023000F0B441EA012141EA014122F007047FF0D4
:1002400000070023F0E80256083C85EA010586EA2B
:10025000010685FA47F5A3FA87F586FA47F6A5FA67
:1002600087F68EB9EED1F0BC01F0FF0102F0070273
:1002700032B110F8013B013A83EA010313B1F8D11E
:100280000020704701387047002D06BF35460338FF
:10029000073815F0010F07D1013015F4807F02BF38
:1002A000013015F4C03F0130F0BC0138704700BF89
:1002B00081F0004102E000BF83F0004330B54FEA17
:1002C00041044FEA430594EA050F08BF90EA020F84
:1002D0001FBF54EA000C55EA020C7FEA645C7FEA17
:1002E000655C00F0E2804FEA5454D4EB5555B8BF3A
:1002F0006D420CDD2C4480EA020281EA030382EAAB
:10030000000083EA010180EA020281EA0303362D3C
:1003100088BF30BD11F0004F4FEA01314FF4801C0F
:100320004CEA113102D0404261EB410113F0004F21
:100330004FEA03334CEA133302D0524263EB4303D8
:1003400094EA050F00F0A780A4F10104D5F1200E76
:100350000DDB02FA0EFC22FA05F2801841F10001D1
:1003600003FA0EF2801843FA05F359410EE0A5F1A5
:1003700020050EF1200E012A03FA0EFC28BF4CF0D6
:10038000020C43FA05F3C01851EBE37101F000458C
:1003900007D54FF0000EDCF1000C7EEB00006EEB99
:1003A0000101B1F5801F1BD3B1F5001F0CD3490823
:1003B0005FEA30004FEA3C0C04F101044FEA44527A
:1003C00012F5800F80F09A80BCF1004F08BF5FEA01
:1003D000500C50F1000041EB045141EA050130BDE1
:1003E0005FEA4C0C404141EB010111F4801FA4F184
:1003F0000104E9D191F0000F04BF01460020B1FAD9
:1004000081F308BF2033A3F10B03B3F120020CDA10
:100410000C3208DD02F1140CC2F10C0201FA0CF0EE
:1004200021FA02F10CE002F11402D8BFC2F1200C53
:1004300001FA02F120FA0CFCDCBF41EA0C01904009
:10044000E41AA2BF01EB0451294330BD6FEA040452
:100450001F3C1CDA0C340EDC04F11404C4F120023D
:1004600020FA04F001FA02F340EA030021FA04F34F
:1004700045EA030130BDC4F10C04C4F1200220FAA6
:1004800002F001FA04F340EA0300294630BD21FAE4
:1004900004F0294630BD94F0000F83F4801306BFAA
:1004A00081F480110134013D4EE77FEA645C18BF9E
:1004B0007FEA655C29D094EA050F08BF90EA020F35
:1004C00005D054EA000C04BF1946104630BD91EA2D
:1004D000030F1EBF0021002030BD5FEA545C05D130
:1004E0004000494128BF41F0004130BD14F580046F
:1004F0003CBF01F5801130BD01F0004545F0FE41E3
:1005000041F470014FF0000030BD7FEA645C1ABF17
:10051000194610467FEA655C1CBF0B46024650EA4E
:10052000013406BF52EA033591EA030F41F400217A
:1005300030BD00BF90F0000F04BF0021704730B500
:100540004FF4806404F132044FF000054FF00001D5
:1005500050E700BF90F0000F04BF0021704730B596
:100560004FF4806404F1320410F0004548BF40426B
:100570004FF000013EE700BF42004FEAE2014FEAC0
:1005800031014FEA02701FBF12F07F4393F07F4F9B
:1005900081F06051704792F0000F14BF93F07F4FCD
:1005A000704730B54FF4607401F0004521F0004110
:1005B00020E700BF50EA010208BF704730B54FF096
:1005C00000050AE050EA010208BF704730B511F09B
:1005D000004502D5404261EB41014FF4806404F1D3
:1005E00032045FEA915C3FF4DCAE4FF003025FEA55
:1005F000DC0C18BF03325FEADC0C18BF033202EBDD
:10060000DC02C2F1200300FA03FC20FA02F001FA36
:1006100003FE40EA0E0021FA02F11444C1E600BFD5
:1006200070B54FF0FF0C4CF4E06C1CEA11541DBF88
:100630001CEA135594EA0C0F95EA0C0F00F0DEF853
:100640002C4481EA030621EA4C5123EA4C5350EA38
:10065000013518BF52EA033541F4801143F4801389
:1006600038D0A0FB02CE4FF00005E1FB02E506F01A
:100670000042E0FB03E54FF00006E1FB03569CF06F
:10068000000F18BF4EF0010EA4F1FF04B6F5007F75
:1006900064F5407404D25FEA4E0E6D4146EB0606E7
:1006A00042EAC62141EA55514FEAC52040EA5E5070
:1006B0004FEACE2EB4F1FD0C88BFBCF5E06F1ED81A
:1006C000BEF1004F08BF5FEA500E50F1000041EB51
:1006D000045170BD06F0004646EA010140EA0200FE
:1006E00081EA0301B4EB5C04C2BFD4EB0C0541EA20
:1006F000045170BD41F480114FF0000E013C00F335
:10070000AB8014F1360FDEBF002001F0004170BD58
:10071000C4F10004203C35DA0C341BDC04F1140471
:10072000C4F1200500FA05F320FA04F001FA05F2FD
:1007300040EA020001F0004221F0004110EBD370CA
:1007400021FA04F642EB06015EEA430E08BF20EAF6
:10075000D37070BDC4F10C04C4F1200500FA04F399
:1007600020FA05F001FA04F240EA020001F000412B
:1007700010EBD37041F100015EEA430E08BF20EA9E
:10078000D37070BDC4F1200500FA05F24EEA020EE6
:1007900020FA04F301FA05F243EA020321FA04F015
:1007A00001F0004121FA04F220EA020000EBD370CC
:1007B0005EEA430E08BF20EAD37070BD94F0000FCC
:1007C0000FD101F00046400041EB010111F4801F00
:1007D00008BF013CF7D041EA060195F0000F18BFB1
:1007E000704703F00046520043EB030313F4801FED
:1007F00008BF013DF7D043EA0603704794EA0C0FA7
:100800000CEA135518BF95EA0C0F0CD050EA4106BC
:1008100018BF52EA4306D1D181EA030101F0004139
:100820004FF0000070BD50EA410606BF1046194661
:1008300052EA430619D094EA0C0F02D150EA01366D
:1008400013D195EA0C0F05D152EA03361CBF1046AE
:1008500019460AD181EA030101F0004141F0FE414D
:1008600041F470014FF0000070BD41F0FE4141F4D1
:10087000780170BD70B54FF0FF0C4CF4E06C1CEAD1
:1008800011541DBF1CEA135594EA0C0F95EA0C0F86
:1008900000F0A7F8A4EB050481EA030E52EA033541
:1008A0004FEA013100F088804FEA03334FF0805562
:1008B00045EA131343EA12634FEA022245EA11158F
:1008C00045EA10654FEA00260EF000419D4208BF40
:1008D000964244F1FD0404F5407402D25B084FEAED
:1008E0003202B61A65EB03055B084FEA32024FF499
:1008F00080104FF4002CB6EB020E75EB030E22BFF6
:10090000B61A754640EA0C005B084FEA3202B6EBB5
:10091000020E75EB030E22BFB61A754640EA5C0064
:100920005B084FEA3202B6EB020E75EB030E22BFF4
:10093000B61A754640EA9C005B084FEA3202B6EBF5
:10094000020E75EB030E22BFB61A754640EADC00B4
:1009500055EA060E18D04FEA051545EA16754FEA16
:1009600006164FEAC30343EA52734FEAC2025FEA34
:100970001C1CC0D111F4801F0BD141EA00014FF0C3
:1009800000004FF0004CB6E711F4801F04BF014394
:100990000020B4F1FD0C88BFBCF5E06F3FF6AFAEB0
:1009A000B5EB030C04BFB6EB020C5FEA500C50F140
:1009B000000041EB045170BD0EF0004E4EEA1131C3
:1009C00014EB5C04C2BFD4EB0C0541EA045170BDCA
:1009D00041F480114FF0000E013C90E645EA060E0E
:1009E0008DE60CEA135594EA0C0F08BF95EA0C0F3C
:1009F0003FF43BAF94EA0C0F0AD150EA01347FF484
:100A000034AF95EA0C0F7FF425AF104619462CE75A
:100A100095EA0C0F06D152EA03353FF4FDAE1046BD
:100A2000194622E750EA410618BF52EA43067FF40E
:100A3000C5AE50EA41047FF40DAF52EA43057FF49E
:100A4000EBAE12E74FF0FF3C06E000BF4FF0010CA9
:100A500002E000BF4FF0010C4DF804CD4FEA410C0D
:100A60007FEA6C5C4FEA430C18BF7FEA6C5C1BD0DA
:100A700001B050EA410C0CBF52EA430C91EA030F5B
:100A800002BF90EA020F0020704710F1000F91EAB8
:100A9000030F58BF994208BF90422CBFD8176FEA86
:100AA000E37040F0010070474FEA410C7FEA6C5C54
:100AB00002D150EA013C07D14FEA430C7FEA6C5C5B
:100AC000D6D152EA033CD3D05DF8040B704700BF87
:100AD0008446104662468C461946634600E000BFD5
:100AE00001B5FFF7B7FF002848BF10F1000F01BDA7
:100AF0004DF808EDFFF7F4FF0CBF012000205DF872
:100B000008FB00BF4DF808EDFFF7EAFF34BF0120F6
:100B100000205DF808FB00BF4DF808EDFFF7E0FF8F
:100B200094BF012000205DF808FB00BF4DF808EDE0
:100B3000FFF7CEFF94BF012000205DF808FB00BF47
:100B40004DF808EDFFF7C4FF34BF012000205DF829
:100B500008FB00BF4FEA410C7FEA6C5C02D150EA0F
:100B6000013C0AD14FEA430C7FEA6C5C02D152EAA5
:100B7000033C02D14FF0000070474FF00100704776
:100B80004FEA410212F5001215D211D56FF47873B5
:100B9000B3EB625212D94FEAC12343F0004343EA58
:100BA000505311F0004F23FA02F018BF4042704733
:100BB0004FF00000704750EA013005D111F00040BD
:100BC00008BF6FF0004070474FF00000704700BF53
:100BD0004A0011D212F5001211D20DD56FF47873BC
:100BE000B3EB62520ED44FEAC12343F0004343EA11
:100BF000505323FA02F070474FF00000704750EA5C
:100C0000013002D14FF0FF3070474FF000007047C5
:100C100080F0004002E000BF81F0004142001FBFB1
:100C20005FEA410392EA030F7FEA226C7FEA236CBA
:100C30006AD04FEA1262D2EB1363C1BFD2184140AF
:100C400048404140B8BF5B42192B88BF704710F045
:100C5000004F40F4000020F07F4018BF404211F0E8
:100C6000004F41F4000121F07F4118BF494292EA50
:100C7000030F3FD0A2F1010241FA03FC10EB0C007C
:100C8000C3F1200301FA03F100F0004302D5494209
:100C900060EB4000B0F5000F13D3B0F1807F06D3B6
:100CA00040084FEA310102F10102FE2A51D2B1F1AE
:100CB000004F40EBC25008BF20F0010040EA0300A3
:100CC0007047490040EB000010F4000FA2F1010250
:100CD000EDD1B0FA80FCACF1080CB2EB0C0200FADA
:100CE0000CF0AABF00EBC25052421843BCBFD04028
:100CF0001843704792F0000F81F4000106BF80F4A2
:100D000000000132013BB5E74FEA41037FEA226C64
:100D100018BF7FEA236C21D092EA030F04D092F02F
:100D2000000F08BF0846704790EA010F1CBF002063
:100D3000704712F07F4F04D1400028BF40F00040C0
:100D4000704712F100723CBF00F50000704700F0E0
:100D5000004343F0FE4040F4000070477FEA226207
:100D600016BF08467FEA23630146420206BF5FEAD8
:100D7000412390EA010F40F4800070474FF00003D8
:100D800004E000BF10F0004348BF40425FEA000C9F
:100D900008BF704743F0964301464FF000001CE047
:100DA00050EA010208BF70474FF000030AE000BF9D
:100DB00050EA010208BF704711F0004302D54042DB
:100DC00061EB41015FEA010C02BF8446014600204D
:100DD00043F0B64308BFA3F18053A3F50003BCFA68
:100DE0008CF2083AA3EBC25310DB01FA02FC634415
:100DF00000FA02FCC2F12002BCF1004F20FA02F21C
:100E000043EB020008BF20F00100704702F120020E
:100E100001FA02FCC2F1200250EA4C0021FA02F26F
:100E200043EB020008BF20EADC70704753B94AB9AF
:100E3000002908BF00281CBF4FF0FF314FF0FF30E2
:100E400000F07EB9ADF1080C6DE904CE00F006F8B3
:100E5000DDF804E0DDE9022304B070472DE9F04736
:100E60008C460E460446089D002B50D18A421746F8
:100E70006CD9B2FA82FEBEF1000F0BD0CEF1200485
:100E800020FA04F401FA0EF644EA060C02FA0EF710
:100E900000FA0EF44FEA1749220CBCFBF9F01FFAD6
:100EA00087F809FB10C642EA064600FB08F3B34286
:100EB00009D9F61900F1FF3280F02281B34240F2E5
:100EC0001F8102383E44F61AA2B2B6FBF9F309FBC1
:100ED000136642EA064403FB08F8A04509D9E41961
:100EE00003F1FF3280F00A81A04540F20781023B06
:100EF0003C44C8EB040443EA00400021002D62D0CA
:100F000024FA0EF400232C606B60BDE8F0878B425E
:100F100007D9002D55D0002185E841000846BDE8DD
:100F2000F087B3FA83F1002940F09080B34202D3F6
:100F3000824200F2F880841A66EB03060120B44670
:100F4000002D40D085E81010BDE8F08712B90127C8
:100F5000B7FBF2F7B7FA87FEBEF1000F35D1F31BEE
:100F60004FEA17481FFA87FC0121B3FBF8F0220C67
:100F700008FB103642EA06460CFB00F3B34207D9E1
:100F8000F61900F1FF3202D2B34200F2CE801046D1
:100F9000F61AA2B2B6FBF8F308FB136642EA06445F
:100FA0000CFB03FCA44507D9E41903F1FF3202D27C
:100FB000A44500F2B5801346CCEB040443EA00409C
:100FC0009CE729462846BDE8F087CEF1200106FAC5
:100FD0000EF307FA0EF720FA01F94FEA1748CE4050
:100FE00049EA0309B6FBF8FA4FEA194408FB1A6606
:100FF0001FFA87FC44EA06430AFB0CF29A4200FA05
:101000000EF40AD9DB190AF1FF3180F087809A4289
:1010100040F28480AAF1020A3B449B1A1FFA89F924
:10102000B3FBF8F108FB113349EA034301FB0CF66B
:101030009E4207D9DB1901F1FF326BD29E4269D97A
:1010400002393B449B1B41EA0A418EE7C1F1200E65
:1010500022FA0EF48B40234320FA0EF706FA01F42D
:101060004FEA134C26FA0EF63C43B6FBFCF9270C6C
:101070000CFB19661FFA83F847EA064609FB08F7D6
:10108000B74202FA01F200FA01FA08D9F61809F19A
:10109000FF3041D2B7423FD9A9F102091E44F61BE5
:1010A000A0B2B6FBFCF40CFB146640EA064704FB56
:1010B00008F8B84507D9FF1804F1FF3028D2B84521
:1010C00026D9023C1F4444EA0940C8EB0707A0FBAD
:1010D00002894F4544464E4614D329D065B3BAEB36
:1010E000040367EB060707FA0EFECB40CF404EEA3B
:1010F000030385E888000021BDE8F0871346F8E681
:101100001046E0E6B8EB020469EB03060138E5E7B8
:101110000446D8E7114695E78146C0E78A467CE752
:10112000023B3C4448E708460AE702383E442FE7C2
:10113000C245E7D33E46D1E72946BDE8F08700BF68
:10114000704700BF03690A6902610B61704700BF05
:1011500091B110B40C46096929B10161E168C1601F
:101160006360227001E00021C160027043600023CF
:1011700083605DF8044B70470021C16002704360DA
:1011800000238360704700BF034620B10020186130
:101190009860D86070476FF00100704738B504461A
:1011A0000D46FFF7F1FF00B9256138BD08B5C368EA
:1011B0001BB18068FFF7FAFF08BD8160C86008BDF9
:1011C00008B5C3681BB11846FFF7FAFF08BDC16038
:1011D000886008BD4368E3B10269D2B170B50E6999
:1011E000B6B10D46044631461046984780B12A698B
:1011F000904203D129462046FFF7A4FFE06818B1CA
:101200002946FFF7E7FF70BDE560AC600023EB60A7
:1012100070BD7047A8B108B591B143684B600378C1
:101220000B700378012B06D013B1022B06D008BD3A
:10123000FFF7BCFF08BDFFF7C3FF08BDFFF7CAFFFC
:1012400008BD7047C0B1F8B506461D4617460C46A6
:1012500011B10BB90169A047F06820B12B463A469D
:101260002146FFF7EFFF54B1012D0AD13A4631690B
:101270003046A0470020F8BD6FF001007047002005
:10128000F8BD0020F8BD00BFD8B1F8B506461D4630
:1012900017460C4629B123B90169A047069B98421D
:1012A00012D0F06820B12B463A462146FFF7CAFF1C
:1012B00064B1012D0CD13A4631693046A047002077
:1012C000F8BD6FF0010070470020F8BD0020F8BDA8
:1012D0000020F8BDE8B108B5034682684AB1C0688D
:1012E00038B1D060DA689868906000229A60DA605D
:1012F0000AE02AB1D86818B9D0609860D86003E0D5
:1013000012B9DA6802B1134631B118698847002072
:1013100008BD6FF001007047002008BD0249034B73
:101320000A681A607047000028ED00E0F40400200D
:1013300010B582B0002401941249134B0A681A6058
:10134000EFF3098313B9EFF3098301E0EFF30883A7
:101350000B4B1B68002B01DA4FF0010413F0804F98
:1013600004D044F00204FFF7D9FF0190044B1B683E
:1013700013F0020F01D044F00204204602B010BD69
:10138000F80400202CED00E0F804002030B4400008
:101390000B4A55680B4B1B7803FB00F49368002144
:1013A0001A46074B9B689A42FBD002D9D21A1144C5
:1013B00002E0E81A02441144A142F1D330BC704764
:1013C00010E000E0FC04002010B504E04FF47A7057
:1013D000FFF7DCFF2046441E0028F7D110BD00BFF8
:1013E000014B1861704700BF10050020014B586188
:1013F000704700BF10050020014B9861704700BF87
:1014000010050020014B9868704700BF10050020B0
:1014100038B50546204C00232377FFF78BF80246AA
:101420000B461BA1D1E90001FFF724FAFFF7D0FB1F
:10143000A060E560FFF77EF802460B4614A1D1E9F3
:101440000001FFF717FA04460D46144B1868FFF722
:1014500071F822462B46FFF70DFAFFF7B9FB01386A
:10146000B0F1807F09D20E4B5860F0210D4A82F80E
:10147000231000229A6007221A60042004F04AFB1D
:10148000094804F0E9FC012038BD00BFAFF300803B
:101490000000000080842E41100500200003002081
:1014A00010E000E000ED00E00005002008B5034B6F
:1014B00001221A771B6903B1984708BD1005002067
:1014C00000220023C0E90023704700BF8B4208BF01
:1014D000824203D3101A63EB01017047801A61EB5B
:1014E0000301704708B50E4B1B7F012B14D10C4B29
:1014F0009A68D3E90001801841F10001C3E90001B5
:1015000001225A77074B1B6803B19847044B9B692C
:1015100023B19847012008BD002008BD012008BD67
:101520001005002030050020014BD3E90001704771
:101530001005002008B54FF47A7200230249D1E962
:101540000001FFF773FC08BD10050020034BD3E931
:10155000002380B2002180185941704710050020F7
:10156000054BD3E90023994208BF904201D30120E3
:1015700070470020704700BF10050020FEE700BF45
:1015800070B40378DA0803F00704094D2E780123BC
:1015900003FA02F13143C9B229702A445178A340B9
:1015A0000B43DBB25370002380F8483070BC7047A7
:1015B0003405002010B40378DC0803F007020B4B5D
:1015C00023445978012000FA02F221EA02025A70FB
:1015D0005B7813F0FF0F06D104490B7800FA04F48E
:1015E00023EA04040C705DF8044B704750A50020FA
:1015F00010B40378DC0803F007020B4B234459783E
:10160000012000FA02F221EA02025A705B7813F01C
:10161000FF0F06D104490B7800FA04F423EA04040E
:101620000C705DF8044B7047340500200548FF211D
:101630000170002080F309880348016881F308885D
:101640007047000022ED00E070AB002030B403468C
:1016500000B989B103B989B903B189B118780025F6
:101660000A7800F0070002F00702AD420AD802D162
:10167000904209D30AD80AE0002008E0084606E0B4
:10168000184604E0084602E0184600E0084630BC70
:10169000704700BF10B50446037803F0C7036FF32B
:1016A0000203037000234360836083810361C3628C
:1016B00003634363836300224264036480F85C3005
:1016C0000366436600F15C017430FFF767FD04F1C7
:1016D0002400FFF7F5FE04F11400FFF7F1FE04F11A
:1016E0001C00FFF7EDFE052384F8483010BD00BF55
:1016F000F8B51E4C4FF420520021204608F027FC7C
:1017000004F51F43FC331A4A136000271AE0194DF1
:1017100004EBC70655F82600FFF7BCFF55F8262056
:101720000023D36455F82620536555F82620136509
:1017300045F826300134E4B200E00024072CE6D955
:101740000137FFB2072FF8D90B4B00221A705A61EC
:101750001A61DA60094B1868FFF79CFF0122084BF9
:101760001A70F022074B83F82220F8BD50050020A4
:1017700070AB002070AA002068A5002084A500207E
:1017800060A5002000ED00E010B50446C26C920098
:101790008B21406D08F0DBFB04F15402E36C03F194
:1017A0008043013B02EB830323F007034FF0807279
:1017B00043F8042C084A22F0010243F8082C074A97
:1017C00043F80C2C002243F8202C6FF0020243F85F
:1017D000242C443B236510BD151900087D15000815
:1017E00010B584B06846FFF76BFE02A8FFF768FEED
:1017F000FFF79AFE02460B46CDE902230B49D1E9D9
:101800000001FFF763FE0A4B1C6801341C60FFF700
:10181000C7FA07EE904AF8EE677A06EE900A87EE6E
:10182000A67A044B83ED007A04B010BD4005002079
:101830005CA500204C05002030B583B06846FFF75A
:101840003FFE314B1C6894F84830002BFBD1A36558
:101850002046FFF7CDFE2D4B1C60A36B2BB9FFF785
:1018600063FEE06121626062A162012384F8483076
:10187000236920469847A36B0133A363A36D626B72
:10188000934200D96363226C13442364626AA36A9F
:10189000E069216AFFF71AFECDE90001256CFFF728
:1018A0007FFA07EE905AB8EE677A06EE900AC7EE16
:1018B000267A9FED177A67EE877AC4ED117AA26DCA
:1018C000236B13442363A26B012A01D95B082363B2
:1018D000A089FFF73BFE6062A162A56B6DB1FFF7C7
:1018E0005FFA07EE905AF8EE677A06EE900A87EEF6
:1018F000A67ABCEEC77A84ED0B7A022384F84830CE
:101900000022024B1A609EE764A5002084A50020F7
:101910000000C84208B5094B186868B1084A137836
:101920000133DBB21370074A1278934202D10122CD
:10193000054B1A70FFF780FF08BD00BF64A50020AB
:101940003D05002068A5002088A50020A1B10B4B13
:101950001B78DBB2022B0FD191F84830022B0BD150
:1019600010B50C46486A896AFFF7FAFD10B920469F
:10197000FFF706FE002010BD0020704760A5002084
:1019800070B40378DA0803F00704094D2E780123B8
:1019900003FA02F13143C9B229702A445178A340B5
:1019A0000B43DBB25370042380F8483070BC70479F
:1019B00050A50020034B044A92E8030083E803008B
:1019C000704700BF68AA002074AB0020144B1B783E
:1019D00013F0FF0F1FD0124B1A78D2B211498A5C54
:1019E00013445B78DBB2CB5C03EBC2000E4951F8C9
:1019F000200098B970B40A4C2578012101FA02F64A
:101A000025EA060525702244547801FA03F324EAF6
:101A10000303537001E00020704770BC704700BFA3
:101A200050A50020D8C1000870AA002000000000C6
:101A3000074B19680868B0E8F04F1EF0100F08BF98
:101A4000B0EC108A80F30988BFF36F8F704700BF36
:101A500068AA002008B5FFF7EBFF08BD00000000F2
:101A6000EFF30980BFF36F8FDFF850301A681EF074
:101A7000100F08BF20ED108A20E9F04F10602DE90B
:101A800009004FF0500080F31188BFF34F8FBFF370
:101A90006F8FFFF78FFF4FF0000080F3118809BCB4
:101AA00019680868B0E8F04F1EF0100F08BFB0ECDE
:101AB000108A80F30988BFF36F8F704768AA0020EF
:101AC000144B1B7813F0FF0F1FD0124B1A78D2B2B1
:101AD00011498A5C13445B78DBB2CB5C03EBC20038
:101AE0000E4951F8200098B970B40A4C25780121AC
:101AF00001FA02F625EA060525702244547801FA17
:101B000003F324EA0303537001E00020704770BC24
:101B1000704700BF34050020D8C1000870AA00201B
:101B200002484FF0805101607047000004ED00E072
:101B3000504B1B78DBB2022B40F09A8070B54E4BB5
:101B40001B782BB1012300224C494D48FFF77AFB4B
:101B5000FFF7B6FF4B4B1860FFF738FF06464A4BBE
:101B600018604A4B1D68002D34D170B9454B1B6875
:101B700043B103F15001464A11605B6D5360FFF7BA
:101B8000CFFF70BDFFF72CFE70BD3E4B1C68A4B1AB
:101B9000A04205D001462046FFF758FD864201D0FD
:101BA000A6420CD13046FFF705FD374B1B680222D9
:101BB00083F84820334A136001E0324B1860314B00
:101BC0001A6802F15001324B1960526D5A60FFF7EA
:101BD000A7FF70BD2B4B1C68A5422DD0002C46D012
:101BE00021462846FFF732FD844240D12846FFF7C0
:101BF000FFFC264B1868FFF7C3FE234B1C6884B11B
:101C0000204B19682046FFF721FD844209D1204668
:101C1000FFF7D0FC1C4B1B68022283F84820194AAE
:101C20001360184B1A6802F15001194B1960526D7C
:101C30005A60FFF775FF70BD78B101462846FFF77F
:101C400005FD864209D12846FFF79AFE0E4C206812
:101C5000FFF796FC22680B4B1A600A4B1A6802F1D8
:101C600050010B4B1960526D5A60FFF759FF70BD60
:101C7000704700BF60A5002088A500204D1900080E
:101C80006CA5002064A5002080A5002084A500206C
:101C900074AB0020000000002DE9F84F80460F468D
:101CA00016461C46784B1B7823B9FFF721FD01220D
:101CB000754B1A7004EBC603744A52F82330002B9C
:101CC00040F0D280882000F0B3F90546DFF8BC91DF
:101CD0004FEAC60B0BEB040A49F82A00C0F804804F
:101CE00059F82A309F6059F82A803846FEF722FCBE
:101CF00002460B4662A1D1E90001FEF7BBFDFEF7EB
:101D000067FFA8F80C0059F82A300A9A1A6159F8A6
:101D10002A304BEA040B83F800B059F82A2000233C
:101D200082F85C3059F82A20156659F82A20536643
:101D300059F82A300B9ADA6459F82A70900080B268
:101D400000F076F9786559F82A00436D002B00F011
:101D50008E80FFF719FD4F4604EBC60859F828306E
:101D60004FF00009C3F8589057F8283000225A6401
:101D700057F82830C3F84090454A92F800E057F8E9
:101D800028000178012303FA01F14EEAE101C9B20A
:101D90001170017802EBD10292F801E08B4003F060
:101DA00007034EEA03035370C0F82C9057F828300D
:101DB000C3F8309057F82830C3F8349057F828000B
:101DC0002430FFF77DFB57F828001430FFF778FB2D
:101DD00057F828001C30FFF773FB57F828A0FFF7CF
:101DE000A3FBCAF81400CAF8181057F82830C3F833
:101DF000389057F8283083F83C9057F82800FFF7C0
:101E0000BFFB57F82890142000F012F9C9F87000B1
:101E100057F82810086F68B3FFF7C0F91D4B1B78FF
:101E200043B957F828101C4B0222096F1B48FFF7D3
:101E30008FF908E004EBC603144A52F82330196FF7
:101E40001648FFF7E7F904EBC604104B53F82400DB
:101E500000F15C017430FFF7A1F90E4A13780133E9
:101E600013702846BDE8F88F0120BDE8F88F0020E8
:101E7000BDE8F88F0020BDE8F88F00BFAFF3008009
:101E80000000000080842E414805002070AA002038
:101E90003405002068A500204D1600086CA5002020
:101EA00010B549F64040FFF7B3FA0020FFF798FA63
:101EB0000020FFF79BFA1148FFF79EFAFFF7F6FAAA
:101EC0000F4C2046FFF7FCFAFFF72EFBC4E9000198
:101ED000FFF7F6FD0B4B186050B100F150020A4BB2
:101EE0001A60426D5A60094A93E8030082E80300D1
:101EF000FFF79CFBFFF714FE10BD00BF311B00086D
:101F00004005002064A5002074AB002068AA0020D2
:101F1000014B1870704700BF60A50020054B1A6880
:101F20003AB192F84830DBB2012B02D1936D1844DC
:101F30009065704784A50020012383F31388BFF3C5
:101F40004F8F0549CA6802F4E062044B1343CB602B
:101F5000BFF34F8F00BFFDE700ED00E00400FA057E
:101F6000154A4FF48033136000235360012191829E
:101F700003E00021114AD1540133B3F5803FF8D377
:101F800010B40F490D4B0B6000228A804FF6F87099
:101F900019180C4C21601A504FF6FC701A52064A60
:101FA00019604FF6F071D16099809160012382F839
:101FB00020305DF8044B704784AB00200000001017
:101FC0007CAB0020A8AB0020174B00E01B681A6810
:101FD0008242FBD33BB310B49A8813FA82F2904248
:101FE00006D19A88818811FA82F292B29A801846B4
:101FF0008288841819688C420ED11C680B490968C4
:102000008C4207D0196889880A4482801A6812684D
:10201000026003E0016001E01A680260984200D0AB
:1020200018605DF8044B70477CAB0020A8AB002023
:1020300070B5044672B6294B93F8203023B9FFF7E8
:102040008FFF274A254B1A61002C3DD004F108026E
:1020500092B212F0030F03D022F00302043292B2C4
:1020600015461E4B9B689A4230D81D490C6801E00A
:1020700021461C46A3889A4202D92368002BF7D137
:1020800004F07040174B984222D1174B1B689C42BA
:1020900020D012488369013383610E6808362368B3
:1020A0000B60A388991A082904DD60198180A28039
:1020B000FFF78AFF094B9A68521B9A605A681544C9
:1020C0005D600023236006E0002604E0002602E0B5
:1020D000002600E0002662B6304670BD84AB0020CA
:1020E0007CAB002000000010A8AB0020C8B1024665
:1020F0000C49CB690133CB61083852F8083C83B9ED
:1021000010B572B632F8044C0B464968091B596089
:1021100032F8042C99680A449A60FFF755FF62B6BA
:1021200010BD704784AB002003460278302A04D1EA
:10213000417878290CD058290CD0302A04D159780C
:10214000622909D0422909D0302A09D000200FE0A5
:1021500003200DE003200BE0012009E0012007E04F
:10216000022005E05A782E2A01D19B782BB90B4624
:10217000591C1A78002AF5D170470420704700BF17
:102180000246A0F13003D8B2092812D9A2F16103A6
:10219000DBB2052B03D8A2F15700C0B27047A2F101
:1021A0004103DBB2052B03D8A2F13700C0B2704760
:1021B00000207047034640785C2816D198786E2836
:1021C0000CD004D830280DD0622805D07047722872
:1021D0000AD0742804D07047082070470A2070473E
:1021E00009207047002070470D20704770B50646E3
:1021F0000378222B02D10136354600E00546002443
:1022000010E05C2B05D1681EFFF7D4FF3055013577
:1022100005E0222B02D10023335500E03355013570
:102220000134A4B22B78002BEBD13355304670BD6E
:102230002DE9F843044603782D2B01D0012701E056
:102240004FF0FF37B7F1FF3F01D1012000E0002040
:102250002044FFF769FF8046022806D003280AD0F1
:10226000012805D000230A2607E00123082604E000
:1022700002231E4601E002231026B7F1FF3F01D1E1
:10228000012500E000252B44E518002423460EE03C
:102290002E2802D10135012409E003FB06F9FFF7DE
:1022A0006FFF09EB000304EB84025400013528782A
:1022B0000028EDD1B8F1040F14D19CB107EE903A8B
:1022C000B8EE677A07EE904AF8EE677AC7EE276AAB
:1022D00007EE907AF8EEE77A67EEA67A17EE900AA4
:1022E000BDE8F88307FB03F0BDE8F88310B50446AA
:1022F0000023826D013100F017FE20B10146204617
:1023000000F0CAFE10BD002010BD00BF08B50B785C
:10231000272B05D14A781AB10846FFF74BFF08BDB5
:102320002D2B04D0A3F13002D2B2092A03D80846DB
:10233000FFF77EFF08BD242B04D14A7812B1FFF7C6
:10234000D5FF08BD1BB10846FFF750FF08BD0020B0
:1023500008BD00BF2DE9F0478CB080468A4616467E
:102360001F462022002104A807F0F1FD013E9AF843
:10237000029009F00F09B145B8BFB14600240BE047
:10238000651C57F825104046FFF7C0FF0CAB03EB68
:10239000840444F8200C2C46B442F1DBB9F1070F59
:1023A00047D8DFE809F004080D131A222C38DAF8B0
:1023B000083098473FE0DAF80830049898473AE048
:1023C000DAF8083005990498984734E0DAF80830CC
:1023D000069A0599049898472DE0DAF80840079B7B
:1023E000069A05990498A04725E0DAF80840089B6A
:1023F0000093079B069A05990498A0471BE0DAF81A
:102400000840099B0193089B0093079B069A059936
:102410000498A0470FE0DAF808400A9B0293099B52
:102420000193089B0093079B069A05990498A0477F
:1024300001E04FF0FF300CB0BDE8F0870FB408B5F5
:102440000299034800F04AF9BDE8084004B070471B
:102450008CA500200FB410B582B004AB53F8042B48
:102460000193064C7F21204608F04CFA2046FFF7E6
:10247000E5FF02B0BDE8104004B07047F8A50020A9
:1024800008B5044B98664FF400720349184600F0F3
:102490007FFD08BD8CA5002078A60020004870476D
:1024A0008CA5002000230AE01946064A52F8232092
:1024B0001AB9044B43F82100704701331BB2042BB7
:1024C000F2DD704784A8002010B40446002002E02A
:1024D0002354013080B20B5C002BF9D123545DF8FA
:1024E000044B704730B405460023184605E0A2426D
:1024F00008D1013080B201339BB2EA5C12B1CC5CEE
:10250000002CF4D130BC7047437803F00F03012B4B
:1025100001DCC0687047072B01DCC0687047082BDE
:1025200001DCC0687047C068704700BF002306E048
:102530001A1D00EB82020021516001331BB2072BF0
:10254000F6DDF0B40021C1860B46012629E029B949
:102550000269D418D25C202A1ED0EAB102691F4653
:10256000D418D55C222D01D181F001015EB1C58E58
:10257000072D07D86E1CC686043500EB85056C60F8
:10258000002600E0002624785C2C08D10137D25DBB
:102590002AB101339BB202E00022227001260133EE
:1025A0009BB282899342D2D3F0BC704710B50446E7
:1025B0000023A0F85430B0F850306BB1B0F852306E
:1025C0000BB1013B00E004230E3304EB83032169CC
:1025D0005868FDF70BFE00B3B4F852300E3304EB2D
:1025E000830321695868FFF76FFF20B1B4F85230B8
:1025F0000133A4F85230B4F8503001339BB2A4F840
:102600005030052B02D90523A4F85030B4F85230CD
:10261000042B02D90023A4F8523010BD70B5054632
:1026200000241FE02346221D05EB82025268117828
:10263000222907D100211170221D05EB8202516869
:1026400001315160043305EB83035E683046FDF7CA
:10265000D7FD80B20138335C222B01D100233354E3
:102660000134A4B2EB8E9C42DCD370BD00230AE09F
:10267000074A52F8230020B190F8602012F0020FB0
:1026800004D101331BB2042BF2DD0020704700BFE0
:1026900084A8002000B583B002AB03F8011D826E50
:1026A00001211846904703B05DF804FB08B5C389C3
:1026B0008289934205D20269591CC181D15CFFF71E
:1026C000E9FF08BDC38943B110B504460821FFF7EF
:1026D000E1FFE389013BE38110BD704738B5856EAA
:1026E00035B10C460846FDF78BFD81B22046A84760
:1026F000002038BD10B504460160886850B10378E9
:1027000053B1E38E012B09D9A169FDF76FFD38B1F3
:10271000002206E0012204E0012202E0002200E0A3
:10272000012294F8603062F3000384F860300749B6
:102730002046FFF7D3FF94F8603013F0010F03D069
:1027400003492046FFF7CAFF10BD00BF14C40008AC
:1027500020C4000810B5044690F8603013F0010F53
:1027600017D011B10D49FFF7B9FF2368596820460A
:10277000FFF7B4FF0A492046FFF7B0FFA16801B98F
:1027800008492046FFF7AAFF07492046FFF7A6FFA2
:1027900010BD0649FFF7A2FF10BD00BF3CC50008F1
:1027A000E0C40008DCC40008E4C40008E8C4000871
:1027B00010B50446036899680069FDF717FD50B924
:1027C00094F8603043F0010384F8603006492046F5
:1027D000FFF784FF03E005492046FFF77FFF002352
:1027E000A381E38110BD00BF20C4000804C5000818
:1027F00008B5FFF73BFF10B10149FFF76FFF08BDB8
:1028000014C400080B7843B14A7802F00F02082A7A
:1028100003D00268127813420BD090F8603013F0A6
:10282000010F09D14B7813F0100F07D14FF0FF3093
:1028300070474FF0FF30704700207047002070470E
:1028400010B400230B7208230BE000F00F02013BD1
:10285000DBB2CC18092A01D9573200E0303222709D
:1028600000090028F1D1C3F1080040B25DF8044B23
:10287000704700BF002304E030210E4AD1540133D9
:10288000DBB2082BF8D9437803F00F03012B01DCEE
:1028900040687047072B01DC40687047082B01DC5B
:1028A0004068704710B5034C21464068FFF7C8FFE9
:1028B000204610BD78A8002070B4002801DA4442F8
:1028C00000E004460023CB720B220FE0013AD2B2A3
:1028D0000F4B83FB0435E317C3EBA5031E4603EB45
:1028E00083035D00631B30338B543446002CEDD1E1
:1028F000002803DA013AD2B22D238B5418B9013AD9
:10290000D2B230238B54C2F10B0040B270BC70477E
:102910006766666670B584B004460E46184B01AD16
:1029200093E8070085E8070016492046FFF7D6FE22
:1029300029463046FFF7C0FFC0F10B01294420466D
:10294000FFF7CCFE10492046FFF7C8FE002306E043
:1029500004AA1A44302102F80C1C01331BB20A2BC2
:10296000F6DD01A93046FFF76BFF01A92046FFF70E
:10297000B5FE06492046FFF7B1FE04B070BD00BFAA
:102980002CC5000818C5000824C500083CC500086F
:1029900070B505460E460846FFF76CFF014628460F
:1029A000FFF79CFEC0F1160004B2002C00DC0424EA
:1029B0002D212846FFF76EFE013C24B2002CF7D1F2
:1029C000737803F00F03012B04DC0F492846FFF74F
:1029D00085FE70BD072B04DC0C492846FFF77EFE00
:1029E00070BD082B04DC0A492846FFF777FE70BD4E
:1029F000092B04DC07492846FFF770FE70BD064925
:102A00002846FFF76BFE70BD38C5000840C50008BA
:102A100044C500084CC5000850C50008F8B5064676
:102A2000876D0E49FFF75AFE002411E007EB0415ED
:102A30006B7803F00F03012B08DC29463046FFF7C3
:102A4000E1FE18B929463046FFF7A2FF013424B24F
:102A5000B6F85C309C42E9DBF8BD00BF58C5000801
:102A600008B5FFF703FE08B1FFF7D8FF08BD00BFA8
:102A7000F8B50646876D0F49FFF730FE002414E0D5
:102A800007EB04156B7803F00F030E3303F00F030D
:102A9000052B08D829463046FFF7B4FE18B9294659
:102AA0003046FFF775FF013424B2B6F85C309C4223
:102AB000E6DBF8BD6CC5000808B5FFF7D7FD08B127
:102AC000FFF7D6FF08BD00BFF8B50646876D0E4973
:102AD000FFF704FE002411E007EB04156B7803F008
:102AE0000F03082B08D129463046FFF78BFE18B993
:102AF00029463046FFF74CFF013424B2B6F85C306B
:102B00009C42E9DBF8BD00BF7CC5000808B5FFF7B3
:102B1000ADFD08B1FFF7D8FF08BD00BFF8B5064608
:102B2000876D0E49FFF7DAFD002411E007EB04156D
:102B30006B7803F00F03092B08D129463046FFF7C5
:102B400061FE18B929463046FFF722FF013424B24E
:102B5000B6F85C309C42E9DBF8BD00BF8CC50008CC
:102B600008B5FFF783FD08B1FFF7D8FF08BD00BF28
:102B700008B5FFF753FF08BD38B5054604E0054921
:102B80002846FFF7ABFD21464B1EDCB20029F6D1EB
:102B900038BD00BF9CC5000838B505468389C48987
:102BA0001C1B24B205E020212846FFF773FD013CE1
:102BB00024B2002CF7DC297B2846FFF7DDFF38BD67
:102BC00010B5002919DDB0F954104B1EA0F854308F
:102BD000B0F85020B0F852309A4201D9544200E087
:102BE0005C428C4217DB9A4202D953421BB201E08D
:102BF0005B421BB2A0F854300DE0002930DAB0F986
:102C0000543001331BB2A0F85430002B03DD0023F5
:102C1000A0F8543010BD0446FFF7BEFFB4F95420AD
:102C20001AB90023A381E38110BDB4F852300533F3
:102C30001A440C4B83FB0231D317C3EB610303EB44
:102C40008303D31A0E3304EB830359682069FFF71B
:102C50003BFCA08120B1E08121692046FFF73EFDC9
:102C600010BD00BF6766666608B50121FFF7A8FFC3
:102C700008BD00BF08B54FF0FF31FFF7A1FF08BD49
:102C80002DE9F84F0546B0F834A083893BB9FFF72A
:102C90006FFF01212846FFF75DFDBDE8F88F002B8F
:102CA00075D002694FF0000802F80380876D444632
:102CB000C1463AE007EB041631462846FFF7A2FD6D
:102CC00088BBD5F810B03046FFF7D4FD0146584612
:102CD000FFF708FCAB89984225D1B9F1000F1CD051
:102CE000B9F1010F03D12B492846FFF7F7FC07EB99
:102CF000081841462846FFF74BFE4046FFF7BAFD4D
:102D000080463046FFF7B6FD01464046FFF7EAFB36
:102D1000504528BF50461FFA80FA1FFA84F809F17F
:102D200001091FFA89F9013424B2B5F85C309C42DC
:102D3000C0DBB9F1000F2AD0B9F1010F02D128464A
:102D4000FFF72AFFB9F1000F09D02C6907EB081033
:102D5000FFF790FD01462046FFF7B6FBA881B9F1C9
:102D6000010F0AD907EB08112846FFF711FE0121D0
:102D70002846FFF7EFFCA5F80CA02A69AB890021D3
:102D8000D154AB89EB8129692846FFF7A7FCBDE840
:102D9000F88F00BF3CC5000838B504468389828E91
:102DA000013A93420BDB2A49FFF798FC01212046A8
:102DB000FFF7D0FC21692046FFF790FC38BDC2899F
:102DC00093420ED10269581CA081D1542269A38973
:102DD0000020D054E3890133E3812046FFF75AFCF9
:102DE00038BD934233D99B1A1BB208E02069E289AF
:102DF0001A44851815F8015C8554013B1BB2002B61
:102E0000F4DC2269E389581CE081D1542269A3894A
:102E100001339BB2A3810021D154E589013D2DB23C
:102E200006E02369595D2046FFF734FC01352DB2D9
:102E3000A3899D42F5DBE5895D1B2DB205E00821E4
:102E40002046FFF727FC013D2DB2002DF7DC38BDF1
:102E5000A0C5000838B5B1F1FF3F14BF002301231E
:102E6000C2890AB9012952D08589AA4202D1B1F199
:102E7000FF3F4CD00446AA420DD101290BD1013AA3
:102E8000C2816B1E9BB2838102690021D154012152
:102E9000FFF772FE38BD1BB206E020691A44551ECA
:102EA000825C425501331BB2A089E289851AAB428C
:102EB000F3DB0138A081B1F1FF3F05D0013AE28197
:102EC00008212046FFF7E6FB2269A3890021D1549F
:102ED000B4F90E5006E02369595D2046FFF7DAFB8E
:102EE00001352DB2A3899D42F5DB20212046FFF755
:102EF000D1FBA389E5895D1B01352DB205E00821D1
:102F00002046FFF7C7FB013D2DB2002DF7DC38BD91
:102F100008B50121FFF79EFF08BD00BF08B54FF0BF
:102F2000FF31FFF797FF08BD2DE9F04780468A463D
:102F300017469946B0F85C30866D961BA3EB1616C3
:102F4000B6B200241EE007EB04156B7803F00F0304
:102F5000092B15D029464046FFF754FC80B9284676
:102F6000FFF788FC0146B9F1000F04D15046FDF788
:102F70003DF928B909E04A46504607F083FC20B1E4
:102F80000134A4B2B442DED300252846BDE8F08760
:102F900038B5044672B600238381C381A0F854304B
:102FA000A0F85030A0F85230036090F8600040F074
:102FB000010084F8600021611548A0FB020292081C
:102FC000A28609E003FB02250D4403F10E0004EB89
:102FD0008000456001331BB2042BF3DD0D4AA2656E
:102FE0000D4B9B1A1B09A4F85C302046FFF75AFAD8
:102FF0000023A26D09492046FFF796FF01462046AF
:10300000FFF778FB01212046FFF7A4FB62B638BD2D
:10301000ABAAAAAA98C00008D8C10008C4C5000875
:1030200070B505460E46FFF721FB70B30446012D2F
:1030300002D1FFF79DFD70BD012D26DD0023826DBD
:103040007168FFF771FF0546D8B110492046FFF7B8
:1030500045FB2846FFF70EFC01462046FFF73EFBE6
:103060000B4E31462046FFF739FB2846FFF74CFA56
:1030700001462046FFF732FB31462046FFF72EFB84
:1030800070BD04492046FFF729FB70BDD4C5000878
:103090003CC50008E8C5000808B54B7803F00F03ED
:1030A000023B052B16D8DFE803F003060A0D0D0FCF
:1030B0008B68186808BD8B68B3F9000008BD8B6881
:1030C000187808BD886808BD8A68536823B11068FD
:1030D000984708BD002008BD002008BD70B584B029
:1030E00004460E46274B93E8070004AB03E90700AC
:1030F00031462046FFF7D0FF054671682046FFF7AE
:10310000EDFA21492046FFF7E9FA737803F00F033F
:10311000052B0DD11D4E31462046FFF7DFFA29461B
:103120002046FFF7DBFA31462046FFF7D7FA21E0C9
:1031300001A92846FFF7C0FBC0F10B0101AB194400
:103140002046FFF7CBFA12492046FFF7C7FA0023C3
:1031500006E004AA1A44302102F80C1C01331BB209
:103160000A2BF6DD01A92846FFF76AFB01A92046D4
:10317000FFF7B4FA07492046FFF7B0FA284604B033
:1031800070BD00BF2CC50008FCC5000800C60008C3
:1031900024C500083CC5000838B505460C464B78E8
:1031A00013F0400F03D01849FFF798FA26E04B7848
:1031B00003F00F03023B052B20D8DFE803F00306E2
:1031C000090C1115A3681A6018E0A3681A8015E0AD
:1031D000A3681A7012E01146A068FFF775F90DE0B8
:1031E0000A49FFF77BFA09E0A1688B6833B10868E8
:1031F00010B11146984701E01046984721462846ED
:10320000FFF76CFF38BD00BF04C6000820C60008E9
:1032100070B505460E46FFF729FA20B30446002391
:10322000826D2946FFF780FE014628B90F492046E6
:10323000FFF754FA002070BD437803F00F030E33FC
:1032400003F00F03052B09D929462046FFF746FA5C
:1032500007492046FFF742FA002070BD324620465B
:10326000FFF79AFF70BD002070BD00BF34C6000894
:1032700044C6000870B504460D4690F8603043F02F
:10328000020380F860304B7813F00F0310D1FFF782
:10329000C5F9AB6804F11401E08E984706466B78D7
:1032A00013F0200F28D101462046FFF733FB23E01F
:1032B000012B0ED100F11403C28EFFF74BF8064626
:1032C0006B7813F0200F17D101462046FFF722FB41
:1032D00012E04A7802F00F020E3202F00F02052AC5
:1032E00003D8FFF7FBFE002606E0082B03D1FFF70B
:1032F00001FA002600E0002694F860306FF34103E5
:1033000084F86030304670BD08B590F860206FF3E7
:10331000820280F86020FFF73FFD08BD83895BB320
:1033200010B5044602690021D15490F8603013F0C2
:10333000010F1ED0FFF73AF92046FFF7F7F80023F8
:10334000E381A381E38EB3B10C492046FFF7C6F9B0
:103350000023A26D61692046FFF7E6FD014618B122
:103360002046FFF787FF10BD05492046FFF7B6F955
:1033700010BDFFF71DFA10BD704700BF3CC5000827
:10338000E8C5000810B50446FFF7C8FF0121204634
:10339000FFF7E0F910BD00BF002965D02DE9F04727
:1033A00006468A46836B13F47F4F0AD113F47F0FCE
:1033B0000CD113F07F4F0ED14FF000084FF01809D9
:1033C0000DE06FF0FF084FF0000908E0DFF89C8087
:1033D0004FF0080903E04FF07F484FF01009B76D38
:1033E000002432E007EB04156B7803F00F03092B80
:1033F00029D129463046FFF705FA20BB6B6808EA59
:103400000301B26B91421ED1FF2101FA09F10B4079
:103410000AFA09F18B4216D10A43B263B9F1000FDF
:1034200007D06B68A9F10800FF2202FA00F00342FE
:1034300007D1AB680BB1304698470023B3639A4677
:1034400007E04FF0000A013424B2B6F85C309C4229
:10345000C8DBBAF1000F05D00023B36351463046F4
:10346000FFF752FFBDE8F087704700BF0000FFFF85
:1034700038B504460D4622B9D0F8123001209847DD
:1034800003E0D0F8123000209847D4F81A302846CC
:103490009847D4F812300020984738BD70B50546DB
:1034A0000C4600228D21FFF7E3FF0CB9074E00E028
:1034B000074E002406E00022315D2846FFF7D8FFC2
:1034C0000134E4B2012CF6D970BD00BFB8D00008B9
:1034D000BCD0000870B5054600261EE0A6F15001DC
:1034E0000022C9B22846FFF7C3FF00221146284632
:1034F000FFF7BEFF002210212846FFF7B9FF002486
:1035000006E0012200212846FFF7B2FF0134E4B2B1
:1035100014F0800FF5D00136F6B2072EDED970BD5B
:103520008020704740207047B0B3F8B50746A9B374
:103530000E4600252CE0A5F150010022C9B2384604
:10354000FFF796FF002211463846FFF791FF002251
:1035500010213846FFF78CFF002414E003EBC5026E
:1035600056F82220125D9A401143C9B20133DBB2F2
:1035700001E000210B46072BF0D901223846FFF766
:1035800077FF0134E4B214F0800FF2D00135EDB2D0
:10359000072DD0D90120F8BD002070470020F8BDCC
:1035A0000120704710B50446D0F81630407998478E
:1035B000D4F80A309847D4F806309847D4F80E303B
:1035C000012098476420FDF7FFFED4F80E3000205C
:1035D00098470022AE212046FFF74AFF0022D5215E
:1035E0002046FFF745FF002250212046FFF740FF0D
:1035F0000022A8212046FFF73BFF00223F21204662
:10360000FFF736FF0022D3212046FFF731FF0022CB
:1036100011462046FFF72CFF002240212046FFF7ED
:1036200027FF00228D212046FFF722FF00221421D0
:103630002046FFF71DFF002214212046FFF718FF48
:10364000002220212046FFF713FF002202212046FE
:10365000FFF70EFF0022A0212046FFF709FF0022FE
:10366000C8212046FFF704FF0022DA212046FFF799
:10367000FFFE002212212046FFF7FAFE00228121E0
:103680002046FFF7F5FE0022EF212046FFF7F0FE6F
:103690000022D9212046FFF7EBFE0022F12120462F
:1036A000FFF7E6FE0022DB212046FFF7E1FE0022C5
:1036B00030212046FFF7DCFE0022A4212046FFF740
:1036C000D7FE0022A6212046FFF7D2FE0022AF211E
:1036D0002046FFF7CDFE2046FFF7FCFE012010BD7F
:1036E00008B5084B187004225A7002225A80012231
:1036F0009A80054AC2F80130044A12681846904779
:1037000008BD00BFDCA8002098A80020B40100205C
:1037100008B5044BDB680146034AD2F8010098471C
:1037200008BD00BFB401002098A8002070B50A4C65
:1037300008232360094BA3600223A380002525737F
:10374000074E33682A46294620469847B3682946DB
:103750002046984770BD00BFC8A80020000C02405A
:10376000D001002070B50A4C08232360094BA360E8
:103770000123A38000252573074E33682A46294676
:1037800020469847B36829462046984770BD00BF39
:10379000B8A80020000C0240D001002008B518B1E4
:1037A000012803D0002102E0022100E00121024BA8
:1037B0009B680248984708BDD0010020C8A8002097
:1037C00008B518B1012803D0002102E0022100E071
:1037D0000121024B9B680248984708BDD001002098
:1037E000B8A800200B4B00221A705A710A4AC3F87D
:1037F00016200A4AC3F81A20094AC3F80620094AC3
:10380000C3F80E20084AC3F80A20084AC3F8122059
:103810000120704798A80020E13600081137000801
:1038200065370008C13700082D3700089D370008AC
:1038300008B50022074B1A70FFF7D4FF38B1064BCA
:103840001B680648984710B10122024B1A70014BC1
:10385000187808BDD8A800200000002098A80020F3
:1038600010B5054B1C7824B10146044B9B680448F5
:103870009847204610BD00BFD8A8002000000020B7
:1038800098A8002010B582B00A4C636998478DF85B
:103890000000A36998478DF80100BDF800300020B2
:1038A000DAB262F30700C3F3072363F30F2002B019
:1038B00010BD00BF0000002008B5034B9B680BB192
:1038C000984708BD002008BD1C000020014B187758
:1038D00001207047E8A80020014B5877012070476D
:1038E000E8A800202DE9F04788B0444B5B7F012B0E
:1038F00073D09BB3022B7CD000207BE0DFF80491D7
:10390000D9F8003053F824707E5DDFF8F480D8F8E1
:103910000C309847ADF80000C0B20138401B3B5C4A
:103920007B55D9F8003053F82470D8F80C309847FC
:10393000ADF80400C0B20138401B3E540134E4B27B
:1039400000E000242E4BDB689847ADF80800C0F378
:1039500007208442D2D30135EDB200E00025284B88
:10396000DB689847ADF80C00C0F346008542E8D309
:1039700001203FE0234FD7F800A05AF8259019F80E
:103980000460DFF87C80D8F80C309847ADF8100060
:10399000C0F307200138401B5AF820301B5D09F89E
:1039A00004303F68D8F80C309847ADF81400C0F3E5
:1039B00007200138401B57F820301E550134E4B26F
:1039C00000E000240E4BDB689847ADF81800C0B249
:1039D0008442CFD30135EDB200E00025084BDB680F
:1039E0009847ADF81C00C0F346208542E9D301207A
:1039F00000E0012008B0BDE8F08700BFE8A8002083
:103A00001C0000200CA9002020B1034A1060D0F84F
:103A10001300704700207047E4A80020024B18688C
:103A200000B90020704700BFE4A8002008B5FFF7E8
:103A3000F5FF10B1D0F80F0008BD002008BD00BF91
:103A400008B5FFF7EBFF18B1C3781BB1012008BD23
:103A5000002008BD022008BD38B505460C46FFF71A
:103A6000DDFF28B18580FFF7D9FFC480012038BD74
:103A7000002038BD30B583B0114CE3689847ADF8ED
:103A80000000C5B2E3689847ADF80400C0F3072012
:103A900000240EE00B4A12687AB152F8242000216B
:103AA000D1540133DBB200E00023AB42F2D3013446
:103AB000E4B28442F8D3012000E0002003B030BD1E
:103AC0001C0000200CA90020012303FA00F0024A88
:103AD000137818431070704708A90020014B18781C
:103AE000704700BF54000020054A137813F0020FFE
:103AF00005D1012202FA00F00343014A1370704716
:103B000054000020012303FA00F0034A137823EA4B
:103B100000001070704700BF540000202DE9F843EA
:103B2000064688469146FFF779FF0446084D2F6800
:103B3000437A027AB0F90610B0F90400B8476D680C
:103B40004B4642463146D4F80A00A847BDE8F88300
:103B5000440100202DE9F04782B082468846914614
:103B60001F46FFF75BFF04460B4D437A027AB0F91C
:103B70000610B0F904002E68B0476D69D4F80A1039
:103B80009DF82830019300974B4642465046A8477F
:103B900002B0BDE8F08700BF440100202DE9F047E6
:103BA00082B08246884691461F46FFF737FF04469B
:103BB0000B4D437A027AB0F90610B0F904002E6872
:103BC000B047ED68D4F80A109DF8283001930097AB
:103BD0004B4642465046A84702B0BDE8F08700BFBA
:103BE000440100202DE9F04782B082468846914684
:103BF0001F46FFF713FF04460B4D437A027AB0F9D4
:103C00000610B0F904002E68B0472D69D4F80A10E8
:103C10009DF82830019300974B4642465046A847EE
:103C200002B0BDE8F08700BF440100202DE9F04755
:103C300084B08246884691461F46FFF7EFFE044651
:103C40000C4D437A027AB0F90610B0F904002E68E0
:103C5000B0472D6AD4F80A009DF8343002939DF8DD
:103C60003030019300974B4642465146A84704B076
:103C7000BDE8F087440100202DE9F04782B082467C
:103C8000884691461F46FFF7C9FE04460B4D437A0E
:103C9000027AB0F90610B0F904002E68B0476D6AD8
:103CA000D4F80A009DF82830019300974B4642460D
:103CB0005146A84702B0BDE8F08700BF440100208C
:103CC0002DE9F04782B08246884691461F46FFF7AD
:103CD000A5FE04460B4D437A027AB0F90610B0F9FE
:103CE00004002E68B047AD6AD4F80A009DF8283069
:103CF000019300974B4642465146A84702B0BDE8A3
:103D0000F08700BF440100202DE9F04383B0064650
:103D100088469146FFF782FE04460C4D2F68437A91
:103D2000027AB0F90610B0F90400B847AD68D4F8CB
:103D30000A009DF8283001930F2300934B4642461A
:103D40003146A84703B0BDE8F08300BF440100201E
:103D50002DE9F04782B08246884691461F46FFF71C
:103D60005DFE04460B4D437A027AB0F90610B0F9B5
:103D700004002E68B047AD68D4F80A009DF82C30D6
:103D8000019300974B4642465146A84702B0BDE812
:103D9000F08700BF440100202DE9F04784B082463F
:103DA000884691461F46FFF739FE04460E4D437A7A
:103DB000027AB0F90610B0F904002E68B047ED6938
:103DC000D4F80A009DF8383003939DF834300293FC
:103DD0009DF83030019300974B4642465146A84724
:103DE00004B0BDE8F08700BF440100202DE9F04792
:103DF00084B08246884691461F46FFF70FFE044670
:103E00000C4D437A027AB0F90610B0F904002E681E
:103E1000B047AD69D4F80A009DF8343002939DF89C
:103E20003030019300974B4642465146A84704B0B4
:103E3000BDE8F087440100202DE9F04784B08246B8
:103E4000884691461F46FFF7E9FD04460C4D437A2C
:103E5000027AB0F90610B0F904002E68B047AD6BD5
:103E6000D4F80A009DF8343002939DF83030019365
:103E700000974B4642465146A84704B0BDE8F0873C
:103E8000440100202DE9F04782B0824688469146E1
:103E90001F46FFF7C3FD04460A4D437A027AB0F984
:103EA0000610B0F904002E68B0472D6BD4F80A0054
:103EB00001970F2300934B4642465146A84702B054
:103EC000BDE8F087440100202DE9F04782B082462A
:103ED000884691461F46FFF7A1FD04460B4D437AE5
:103EE000027AB0F90610B0F904002E68B0472D6BC5
:103EF000D4F80A009DF82830019300974B464246BB
:103F00005146A84702B0BDE8F08700BF4401002039
:103F10002DE9F04782B08246884691461F46FFF75A
:103F20007DFD04460B4D437A027AB0F90610B0F9D4
:103F300004002E68B0476D6BD4F80A009DF8283055
:103F4000019300974B4642465146A84702B0BDE850
:103F5000F08700BF4401002008B5FFF75FFD08B1FE
:103F6000007A08BD002008BD004870472C000020E2
:103F70000378012B0FD013B1022B18D023E011B11D
:103F8000012904D021E04368B3F904007047436875
:103F9000B3F90600704711B1012904D017E0436856
:103FA000B3F9040070474368B3F90600704711B1D4
:103FB000012904D00DE04368B3F904007047436859
:103FC000B3F90600704700207047002070470020BA
:103FD00070470020704700BF034600B901B30BB320
:103FE00011B32DE9F0411C460D4600211846FFF79C
:103FF000BFFF804601212046FFF7BAFF0646002199
:104000002846FFF7B5FF074601212846FFF7B0FF16
:1040100086420BDC0DD1B8450EDB2846BDE8F081A9
:104020000020704708467047184670472046BDE894
:10403000F0812846BDE8F0812046BDE8F08100BF50
:10404000004870475800002038B580B10546144636
:104050000A46084B9B6801219847034640B1054B2F
:104060009B682246002128469847034600E000232B
:10407000184638BD2801002020B108B5024B5B6806
:10408000984708BD002070472801002020B108B5DE
:10409000024B9B69984708BD00207047280100200B
:1040A000A8B138B50546FFF7B9FC90F92530B5F948
:1040B00006401C4424B2EC80FFF7B0FC437A9C42DB
:1040C00007DA054B5B6928469847012038BD002078
:1040D0007047002038BD00BF2801002070B108B52E
:1040E000012901D9002008BD012903D1044BDB6857
:1040F000984702E0024B1B69984708BD00207047B3
:1041000028010020004870474400002028B108B56D
:10411000034B5B689847012008BD0020704700BF33
:104120001401002028B108B5034BDB689847012033
:1041300008BD0020704700BF1401002020B108B561
:10414000024B9B68984708BD00207047140100206F
:10415000A8B138B50546FFF761FC90F92530B5F9EF
:1041600006401C4424B2EC80FFF758FC437A9C4282
:1041700007DA054B1B6928469847012038BD002007
:104180007047002038BD00BF140100200048704770
:104190006C00002028B108B5034B9B6898470120AC
:1041A00008BD0020704700BFFC00002028B108B502
:1041B000034B5B689847012008BD0020704700BF93
:1041C000FC00002048B108B50346B0F91900D3F847
:1041D0000D3023B19847012008BD00207047012011
:1041E00008BD00BFD0B170B50546FFF717FC90F9C8
:1041F0002530B5F906401C4424B2EC80FFF70EFCD4
:10420000437A9C420CDAB5F90420037A9A4209DA1F
:10421000054B5B6928469847012070BD0020704718
:10422000002070BD002070BDFC000020A8B108B5C2
:104230000369A3B11A78012A07D012B1022A08D063
:104240000FE05868FFF72CFF08BD5868FFF780FFA4
:1042500008BD5868FFF7C6FF08BD00207047002062
:1042600008BD002008BD00BF2DE9F0410746884683
:104270000820FDF7DDFE05461420FDF7D9FE0646B1
:10428000FFF7CCFB0FB3044616B325B330B36F6012
:1042900085F8008029463046FCF780FFD4F82100DD
:1042A00018B13146FCF7B6FF09E0C4F82160C4F844
:1042B00026600C4B022200213046FCF749FF237F89
:1042C000013323770120BDE8F0810020BDE8F081B3
:1042D0000020BDE8F0810020BDE8F0810020BDE8AD
:1042E000F08100BFD93F00082DE9F04784B00646B1
:1042F0000F46904699462120FDF79AFED0B104461C
:1043000005460021FFF7B0FFB0B10F4BD3F800A076
:104310009DF8383003939DF8343002939DF8303087
:104320000193CDF8009043463A4631462046D047A7
:1043300020B104E0002502E0002500E00025284629
:1043400004B0BDE8F08700BF280100202DE9F0434C
:1043500083B081460E46174698461120FDF768FE49
:1043600080B104460C4B1D68CDF800803B463246B8
:104370004946A84740B1254601212046FFF774FF72
:1043800020B104E0002502E0002500E000252846D9
:1043900003B0BDE8F08300BF140100202DE9F04315
:1043A00087B006460F46904699461D20FDF740FE11
:1043B000E0B10446124B1D68BDF944300493BDF9C9
:1043C00040300393BDF93C300293BDF9383001937E
:1043D000CDF800803B4632464946A84740B12546C5
:1043E00002212046FFF740FF20B104E0002502E053
:1043F000002500E00025284607B0BDE8F08300BF97
:10440000FC00002010B582B0FFF708FB002834D074
:10441000037843B1437A027A01210191009100218E
:104420000846FFF7E3FCFFF7F9FA0346C07828BB1C
:104430000122DA70124B9C693CB1FFF7EFFAD0F819
:104440001D102046FCF7E6FE0EE0FFF7E7FAD0F875
:104450001D400B4B9C61FFF7E1FA00230122D0F8CD
:104460001D102046FCF774FE0220FFF73DFB044AB6
:10447000137801331370012000E0002002B010BD5A
:10448000E8A8002008B5FFF729FB10F0100F66D050
:104490000220FFF729FB0022364B1A705FE0354AF5
:1044A0001278134113F0010F4FD0042A5FD8DFE8D0
:1044B00002F0035E15235C002F4B1B68984730B158
:1044C0000020FFF71FFB0220FFF70EFB3DE000205E
:1044D000FFF7FAFA0120FFF707FB36E0FFF7CAFA09
:1044E00030B10220FFF70EFB0320FFF7FDFA2CE0AE
:1044F0000120FFF7F9FA28E0204B5B7A2BB31F4B22
:104500001B78E3B100231A461D491C488069FCF75B
:1045100099FE68B9FFF7E6F9174B5B68194A10680E
:1045200098470320FFF7EEFA0420FFF7DDFA0CE0CE
:104530000120FFF7C9FA0120FFF7D6FA05E00220B3
:10454000FFF7C2FA0120FFF7CFFA0A4A13780133C6
:10455000DBB21370052B02D10022064B1A70FFF755
:10456000BDFA034600289AD108BD012008BD0020ED
:1045700008BD00BF09A900201C000020E8A80020F9
:10458000894500080CA900202DE9F04186B00C46B1
:10459000B1F90430002B43D1B1F90630002B3FD1E3
:1045A0000D7A344BDB689847ADF80400C0B2854201
:1045B00036D3657A2F4BDB689847ADF80800C0F317
:1045C0000720854221D22BE02B4F3B6853F82580F2
:1045D000284EF3689847ADF80C00C2B2002140465F
:1045E00005F0AAFC3B6853F82570D4F80A3053F85C
:1045F0002580F3689847ADF81000C2B241463846AE
:1046000005F09AFC0135EDB200E00025194BDB689E
:104610009847ADF81400C0F307208542D4D325E0B5
:10462000B4F90650EDB21BE0134B1E6856F8250096
:10463000B4F90430227A0021184405F088FC56F8B9
:104640002560B4F90400D4F80A10B4F90630EB1A66
:10465000227A51F82310304405F06EFC0135EDB29A
:10466000B4F90620637A13449D42DDDB002006B0D6
:10467000BDE8F0811C0000200CA9002010B5FFF758
:10468000CDF990B1002409E0D0F80A30027A002177
:1046900053F8240005F05BFC0134E4B2FFF7BEF9E7
:1046A000437A9C42F0D3012010BD002010BD00BF12
:1046B00008B5FCF73FFF054B5B68C31A312B03D9E4
:1046C000024B5860012008BD002008BDE8A800206A
:1046D00070B3F8B50546036863B35E7A1F7AD3F802
:1046E0001D00FDF703FD2B68D3F80A00FDF7FEFC63
:1046F000002408E02B68D3F80A3053F82400FDF7B3
:10470000F5FC0134E4B2B442F4D306FB07F60B4BDC
:104710001A6932441A61D9688E1BDE605B699A425D
:104720000AD82868FDF7E2FC00232B600120F8BDC1
:10473000002070470020F8BD0020F8BDE8A8002048
:1047400000B583B0FFF76AF9D0F82100002200928B
:1047500013460349FCF798FD03B05DF804FB00BF66
:104760002D42000810B50446FFF758F9D0F826206E
:104770006AB3D0F8263063B394F90010037FDBB23C
:10478000994201DD037F237094F90030002B05DC92
:1047900009E0D16899B1D268013B237094F90030E7
:1047A000002BF6DC0BE0002B09DA04E0916831B154
:1047B00092680133237094F90030002BF6DBC0F8C7
:1047C0002620D0F82630186900F0DEFB10BD00204E
:1047D00010BD002010BD00BF10B5FFF71FF9B0B12C
:1047E0000E4A1278012A14D9C478A4B10021D0F855
:1047F0001D00FCF76FFD0220FFF776F9FFF70EF9B9
:104800000023C370054A1378013B137004E00024B1
:1048100002E0002400E00124204610BDE8A80020AA
:10482000F0B589B00C4C2068216AA269E36965681B
:104830000095A6682769E56A0395256B0495656B65
:104840000595A46B06940297019600F07FFB034840
:1048500000F094FB09B0F0BD80000020593F000833
:104860002DE9F04F89B08146884601921F46614B81
:104870005D69002D4CD1604CE3689847ADF80800A5
:10488000C0F3072AE3689847ADF80C00C3B203FBF6
:104890000AF3584A03EB830353611361E3689847B3
:1048A000ADF81000C0F307208000FDF7C1FB534BAB
:1048B0001860002800F0998000241EE04F4ED6F8C2
:1048C00000B04D4BDB689847ADF81400C0B2FDF75F
:1048D000AFFB4BF82400336853F82460002E00F03F
:1048E0008480454BDB689847ADF81800C2B20021C0
:1048F000304605F02CFB0134E4B23F4BDB689847AF
:10490000ADF81C00C0F307208442D7D3FFF788FF1F
:104910002A20FDF78DFB054600285DD0A0F8049005
:10492000A0F80680019A2A7247720123437000237F
:104930008370129BC0F817302E4B1B6902FB07F8DF
:1049400043454BD3B800FDF773FBC5F80A000028B8
:1049500046D0002413E0D5F80A90019E3046FDF7BA
:1049600067FB49F82400D5F80A3053F824000028E2
:1049700038D03246002105F0EAFA0134E4B2BC42F4
:10498000E9D31C4A1369C8EB03031361D36843449A
:10499000D360537A01335372194BC5F80F30194B5A
:1049A000C5F813301420FDF743FBC5F81D00D8B13E
:1049B0002946FCF7F3FB9DF84C302B700023EB707D
:1049C0002B7785F8253085F8263085F8273085F84F
:1049D000283085F8293008E0002506E0002504E0AD
:1049E000002502E0002500E00025284609B0BDE8CA
:1049F000F08F00BFE8A800201C0000200CA90020B8
:104A000080000020D800002001608280C380002345
:104A10000372704718B18180C28001207047002066
:104A2000704700BF38B59DF81C50B8B104460573F7
:104A300045739DF81800A0732046FFF7E5FF9DF829
:104A40001030E3779DF8143084F82030044BC4F81C
:104A50001730044BC4F81B30012038BD002038BD8E
:104A6000C0D00008C4D0000848B1012903D1C0F863
:104A7000172001207047C0F81B200120704700203C
:104A8000704700BF50B1012903D1C0F80F200120A9
:104A9000704729B9C0F813200120704700207047E3
:104AA00000207047E0B108B50346827B012A08D197
:104AB000427B12B90120587308BD002242730120C5
:104AC00008BD7AB9027B417B8A420DD1B2FA82F2EB
:104AD00052094273D0F80F3043B19847012008BD06
:104AE00000207047002008BD012008BD012008BD3E
:104AF00070B108B5827B012A0CD0027B417B8A42CF
:104B00000AD04273D0F8133043B19847012008BD52
:104B100000207047012008BD012008BD012008BD0C
:104B200028B108B512B209B2FFF774FF08BD002022
:104B3000704700BF002878D070B584B00446837BEE
:104B4000012B0DD1437B012B04D1D0F80F303BB1A9
:104B5000984705E0002B6AD1D0F8133003B198478D
:104B60003A4B1B68002B64D0384B9E6A002E62D0F3
:104B7000DD68002D61D0637B012B20D1B4F90400E6
:104B8000B4F9061094F82030E27F01250195032541
:104B9000009549B240B2B047D4F8171000294ED062
:104BA0002A4B1D68B4F90420B4F9063005320124FB
:104BB00000945BB252B20C20A847204644E0B4F9FE
:104BC0000400B4F9061094F82030E27F0126029622
:104BD00001960326009649B240B2A847A37B012B59
:104BE00011D1D4F81B1061B3184B1D68B4F904201F
:104BF000B4F906300932012400945BB252B20C20A1
:104C0000A847204620E0D4F81710E1B10F4B1D68EB
:104C1000B4F90420B4F906300532012400945BB2E3
:104C200052B20C20A84720460EE00020704700201A
:104C30000AE0002008E0002006E0002004E0012057
:104C400002E0012000E0012004B070BD14A90020A2
:104C500068B110B50446FFF7D7FE9DF808302374FD
:104C6000002323736373A373E373012010BD00203B
:104C7000704700BF10B1C16001207047002070472D
:104C800018B108B5FFF7C6FE08BD0020704700BF89
:104C900050B108B50346007C80F001001874DB6851
:104CA00023B19847012008BD00207047012008BDAE
:104CB0002DE9F041BDF91C50BDF92040BDF924603B
:104CC000BDF92880B0B30746A54236DDB44237DCD3
:104CD000B54238DB012939D89C4696463973BDF96F
:104CE0001830624671463846FFF78EFEA7F813501B
:104CF000A7F81140A7F817802C1B94FBF8F8A7F829
:104D00001580A7F8196007EE906AB8EEE77A07EE0B
:104D1000904AF8EEE77AC7EE276AF3EE0E7A66EE6F
:104D2000A77AFDEEE77A17EE903AA7F81B3001203C
:104D3000BDE8F0810020BDE8F0810020BDE8F081F1
:104D40000020BDE8F0810020BDE8F0810020BDE832
:104D5000F08100BF18B108B5FFF75CFE08BD002068
:104D6000704700BF18B1C0F80D1001207047002037
:104D7000704700BF00283CD0034600293BD030B428
:104D8000B0F91920B1F90040B3F9150014FB00F097
:104D9000024412B2B3F9134020B2824202DBA3F8FC
:104DA000194009E0B3F9114025B2AA4202DCA3F888
:104DB000194001E0A3F81920B3F9192006EE902A52
:104DC000F8EEE66AB3F91120801A07EE900AF8EEC1
:104DD000E77A86EEA77AF3EE0E7A67EE277AFDEE93
:104DE000E77A17EE902AA3F81B2000230B800120FE
:104DF00003E0002070470020704730BC704700BFC0
:104E000040B108B5D0F80D2032B1B0F91900904783
:104E1000012008BD00207047012008BD2DE9F043A6
:104E200083B000283DD00546244B1F68002F3AD0A0
:104E3000DB69002B39D0214B1B69002B37D0D0F810
:104E400000804046FBF7DCF9C00084B2B5F90630BB
:104E5000DE1CB6B20534A4B2B5F9042003324FF01B
:104E60000109CDF800905BB252B241460C20B84720
:104E7000124B1F69CDF80490CDF8009007231A4615
:104E800071B260B2B8472D7C9DB10C4BDF69B11C8B
:104E9000A01CCDF8009003231A4649B240B2B8478F
:104EA00008E0002506E0002504E0002502E00025DA
:104EB00000E00125284603B0BDE8F08314A90020D6
:104EC000002837D0F0B583B004461F4B1D68002D75
:104ED00032D0DB6993B3B0F90420B0F90630016831
:104EE000012000905BB252B20C20A847237BEBB9A3
:104EF000B4F904502068FBF783F905EBC0000530D6
:104F0000B4F906108D1EADB20F4FFE690124009456
:104F100002231E2249B240B2B047FE690094062324
:104F20000222002168B2B04720460AE0012B07D0D8
:104F3000002006E000207047002002E0002000E092
:104F4000012003B0F0BD00BF14A9002030B40A4C0A
:104F5000029D6561039DA561A16060602261E360BF
:104F6000049B2360059B2362069B6362089BA362EC
:104F7000079BE36130BC704714A90020014B186007
:104F8000704700BF10A900202DE9F04782B0044609
:104F90003E4B1B681BB19847024608B96CE0802263
:104FA000002C6BD02378012B40D013B1022B50D0B2
:104FB00066E0374B5B6A002B64D06268B2F904A0EC
:104FC000B2F90630984692F820501D44013DD67F34
:104FD00056441FFA86F92E4F4FFA8AFA6DB2012411
:104FE000019400940423022229465046BE69B0472A
:104FF0004FFA88F80194009402231A46414650461D
:10500000BE69B0474FFA89F6019400940823022242
:1050100029463046BD69A847BD69019400942346DE
:10502000022241463046A84720462CE06368B3F987
:1050300004000330B3F906100131154BDD69063A5F
:10504000012400940B23D2B249B240B2A8472046B3
:1050500019E06368B3F904000330B3F906100131B5
:105060000B4BDD69063A012400940B23D2B249B2FE
:1050700040B2A847204606E0002004E0002002E0FD
:10508000012000E0002002B0BDE8F08710A9002058
:1050900014A9002010B4044C637122712080618037
:1050A0005DF8044B704700BF40A9002010B40C4CC1
:1050B0002479A14211DA0A4C6479A2420DDA00295E
:1050C0000BDB002A09DB23B150F8223001225A54AD
:1050D00003E050F8223000225A545DF8044B704728
:1050E00040A900202DE9F04F83B01F46BDF930A044
:1050F0009DF834B0203AD3B20193304B1B79BB42B8
:1051000056DD814688465446002300934BE0B9F1B2
:105110000C0F09D1019B03EB43029300284A13446F
:10512000009A9E5C002538E0264B019A03EB02139F
:10513000009A9E5CF6E7214AB2F9001013790B44FD
:10514000BB4237DD16F0800F0CD058F82430DB5D01
:10515000BBEB030318BF0123224639464046FFF745
:10516000A5FF0CE08BF0010358F82420D25D9B1AB8
:1051700018BF0123224639464046FFF797FF7600C5
:10518000F6B2013424B2CAEB04034B4503DB01370A
:105190003FB2544603E00135EDB2072DCBD9009B59
:1051A0000133DBB20093009B4B45B0D3012002E0FA
:1051B000002000E0002003B0BDE8F08F40A90020EF
:1051C00044CC000854C600082DE9F04383B0814662
:1051D000884615461C46BDF928709DF82C600AE0EB
:1051E00001960097234641464846FFF77BFF28B1CA
:1051F000083424B201352A78002AF1D103B0BDE881
:10520000F08300BF002002E00830C0B201310B780B
:10521000002BF9D1704700BF2DE9F04F85B0009009
:10522000884691469DF8402001925B1ADBB24FFA06
:1052300083FA9DF93820C9EB0202D2B24FFA82FB01
:10524000BAF1000F09DCBAF1000F09D05B424FFA46
:1052500083FA4FF0FF33029304E00123029301E04D
:1052600000230293BBF1000F09DCBBF1000F09D052
:1052700052424FFA82FB4FF0FF33039304E00123C5
:10528000039301E000230393DA4502DD0FFA8AF766
:1052900001E00FFA8BF70026354634461DE0019BEE
:1052A0004A4641460098FFF701FF5444A2B214B2A7
:1052B0005D44ABB21DB2A74205DCD41B24B2029AF6
:1052C00090444FFA88F8AF4205DCDD1B2DB2039BFA
:1052D00099444FFA89F90136F6B27B1C9E42DEDB17
:1052E00005B0BDE8F08F00BF10B584B049B29DF89D
:1052F0001C4002949DF81840019413445BB2009343
:105300000B4652B2FFF788FF04B010BD10B584B051
:1053100052B20B449DF81C4002949DF81840019431
:1053200000925BB249B2FFF777FF04B010BD00BF37
:105330002DE9F04F85B00646019102920393BDF925
:1053400038509DF83C409DF8407014F0010F1AD081
:10535000BDF80CA0BDF804B01FFA85F8BDF80890A0
:10536000C9EB08020AEB0B013B4612B209B2FFF788
:105370009DFECBEB08020AEB09013B4612B209B2D3
:105380003046FFF793FE14F0020F1BD0BDF80C80DF
:10539000BDF804A01FFA85F9BDF808B0CBEB0902EF
:1053A000CAEB08013B4612B209B23046FFF77EFE57
:1053B000CAEB0902CBEB08013B4612B209B23046F8
:1053C000FFF774FE14F0080F1BD0BDF80CA0BDF859
:1053D00004B01FFA85F8BDF8089008EB09020AEB43
:1053E0000B013B4612B209B23046FFF75FFE0BEBF2
:1053F00008020AEB09013B4612B209B23046FFF738
:1054000055FE14F0040F1AD0BDF80C40BDF80490FE
:10541000ADB2BDF8088005EB0802C9EB04013B46BC
:1054200012B209B23046FFF741FE09EB0502C8EBA4
:1054300004013B4612B209B23046FFF737FE05B011
:10544000BDE8F08F2DE9F04F87B0049005919146AB
:105450009DF840A09DF844B0C3F101084FFA88F8C8
:105460005D42EDB26D006DB21FB2CDF808B0CDF85F
:1054700004A000920B463A460021FFF759FF002690
:1054800001241EE0B8F1000F07DB013F3FB20235F7
:10549000EBB25DB298444FFA88F8013636B2023466
:1054A000E3B25CB298444FFA88F8CDF808B0CDF872
:1054B00004A0CDF80090059B3A4631460498FFF7CA
:1054C00037FFBE42DEDB07B0BDE8F08F10B582B01B
:1054D0009DF8144001949DF810400094FFF7B2FF2E
:1054E00002B010BD2DE9F04F83B00646019114467D
:1054F0009DF838708AB20092134403F1FF390FFA15
:1055000089F99DF83080A04408F1FF380FFA88F837
:10551000CDB237E0C7B10FFA85FA56F824305B5D9B
:10552000FB1A18BF0123224651463046FFF7BEFD45
:1055300056F828305B5DFB1A18BF012342465146DE
:105540003046FFF7B3FD1BE00FFA85FA87F0010B39
:1055500056F824305B5DBBEB030318BF01232246E2
:1055600051463046FFF7A2FD56F828305B5DBBEB95
:10557000030318BF0123424651463046FFF796FD0C
:105580000135EDB209F101039D42C3DB0134E4B200
:10559000DDF804B03BE0CFB125B256F8243013F863
:1055A0000B30FB1A18BF01232A4659463046FFF735
:1055B0007DFD56F8243013F80930FB1A18BF01237B
:1055C0002A4649463046FFF771FD1EE025B287F0B6
:1055D000010A56F8243013F80B30009A511CBAEB2C
:1055E000030318BF01232A4609B23046FFF75EFDC8
:1055F00056F8243013F80930BAEB030318BF01231F
:105600002A4649463046FFF751FD0134E4B244458D
:10561000C1DB03B0BDE8F08F2DE9F04F8DB00490F1
:105620009DF85C809DF860B09DF864501FFA88F486
:105630000891BDF8201004EB01091FFA89F60596C0
:10564000BDF9147006970992BDF82420A718BFB2BF
:105650000FFA87FECDF81CE00B4499B2C4EB010AA7
:105660000AF1FF3A1FFA8AFA0FFA8AF69DF85830C3
:105670001A4492B2141B013CA4B20FFA84F9013906
:105680008BB20A93013A92B20B92019504230093D4
:1056900043464A460699FFF7D5FE7FB29DF9201092
:1056A00064B20295CDF804B000940B463A460498D3
:1056B000FFF7B2FD01950823009343464A46314661
:1056C0000498FFF7BFFE9DF914904FFA8AFA9DF9EE
:1056D0002C200295CDF804B0009253464946049818
:1056E000FFF79AFD0195022300934346079A069916
:1056F0000498FFF7A7FE9DF924200295CDF804B089
:10570000009253464946DDF810904846FFF784FD65
:105710000195012300934346079A31464846FFF717
:1057200091FE9DF928100295CDF804B000940B4627
:105730003A464846FFF770FD0DB0BDE8F08F00BF58
:105740002DE9F04F87B002900D4690460393BDF9C6
:1057500040909DF844409DF8487014F0010F27D008
:10576000BDF80CE08AB21FFA89FA1FFA88F108F135
:1057700001038B46C1EB0A007146CDF810E005929B
:105780001144019701260096DBB202B209B20298D9
:10579000FFF7AAFDAB19059AC2EB0A020499594416
:1057A00001970096DBB212B209B20298FFF79CFD96
:1057B00014F0020F2BD0BDF80CE0AAB21FFA89FA40
:1057C0001FFA88F108F101030E46C1EB0A00714689
:1057D000CDF810E00592891A01974FF0010BCDF832
:1057E00000B0DBB202B209B20298FFF77DFD05EB13
:1057F0000B03059AC2EB0A020499891B0197CDF8A5
:1058000000B0DBB212B209B20298FFF76DFD14F0DE
:10581000080F1ED0BDF80CA008F101030AEB05012A
:1058200001974FF0010BCDF800B0DBB24A4609B248
:10583000029E3046FFF758FD05EB0B030AEB08010B
:105840000197CDF800B0DBB24A4609B23046FFF707
:105850004BFD14F0040F1DD0BDF80C4008F10103FE
:10586000611B01974FF0010ACDF800A0DBB24A4658
:1058700009B2029E3046FFF737FD05EB0A03C8EB7D
:1058800004010197CDF800A0DBB24A4609B23046C8
:10589000FFF72AFD07B0BDE8F08F00BF2DE9F04FFC
:1058A00087B00490059191469DF840A09DF844B0C2
:1058B000C3F101084FFA88F85D42EDB26D006DB298
:1058C0001FB2CDF808B0CDF804A000920B463A46BE
:1058D0000021FFF735FF002601241EE0B8F1000F7C
:1058E00007DB013F3FB20235EBB25DB298444FFA9D
:1058F00088F8013636B20234E3B25CB298444FFA0B
:1059000088F8CDF808B0CDF804A0CDF80090059B3C
:105910003A4631460498FFF713FFBE42DEDB07B07C
:10592000BDE8F08F2DE9F84F06468A4617469B469C
:105930009DF828809DF82C900D4615E056F82430EF
:105940005B5DB9EB030318BF0123224629463046AD
:10595000FFF7ACFB013424B200E03C4607EB080340
:105960009C42EBDB01352DB20AEB0B039D42F4DBCD
:10597000BDE8F88F2DE9F04F87B0039092461D46A1
:105980009DF840409DF844709DF848801FFA87F9C3
:105990000491BDF810B009EB0B031BB219467E0051
:1059A000F6B2AB1BCDF804800094DBB20291FFF796
:1059B000B9FF1FFA8AFA09EB0A031AB2A61BF6B25C
:1059C000CDF80480731EDBB200933B460592049928
:1059D0000398FFF7A7FF5D44C9EB05052DB27B1CBB
:1059E000CDF804800096DBB2DDF814B05A462946A3
:1059F000039E3046FFF796FFCDF804800223009304
:105A00003B465A4602993046FFF748FFCDF80480DE
:105A1000012300933B465A4629463046FFF73EFF96
:105A20005444C9EB0409A9F102090FFA89F9CDF828
:105A30000480042300933B464A4602993046FFF710
:105A40002DFFCDF80480082300933B464A462946A3
:105A50003046FFF723FF07B0BDE8F08F70B586B082
:105A600004460D461E46094903A804F0E7FE9DF8CA
:105A70002C300193BDF928300093334603AA294600
:105A80002046FFF7A1FB06B070BD00BFC8D00008DC
:105A900040F0BF6040F40030014BD860704700BF59
:105AA00000ED00E0C3780BB310B4184BDA68D243B2
:105AB000C2F30222C2F10401CCB20F231341417898
:105AC000A140C9B2827813400B431B01DBB20278BC
:105AD0000F490A4482F800330378580903F01F0382
