:020000040800F2
:10000000000002204D520008B94D0008BB4D000809
:10001000CF4D0008D14D0008D34D0008000000006E
:10002000000000000000000000000000D54D0008A6
:10003000D74D000800000000D94D0008154E0008FB
:100040009D5200089D5200089D5200089D520008D4
:100050009D5200089D5200089D5200089D520008C4
:100060009D5200089D5200089D5200089D520008B4
:100070009D5200089D520008733800089D520008E8
:100080009D520008713800089D5200089D520008DA
:100090009D5200089D5200089D5200089D52000884
:1000A0009D5200089D5200089D5200089D52000874
:1000B0001138000831380008513800089D520008F6
:1000C0009D5200089D5200089D5200089D52000854
:1000D0009D52000855330008E533000875340008C8
:1000E0009D5200089D5200087D3900089D5200086D
:1000F0009D5200089D5200089D5200089D52000824
:100100009D5200089D5200089D5200089D52000813
:100110009D5200089D5200089D5200089D52000803
:100120009D5200089D5200089D5200089D520008F3
:100130009D52000800000000000000009D520008D1
:100140009D5200089D5200089D5200088939000800
:100150009D5200089D5200087538000805350008BA
:100160009D5200089D5200089D5200089D520008B3
:100170009D5200089D520008000000000000000091
:080180009D5200089D52000889
:1001900010B5054C237833B9044B13B10448AFF3C1
:1001A00000800123237010BDE80200200000000041
:1001B000CC94000808B5034B1BB103490348AFF3C7
:1001C000008008BD00000000EC020020CC94000874
:1001D000034613F8012B002AFBD1181A0138704787
:1001E00001F0FF01102A2BDB10F0070F08D010F8E8
:1001F000013B013A8B422DD010F0070F42B3F6D1EC
:10020000F0B441EA012141EA014122F007047FF004
:1002100000070023F0E80256083C85EA010586EA5B
:10022000010685FA47F5A3FA87F586FA47F6A5FA97
:1002300087F68EB9EED1F0BC01F0FF0102F00702A3
:1002400032B110F8013B013A83EA010313B1F8D14E
:100250000020704701387047002D06BF354603382F
:10026000073815F0010F07D1013015F4807F02BF68
:10027000013015F4C03F0130F0BC0138704700BFB9
:1002800081F0004102E000BF83F0004330B54FEA47
:1002900041044FEA430594EA050F08BF90EA020FB4
:1002A0001FBF54EA000C55EA020C7FEA645C7FEA47
:1002B000655C00F0E2804FEA5454D4EB5555B8BF6A
:1002C0006D420CDD2C4480EA020281EA030382EADB
:1002D000000083EA010180EA020281EA0303362D6D
:1002E00088BF30BD11F0004F4FEA01314FF4801C40
:1002F0004CEA113102D0404261EB410113F0004F52
:100300004FEA03334CEA133302D0524263EB430308
:1003100094EA050F00F0A780A4F10104D5F1200EA6
:100320000DDB02FA0EFC22FA05F2801841F1000101
:1003300003FA0EF2801843FA05F359410EE0A5F1D5
:1003400020050EF1200E012A03FA0EFC28BF4CF006
:10035000020C43FA05F3C01851EBE37101F00045BC
:1003600007D54FF0000EDCF1000C7EEB00006EEBC9
:100370000101B1F5801F1BD3B1F5001F0CD3490853
:100380005FEA30004FEA3C0C04F101044FEA4452AA
:1003900012F5800F80F09A80BCF1004F08BF5FEA31
:1003A000500C50F1000041EB045141EA050130BD11
:1003B0005FEA4C0C404141EB0101013C28BFB1F523
:1003C000801FE9D291F0000F04BF01460020B1FA6E
:1003D00081F308BF2033A3F10B03B3F120020CDA41
:1003E0000C3208DD02F1140CC2F10C0201FA0CF01F
:1003F00021FA02F10CE002F11402D8BFC2F1200C84
:1004000001FA02F120FA0CFCDCBF41EA0C01904039
:10041000E41AA2BF01EB0451294330BD6FEA040482
:100420001F3C1CDA0C340EDC04F11404C4F120026D
:1004300020FA04F001FA02F340EA030021FA04F37F
:1004400045EA030130BDC4F10C04C4F1200220FAD6
:1004500002F001FA04F340EA0300294630BD21FA14
:1004600004F0294630BD94F0000F83F4801306BFDA
:1004700081F480110134013D4EE77FEA645C18BFCE
:100480007FEA655C29D094EA050F08BF90EA020F65
:1004900005D054EA000C04BF1946104630BD91EA5D
:1004A000030F1EBF0021002030BD5FEA545C05D160
:1004B0004000494128BF41F0004130BD14F580049F
:1004C0003CBF01F5801130BD01F0004545F0FE4113
:1004D00041F470014FF0000030BD7FEA645C1ABF48
:1004E000194610467FEA655C1CBF0B46024650EA7F
:1004F000013406BF52EA033591EA030F41F40021AB
:1005000030BD00BF90F0000F04BF0021704730B530
:100510004FF4806404F132044FF000054FF0000105
:1005200050E700BF90F0000F04BF0021704730B5C6
:100530004FF4806404F1320410F0004548BF40429B
:100540004FF000013EE700BF42004FEAE2014FEAF0
:1005500031014FEA02701FBF12F07F4393F07F4FCB
:1005600081F06051704732F07F4208BF704793F0CE
:100570007F4F04BF41F40021704730B54FF46074E1
:1005800001F0004521F000411CE700BF50EA0102E4
:1005900008BF704730B54FF000050AE050EA01028D
:1005A00008BF704730B511F0004502D5404261EBFD
:1005B00041014FF4806404F132045FEA915C3FF43E
:1005C000D8AE4FF003025FEADC0C18BF03325FEADB
:1005D000DC0C18BF033202EBDC02C2F1200300FA8C
:1005E00003FC20FA02F001FA03FE40EA0E0021FAB1
:1005F00002F11444BDE600BF70B54FF0FF0C4CF49F
:10060000E06C1CEA11541DBF1CEA135594EA0C0F50
:1006100095EA0C0F00F0DEF82C4481EA030621EA8B
:100620004C5123EA4C5350EA013518BF52EA0335C6
:1006300041F4801143F4801338D0A0FB02CE4FF078
:100640000005E1FB02E506F00042E0FB03E54FF0A8
:100650000006E1FB03569CF0000F18BF4EF0010EA0
:10066000A4F1FF04B6F5007F64F5407404D25FEA9C
:100670004E0E6D4146EB060642EAC62141EA55514F
:100680004FEAC52040EA5E504FEACE2EB4F1FD0C91
:1006900088BFBCF5E06F1ED8BEF1004F08BF5FEA0F
:1006A000500E50F1000041EB045170BD06F00046C1
:1006B00046EA010140EA020081EA0301B4EB5C046E
:1006C000C2BFD4EB0C0541EA045170BD41F4801166
:1006D0004FF0000E013C00F3AB8014F1360FDEBF8B
:1006E000002001F0004170BDC4F10004203C35DA67
:1006F0000C341BDC04F11404C4F1200500FA05F3EA
:1007000020FA04F001FA05F240EA020001F000428A
:1007100021F0004110EBD37021FA04F642EB060100
:100720005EEA430E08BF20EAD37070BDC4F10C042A
:10073000C4F1200500FA04F320FA05F001FA04F2EE
:1007400040EA020001F0004110EBD37041F10001DA
:100750005EEA430E08BF20EAD37070BDC4F12005E5
:1007600000FA05F24EEA020E20FA04F301FA05F24D
:1007700043EA020321FA04F001F0004121FA04F2F5
:1007800020EA020000EBD3705EEA430E08BF20EAC5
:10079000D37070BD94F0000F0FD101F000464000FF
:1007A00041EB010111F4801F08BF013CF7D041EA81
:1007B000060195F0000F18BF704703F00046520085
:1007C00043EB030313F4801F08BF013DF7D043EA56
:1007D0000603704794EA0C0F0CEA135518BF95EA0C
:1007E0000C0F0CD050EA410618BF52EA4306D1D193
:1007F00081EA030101F000414FF0000070BD50EAB2
:10080000410606BF1046194652EA430619D094EA3B
:100810000C0F02D150EA013613D195EA0C0F05D125
:1008200052EA03361CBF104619460AD181EA030179
:1008300001F0004141F0FE4141F470014FF0000031
:1008400070BD41F0FE4141F4780170BD70B54FF0CC
:10085000FF0C4CF4E06C1CEA11541DBF1CEA13554C
:1008600094EA0C0F95EA0C0F00F0A7F8A4EB05042E
:1008700081EA030E52EA03354FEA013100F0888025
:100880004FEA03334FF0805545EA131343EA1263EE
:100890004FEA022245EA111545EA10654FEA0026A3
:1008A0000EF000419D4208BF964244F1FD0404F55C
:1008B000407402D25B084FEA3202B61A65EB0305B8
:1008C0005B084FEA32024FF480104FF4002CB6EB75
:1008D000020E75EB030E22BFB61A754640EA0C00F5
:1008E0005B084FEA3202B6EB020E75EB030E22BF35
:1008F000B61A754640EA5C005B084FEA3202B6EB76
:10090000020E75EB030E22BFB61A754640EA9C0034
:100910005B084FEA3202B6EB020E75EB030E22BF04
:10092000B61A754640EADC0055EA060E18D04FEAC2
:10093000051545EA16754FEA06164FEAC30343EA62
:1009400052734FEAC2025FEA1C1CC0D111F4801F2F
:100950000BD141EA00014FF000004FF0004CB6E728
:1009600011F4801F04BF01430020B4F1FD0C88BFC7
:10097000BCF5E06F3FF6AFAEB5EB030C04BFB6EBD2
:10098000020C5FEA500C50F1000041EB045170BDC5
:100990000EF0004E4EEA113114EB5C04C2BFD4EBF2
:1009A0000C0541EA045170BD41F480114FF0000E76
:1009B000013C90E645EA060E8DE60CEA135594EAF2
:1009C0000C0F08BF95EA0C0F3FF43BAF94EA0C0FF5
:1009D0000AD150EA01347FF434AF95EA0C0F7FF46A
:1009E00025AF104619462CE795EA0C0F06D152EABE
:1009F00003353FF4FDAE1046194622E750EA4106A2
:100A000018BF52EA43067FF4C5AE50EA41047FF4B2
:100A10000DAF52EA43057FF4EBAE12E74FF0FF3C17
:100A200006E000BF4FF0010C02E000BF4FF0010CE8
:100A30004DF804CD4FEA410C7FEA6C5C4FEA430C61
:100A400018BF7FEA6C5C1BD001B050EA410C0CBFB0
:100A500052EA430C91EA030F02BF90EA020F002012
:100A6000704710F1000F91EA030F58BF994208BF79
:100A700090422CBFD8176FEAE37040F00100704736
:100A80004FEA410C7FEA6C5C02D150EA013C07D18D
:100A90004FEA430C7FEA6C5CD6D152EA033CD3D0D8
:100AA0005DF8040B704700BF8446104662468C46D2
:100AB0001946634600E000BF01B5FFF7B7FF002805
:100AC00048BF10F1000F01BD4DF808EDFFF7F4FF2E
:100AD0000CBF012000205DF808FB00BF4DF808EDB9
:100AE000FFF7EAFF34BF012000205DF808FB00BFDC
:100AF0004DF808EDFFF7E0FF94BF012000205DF8FE
:100B000008FB00BF4DF808EDFFF7CEFF94BF0120B2
:100B100000205DF808FB00BF4DF808EDFFF7C4FFAB
:100B200034BF012000205DF808FB00BF4FEA410CF4
:100B30007FEA6C5C02D150EA013C0AD14FEA430CD7
:100B40007FEA6C5C02D152EA033C02D14FF0000014
:100B500070474FF0010070474FEA410212F5001252
:100B600015D211D56FF47873B3EB625212D94FEAF4
:100B7000C12343F0004343EA505311F0004F23FADE
:100B800002F018BF404270474FF00000704750EA33
:100B9000013005D111F0004008BF6FF000407047F0
:100BA0004FF00000704700BF4A0011D212F500124A
:100BB00011D20DD56FF47873B3EB62520ED44FEAB5
:100BC000C12343F0004343EA505323FA02F0704735
:100BD0004FF00000704750EA013002D14FF0FF3073
:100BE00070474FF0000070474FEA4102B2F1E04316
:100BF00024BFB3F5001CDCF1FE5C0DD901F0004C04
:100C00004FEAC0024CEA5070B2F1004F40EB830053
:100C100008BF20F00100704711F0804F21D113F17F
:100C20003872BCBF01F00040704741F480114FEAB8
:100C30005252C2F11802C2F1200C10FA0CF320FA41
:100C400002F018BF40F001004FEAC1234FEAD3235E
:100C500003FA0CFC40EA0C0023FA02F34FEA4303C8
:100C6000CCE77FEA625307D150EA01331EBF4FF051
:100C7000FE4040F44000704701F0004040F0FE406C
:100C800040F40000704700BF80F0004002E000BF69
:100C900081F0004142001FBF5FEA410392EA030F67
:100CA0007FEA226C7FEA236C6AD04FEA1262D2EBB1
:100CB0001363C1BFD218414048404140B8BF5B42B6
:100CC000192B88BF704710F0004F40F4000020F04F
:100CD0007F4018BF404211F0004F41F4000121F065
:100CE0007F4118BF494292EA030F3FD0A2F10102AF
:100CF00041FA03FC10EB0C00C3F1200301FA03F1ED
:100D000000F0004302D5494260EB4000B0F5000F0F
:100D100013D3B0F1807F06D340084FEA310102F1CE
:100D20000102FE2A51D2B1F1004F40EBC25008BF80
:100D300020F0010040EA03007047490040EB00004A
:100D4000013A28BFB0F5000FEDD2B0FA80FCACF14B
:100D5000080CB2EB0C0200FA0CF0AABF00EBC25078
:100D600052421843BCBFD0401843704792F0000F66
:100D700081F4000106BF80F400000132013BB5E7B9
:100D80004FEA41037FEA226C18BF7FEA236C21D02F
:100D900092EA030F04D092F0000F08BF0846704794
:100DA00090EA010F1CBF0020704712F07F4F04D162
:100DB000400028BF40F00040704712F100723CBF75
:100DC00000F50000704700F0004343F0FE4040F49F
:100DD000000070477FEA226216BF08467FEA23635D
:100DE0000146420206BF5FEA412390EA010F40F448
:100DF000800070474FF0000304E000BF10F0004394
:100E000048BF40425FEA000C08BF704743F096437A
:100E100001464FF000001CE050EA010208BF704795
:100E20004FF000030AE000BF50EA010208BF70471C
:100E300011F0004302D5404261EB41015FEA010C31
:100E400002BF84460146002043F0B64308BFA3F129
:100E50008053A3F50003BCFA8CF2083AA3EBC2530B
:100E600010DB01FA02FC634400FA02FCC2F120022A
:100E7000BCF1004F20FA02F243EB020008BF20F061
:100E80000100704702F1200201FA02FCC2F12002C7
:100E900050EA4C0021FA02F243EB020008BF20EABC
:100EA000DC70704753B94AB9002908BF00281CBF3D
:100EB0004FF0FF314FF0FF3000F074B9ADF1080C86
:100EC0006DE904CE00F006F8DDF804E0DDE9022368
:100ED00004B070472DE9F047089D04468E46002B6C
:100EE0004DD18A42944669D9B2FA82F252B101FADE
:100EF00002F3C2F1200120FA01F10CFA02FC41EAEE
:100F0000030E94404FEA1C48210CBEFBF8F61FFA72
:100F10008CF708FB16E341EA034306FB07F199420D
:100F20000AD91CEB030306F1FF3080F01F819942C0
:100F300040F21C81023E63445B1AA4B2B3FBF8F09A
:100F400008FB103344EA034400FB07F7A7420AD921
:100F50001CEB040400F1FF3380F00A81A74240F249
:100F600007816444023840EA0640E41B00261DB1B4
:100F7000D4400023C5E900433146BDE8F0878B42E9
:100F800009D9002D00F0EF800026C5E900013046A8
:100F90003146BDE8F087B3FA83F6002E4AD18B4282
:100FA00002D3824200F2F980841A61EB030301202C
:100FB0009E46002DE0D0C5E9004EDDE702B9FFDE18
:100FC000B2FA82F2002A40F09280A1EB0C014FEAC3
:100FD0001C471FFA8CFE0126200CB1FBF7F307FB20
:100FE000131140EA01410EFB03F0884208D91CEBC3
:100FF000010103F1FF3802D2884200F2CB80434660
:10100000091AA4B2B1FBF7F007FB101144EA01443E
:101010000EFB00FEA64508D91CEB040400F1FF31CD
:1010200002D2A64500F2BB800846A4EB0E0440EABB
:1010300003409CE7C6F12007B34022FA07FC4CEAC4
:10104000030C20FA07F401FA06F31C43F9404FEAB7
:101050001C4900FA06F3B1FBF9F8200C1FFA8CFECC
:1010600009FB181140EA014108FB0EF0884202FA20
:1010700006F20BD91CEB010108F1FF3A80F08880E1
:10108000884240F28580A8F102086144091AA4B29E
:10109000B1FBF9F009FB101144EA014100FB0EFE1F
:1010A0008E4508D91CEB010100F1FF346CD28E454E
:1010B0006AD90238614440EA0840A0FB0294A1EBDF
:1010C0000E01A142C846A64656D353D05DB1B3EB3C
:1010D000080261EB0E0101FA07F722FA06F3F1406C
:1010E0001F43C5E9007100263146BDE8F087C2F113
:1010F0002003D8400CFA02FC21FA03F3914001438B
:101100004FEA1C471FFA8CFEB3FBF7F007FB1036C3
:101110000B0C43EA064300FB0EF69E4204FA02F46F
:1011200008D91CEB030300F1FF382FD29E422DD9C2
:10113000023863449B1B89B2B3FBF7F607FB1633F7
:1011400041EA034106FB0EF38B4208D91CEB010177
:1011500006F1FF3816D28B4214D9023E6144C91AF7
:1011600046EA004638E72E46284605E70646E3E607
:101170001846F8E64B45A9D2B9EB020864EB0C0E11
:101180000138A3E74646EAE7204694E74046D1E720
:10119000D0467BE7023B614432E7304609E76444CE
:1011A000023842E7704700BF03690A6902610B61B8
:1011B00070478C4651B1096941B10161DCF80C10EE
:1011C000C160CCF804308CF8002001E00021C1603F
:1011D00002704360002383607047034620B1002003
:1011E00018619860D86070476FF00100704738B59B
:1011F00004460D46FFF7F1FF00B9256138BD08B57B
:101200000346C06810B1FFF7FAFF08BDD9608B60D4
:10121000FBE738B543687BB104460D46006958B119
:10122000096949B1984738B12A69824205D0E06816
:1012300040B12946FFF7EDFF38BD29462046FFF7AC
:10124000B3FFF4E7E560AC600023EB60F4E778B14E
:1012500008B531B142684A6002780A7012B1012AB9
:1012600003D008BDFFF7CBFFFBE7FFF7D2FFF8E79E
:10127000704770B170B50C4615460646C06808B197
:10128000FFF7F7FF44B12A4631693046A0470020F6
:1012900070BD6FF0010070470020F9E7F0B108B5AC
:1012A0000346826862B1C06850B1D0609A688260BB
:1012B00000229A60DA6009B118698847002008BDE9
:1012C0000AB1D86830B1002AF5D1DA68002AF2D024
:1012D0001346F0E7D0609860D860ECE76FF001004B
:1012E000704700000249034B0A681A60704700000B
:1012F00028ED00E00403002010B582B00024019422
:101300001349144B0A681A60EFF3098393B9EFF39A
:1013100009830E4B1B68002B0FDB13F0804F0FD19E
:101320000A4B1B6813F0020F01D044F00204204660
:1013300002B010BDEFF30883EBE74FF00104ECE7D8
:1013400044F00204FFF7CEFF0190E9E70803002014
:101350002CED00E00803002030B40D4A55680D4B19
:101360001B7800FB03F35C009268002105E0E81A9B
:10137000024411441A46A14207D2054B9B689A4287
:10138000FBD0F4D9D21A1144F4E730BC704700BF47
:1013900010E000E00C03002010B5441E28B14FF40B
:1013A0007A70FFF7D9FF2046F7E710BD014B1861AF
:1013B000704700BF10030020014B5861704700BF09
:1013C00010030020014B9861704700BF10030020FC
:1013D00038B50546204C00232377FFF793F80246E3
:1013E0000B461BA1D1E90001FFF730FAFFF7DCFB48
:1013F000A060E560FFF786F802460B4614A1D1E92C
:101400000001FFF723FA04460D46144B1868FFF756
:1014100079F822462B46FFF719FAFFF7C5FB01388A
:10142000B0F1807F09D20E4B58600E4AF02182F84D
:10143000231000229A6007221A60042001F06CFC3D
:10144000094801F011FD012038BD00BFAFF3008055
:101450000000000080842E411003002014010020B1
:1014600010E000E000ED00E03403002008B5034B7D
:1014700001221A771B6903B1984708BD10030020A9
:1014800000220023C0E9002370474DF804BD8B42C1
:1014900008BF824205D2801A61EB03015DF804BBEC
:1014A0007047101A63EB0101F8E700000F4B1B7F38
:1014B000012B01D0002070472DE900480B4B9A68A2
:1014C000D3E9000110EB020B41F1000CC3E900BCB1
:1014D00001225A77064B1B6803B19847034B9B695F
:1014E00003B198470120BDE8008800BF1003002029
:1014F00030030020014BD3E90001704710030020A6
:1015000008B54FF47A7200230249D1E90001FFF7D0
:10151000C9FC08BD1003002010B4054B1C685968B5
:1015200082B20023101943EB01015DF8044B7047B0
:1015300010030020054BD3E90023994208BF9042D5
:1015400001D2002070470120704700BF1003002027
:10155000FEE7000070B40478E20804F00705094BC8
:101560001978012404FA02F63143C9B21970134400
:101570005A78AC402243D2B25A70002380F84830E7
:1015800070BC704784A3002010B40378DC0803F01B
:1015900007020A4B23445978012000FA02F221EA9B
:1015A00002025A705B7833B904490B7800FA04F4EC
:1015B00023EA04040C705DF8044B704778A3002004
:1015C00010B40378DC0803F007020A4B234459786F
:1015D000012000FA02F221EA02025A705B7833B964
:1015E00004490B7800FA04F423EA04040C705DF853
:1015F000044B704784A3002005484FF0FF010170A1
:10160000002080F309880348016881F30888704747
:1016100022ED00E04CA50020034678B193B103B160
:10162000C9B130B4187800250A7800F0070002F03C
:101630000702AD4211D809D030BC70470029EDD166
:10164000002070470029EAD008467047904206D330
:10165000F2D90846F0E7184670470846ECE7184606
:10166000EAE710B50446037803F0C7036FF30203FB
:10167000037000234360836083810361C36203635B
:101680004363836300224264036480F864308366AA
:10169000C36600F164017C30FFF7A9FD04F124006A
:1016A000FFF7EEFE04F11400FFF7EAFE04F11C0060
:1016B000FFF7E6FE052384F8483010BDF8B54FF477
:1016C00020520021194803F02DFE194B194A1A60C7
:1016D000002718E0184D04EBC70655F82600FFF761
:1016E000C0FF55F826200023D36455F82620536503
:1016F00055F82620136545F826300134E4B2072C4E
:10170000E8D90137FFB2072F01D80024F7E70B4BC8
:1017100000221A705A611A61DA60094B1868FFF7E3
:10172000A0FF084B01221A70F8BD00BF6003002023
:101730004CA500205CA300204CA4002060A3002046
:10174000440300208DA3002010B50446C26C002184
:10175000406D03F0E7FD04F15403E26C02F18042B6
:10176000013A03EB820323F007034FF0807243F842
:10177000042C094A22F0010243F8082C074A43F8D6
:101780000C2C002243F8202C6FF0020243F8242C8A
:10179000443B236510BD00BFD9180008511500084F
:1017A00010B584B06846FFF76BFE02A8FFF768FE2D
:1017B000FFF7A0FE02460B46CDE902230B49D1E913
:1017C0000001FFF762FE0A4B1C6801341C60FFF742
:1017D00023FB07EE904AF8EE677A07EE100A87EED1
:1017E000877A044B83ED007A04B010BD58030020C3
:1017F000540300205003002000B583B0044668461F
:10180000FFF73EFE3EE0FFF775FEE0612162606299
:10181000A16240E02046FFF7D3FE022384F848305F
:10182000A36B0133A363E26D636B9A4200D96263D9
:10183000236C13442364626AA36AE069216AFFF798
:1018400024FECDE90001256CFFF7E6FA07EE905A79
:10185000F8EE677A07EE100A87EE877A84ED117A40
:10186000E36D226B13442363A26B012A01D95B0849
:101870002363A089FFF750FE6062A16215E0154B5B
:1018800000221A6094F84830002BF8D1114B1C60EC
:10189000A36B002BB7D0012384F84830236920467E
:1018A000984794F84830012BB4D0A56B002DE6D0B2
:1018B000606AA16AFFF7B0FA07EE905AF8EE677A0D
:1018C00007EE100A87EE877ABCEEC77A84ED0B7AB2
:1018D000D5E700BF4403002008B5034B186800B9E2
:1018E00008BDFFF789FF00BF48030020A9B110B56C
:1018F0000C460A4B1B78DBB2022B00D010BD91F8CE
:101900004830022BFAD1486A896AFFF713FE002893
:10191000F4D12046FFF71EFEF0E770478DA30020AC
:1019200070B40478E20804F00705094B1978012423
:1019300004FA02F63143C9B2197013445A78AC4024
:101940002243D2B25A70042380F8483070BC7047EA
:1019500078A30020034B044A92E8030083E80300C5
:10196000704700BF44A4002050A50020134B1B78F3
:101970000BB3124B1A78D2B211498A5C13445B78CC
:10198000DBB2CB5C03EBC2000E4951F8200000B182
:10199000704770B409490D78012404FA02F625EA6B
:1019A00006050D700A44517804FA03F321EA030393
:1019B000537070BC70470020704700BF78A30020B0
:1019C000E89400084CA40020000000000000000083
:1019D000084B19680868B0E8F04F1EF0100F08BFF8
:1019E000B0EC108A80F30988BFF36F8F704700BF97
:1019F0007047000044A4002008B5FFF7E9FF08BDC8
:101A0000EFF30980BFF36F8FDFF850301A681EF0D4
:101A1000100F08BF20ED108A20E9F04F10602DE96B
:101A200009004FF0500080F31188BFF34F8FBFF3D0
:101A30006F8FFFF78FFF4FF0000080F3118809BC14
:101A400019680868B0E8F04F1EF0100F08BFB0EC3E
:101A5000108A80F30988BFF36F8F704744A4002079
:101A6000704700BF134B1B780BB3124B1A78D2B2DE
:101A700011498A5C13445B78DBB2CB5C03EBC20098
:101A80000E4951F8200000B1704770B409490D7833
:101A9000012404FA02F625EA06050D700A4451787D
:101AA00004FA03F321EA0303537070BC704700206B
:101AB000704700BF84A30020E89400084CA40020D5
:101AC00002484FF0805101607047000004ED00E0D3
:101AD0004A4B1B78DBB2022B00D0704770B5002256
:101AE00047494848FFF7C5FBFFF7BCFF464B186066
:101AF000FFF73CFF0546454B1860454B1C685CB141
:101B0000414B1E68B4425ED02EB131462046FFF7ED
:101B100083FD864235D070BD90B13B4B186838B319
:101B20002946FFF779FD854219D0374B1A6802F133
:101B30005001384B1960526D5A60FFF7C1FFEAE758
:101B4000314B1B6843B103F15001324A11605B6DA8
:101B50005360FFF7B5FFDEE7FFF722FEDBE7012367
:101B600085F84830284B1D602846FFF70DFDDCE75F
:101B7000012385F84830244B1D602846FFF704FDFB
:101B8000D3E72046FFF7CCFE214B1868FFF718FD7E
:101B90001E4B1C6834B11C4B19682046FFF73CFDF6
:101BA00084420DD0184C2068FFF7D4FC226802F163
:101BB0005001184B1960526D5A60FFF781FFAAE778
:101BC000114B1C60EEE70028A5D031462046FFF7F8
:101BD00023FD85429FD12046FFF7A2FE0B4C2068D3
:101BE000FFF7B8FC2368084A136003F15001094A63
:101BF00011605B6D5360FFF763FF8CE78DA30020DE
:101C0000ED18000864A30020480300204C030020C6
:101C10004403002050A500202DE9F04F83B001902F
:101C20008B4617461E46824B1B785BB106EBC703FB
:101C3000804A52F823305BB14FF00108404603B0B0
:101C4000BDE8F08FFFF73AFD794B01221A70EDE7FE
:101C5000902003F049FB8146764C4FEAC70A0AEB15
:101C6000060544F825008046019B436054F8253062
:101C7000C3F808B05846FEF745FC02460B466AA179
:101C8000D1E90001FEF7E2FD54F825B0FEF78CFF24
:101C9000ABF80C0054F825300C9A1A6154F8253032
:101CA0004AEA060A83F800A054F82520002382F8A7
:101CB000643054F82520C2F8689054F82520D36683
:101CC00054F825300D9ADA6454F82590900003F00A
:101CD0000BFBC9F8540054F82500436D002B00F0AD
:101CE0009A80FFF731FD54F8253093F858206FF3B0
:101CF000030283F8582054F8253093F858206FF3E6
:101D0000071283F8582054F825304FF00009C3F823
:101D10005C9054F82530C3F8609054F825300022C8
:101D20005A6454F82530C3F84090434B197854F85E
:101D3000250090F800C0012202FA0CFC41EAEC01F7
:101D4000C9B2197090F800C003EBDC03597802FAAD
:101D50000CF202F007020A435A70C0F82C9054F8B3
:101D60002530C3F8309054F82530C3F8349054F837
:101D700025002430FFF784FB54F825001430FFF7CA
:101D80007FFB54F825001C30FFF77AFB54F825A0A0
:101D9000FFF7B0FBCAF81400CAF8181054F8253041
:101DA000C3F8389054F8253083F83C9054F8250057
:101DB000FFF7D0FB54F82590142003F095FAC9F8EA
:101DC000780054F82510886F40B3FFF710FA1B4BCA
:101DD0001B78B3B954F82510194B0122896F1948A3
:101DE000FFF7E7F906EBC706124B53F8260000F1A0
:101DF00064017C30FFF7FBF9104A1378013313704C
:101E00001CE706EBC7030B4A52F82330996F0D48C5
:101E1000FFF71DFAE6E74FF000080FE74FF0000864
:101E20000CE700BFAFF300800000000080842E416B
:101E30008EA300204CA4002084A3002060A30020D7
:101E40001916000864A3002010B549F64040FFF7BA
:101E5000BFFA0020FFF7AAFA0020FFF7ADFA1148F9
:101E6000FFF7B0FAFFF702FB0F4C2046FFF708FB25
:101E7000FFF740FBC4E90001FFF7F4FD0B4B1860CE
:101E800050B100F150020A4B1A60426D5A60094A83
:101E900093E8030082E80300FFF7AEFBFFF710FEB4
:101EA00010BD00BFD11A00085803002048030020CD
:101EB00050A5002044A40020014B1870704700BFBB
:101EC0008DA3002038B504460D4662B9D0F8123013
:101ED00001209847D4F81A3028469847D4F8123091
:101EE0000020984738BDD0F8123000209847F1E71D
:101EF00070B505460C4600228D21FFF7E3FF14B9AB
:101F0000074E002408E0074EFBE70022315D28461B
:101F1000FFF7D8FF0134E4B2012CF6D970BD00BF41
:101F200050A000084CA0000870B5054600260BE044
:101F3000012200212846FFF7C5FF0134E4B214F066
:101F4000800FF5D00136F6B2072E12D8A6F1500157
:101F50000022C9B22846FFF7B5FF002211462846E5
:101F6000FFF7B0FF002210212846FFF7ABFF002447
:101F7000E5E770BD8020704740207047B0B3F8B5EA
:101F80000E460746A1B3002519E003EBC50256F83B
:101F90002220125D9A401143C9B20133DBB2072BF4
:101FA000F3D901223846FFF78DFF0134E4B214F073
:101FB000800F02D100210B46F1E70135EDB2072D6C
:101FC00012D8A5F150010022C9B23846FFF77AFFB6
:101FD000002211463846FFF775FF002210213846CF
:101FE000FFF770FF0024E2E70120F8BD00207047F2
:101FF0000020FAE710B50446D0F81630407998472B
:10200000D4F80A309847D4F806309847D4F80E3000
:10201000012098476420FFF7BFF9D4F80E30002064
:1020200098470022AE212046FFF74CFF0022D52121
:102030002046FFF747FF002250212046FFF742FFCE
:102040000022A8212046FFF73DFF00223F21204625
:10205000FFF738FF0022D3212046FFF733FF00228D
:1020600011462046FFF72EFF002240212046FFF7B1
:1020700029FF00228D212046FFF724FF0022142192
:102080002046FFF71FFF002214212046FFF71AFF0A
:10209000002220212046FFF715FF002202212046C2
:1020A000FFF710FF0022A0212046FFF70BFF0022C0
:1020B000C8212046FFF706FF0022DA212046FFF75D
:1020C00001FF002212212046FFF7FCFE00228121A1
:1020D0002046FFF7F7FE0022EF212046FFF7F2FE31
:1020E0000022D9212046FFF7EDFE0022F1212046F3
:1020F000FFF7E8FE0022DB212046FFF7E3FE002287
:1021000030212046FFF7DEFE0022A4212046FFF703
:10211000D9FE0022A6212046FFF7D4FE0022AF21DF
:102120002046FFF7CFFE2046FFF7FEFE012010BD40
:1021300008B5084B187004225A7002225A800122F6
:102140009A80054AC2F80130044A1268184690473E
:1021500008BD00BF90A30020A8A30020B800002065
:1021600008B50146034BDB68034AD2F801009847E3
:1021700008BD00BFB8000020A8A3002070B5094C1E
:1021800008232360084BA3600223A3800025257346
:10219000064E3368294620469847B36829462046AC
:1021A000984770BD98A30020000C0240D400002086
:1021B00070B5094C08232360084BA3600123A3805A
:1021C00000252573064E3368294620469847B36894
:1021D00029462046984770BDC8A30020000C024045
:1021E000D400002008B520B10146012802D000210A
:1021F00000E00221024B9B680248984708BD00BFDF
:10220000D400002098A3002008B520B10146012881
:1022100002D0002100E00221024B9B68024898474F
:1022200008BD00BFD4000020C8A300200C4B002232
:102230001A705A710B4AC3F816200B4AC3F81A20B9
:102240000A4AC3F806200A4AC3F80E20094AC3F80E
:102250000A20094AC3F812200120084B1870704761
:10226000A8A300203121000861210008B121000845
:10227000092200087D210008E5210008D9A30020DB
:1022800008B5084B00221A70FFF7D0FF38B1064B93
:102290001B680648984710B1024B01221A70014B87
:1022A000187808BDD8A3002000000020A8A30020B3
:1022B00010B5054B1C7824B10146044B9B680448BB
:1022C0009847204610BD00BFD8A300200000002082
:1022D000A8A3002010B582B00B4CE36998478DF895
:1022E0000000236A98478DF80100BDF80030ADF872
:1022F000043000209DF8043063F307009DF805309A
:1023000063F30F2002B010BD00000020642803D842
:10231000024B18720120704700207047E4A3002090
:1023200018B1034A1060406970470020704700BF31
:10233000DCA30020014B1868704700BFDCA300201D
:1023400008B5FFF7F7FF034600B10369184608BD5B
:1023500008B5FFF7EFFF18B1C3781BB9022008BD1D
:102360000020FCE70120FAE738B505460C46FFF7E8
:10237000E1FF28B10571FFF7DDFF4471012038BD91
:102380000020FCE730B583B0124D6B699847ADF87B
:1023900000009DF800406B699847ADF804009DF877
:1023A00005500020A84213D2002305E052F8202057
:1023B0000021D1540133DBB2A34206D2064A12688F
:1023C000002AF3D1002003B030BD0130C0B2E9E7EC
:1023D0000120F8E72400002004A40020012383400A
:1023E000024A107818431070704700BFE0A3002025
:1023F000014B1878704700BF6C000020054B1A781D
:1024000012F0020F05D1012303FA00F01043014B33
:10241000187070476C00002001238340024A107836
:1024200020EA0300107070476C000020F8B50446E5
:102430000D461646FFF77EFF034B1F6833462A46BC
:1024400021468068B847F8BD880000202DE9F0419A
:1024500082B004460D4616461F46FFF76BFF074B3A
:10246000D3F8108081689DF820300193009733469F
:102470002A462046C04702B0BDE8F081880000200F
:102480002DE9F04182B004460D4616461F46FFF77F
:1024900051FF074BD3F8088081689DF820300193E5
:1024A000009733462A462046C04702B0BDE8F08177
:1024B000880000202DE9F04182B004460D46164602
:1024C0001F46FFF737FF074BD3F80C8081689DF854
:1024D00020300193009733462A462046C04702B079
:1024E000BDE8F081880000202DE9F04182B004466B
:1024F0000D4616461F46FFF71DFF074BD3F8188001
:1025000080689DF820300193009733462A46214683
:10251000C04702B0BDE8F081880000202DE9F041FD
:1025200082B004460D4616461F46FFF703FF064BD2
:10253000D3F804808068009733462A462146C04776
:1025400002B0BDE8F08100BF880000202DE9F04115
:1025500082B004460D4616461F46FFF7EBFE074BBA
:10256000D3F8148080689DF820300193009733469B
:102570002A462146C04702B0BDE8F081880000200D
:1025800008B5FFF735FF10F0100F17D00220FFF746
:1025900035FF3A4B00221A7010E0394B1B68984700
:1025A00030B30020FFF738FF0220FFF727FF334A40
:1025B00013780133DBB21370052B56D0FFF718FFE9
:1025C0000346002856D02D4A1278134113F0010F0C
:1025D000EDD0042A4FD801A353F822F09B25000820
:1025E00077260008FF2500081B2600087326000830
:1025F0000020FFF7F3FE0120FFF700FFD7E7FFF70A
:10260000C1FE30B10220FFF707FF0320FFF7F6FEFF
:10261000CDE70120FFF7F2FEC9E71A4B5B7A002BEA
:10262000C5D0184B1B78CBB100221749154B9869C0
:10263000FEF71FFE58B9124B5B68144A10689847A2
:102640000320FFF7E9FE0420FFF7D8FEAFE70120E3
:10265000FFF7C4FE0120FFF7D1FEA8E70220FFF735
:10266000BDFE0120FFF7CAFEA1E7134600221A7043
:10267000A4E7012008BD0020FCE700BF00A4002063
:1026800024000020E4A300209126000804A40020D8
:10269000F0B585B00E468B884BB98C79264B5B69BB
:1026A0009847ADF800009DF800309C4201D0747945
:1026B0003DE0F479204B5B699847ADF804009DF844
:1026C00005309C42F3D1002411E01C4B1B6853F8E9
:1026D0002450B768184B5B699847ADF808009DF81F
:1026E00008203946284602F00FFE0134E4B2124BAE
:1026F0005B699847ADF80C009DF80D30A342E4D813
:1027000018E00E4B1D6855F824003379B27900218A
:10271000184402F007FE55F824003379B168B27905
:1027200051F82410184402F0EFFD0134E4B2F379BB
:10273000A342E6D805B0F0BD2400002004A4002088
:1027400008B5FEF7DDFE064A5368C31A127A9342B3
:1027500003D3034B5860012008BD0020FCE700BFF5
:10276000E4A3002030B3F8B5054603680BB9002098
:10277000F8BDDE799F79986802F0BEFD002407E07D
:102780002B689B6853F8240002F0B6FD0134E4B2D4
:10279000B442F5D307FB06F6084B1A6932441A61B6
:1027A000D9688E1BDE605B699A4205D800232B60D6
:1027B0000120DDE7002070470020D9E7E4A30020D6
:1027C0002DE9F04786B08246894690461F464B4B1E
:1027D0005E69002E3ED14A4C63699847ADF804000B
:1027E0009DF8055063699847ADF808009DF80830DA
:1027F00005FB03F3414A536103EB83035361136108
:1028000063699847ADF80C009DF80D00800002F058
:102810006BFD3C4B1860002832D0002401E00134ED
:10282000E4B2374B5B699847ADF814009DF815305A
:10283000A3420FD9324B5B699847ADF81000314B7A
:102840001D689DF8100002F04FFD45F82400002897
:10285000E5D115E0242002F047FD0646002845D0CA
:1028600080F804A080F8059080F80680C7710E9B60
:102870008361224B1B6908FB07F94B4504D20026F4
:10288000304606B0BDE8F087B80002F02DFDB0601C
:1028900070B30024BC420CD2B568404602F024FD5F
:1028A00045F82400B36853F824301BB30134E4B274
:1028B000F0E7124B1A69A2EB09021A61DA684A447E
:1028C000DA605A7A01325A720F4B33610F4B7361DF
:1028D000142002F009FD306270B13146FEF787FC2A
:1028E0009DF83C3033700023F370C9E70026C7E73A
:1028F0000026C5E70026C3E70026C1E7E4A30020C1
:102900002400002004A40020500000203C000020EF
:1029100008B5FFF70FFD80B10A4B1B78012B0ED9CC
:102920000021006AFEF7BAFC0220FFF767FDFFF7FF
:1029300001FD0023C370012008BD0020FCE700203A
:10294000FAE700BFE4A3002010B582B0FFF7F2FC65
:1029500078B30378B3B9FFF7EDFC0123C370164BCE
:102960009C69C4B1FFF7E6FC016A2046FEF76FFCE4
:102970000220FFF743FD104A137801331370012042
:1029800002B010BDC379827901210091002108466F
:10299000FFF7DCFDDFE7FFF7CDFC046A064B9C6127
:1029A000FFF7C8FC00231A46016A2046FEF701FC27
:1029B000DEE70020E4E700BFE4A3002023B150F8E5
:1029C000223001225A54704750F8223000225A54C3
:1029D000704700002DE9F04F83B007468A469846BD
:1029E0009DF830909DF834B0203AD3B201934C4614
:1029F000002300932EE0019B03EB43031D4A02EBEF
:102A00008303009A9D5C30E08BF00103224641462F
:102A10005046FFF7D3FF6D00EDB20134E4B2A4EBF2
:102A20000903BB420DD00136F6B2072E0ED815F0C1
:102A3000800FE9D05B46224641465046FFF7BEFF75
:102A4000E9E708F101085FFA88F84C46009B01337A
:102A5000DBB20093009BBB4209D20C2FCBD0064BBC
:102A6000019A03EB0213009A9D5C0026DDE703B098
:102A7000BDE8F08FE89500085C9A00082DE9F04366
:102A800083B007460E4615461C469DF828909DF8D3
:102A90002C800BE0CDF80480CDF800902346314621
:102AA0003846FFF797FF0834E4B201352A78002A48
:102AB000F0D103B0BDE8F0832DE9F04F85B001906F
:102AC000884691469DF83820591A4FFA81FAA2EBB0
:102AD000090B4FFA8BFBBAF1000F0EDD01230293B5
:102AE000BBF1000F17DD01230393DA4521DD5FFA07
:102AF0008AF700263546344620E0BAF1000F07D0A9
:102B0000A8EB03034FFA83FA4FF0FF330293E7E792
:102B1000CDF808A0E4E7BBF1000F07D0A9EB020253
:102B20004FFA82FB4FF0FF330393DEE7CDF80CB092
:102B3000DBE75FFA8BF7DCE70136F6B200977B1C28
:102B40009E421DDC01234A4641460198FFF736FFAD
:102B50005444E2B264B25D44EBB26DB2BC4205DDF6
:102B6000D21B54B2029A90445FFA88F8009A9542B8
:102B7000E2DDDB1B5DB2039B99445FFA89F9DBE779
:102B800005B0BDE8F08F2DE9F04383B080460E46D6
:102B900017469DF82C90CD18EDB2013DEDB29DF891
:102BA00028401444E4B2013CE4B2CDF80490009211
:102BB0002B46FFF781FFCDF80490009433463A4648
:102BC00031464046FFF778FFCDF8049000942B463D
:102BD0003A4629464046FFF76FFFCDF8049000942F
:102BE0002B46224631464046FFF766FF03B0BDE85C
:102BF000F083000070B586B004460D461E460949B4
:102C000003A803F0B7F89DF82C3001939DF8283005
:102C10000093334603AA29462046FFF72FFF06B04C
:102C200070BD00BF54A000082DE9F04F2DED028BC0
:102C300085B003900E4693469A469DF94450284627
:102C4000FDF770FC2CA3D3E90023FDF7FFFDFDF792
:102C5000CBFF0290002D02DB0024B14644E0683532
:102C60006DB2F9E70298FDF76FFC41EC180B41ECEF
:102C7000100B05F029FA57EC106B5046FDF752FC8B
:102C8000CDE9000102460B4630463946FDF7B4FC5B
:102C900006460F464846FDF745FC32463B46FDF7E3
:102CA000F5FAFDF781FF5FFA80F8B0EE480AF0EE22
:102CB000680A05F0C1F953EC102BDDE90001FDF7BE
:102CC0009BFC06460F465846FDF72CFC32463B4619
:102CD000FDF7DAFAFDF768FF0123C2B24146039817
:102CE000FFF76CFE0134E4B2AC42BBDB05B0BDECD7
:102CF000028BBDE8F08F00BFF8C1631ADCA54C4021
:102D000010B582B0682401949DF810400094FFF73C
:102D10008BFF02B010BD0000042805D0054A1368DF
:102D200023F0040313607047024A136843F004035E
:102D30001360704710E000E021B1036843F0010325
:102D400003607047036823F001030360704741602C
:102D50007047406880B270470A4B98420AD8A3F285
:102D60000F4311F0005F07D021F0F02121F0821114
:102D7000D9607047044BF4E721F0F02121F0821173
:102D8000996070470F64024000640240014B586133
:102D9000704700BF003C014000230F2B40D8F0B427
:102DA00025E084682240826082684C79AC402243EE
:102DB000826044689FB20126BE4024EA0604446053
:102DC00044688A79BA4092B222434260C2689CB297
:102DD00066000324B44022EA0402C260C268CC79CF
:102DE00004FA05F51543C56001330F2B16D80122EF
:102DF0009A400C68A243F7D104685D000322AA4000
:102E0000D2431440046004680E79AE403443046039
:102E10000C79013CE4B2012CD8D8C2E7F0BC704771
:102E200070470369194201D00120704700207047A4
:102E3000018370474183704730B401F007039B0062
:102E40009A40C908083150F821400F2505FA03F3CC
:102E500024EA030440F8214050F82130134340F89D
:102E6000213030BC7047000010B4294B9B6803F040
:102E70000C03042B23D0082B24D013B1254B036063
:102E800001E0244B0360224CA368C3F303132249DF
:102E9000CB5CDAB20368D3404360A268C2F38222FB
:102EA0008A5CD2B223FA02F28260A268C2F3423292
:102EB0008A5CD2B2D340C3605DF8044B7047174BB5
:102EC0000360E0E7124B5A685B6803F03F0312F4BB
:102ED000800F12D0114AB2FBF3F20D4B5B68C3F3C3
:102EE000881303FB02F30A4A5268C2F3014201321B
:102EF0005200B3FBF2F30360C5E7064AB2FBF3F2FC
:102F0000034B5B68C3F3881303FB02F3EBE700BFDB
:102F1000003802400024F400A800002000127A00CB
:102F200021B1054A136B034313637047024A136BC5
:102F300023EA0003136370470038024021B1054AB9
:102F4000136C034313647047024A136C23EA0003B3
:102F5000136470470038024021B1054A536C0343A3
:102F600053647047024A536C23EA0003536470476A
:102F70000038024021B1054A136A034313627047C7
:102F8000024A136A23EA00031362704700380240C2
:102F900021B1054A536A034353627047024A536A98
:102FA00023EA0003536270470038024008B52A4BF9
:102FB00098420FD0294B984217D0294B98421FD0E6
:102FC000284B984227D0284B98422FD0274B984225
:102FD00037D008BD01214FF48050FFF7D9FF002101
:102FE0004FF48050FFF7D4FFF3E701214FF4804006
:102FF000FFF7C0FF00214FF48040FFF7BBFFE8E779
:1030000001214FF40040FFF7B5FF00214FF40040CD
:10301000FFF7B0FFDDE701214FF40050FFF7B8FFE5
:1030200000214FF40050FFF7B3FFD2E701214FF426
:103030008010FFF7ADFF00214FF48010FFF7A8FFCD
:10304000C7E701214FF40010FFF7A2FF00214FF462
:103050000010FFF79DFFBCE7003001400038004042
:10306000003C004000340140005001400054014049
:103070002DE9F041038803F44152B1F800E0B1F8C2
:103080000280B1F804C0CF880E894D898C89CB8924
:103090004EEA080E4CEA0E0C47EA0C073E43354355
:1030A0002C43234313430380838B9BB223F400639D
:1030B0009BB283830B8A0382BDE8F08121B1038830
:1030C00043F040030380704703889BB223F0400322
:1030D0009BB2038070478089704781817047038964
:1030E000194201D00120704700207047028A83896D
:1030F0000B40114202D01BB90020704700207047DE
:1031000001207047C94389B201827047C1F30801A9
:10311000818070478088C0F30800704710B4C1F305
:10312000421401F01F01012303FA01F19C4209D06E
:10313000022C09D014304AB10368194301605DF8CC
:10314000044B70470C30F6E71030F4E7036823EACD
:1031500001010160F3E710B4C1F3421201F01F0452
:103160000123A340012A0DD0022A0ED0828A1340E7
:10317000090A012202FA01F10288114043B159B94A
:10318000002006E082891340F2E7028A1340EFE74D
:1031900000205DF8044B70470120FAE7090A01237B
:1031A0008B409BB2DB439BB20380704710B582B06B
:1031B00001210846FFF7B4FE114C052206212046E6
:1031C000FFF73AFE052207212046FFF735FE0522CC
:1031D00011462046FFF730FEE023009302238DF8CE
:1031E000043000238DF8063003228DF805208DF879
:1031F000073069462046FFF7CFFD02B010BD00BF83
:103200000000024070B582B001210220FFF788FE65
:10321000194C05220E212046FFF70EFE05220F2134
:103220002046FFF709FE05220D212046FFF704FE88
:103230004FF44043009302268DF8046000258DF87A
:10324000065003238DF805308DF807506946204657
:10325000FFF7A2FD4FF4005300938DF804608DF842
:1032600006508DF805608DF8075069462046FFF737
:1032700093FD02B070BD00BF0004024010B582B0E3
:1032800001210420FFF74CFE114C06220B212046A1
:10329000FFF7D2FD06220C212046FFF7CDFD0622C6
:1032A0000A212046FFF7C8FD4FF4E05300930223A4
:1032B0008DF8043000238DF8063003228DF80520A8
:1032C0008DF8073069462046FFF766FD02B010BD55
:1032D0000008024030B583B00D4614460121FFF7C7
:1032E0001FFE01238DF8043000228DF806208DF892
:1032F000073002238DF80530009569462046FFF718
:103300004BFD03B030BD30B583B00D4614460121EE
:10331000FFF706FE00238DF804308DF806300223F7
:103320008DF807308DF80530009569462046FFF787
:1033300033FD03B030BD08B5FFF773FD08BD08B518
:1033400022B1012A01D1FFF775FD08BDFFF770FD1D
:10335000FBE7000010B540F227711F48FFF7FBFEA6
:1033600060B140F225511C48FFF7F5FE80B940F2EC
:1033700024411948FFF7EFFEA0B910BD002240F22A
:10338000266100F1804000F58830FFF7C7FEE8E7CE
:10339000114C2046FFF7BEFE40F225512046FFF7B4
:1033A000FDFEE4E70D4C00212046FFF7C5FC0A4B6B
:1033B0009A881B882046FFF7CCFC09492046FFF776
:1033C000CBFC4FF480712046FFF7C1FC0121204661
:1033D000FFF7B2FCD1E700BF001001408864024053
:1033E0000008002010B540F227711F48FFF7B3FE18
:1033F00060B140F225511C48FFF7ADFE68B940F2BC
:1034000024411948FFF7A7FEA8B910BD002240F2D9
:1034100026611548FFF782FEEBE7134C2046FFF7C5
:1034200079FEC1B22046FFF771FE40F225512046D9
:10343000FFF7B4FEE3E70D4C00212046FFF77CFCCC
:10344000094B9A881B882046FFF783FC08492046D1
:10345000FFF782FC4FF480712046FFF778FC0121D2
:103460002046FFF769FCD0E7004400408860024036
:103470000008002010B540F227711F48FFF76BFECF
:1034800060B140F225511C48FFF765FE68B940F273
:1034900024411948FFF75FFEA8B910BD002240F291
:1034A00026611548FFF73AFEEBE7134C2046FFF77D
:1034B00031FEC1B22046FFF729FE40F225512046D9
:1034C000FFF76CFEE3E70D4C00212046FFF734FCCC
:1034D000094B9A881B882046FFF73BFC0849204689
:1034E000FFF73AFC4FF480712046FFF730FC0121D2
:1034F0002046FFF721FCD0E700480040286002404A
:103500000008001010B540F227711F48FFF723FE96
:1035100060B140F225511C48FFF71DFE68B940F22A
:1035200024411948FFF717FEA8B910BD002240F248
:1035300026611548FFF7F2FDEBE7134C2046FFF735
:10354000E9FDC1B22046FFF7E1FD40F225512046DA
:10355000FFF724FEE3E70D4C00212046FFF7ECFBCC
:10356000094B9A881B882046FFF7F3FB0849204641
:10357000FFF7F2FB4FF480712046FFF7E8FB0121D3
:103580002046FFF7D9FBD0E7001401402864024031
:103590000008001008B5034B53F82000FFF706FDA4
:1035A00008BD00BF70A00008F0B587B004460D4606
:1035B00017461E46204B53F820309847A4BB0121E4
:1035C0001E4B53F82400FFF7C7FC1D4B53F8244053
:1035D0002046FFF7EBFC00212046FFF76FFD4FF47C
:1035E0008273ADF806300023ADF80430ADF8083032
:1035F0004FF40072ADF80E20ADF81230ADF80A703D
:10360000ADF80C600723ADF814300E4B33F81530CD
:10361000ADF8103001A92046FFF72AFD0121204610
:10362000FFF74CFD07B0F0BD0121044B53F8240017
:10363000FFF784FCC9E700BF64A0000858A0000899
:1036400070A000087CA0000838B50D460A4B53F85E
:10365000204000212046FFF731FD23889BB223F054
:103660003803064A32F815201343238001212046EF
:10367000FFF724FD38BD00BF70A000087CA0000843
:1036800070B505460E46002402210A4B53F825006A
:10369000FFF725FD30B90134A4B2B4F57A7FF3D930
:1036A000002006E03146034B53F82500FFF715FDD7
:1036B000012070BD70A0000870B505460E460024BC
:1036C0000221154B53F82500FFF709FD30B90134ED
:1036D000A4B2B4F57A7FF3D900201BE0FF210E4B92
:1036E00053F82500FFF7F9FC002401210A4B53F899
:1036F0002500FFF7F4FC30B90134A4B2B4F57A7FA9
:10370000F3D9002006E0044B53F82500FFF7E3FC53
:103710003070012070BD00BF70A00008F8B50546EC
:103720000F46164600240221144B53F82500FFF7DC
:10373000D6FC30B90134A4B2B4F57A7FF3D90020B5
:103740001BE039460D4B53F82500FFF7C6FC00245B
:1037500001210A4B53F82500FFF7C1FC30B90134B1
:10376000A4B2B4F57A7FF3D9002006E0034B53F8F6
:103770002500FFF7B0FC30700120F8BD70A00008F4
:103780002DE9F84305460F461646204A52F82020F8
:1037900092894FF47A7403F1FF381FFA88F883B3E3
:1037A0006EB116F8019B0221184B53F82500FFF764
:1037B00096FC38B9631E9BB224B31C46F3E74FF066
:1037C000FF09F0E74946114B53F82500FFF785FC48
:1037D0004FF47A7401210D4B53F82500FFF77FFC5D
:1037E00020B9631E9BB26CB11C46F3E7074B53F83C
:1037F0002500FFF770FCC0B20FB107F8010B43467C
:10380000C9E744462046BDE8F88300BF70A0000821
:1038100008B501214FF08040FFF768FC012800D077
:1038200008BD01214FF08040FFF76CFCF8E7000075
:1038300008B501210548FFF759FC012800D008BD53
:1038400001210248FFF75EFCF9E700BF00040040D9
:1038500008B501210548FFF749FC012800D008BD43
:1038600001210248FFF74EFCF9E700BF00080040C5
:1038700070477047704710B514460A4621460078D5
:10388000FFF77EFF10BD08B50078FFF747FF08BDC2
:1038900008B50078FFF710FF08BD08B50078FFF7FE
:1038A000EFFE08BD08B541780078FFF7CDFE08BDF2
:1038B00008B50078FFF76EFE08BD08B5838842881A
:1038C00041780078FFF770FE08BD704708B5037BAC
:1038D000012B01D0002008BD81888068FFF72BFDF7
:1038E00008B90120F7E70220F5E708B5037B3BB9EB
:1038F000012907D0002281888068FFF720FD08BDDC
:103900000020FCE7012281888068FFF718FDF6E7B8
:1039100008B5017311B1012906D008BD82688188FC
:103920000068FFF7D7FCF8E7826881880068FFF736
:10393000EAFCF2E708B500F009F808BD10B5084642
:1039400014461146FFF7F6FF204610BD08B500F0FB
:103950002BFE002008BD0000C0EB0010C300064A8B
:10396000A2FB03129B1A02EB5302920800230133BD
:103970009A42FCD2704700BF2549922408B54FF403
:103980008020FFF703FA08BD08B5024800F0D5FC17
:1039900008BD00BF68A7002010B4C4786CB9033319
:1039A0009C10323200EB820080680023A34204D2D4
:1039B00051F8042B02600133F8E700205DF8044B56
:1039C000704710B403329210D0F8D04000239342D5
:1039D00004D2206841F8040B0133F8E708465DF88B
:1039E000044B704700B583B000230193019A42F065
:1039F00020020192019A61F38A120192C268019930
:103A00001161C268126901920133074A934203D8D7
:103A1000019A12F0200FF4D10320FFF79DFF002040
:103A200003B05DF804FB00BF400D0300C368586994
:103A300000F00100704708B5FFF7F8FF10F1FF3004
:103A400018BF012008BDC36858699B6918407047BA
:103A500003699B68C3F34103022B04D005D8012BF3
:103A600005D00320704701207047022070470220D4
:103A7000704703699B6882691168C3F34103022B95
:103A800009D06FF30A0111600269536843F480732F
:103A9000536000207047032363F30A01F3E730B457
:103AA00000244B78012B22D00D7805F1140200EB95
:103AB000820252680123AB4063F31F44136813F47E
:103AC000004F0DD18D6865F30A03CD7865F39343FC
:103AD000897961F3995343F0805343F400431360B1
:103AE0000269D3692343D361002030BC70470D784D
:103AF0002A1D00EB82029268AB4063F30F04DDE7FE
:103B000070B54B78012B20D00B78143300EB830376
:103B10005D682A682C694B69002B6BD18B6863F355
:103B20001204012363F3DC442C61C378012B71D0B0
:103B3000CB78012B76D042F004420B78143300EBA3
:103B4000830043681A60002070BD0B78043300EBDB
:103B500083039D682A682C694B69B3B96FF312041B
:103B6000012363F3DC442C61C378012B1CD0CB7898
:103B7000012B20D04B69F3B10C78012303FA04F434
:103B800005696B6B23436B6315E063F312048E6866
:103B90003344013BB3FBF6F363F3DC44CB78012BF6
:103BA000E1D163F35E74DEE70B78043300EB83034B
:103BB0009B680C695C61CB78012B10D042F0044209
:103BC0000B78043300EB83039B681A60CB78012BDE
:103BD000B9D18B8A0A78C968FFF7DEFEB3E70369BB
:103BE0009B6813F4807F02D142F00052E6E742F076
:103BF0008052E3E78E683344013BB3FBF6F3C3F333
:103C0000090363F3DC44C6F3120603FB06F363F314
:103C1000120489E70B78143300EB83035B680C69AB
:103C20005C6185E74B7913B142F0005283E742F0C3
:103C3000805280E730B482B04B78012B2ED00B78C5
:103C400003F1140200EB8202546822682469009494
:103C50004C69002C6CD18D689DF8004065F306041A
:103C60008DF800409DF80240012565F3C4048DF8ED
:103C70000240143300EB83035B68009C1C61C37833
:103C8000012B65D042F004420B78143300EB830023
:103C900043681A60002002B030BC704783691A681C
:103CA0001C6900944C6914BB9DF800406FF3060436
:103CB0008DF800409DF80240012565F3C4048DF89D
:103CC0000240009C1C61C478012C29D042F00442BF
:103CD0001A60C378002BDDD14B69002BDAD00A784B
:103CE000012393400269516B0B435363D2E78D6804
:103CF000AC420ED94D619DF8004065F306048DF885
:103D000000409DF80240012565F3C4048DF802408F
:103D1000D7E79DF8005064F306058DF80050F0E7F2
:103D20000C78043400EB8404A4680D696561CDE768
:103D30008D684D619DF8004065F306048DF80040E4
:103D40009DF80240012565F3C4048DF8024090E718
:103D50000B78143300EB83035B680C695C6191E7BB
:103D60004B78012B0AD00B78143300EB83004268A8
:103D7000116841F400131360002070470B7804337E
:103D800000EB830082681368002B03DB43F400130D
:103D90001360F1E743F08043F8E74B78012B0FD035
:103DA0000B78143300EB8300406802686FF35552C0
:103DB000CB78023BDBB2012B08D9026000207047B0
:103DC0000B78043300EB83008068EEE742F080520A
:103DD000F3E703699869DB691840000C70471431F8
:103DE00000EB81014B689A6803695869104070477D
:103DF00003699869DB69184080B2704782B000237C
:103E00000093C0238DF803304FF00003012262F3CA
:103E1000C4038DF8023018238DF80030436D009AEA
:103E20001A61C378012B01D002B0704700F2CC5266
:103E3000436D5A61436D1A684FF080221A60F3E7B0
:103E400010B50446837A43B1D0F80C316FF34103C7
:103E50006FF30003D0F80C2113602269536823F03C
:103E600001035360054B1B689B69204698474FF040
:103E70000043E2685361012010BD00BF1001002023
:103E800030B583B0054600248DF8074090F8123114
:103E90008DF80730164B1B685B6998472B699A6849
:103EA0004FF40064EB685C61AB7A33B112F0010F40
:103EB00003D095F81531012B02D0012003B030BD9D
:103EC0009DF80730DBB2032BF7D1D5F80C2113682E
:103ED00043F001031360D5F80C21136843F003038A
:103EE0001360044A136943F006031361E5E700BF5A
:103EF0001001002000ED00E010B50446044B1B68E3
:103F0000DB6898470823E2685361012010BD00BFB9
:103F10001001002010B50446044B1B68DB6998476C
:103F20004FF48013E2685361012010BD100100209E
:103F300010B50446044B1B681B6A98474FF40013E6
:103F4000E2685361012010BD1001002010B4026925
:103F50001469536BCB40DB01DBB22343043100EB2C
:103F600081008268906818405DF8044B704700003B
:103F70002DE9F0410746FFF72CFF044600252CE011
:103F800005F1140307EB83035B681969AA002A444F
:103F9000D3003B44D3F87C23C1F31201521AC3F877
:103FA0008C2332E016F0020F06D0022605F114032E
:103FB00007EB83035B689E6016F0080F0BD01E4B67
:103FC0001B689B6838469847082605F1140307EBE1
:103FD00083035B689E60013564084CB314F0010FE5
:103FE000F9D05FFA85F841463846FFF7F8FE0646F5
:103FF00010F0010FD6D0012605F1140307EB83035F
:104000005B689E60FB78B342BAD00B4B1B681B68A1
:10401000414638469847FB78012BC3D1002DC1D1CA
:1040200097F81131052BBDD13846FFF7E7FEB9E708
:104030000120BDE8F08100BF100100202DE9F04112
:1040400007460D468A000A44D3000344D3F83021C2
:10405000D3F83411521AD3F82431934200D31346C3
:1040600003F103084FEA98082B1D07EB83039B68B5
:104070009B691DE006F103084FEA9808AB002B444A
:10408000DC003C44B3B2EAB2D4F828113846FFF75A
:1040900083FCD4F828313344C4F82831D4F83431BF
:1040A0001E44C4F834612B1D07EB83039B689B6996
:1040B0009BB2434515D9AB002B44DA003A44D2F801
:1040C0003411D2F8303199420BD253B15B1A05EB5F
:1040D0008501CA003A44D2F824619E42CAD31E46E2
:1040E000C8E70120BDE8F0812DE9F0410746FFF760
:1040F0007FFE0546002628E014F0080F05D00824AE
:10410000331D07EB83039B689C6014F0100F05D0F0
:104110001024331D07EB83039B689C6014F0400F51
:1041200005D04024331D07EB83039B689C6014F08B
:10413000020F05D00224331D07EB83039B689C60AC
:1041400014F0800F31D101366D08002D38D015F0F4
:10415000010FF8D05FFA86F841463846FFF7F6FEC1
:10416000044610F0010FC7D0012303FA06F03969A5
:104170004A6B22EA00024A631C46321D07EB8202A8
:1041800092689360104B1B685B68414638469847BD
:10419000FB78A342B0D1002EAED197F81131042B99
:1041A000AAD13846FFF72AFEA6E731463846FFF780
:1041B00045FF8024331D07EB83039B689C60C2E7A7
:1041C0000120BDE8F08100BF100100202DE9F04181
:1041D0000446C268936923F010039361C3681D6AA3
:1041E00005F00F06C5F34343022B09D0062B23D05D
:1041F000E268936943F0100393610120BDE8F08108
:1042000047F6F0732B42F3D0C5F30A154FEA860840
:1042100008EB0603DF0007442A46D7F88013FFF7B0
:10422000D0FBD7F880332B44C7F88033D7F88C33D2
:104230001D44C7F88C53DBE7082200F2CC51FFF78E
:10424000C0FBC5F30A15B3009919CA002244D2F87D
:104250008C331D44C2F88C53CAE700002DE9F843A3
:1042600004460025A8462F462E460269536823F0CF
:10427000010353602946FFF7B5FB2B4662789A424B
:104280000DD91A1D04EB82029268FF21916003F19F
:10429000140204EB8202526891600133EEE7236955
:1042A0004FF0FF329A614FF0010969F30F0569F38E
:1042B0001F452369DD6148F00B082369C3F81480AA
:1042C00047F00B0723691F61226913686FF30A1314
:1042D00013602046FFF792FD46F48056E3685E6166
:1042E000034B1B681B69204698474846BDE8F88386
:1042F0001001002038B50446FFF7BBFBE368DD681A
:104300002046FFF7A5FB03280ED00123A37040230E
:10431000A380052363F38D25E368DD604FF400532C
:10432000E2685361012038BD0023A3704FF400738D
:10433000A380092363F38D25EEE72DE9F0410646BE
:10434000FFF779FB18B900242046BDE8F08130461C
:10435000FFF779FB054600285BD0C0F3074717F04D
:10436000080F29D1002417F0040F2AD15FFA85F82D
:1043700018F0020F02D00223F2685361002D25DBF2
:10438000C5F3072515F0080F25D118F0080F27D120
:1043900018F0100F29D115F0100F2BD115F0200FA8
:1043A0002DD117F0100F2FD117F0200FCCD03046A1
:1043B000FFF7BEFD0443C7E73046FFF7D9FD0446CB
:1043C000D1E73046FFF790FE0443CFE73046FFF7D2
:1043D00037FD0443D4E73046FFF752FD0443D4E7EA
:1043E0003046FFF789FD0443D2E73046FFF7EEFE83
:1043F0000443D0E73046FFF731FF0443CEE73046B1
:10440000FFF778FF0443CCE73046FFF783FD044312
:10441000CAE7044698E770B54DB2002D18DB01F0ED
:104420007F0606EB8606F40004F55C74044404344D
:1044300001F07F012170ED0F6570A260E37005B19E
:10444000E180022B0ED02146FFF729FB002070BD32
:1044500001F07F0606EB8606F40004F58C74044434
:104460000434E5E700232371EDE770B501F07F0424
:10447000A6003519E9000D4601F55C7101440431CF
:104480002E460544C5F88023C5F888330023C5F8B7
:104490008C3385F8753385F87443C378012B0AD0C3
:1044A00004EB8404E300034493F8743343B9FFF747
:1044B000C1FB002070BD33460344C3F88423EFE7FB
:1044C000FFF71EFBF5E770B501F07F05AE0071192F
:1044D000CC0004F58C740444211D2E44F4000444E3
:1044E000012684F81D6184F81C51C4F82821C4F801
:1044F0002C210022C4F83421C4F830311DB9FFF753
:1045000099FB002070BDFFF7FBFAFAE710B54AB23D
:10451000002A12DB01EB8104E30003F55C73034422
:10452000043301249C7001F07F011970D20F5A707E
:104530001946FFF715FC002010BD01F07F0404EBC5
:104540008404E30003F58C7303440433E9E710B5F6
:104550004AB2002A12DB01EB8104E30003F55C732D
:104560000344043300249C7001F07F011970D20FC2
:104570005A701946FFF711FC204610BD01F07F0468
:1045800004EB8404E30003F58C7303440433E9E78C
:1045900010B4002461F30A14026913682343136002
:1045A0005DF8044B7047000000228A4215D270B4B7
:1045B00002E001328A420DD2094C2368865C094D23
:1045C000EE5401332360B3F5006FF2D32346002489
:1045D0001C60EEE7002070BC70470020704700BFF1
:1045E00008A40020E8AD00200369024A12685A605E
:1045F00000207047E8B5002010B50446D0F8E83533
:104600001B699847032384F81231002010BD08B5B8
:1046100090F8123180F81331042380F81231D0F869
:10462000E835DB689847002008BD08B5D0F8E435C8
:10463000DB6903B19847002008BD08B5D0F8E43520
:104640001B6A9847002008BD08B5D0F8E4355B6ABE
:104650009847002008BD10B50446002340221946A3
:10466000FFF7D9FE0023402280212046FFF7D3FE2A
:10467000012384F81231D4F8E8355B68A0789847B4
:10468000002010BD10B582B00446694600F050F914
:104690009DF8001001F01F03012B10D05AB23AB15F
:1046A000022B11D001F080012046FFF72FFF03E01D
:1046B0006946204600F0ACFA002002B010BD694601
:1046C000204600F0C9FAF7E76946204600F0E0FA14
:1046D000F2E710B5044600294CD190F81131022BB5
:1046E00005D094F81631012B3DD0002010BDD0F834
:1046F0003821D0F824319A4212D9D21AC0F8382180
:10470000C178012906D092B2D4F82811204600F0D1
:10471000A1F8E6E7D0F828110B44C0F82831F2E7F9
:10472000D0F83C11B1FBF3F203FB12122AB98B4211
:1047300003D8D0F8403199420BD3D4F8E435DB6884
:104740001BB194F81221032A0AD0204600F0A1F8E8
:10475000C7E7114600F07EF80023C4F84031C0E7F7
:1047600020469847F1E72046FFF73EFF002384F8F4
:104770001631BAE70A46D0F8E4355B69002BB4D0AD
:1047800090F812110329B0D111469847ADE710B542
:10479000044679BB90F81131032B01D0002010BDE5
:1047A000D0F89033D0F87C23934215D99B1AC0F8E7
:1047B0009033C178012909D09A4228BF1A4692B293
:1047C000D4F88013204600F04DF8E7E7D0F88013C6
:1047D0001144C0F88013EFE7D0F8E4351B691BB132
:1047E00090F81221032A03D0204600F043F8D5E7C1
:1047F0009847F9E70A46D0F8E4359B69002BCDD0FD
:1048000090F812110329C9D111469847C6E710B58F
:104810000446D0F8E4351B689847D4F8E8359B681F
:104820009847002010BD08B5D0F8E4355B6898477C
:10483000002008BD10B504461346C4F83C21C4F856
:104840003821022280F811210A460021FFF73BFEA1
:10485000002010BD08B513460A460021FFF733FEBD
:10486000002008BD08B513460A460021FFF7FDFDEC
:10487000002008BD10B50446042380F81131002340
:104880001A461946FFF71FFE2046FFF7B7FA002029
:1048900010BD10B50446052380F8113100231A46D7
:1048A0001946FFF7E2FD2046FFF7A8FA002010BDE9
:1048B00010B504464B88012B02D0022B0AD010BD44
:1048C000C0F81831D0F8E4359B6898472046FFF7C8
:1048D000D1FFF4E78B8813F0FF0FF0D10269526823
:1048E0001B0A013B042B07D8DFE803F0030F131763
:1048F0001B00012363F306120C4B1A60012384F89A
:1049000016312046FFF7B6FFD9E7022363F30612FC
:10491000F2E7032363F30612EEE7042363F30612C0
:10492000EAE7052363F30612E6E700BFE8B50020D7
:1049300090F8CC350B7090F8CD354B7090F8CE35A3
:1049400090F8CF2503EB02234B8090F8D03590F8F8
:10495000D12503EB02238B8090F8D23590F8D32534
:1049600003EB02239BB2CB80C0F84031012380F8D7
:104970001131704710B504468021FFF7C7FD0021B3
:104980002046FFF7C3FD2046FFF738FA10BD30B5CB
:1049900083B005460C464A88130A013B062B78D89B
:1049A000DFE803F004163277776E7300D0F8EC3549
:1049B0001B680DF1060180789847E388402B03D0EF
:1049C00095F81231012B0ED10823ADF806300AE01C
:1049D000D0F8E4359B6A0DF10601807898470223F0
:1049E0004370C5F8F005BDF80620002A4BD0E388D7
:1049F000002B48D09A4228BF1A46ADF8062001463F
:104A00002846FFF717FF3EE0D2B2052A34D8DFE888
:104A100002F0030B131B232BD0F8EC355B680DF170
:104A2000060180789847DEE7D0F8EC359B680DF1F9
:104A3000060180789847D6E7D0F8EC35DB680DF1B1
:104A4000060180789847CEE7D0F8EC351B690DF168
:104A5000060180789847C6E7D0F8EC355B690DF120
:104A6000060180789847BEE7D0F8EC359B690DF1D8
:104A7000060180789847B6E72146FFF77BFF02E002
:104A80002146FFF777FF03B030BD2146FFF772FFE5
:104A9000F9E72146FFF76EFFF5E738B504468B8846
:104AA000E3B9CB88D3B98D7805F07F0590F8123142
:104AB000032B0CD080F814512946FFF769FD2046DE
:104AC000FFF7D8FE35B1022384F8123109E0FFF771
:104AD00051FF06E0012384F8123102E02046FFF77F
:104AE00049FF38BD10B504468B78204A1370012B5E
:104AF00008D890F81221022A07D0032A15D0FFF710
:104B000039FF01E0FFF736FF10BD5BB180F81031CF
:104B1000032280F812211946FFF779FE2046FFF79D
:104B2000A9FEF1E7FFF7A6FEEEE783B190F81011BA
:104B30008B4218D0FFF777FE0C4B197884F81011D0
:104B40002046FFF764FE2046FFF794FEDCE70222D2
:104B500080F8122180F810311946FFF764FE2046D4
:104B6000FFF788FED0E7FFF785FECDE718A4002009
:104B700008B5CB88012B08D190F81231022B07D051
:104B8000032B0AD0FFF7F6FE01E0FFF7F3FE08BDA6
:104B900001220549FFF74EFEF9E7012200F5887171
:104BA000FFF748FEF3E700BF10A4002008B590F817
:104BB0001231023B012B0DD8084B01221A60D0F8AC
:104BC000183113B1054B03221A6002220349FFF783
:104BD00031FE08BDFFF7CEFEFBE700BF0CA40020AE
:104BE00010B5044690F81231023B012B0DD84B88CA
:104BF000012B0CD10023C0F81831D0F8E4359B68A4
:104C000098472046FFF736FE01E0FFF7B3FE10BDE0
:104C100008B54B78092B1CD8DFE803F012181B15D8
:104C20001B09051B0F0CFFF7B2FE002008BDFFF7A4
:104C300034FFFAE7FFF756FFF7E7FFF799FFF4E7CE
:104C4000FFF7B4FFF1E7FFF733FEEEE7FFF7C8FF2A
:104C5000EBE7FFF78FFEE8E738B504460D4690F81E
:104C60001231032B0FD10B79012B09D8D0F8E43581
:104C70009B689847EB8843B92046FFF7FBFD04E0AB
:104C8000FFF778FE01E0FFF775FE002038BD000059
:104C900038B505460C468A88D1B26378012B2AD0F4
:104CA00058B200284BD0032B1FD195F81231022B9C
:104CB00006D0032B0BD021462846FFF75BFE14E0FD
:104CC00099B1802911D02846FFF720FC0DE06388B8
:104CD00013B909B180290AD1D5F8E4359B6821467A
:104CE000284698472846FFF7C5FD002038BD2846CE
:104CF000FFF70CFCF0E790F81231022B05D0032BE4
:104D00000AD02146FFF736FEEFE70029EDD08029D3
:104D1000EBD0FFF7FBFBE8E76388002BE5D109B197
:104D2000802903D12846FFF7A5FDDEE7FFF70FFC3A
:104D3000D5F8E4359B68214628469847F2E795F870
:104D40001231022B06D0032B0CD021462846FFF748
:104D500011FECAE70029C8D08029C6D02846FFF72F
:104D6000D5FBC2E712F0800F0FD101EB8101CB0020
:104D70002B4493F87633CBB10E4B01221A600222FA
:104D80000C492846FFF756FDAFE701F07F0101EB24
:104D90008101CB002B4493F81E311BB1054B01223E
:104DA0001A60ECE7034B00221A60E8E7014B00228F
:104DB0001A60E4E714A40020704700B583B0002314
:104DC0008DF80430FCF798FA8DF80400FEE7FEE752
:104DD000FEE7FEE77047704708B5012210210B4837
:104DE000FEF7ADFA0A4B1B786BB9094B01221A701A
:104DF0000220FDF761F8FCF7FFFD002210210348B7
:104E0000FEF79DFA08BDFCF7FBFDF6E70004024043
:104E100019A4002010B5074C012220212046FEF7DE
:104E20008EFAFCF743FB002220212046FEF787FA8A
:104E300010BD00BF0004024082B000230193009324
:104E40002A4A136843F480331360284B1B6803F429
:104E500000330093019B01330193009B1BB9019B1D
:104E6000B3F5A04FF1D1214B1B6813F4003F06D0DE
:104E700001230093009B012B04D002B07047002354
:104E80000093F7E7194B1A6C42F080521A641849E4
:104E90000A6842F440420A609A689A609A6842F44A
:104EA00000429A609A6842F4A0529A60114A5A608D
:104EB0001A6842F080721A600C4B1B6813F0007F76
:104EC000FAD00D4B40F205721A60A3F580639A6820
:104ED00022F003029A609A6842F002029A60034B41
:104EE0009B6803F00C03082BF9D1C6E70038024099
:104EF0000070004008544007003C024010B5104CC0
:104F0000D4F8883043F47003C4F888300D4B1A6825
:104F100042F001021A60002199601A6822F084723E
:104F200022F480321A60084A5A601A6822F48022F9
:104F30001A60D960FFF780FF4FF00063A36010BDD7
:104F400000ED00E0003802401030002410B5064C9F
:104F5000012208212046FEF7F2F90022082120460E
:104F6000FEF7EDF910BD00BF0004024010B5064C7D
:104F7000012204212046FEF7E2F900220421204606
:104F8000FEF7DDF910BD00BF0004024010B5064C6D
:104F9000012202212046FEF7D2F9002202212046FA
:104FA000FEF7CDF910BD00BF0004024010B5064C5D
:104FB000012211462046FEF7C2F9002201212046B7
:104FC000FEF7BDF910BD00BF0004024010B582B06D
:104FD000414C224601210220FEF77CF922460221A3
:104FE0000846FEF777F9224604210220FEF772F9FF
:104FF000224608210220FEF76DF9224610210220E8
:10500000FEF768F9224620210220FEF763F901220B
:1050100011462046FEF793F9012202212046FEF7B1
:105020008EF9012204212046FEF789F90122082188
:105030002046FEF784F9012210212046FEF77FF971
:10504000012220212046FEF77AF9FFF757FF4FF49F
:10505000FA730193214B009300231A464FF47A719F
:105060001F48FCF7D9FD1F4B1860C82401941E4B44
:105070000093012300224FF47A611C48FCF7CCFD19
:105080001B4B186001941B4B0093022300224FF42A
:10509000FA611948FCF7C0FD184B18600194184BD1
:1050A0000093032300224FF47A711648FCF7B4FDF5
:1050B000154B18600194154B0093042300224FF404
:1050C0007A711348FCF7A8FD124B1860FCF7BCFE80
:1050D000002002B010BD00BF0004024001520008D1
:1050E00088A000081CA400204D4F000890A00008D4
:1050F000F4B500206D4F000898A00008ECB5002022
:105100008D4F0008A0A00008F0B50020AD4F0008AA
:10511000A8A00008F8B500202DE9F04383B0314C79
:10512000E368322098472668012501952E4B0093AD
:1051300014231E2200210846B047DFF8C080C8F8BB
:10514000000026680195294B009314232822002192
:105150002020B047264F386026680195254B0093E4
:10516000142346221E211820B047234E3060636866
:10517000D8F80000984703699847D0F80890009540
:105180000223082231210C20C8476368D8F80000A8
:105190009847036898476368386898470369984751
:1051A000D0F8088000950223082232210C20C04745
:1051B0006368386898470368984763683068984719
:1051C00003699847876800950223082233210C2041
:1051D000B8476368306898470368984703B0BDE8EC
:1051E000F08300BF70000020B0A00008B8A0000845
:1051F00028A40020C0A000082CA4002024A4002083
:1052000008B5104B1B78012B09D0022B13D003B12A
:1052100008BDFFF781FF0B4B01221A70F8E70A4B1C
:105220001B69984718B1074B02221A70F0E7054B2B
:1052300001221A70ECE7044B5B699847014B01228D
:105240001A70E5E720A4002070000020DFF834D0B9
:10525000002103E00C4B5B58435004310B480C4BCE
:1052600042189A42F6D30B4A02E0002342F8043B6C
:10527000094B9A42F9D3FFF741FE00F011F8FFF70E
:10528000A5FE704700000220D8A6000800000020FC
:10529000E8020020E8020020FCB50020FEE7000044
:1052A00070B50D4D0D4C641BA4100026A64209D10B
:1052B0000B4D0C4C04F00AF9641BA4100026A64206
:1052C00005D170BD55F8043B98470136EEE755F817
:1052D000043B98470136F2E7D0A60008D0A60008A4
:1052E000D0A60008D4A60008024B0146186800F0BA
:1052F0006DB800BF18010020024B0146186800F08D
:1053000019B800BF180100200A44914200F1FF3390
:1053100000D1704710B511F8014B03F8014F9142CD
:10532000F9D110BD02440346934200D1704703F8FF
:10533000011BF9E737B5002944D051F8043C01902E
:10534000002BA1F10404B8BFE41801F093FE1E4A3B
:105350000198136833B96360146003B0BDE830404E
:1053600001F08EBEA34208D9256861198B4201BFA6
:1053700019685B6849192160EDE71A465B680BB153
:10538000A342FAD911685518A5420BD124682144CB
:105390005418A3421160E0D11C685B68536021443B
:1053A0001160DAE702D90C230360D6E7256861199A
:1053B0008B4204BF19685B68636004BF49192160B0
:1053C0005460CAE703B030BD30A40020F8B5CD1C4E
:1053D00025F0030508350C2D38BF0C25002D064699
:1053E00001DBA94203D90C2333600020F8BD01F092
:1053F00041FE21490A6814469CB9204F3B6823B9F5
:105400002146304600F0A6FC38602946304600F0C0
:10541000A1FC431C23D10C233360304601F030FE45
:10542000E3E723685B1B17D40B2B03D923601C44D1
:10543000256004E06368A2420CBF0B6053603046F5
:1054400001F01EFE04F10B00231D20F00700C21A1C
:10545000CCD01B1AA350C9E722466468CCE7C41C11
:1054600024F00304A042E3D0211A304600F072FC7D
:105470000130DDD1CFE700BF30A4002034A40020EC
:105480002DE9FF4755EC104B002D0E4619462B46D3
:10549000BBBF05F100431D4600232D230B700D9B60
:1054A000DDF830A0914623F02008BCBF2246144608
:1054B000B8F1460F05D0B8F1450F00D101360221F1
:1054C00000E0032103AB019302AB009345EC104BCA
:1054D0005346324600F0BCFDB8F1470F074602D1F3
:1054E00019F0010F22D0B8F1460F07EB060910D1D1
:1054F0003B78302B0AD10022002320462946FBF7B7
:10550000E3FA18B9C6F10106CAF80060DAF800300B
:1055100099440022002320462946FBF7D5FA08B11A
:10552000CDF80C903022039B4B4507D3039B0E9A7A
:10553000DB1B3846136004B0BDE8F087591C0391AB
:105540001A70F0E7F7B503460029B8BF494203F8DF
:10555000022BB4BF2D222B22092942702ADD0DF126
:105560000704A4460A27A6460A4691FBF7F607FB5E
:1055700016153035632A04F1FF340EF8015C31460C
:10558000F1DC3031AEF1020504F8011C441C29465F
:1055900061450AD30DF10902A2EB0E02654588BFF1
:1055A00000221344181A03B0F0BD11F8012B04F8BF
:1055B000012FEDE7302330318370C170031DF1E717
:1055C0002DE9F04F2DED028B8DB00C46DDF860809B
:1055D00016461F46054601F0E1FCD0F800A05046F3
:1055E000FAF7F6FD00230A9323680593D8F80030F4
:1055F00094F818B0073323F0070303F10802C8F842
:105600000020D3E90023C4E91223D4E9128929F048
:1056100000430793CDF8188008EE100A9F4BDDE990
:1056200006014FF0FF32FBF781FA88BBDDE9060186
:105630009A4B4FF0FF32FBF75BFA48BB0022002386
:1056400040464946FBF74AFA10B12D2384F843300F
:10565000934B9448BBF1470F94BF98468046032371
:105660002361059B23F0040222604FF0000900979C
:1056700033460BAA2146284600F0D8F9013040F005
:1056800090804FF0FF300DB0BDEC028BBDE8F08F85
:1056900042464B4640464946FBF748FA40B14B4626
:1056A000002BBCBF2D2384F843307F487F4BD1E7CC
:1056B00063680BF0DF0206925A1C3FD10623636039
:1056C000059B616843F48062002303930AABCDE934
:1056D00001B309AB49EC108B009322600DF1230359
:1056E0002846FFF7CDFE069B0999472B804608D137
:1056F000C81C02DB6368994241DDABF1020B5FFA23
:105700008BFBBBF1650F20D801395A4604F15000DC
:105710000991FFF717FF0A9A1318012A814623619E
:1057200002DC2268D20701D5013323619DF82330C2
:10573000002B9CD02D2384F8433098E7069A472A03
:10574000BED1002BBCD10123B9E7BBF1660F18D144
:10575000002963680BDD216113B92268D00702D5E7
:1057600001330B442361A1654FF00009DEE713B953
:105770002268D20701D50233F4E70123F2E74FF0A4
:10578000670B0A9B994205DB23682161D807EAD59C
:105790004B1CE7E70029D4BFC1F1020201221344E8
:1057A000E0E723685A0507D4236942463146284674
:1057B000B84701302CD164E7BBF1650F40F2E080BF
:1057C000D4E9120100220023FBF77EF9002834D02F
:1057D000374A012331462846B84701303FF451AFDC
:1057E000DDE909239A4202DB2368D80710D518EEB9
:1057F000103A524631462846B84701303FF441AF8F
:105800004FF0000804F11A090A9B013B434509DCEB
:1058100023689B0700F10581E0680B9B9842B8BFA5
:10582000184630E701234A4631462846B84701303A
:105830003FF427AF08F10108E6E7099B002B39DCAC
:105840001B4A012331462846B84701303FF419AFBF
:10585000DDE90923134302D12368D907D8D518EE0F
:10586000103A524631462846B84701303FF409AF56
:105870004FF0000904F11A0A099B5B424B4501DC19
:105880000A9B92E70123524631462846B847013029
:105890003FF4F7AE09F10109EEE700BFFFFFEF7F2C
:1058A000CCA00008D0A00008D8A00008D4A0000810
:1058B000DCA000080A9AA36D9A42A8BF1A46002AE3
:1058C000914637DC4FF0000B29EAE97904F11A021E
:1058D000A36D0593A3EB09035B4533DCDDE90923E5
:1058E0009A423BDB2368DA0738D40A9B059A099968
:1058F0009A1AA3EB01099145A8BF9146B9F1000F8F
:1059000035DC4FF0000829EAE97904F11A0ADDE9EB
:1059100009239B1AA3EB090343457FF779AF0123C2
:10592000524631462846B84701303FF4AAAE08F146
:105930000108ECE71346314642462846B847013095
:10594000C0D19EE60123314628460592B847013072
:105950003FF497AE059A0BF1010BB9E718EE103A38
:10596000524631462846B8470130BED189E6059AED
:105970004B46424431462846B8470130C1D180E603
:105980000A9A012A01DCDB0738D501234246314659
:105990002846B84701303FF474AE18EE103A52462C
:1059A00031462846B84701303FF46BAED4E91201C6
:1059B00000220023FBF788F8D8B90A9B08F10102FE
:1059C000013B31462846B84701300ED159E6012344
:1059D000524631462846B84701303FF452AE08F1EE
:1059E00001080A9B013B4345F1DC4B4604F15002A0
:1059F000DCE64FF0000804F11A0AF2E70123424600
:105A0000DFE701234A4631462846B84701303FF4D4
:105A100038AE08F10108E3680B995B1A4345F0DCE6
:105A2000FAE64FF0000804F11909F4E72DE9F04710
:105A3000164699468A680B69DDF820809342B8BF04
:105A40001346336091F8432007460C460AB10133F0
:105A500033602368990642BF336802333360256898
:105A600015F0060506D104F1190AE36832689B1A9D
:105A7000AB4226DC94F84320131E226818BF012392
:105A800092062BD404F1430249463846C047013000
:105A90001ED02368E568326803F00603042B08BFB4
:105AA000AD1AA36822690CBF25EAE575002593426B
:105AB000C4BF9B1AED1800261A34B5421AD1002033
:105AC00008E00123524649463846C047013003D119
:105AD0004FF0FF30BDE8F0870135C6E7E1185A1CEA
