:020000040800F2
:100000000000022095A90008F9A00008FBA0000844
:100010000FA1000811A1000813A1000800000000B2
:1000200000000000000000000000000015A1000812
:1000300017A100080000000019A100083DA1000858
:10004000E5A90008E5A90008E5A90008E5A9000858
:10005000E5A90008E5A90008AD700008D770000800
:10006000037100082F7100085B710008E5A9000802
:10007000E5A90008E5A90008517B0008E5A90008EA
:10008000E5A90008397B0008E5A90008E5A90008F2
:10009000E5A90008E5A90008E5A90008877100089E
:1000A000E5A90008E5A90008E5A90008E5A90008F8
:1000B000317A0008517A0008717A0008E5A9000831
:1000C000E5A90008E5A90008E5A90008E5A90008D8
:1000D000E5A90008456E0008F56E0008A56F000848
:1000E00065720008E5A90008C5820008E5A90008B6
:1000F000E5A90008E5A90008E5A90008E5A90008A8
:10010000E5A90008E5A90008E5A90008E5A9000897
:10011000E5A90008E5A90008E5A90008E5A9000887
:10012000E5A90008E5A90008E5A90008E5A9000877
:10013000E5A900080000000000000000E5A9000893
:10014000E5A90008E5A90008E5A90008D182000892
:10015000E5A90008E5A90008697B000829700008E6
:10016000E5A90008E5A90008E5A90008E5A9000837
:10017000E5A90008E5A90008000000000000000053
:08018000E5A90008E5A900084B
:1001900010B5054C237833B9044B13B10448AFF3C1
:1001A00000800123237010BD6005002000000000C6
:1001B000A0D8000808B5034B1BB103490348AFF3AF
:1001C000008008BD0000000064050020A0D80008E1
:1001D00010F8012B11F8013B012A28BF9A42F7D0F1
:1001E000D01A7047034613F8012B002AFBD1181AC6
:1001F000013870470000000000000000000000000F
:1002000001F0FF01102A2BDB10F0070F08D010F8C7
:10021000013B013A8B422DD010F0070F42B3F6D1CB
:10022000F0B441EA012141EA014122F007047FF0E4
:1002300000070023F0E80256083C85EA010586EA3B
:10024000010685FA47F5A3FA87F586FA47F6A5FA77
:1002500087F68EB9EED1F0BC01F0FF0102F0070283
:1002600032B110F8013B013A83EA010313B1F8D12E
:100270000020704701387047002D06BF354603380F
:10028000073815F0010F07D1013015F4807F02BF48
:10029000013015F4C03F0130F0BC0138704700BF99
:1002A00081F0004102E000BF83F0004330B54FEA27
:1002B00041044FEA430594EA050F08BF90EA020F94
:1002C0001FBF54EA000C55EA020C7FEA645C7FEA27
:1002D000655C00F0E2804FEA5454D4EB5555B8BF4A
:1002E0006D420CDD2C4480EA020281EA030382EABB
:1002F000000083EA010180EA020281EA0303362D4D
:1003000088BF30BD11F0004F4FEA01314FF4801C1F
:100310004CEA113102D0404261EB410113F0004F31
:100320004FEA03334CEA133302D0524263EB4303E8
:1003300094EA050F00F0A780A4F10104D5F1200E86
:100340000DDB02FA0EFC22FA05F2801841F10001E1
:1003500003FA0EF2801843FA05F359410EE0A5F1B5
:1003600020050EF1200E012A03FA0EFC28BF4CF0E6
:10037000020C43FA05F3C01851EBE37101F000459C
:1003800007D54FF0000EDCF1000C7EEB00006EEBA9
:100390000101B1F5801F1BD3B1F5001F0CD3490833
:1003A0005FEA30004FEA3C0C04F101044FEA44528A
:1003B00012F5800F80F09A80BCF1004F08BF5FEA11
:1003C000500C50F1000041EB045141EA050130BDF1
:1003D0005FEA4C0C404141EB0101013C28BFB1F503
:1003E000801FE9D291F0000F04BF01460020B1FA4E
:1003F00081F308BF2033A3F10B03B3F120020CDA21
:100400000C3208DD02F1140CC2F10C0201FA0CF0FE
:1004100021FA02F10CE002F11402D8BFC2F1200C63
:1004200001FA02F120FA0CFCDCBF41EA0C01904019
:10043000E41AA2BF01EB0451294330BD6FEA040462
:100440001F3C1CDA0C340EDC04F11404C4F120024D
:1004500020FA04F001FA02F340EA030021FA04F35F
:1004600045EA030130BDC4F10C04C4F1200220FAB6
:1004700002F001FA04F340EA0300294630BD21FAF4
:1004800004F0294630BD94F0000F83F4801306BFBA
:1004900081F480110134013D4EE77FEA645C18BFAE
:1004A0007FEA655C29D094EA050F08BF90EA020F45
:1004B00005D054EA000C04BF1946104630BD91EA3D
:1004C000030F1EBF0021002030BD5FEA545C05D140
:1004D0004000494128BF41F0004130BD14F580047F
:1004E0003CBF01F5801130BD01F0004545F0FE41F3
:1004F00041F470014FF0000030BD7FEA645C1ABF28
:10050000194610467FEA655C1CBF0B46024650EA5E
:10051000013406BF52EA033591EA030F41F400218A
:1005200030BD00BF90F0000F04BF0021704730B510
:100530004FF4806404F132044FF000054FF00001E5
:1005400050E700BF90F0000F04BF0021704730B5A6
:100550004FF4806404F1320410F0004548BF40427B
:100560004FF000013EE700BF42004FEAE2014FEAD0
:1005700031014FEA02701FBF12F07F4393F07F4FAB
:1005800081F06051704732F07F4208BF704793F0AE
:100590007F4F04BF41F40021704730B54FF46074C1
:1005A00001F0004521F000411CE700BF50EA0102C4
:1005B00008BF704730B54FF000050AE050EA01026D
:1005C00008BF704730B511F0004502D5404261EBDD
:1005D00041014FF4806404F132045FEA915C3FF41E
:1005E000D8AE4FF003025FEADC0C18BF03325FEABB
:1005F000DC0C18BF033202EBDC02C2F1200300FA6C
:1006000003FC20FA02F001FA03FE40EA0E0021FA90
:1006100002F11444BDE600BF70B54FF0FF0C4CF47E
:10062000E06C1CEA11541DBF1CEA135594EA0C0F30
:1006300095EA0C0F00F0DEF82C4481EA030621EA6B
:100640004C5123EA4C5350EA013518BF52EA0335A6
:1006500041F4801143F4801338D0A0FB02CE4FF058
:100660000005E1FB02E506F00042E0FB03E54FF088
:100670000006E1FB03569CF0000F18BF4EF0010E80
:10068000A4F1FF04B6F5007F64F5407404D25FEA7C
:100690004E0E6D4146EB060642EAC62141EA55512F
:1006A0004FEAC52040EA5E504FEACE2EB4F1FD0C71
:1006B00088BFBCF5E06F1ED8BEF1004F08BF5FEAEF
:1006C000500E50F1000041EB045170BD06F00046A1
:1006D00046EA010140EA020081EA0301B4EB5C044E
:1006E000C2BFD4EB0C0541EA045170BD41F4801146
:1006F0004FF0000E013C00F3AB8014F1360FDEBF6B
:10070000002001F0004170BDC4F10004203C35DA46
:100710000C341BDC04F11404C4F1200500FA05F3C9
:1007200020FA04F001FA05F240EA020001F000426A
:1007300021F0004110EBD37021FA04F642EB0601E0
:100740005EEA430E08BF20EAD37070BDC4F10C040A
:10075000C4F1200500FA04F320FA05F001FA04F2CE
:1007600040EA020001F0004110EBD37041F10001BA
:100770005EEA430E08BF20EAD37070BDC4F12005C5
:1007800000FA05F24EEA020E20FA04F301FA05F22D
:1007900043EA020321FA04F001F0004121FA04F2D5
:1007A00020EA020000EBD3705EEA430E08BF20EAA5
:1007B000D37070BD94F0000F0FD101F000464000DF
:1007C00041EB010111F4801F08BF013CF7D041EA61
:1007D000060195F0000F18BF704703F00046520065
:1007E00043EB030313F4801F08BF013DF7D043EA36
:1007F0000603704794EA0C0F0CEA135518BF95EAEC
:100800000C0F0CD050EA410618BF52EA4306D1D172
:1008100081EA030101F000414FF0000070BD50EA91
:10082000410606BF1046194652EA430619D094EA1B
:100830000C0F02D150EA013613D195EA0C0F05D105
:1008400052EA03361CBF104619460AD181EA030159
:1008500001F0004141F0FE4141F470014FF0000011
:1008600070BD41F0FE4141F4780170BD70B54FF0AC
:10087000FF0C4CF4E06C1CEA11541DBF1CEA13552C
:1008800094EA0C0F95EA0C0F00F0A7F8A4EB05040E
:1008900081EA030E52EA03354FEA013100F0888005
:1008A0004FEA03334FF0805545EA131343EA1263CE
:1008B0004FEA022245EA111545EA10654FEA002683
:1008C0000EF000419D4208BF964244F1FD0404F53C
:1008D000407402D25B084FEA3202B61A65EB030598
:1008E0005B084FEA32024FF480104FF4002CB6EB55
:1008F000020E75EB030E22BFB61A754640EA0C00D5
:100900005B084FEA3202B6EB020E75EB030E22BF14
:10091000B61A754640EA5C005B084FEA3202B6EB55
:10092000020E75EB030E22BFB61A754640EA9C0014
:100930005B084FEA3202B6EB020E75EB030E22BFE4
:10094000B61A754640EADC0055EA060E18D04FEAA2
:10095000051545EA16754FEA06164FEAC30343EA42
:1009600052734FEAC2025FEA1C1CC0D111F4801F0F
:100970000BD141EA00014FF000004FF0004CB6E708
:1009800011F4801F04BF01430020B4F1FD0C88BFA7
:10099000BCF5E06F3FF6AFAEB5EB030C04BFB6EBB2
:1009A000020C5FEA500C50F1000041EB045170BDA5
:1009B0000EF0004E4EEA113114EB5C04C2BFD4EBD2
:1009C0000C0541EA045170BD41F480114FF0000E56
:1009D000013C90E645EA060E8DE60CEA135594EAD2
:1009E0000C0F08BF95EA0C0F3FF43BAF94EA0C0FD5
:1009F0000AD150EA01347FF434AF95EA0C0F7FF44A
:100A000025AF104619462CE795EA0C0F06D152EA9D
:100A100003353FF4FDAE1046194622E750EA410681
:100A200018BF52EA43067FF4C5AE50EA41047FF492
:100A30000DAF52EA43057FF4EBAE12E74FF0FF3CF7
:100A400006E000BF4FF0010C02E000BF4FF0010CC8
:100A50004DF804CD4FEA410C7FEA6C5C4FEA430C41
:100A600018BF7FEA6C5C1BD001B050EA410C0CBF90
:100A700052EA430C91EA030F02BF90EA020F0020F2
:100A8000704710F1000F91EA030F58BF994208BF59
:100A900090422CBFD8176FEAE37040F00100704716
:100AA0004FEA410C7FEA6C5C02D150EA013C07D16D
:100AB0004FEA430C7FEA6C5CD6D152EA033CD3D0B8
:100AC0005DF8040B704700BF8446104662468C46B2
:100AD0001946634600E000BF01B5FFF7B7FF0028E5
:100AE00048BF10F1000F01BD4DF808EDFFF7F4FF0E
:100AF0000CBF012000205DF808FB00BF4DF808ED99
:100B0000FFF7EAFF34BF012000205DF808FB00BFBB
:100B10004DF808EDFFF7E0FF94BF012000205DF8DD
:100B200008FB00BF4DF808EDFFF7CEFF94BF012092
:100B300000205DF808FB00BF4DF808EDFFF7C4FF8B
:100B400034BF012000205DF808FB00BF4FEA410CD4
:100B50007FEA6C5C02D150EA013C0AD14FEA430CB7
:100B60007FEA6C5C02D152EA033C02D14FF00000F4
:100B700070474FF0010070474FEA410212F5001232
:100B800015D211D56FF47873B3EB625212D94FEAD4
:100B9000C12343F0004343EA505311F0004F23FABE
:100BA00002F018BF404270474FF00000704750EA13
:100BB000013005D111F0004008BF6FF000407047D0
:100BC0004FF00000704700BF4A0011D212F500122A
:100BD00011D20DD56FF47873B3EB62520ED44FEA95
:100BE000C12343F0004343EA505323FA02F0704715
:100BF0004FF00000704750EA013002D14FF0FF3053
:100C000070474FF00000704780F0004002E000BFE6
:100C100081F0004142001FBF5FEA410392EA030FE7
:100C20007FEA226C7FEA236C6AD04FEA1262D2EB31
:100C30001363C1BFD218414048404140B8BF5B4236
:100C4000192B88BF704710F0004F40F4000020F0CF
:100C50007F4018BF404211F0004F41F4000121F0E5
:100C60007F4118BF494292EA030F3FD0A2F101022F
:100C700041FA03FC10EB0C00C3F1200301FA03F16D
:100C800000F0004302D5494260EB4000B0F5000F90
:100C900013D3B0F1807F06D340084FEA310102F14F
:100CA0000102FE2A51D2B1F1004F40EBC25008BF01
:100CB00020F0010040EA03007047490040EB0000CB
:100CC000013A28BFB0F5000FEDD2B0FA80FCACF1CC
:100CD000080CB2EB0C0200FA0CF0AABF00EBC250F9
:100CE00052421843BCBFD0401843704792F0000FE7
:100CF00081F4000106BF80F400000132013BB5E73A
:100D00004FEA41037FEA226C18BF7FEA236C21D0AF
:100D100092EA030F04D092F0000F08BF0846704714
:100D200090EA010F1CBF0020704712F07F4F04D1E2
:100D3000400028BF40F00040704712F100723CBFF5
:100D400000F50000704700F0004343F0FE4040F41F
:100D5000000070477FEA226216BF08467FEA2363DD
:100D60000146420206BF5FEA412390EA010F40F4C8
:100D7000800070474FF0000304E000BF10F0004314
:100D800048BF40425FEA000C08BF704743F09643FB
:100D900001464FF000001CE050EA010208BF704716
:100DA0004FF000030AE000BF50EA010208BF70479D
:100DB00011F0004302D5404261EB41015FEA010CB2
:100DC00002BF84460146002043F0B64308BFA3F1AA
:100DD0008053A3F50003BCFA8CF2083AA3EBC2538C
:100DE00010DB01FA02FC634400FA02FCC2F12002AB
:100DF000BCF1004F20FA02F243EB020008BF20F0E2
:100E00000100704702F1200201FA02FCC2F1200247
:100E100050EA4C0021FA02F243EB020008BF20EA3C
:100E2000DC70704753B94AB9002908BF00281CBFBD
:100E30004FF0FF314FF0FF3000F074B9ADF1080C06
:100E40006DE904CE00F006F8DDF804E0DDE90223E8
:100E500004B070472DE9F047089D04468E46002BEC
:100E60004DD18A42944669D9B2FA82F252B101FA5E
:100E700002F3C2F1200120FA01F10CFA02FC41EA6E
:100E8000030E94404FEA1C48210CBEFBF8F61FFAF3
:100E90008CF708FB16E341EA034306FB07F199428E
:100EA0000AD91CEB030306F1FF3080F01F81994241
:100EB00040F21C81023E63445B1AA4B2B3FBF8F01B
:100EC00008FB103344EA034400FB07F7A7420AD9A2
:100ED0001CEB040400F1FF3380F00A81A74240F2CA
:100EE00007816444023840EA0640E41B00261DB135
:100EF000D4400023C5E900433146BDE8F0878B426A
:100F000009D9002D00F0EF800026C5E90001304628
:100F10003146BDE8F087B3FA83F6002E4AD18B4202
:100F200002D3824200F2F980841A61EB03030120AC
:100F30009E46002DE0D0C5E9004EDDE702B9FFDE98
:100F4000B2FA82F2002A40F09280A1EB0C014FEA43
:100F50001C471FFA8CFE0126200CB1FBF7F307FBA0
:100F6000131140EA01410EFB03F0884208D91CEB43
:100F7000010103F1FF3802D2884200F2CB804346E0
:100F8000091AA4B2B1FBF7F007FB101144EA0144BF
:100F90000EFB00FEA64508D91CEB040400F1FF314E
:100FA00002D2A64500F2BB800846A4EB0E0440EA3C
:100FB00003409CE7C6F12007B34022FA07FC4CEA45
:100FC000030C20FA07F401FA06F31C43F9404FEA38
:100FD0001C4900FA06F3B1FBF9F8200C1FFA8CFE4D
:100FE00009FB181140EA014108FB0EF0884202FAA1
:100FF00006F20BD91CEB010108F1FF3A80F0888062
:10100000884240F28580A8F102086144091AA4B21E
:10101000B1FBF9F009FB101144EA014100FB0EFE9F
:101020008E4508D91CEB010100F1FF346CD28E45CE
:101030006AD90238614440EA0840A0FB0294A1EB5F
:101040000E01A142C846A64656D353D05DB1B3EBBC
:10105000080261EB0E0101FA07F722FA06F3F140EC
:101060001F43C5E9007100263146BDE8F087C2F193
:101070002003D8400CFA02FC21FA03F3914001430B
:101080004FEA1C471FFA8CFEB3FBF7F007FB103644
:101090000B0C43EA064300FB0EF69E4204FA02F4F0
:1010A00008D91CEB030300F1FF382FD29E422DD943
:1010B000023863449B1B89B2B3FBF7F607FB163378
:1010C00041EA034106FB0EF38B4208D91CEB0101F8
:1010D00006F1FF3816D28B4214D9023E6144C91A78
:1010E00046EA004638E72E46284605E70646E3E688
:1010F0001846F8E64B45A9D2B9EB020864EB0C0E92
:101100000138A3E74646EAE7204694E74046D1E7A0
:10111000D0467BE7023B614432E7304609E764444E
:10112000023842E7704700BF03690A6902610B6138
:1011300070478C4651B1096941B10161DCF80C106E
:10114000C160CCF804308CF8002001E00021C160BF
:1011500002704360002383607047034620B1002083
:1011600018619860D86070476FF00100704738B51B
:1011700004460D46FFF7F1FF00B9256138BD08B5FB
:10118000C3681BB18068FFF7FAFF08BD8160C860C3
:10119000FBE708B50346C06810B1FFF7FAFF08BDCA
:1011A000D9608B60FBE738B543687BB104460D46D8
:1011B000006958B1096949B1984738B12A69824232
:1011C00005D0E06840B12946FFF7EDFF38BD29465C
:1011D0002046FFF7A9FFF4E7E560AC600023EB6071
:1011E000F4E7A0B199B108B543684B6003780B7080
:1011F000012B06D0022B07D003B108BDFFF7BFFFBC
:10120000FBE7FFF7C6FFF8E7FFF7CDFFF5E770470D
:10121000D0B1F8B50C4616461D46074611B10BB9BC
:101220000169A047F86820B12B4632462146FFF7F6
:10123000EFFF64B1012D01D00020F8BD32463969BD
:101240003846A0470020F8E76FF001007047002003
:10125000F3E7E8B1F8B50C4616461D46074629B136
:1012600023B90169A047069B984214D0F86820B1C1
:101270002B4632462146FFF7CBFF74B1012D01D03A
:101280000020F8BD324639693846A0470020F8E70B
:101290006FF0010070470020F3E70020F1E7F0B1A4
:1012A00008B50346826862B1C06850B1D0609A68E0
:1012B000826000229A60DA6009B1186988470020CC
:1012C00008BD0AB1D86830B1002AF5D1DA68002A21
:1012D000F2D01346F0E7D0609860D860ECE76FF08A
:1012E000010070470249034B0A681A60704700000A
:1012F00028ED00E07C05002010B582B000240194A8
:101300001349144B0A681A60EFF3098393B9EFF39A
:1013100009830E4B1B68002B0FDB13F0804F0FD19E
:101320000A4B1B6813F0020F01D044F00204204660
:1013300002B010BDEFF30883EBE74FF00104ECE7D8
:1013400044F00204FFF7CEFF0190E9E7800500209A
:101350002CED00E08005002010B44FF0E02254692D
:101360000D4B1B7800FB03F34FEA430C93690021FC
:1013700004E0E01A02441144614509D21A464FF0D4
:10138000E0239B699A42FAD0F3D9D21A1144F3E7C9
:101390005DF8044B704700BF8405002010B504E0E1
:1013A0004FF47A70FFF7D8FF2046441E0028F7D18B
:1013B00010BD0000014B1861704700BF8805002078
:1013C000014B5861704700BF88050020014B9861B0
:1013D000704700BF88050020014B9868704700BF28
:1013E000880500200000000038B50546204C002389
:1013F0002377FFF797F802460B461BA1D1E90001BE
:10140000FFF734FAFFF7E0FBA060E560FFF78AF82A
:1014100002460B4614A1D1E90001FFF727FA044662
:101420000D46144B1868FFF77DF822462B46FFF750
:101430001DFAFFF7C9FB0138B0F1807F0AD24FF0E7
:10144000E02358610C4AF02182F8231000229A61AF
:1014500007221A61042004F0AFFC084804F0B8FE2B
:10146000012038BDAFF300800000000080842E41D1
:10147000880500201C03002000ED00E0AC050020E2
:1014800008B5034B01221A771B6903B1984708BDC1
:101490008805002000220023C0E900237047824213
:1014A00073EB010C03D2801A61EB03017047101A31
:1014B00063EB01017047000008B50E4B1B7F012B49
:1014C00001D0002008BD0B4B00225A7798681A689B
:1014D0005968121841F100011A60596001225A77C7
:1014E000054B1B6803B19847024B9B6903B19847B2
:1014F0000120E7E788050020A8050020014BD3E97B
:10150000000170478805002008B54FF47A72002367
:101510000249D1E90001FFF785FC08BD88050020DC
:10152000034A13685168C01841F10001704700BFB9
:1015300088050020054B1A685B68904271EB030335
:1015400001D2002070470120704700BF88050020AD
:10155000FEE7000010B590F800C04FEADC020CF086
:10156000070E0A4B19784FF0010C0CFA02F42143D4
:10157000C9B2197013445A780CFA0EFC42EA0C02F4
:10158000D2B25A70002380F8483010BD10A7002056
:10159000007800F0070C0D4B03EBD0035A780121C3
:1015A00001FA0CF122EA01025A70597861B900B5CA
:1015B0004FEAD00E05490B78012202FA0EF223EA17
:1015C00002030B705DF804FB704700BF04A7002006
:1015D000007800F0070C0D4B03EBD0035A78012183
:1015E00001FA0CF122EA01025A70597861B900B58A
:1015F0004FEAD00E05490B78012202FA0EF223EAD7
:1016000002030B705DF804FB704700BF10A70020B9
:1016100005484FF0FF010170002080F3098803485E
:10162000016881F30888704722ED00E0E80500209A
:10163000034690B1A3B103B1B1B100B518784FF032
:10164000000E0A7800F0070002F00702F6450ED8F7
:101650000ED190420AD30BD909E00029EAD101E06A
:101660000029E8D0084670471946FBE719460846A6
:101670005DF804FB10B5044603786FF3C5030370EF
:10168000DBB26FF302030370002343608360838146
:101690000361C362036343638363002242640364A0
:1016A00080F85C300366436600F15C017430FFF73C
:1016B0005EFD04F12400FFF7EDFE04F11400FFF7D6
:1016C000E9FE04F11C00FFF7E5FE052384F848302D
:1016D00010BD0000F8B54FF4205200211B4809F05E
:1016E000B5F91B4B1B4A1A60002718E01A4D04EB92
:1016F000C70655F82600FFF7BDFF55F82620002342
:10170000D36455F82620536555F82620136545F80F
:1017100026300134E4B2072CE8D90137FFB2072F95
:1017200001D80024F7E70D4B00221A705A611A61A4
:10173000DA600B4B1868FFF79DFF0A4B01221A7005
:10174000094BF02283F82220F8BD00BFEC050020F1
:10175000E8050020E8A50020ECA50020ECA600206C
:10176000BC05002019A7002000ED00E010B50446DC
:10177000C26C92008B21406D09F068F904F15403AA
:10178000E26C02F18042013A03EB820323F007038B
:101790004FF0807243F8042C084A22F0010243F80B
:1017A000082C074A43F80C2C002243F8202C6FF039
:1017B000020243F8242C443B236510BD1119000894
:1017C0005115000810B584B06846FFF763FE02A803
:1017D000FFF760FEFFF792FE02460B460290039170
:1017E0000D49D1E90001FFF75AFE02460B46CDE94B
:1017F00000230A4B1C6801341C60FFF7CDFA06EE8B
:10180000900A07EE904AF8EE677A87EEA67A044BC4
:1018100083ED007A04B010BDE0050020DC05002057
:10182000D805002000B583B06846FFF733FE354B7E
:101830001C680CE0FFF762FEE06121626062A16259
:1018400012E0022384F848302F4B00221A6094F8EB
:101850004830002BFBD1A3652046FFF7B9FE2A4B89
:101860001C60A36B002BE5D0012384F8483023696A
:1018700020469847A36B0133A363A26D636B9A4222
:1018800000D96263236C13442364626AA36AE0692B
:10189000216AFFF704FE02460B46CDE90023256CC2
:1018A000FFF77AFA06EE900A07EE905AB8EE677ADA
:1018B000C7EE267AC4ED117A9FED147A67EE877A27
:1018C000C4ED117AA36D226B13442363A26B012A2A
:1018D00001D95B082363A089FFF722FE6062A16241
:1018E000A56B002DADD0FFF757FA06EE900A07EE74
:1018F000905AF8EE677A87EEA67ABCEEC77A84ED46
:101900000B7A9EE7C8050020BC0500200000C842F5
:1019100008B5094B186800B908BD084A13780133A7
:10192000DBB21370064A1278934201D0FFF77AFFB8
:10193000044B01221A70F9E7C80500201AA70020FD
:10194000ECA600201CA70020B1B110B50C460B4B33
:101950001B78DBB2022B01D0002010BD91F848307B
:10196000022BF9D1486A896AFFF7E4FD0028F3D118
:101970002046FFF7EFFDEFE70020704719A7002092
:1019800010B590F800C04FEADC020CF0070E0A4BCD
:1019900019784FF0010C0CFA02F42143C9B2197006
:1019A00013445A780CFA0EFC42EA0C02D2B25A7076
:1019B000042380F8483010BD04A70020034B044ADC
:1019C00092E8030083E80300704700BFC0050020D1
:1019D000CC050020144B1B781BB3134B1A78D2B2E2
:1019E00012498A5C13445B78DBB2CB5C03EBC20028
:1019F0000F4951F8200000B1704710B50A4991F81D
:101A000000E04FF0010C0CFA02F42EEA040E81F80B
:101A100000E00A4451780CFA03F321EA03035370FF
:101A200010BD0020704700BF04A70020F8D90008AF
:101A3000ECA50020000000000000000000000000F5
:101A4000074B19680868B0E8F04F1EF0100F08BF88
:101A5000B0EC108A80F30988BFF36F8F704700BF26
:101A6000C005002008B5FFF7EBFF08BD000000002F
:101A7000EFF30980BFF36F8FDFF850301A681EF064
:101A8000100F08BF20ED108A20E9F04F10602DE9FB
:101A900009004FF0500080F31188BFF34F8FBFF360
:101AA0006F8FFFF78BFF4FF0000080F3118809BCA8
:101AB00019680868B0E8F04F1EF0100F08BFB0ECCE
:101AC000108A80F30988BFF36F8F7047C00500202C
:101AD000144B1B781BB3134B1A78D2B212498A5C91
:101AE00013445B78DBB2CB5C03EBC2000F4951F8C7
:101AF000200000B1704710B50A4991F800E04FF09E
:101B0000010C0CFA02F42EEA040E81F800E00A44FB
:101B100051780CFA03F321EA0303537010BD00203F
:101B2000704700BF10A70020F8D90008ECA50020DE
:101B300002484FF0805101607047000004ED00E062
:101B4000524B1B78DBB2022B40F09F8070B5504B9C
:101B50001B78BBB9FFF7BCFF4E4B1860FFF73AFF8D
:101B600004464D4B18604D4B1D6895B1494B1E689E
:101B7000B5426BD02EB131462846FFF759FD86425B
:101B80003DD070BD0123002245494648FFF740FB88
:101B9000E0E7B8B13F4B1D6875B3A84205D00146D8
:101BA0002846FFF745FD84421BD0AC4219D0394B83
:101BB0001A6802F150013C4B1960526D5A60FFF7F0
:101BC000B7FFDEE7334B1B6843B103F15001364AE0
:101BD00011605B6D5360FFF7ABFFD2E7FFF7F2FDDB
:101BE000CFE72046FFF7D4FC2B4B1B68022283F87B
:101BF0004820284A1360DAE7264B1860D7E72846C2
:101C0000FFF7E6FC254B1868FFF7BAFE224B1C686D
:101C100034B1204B19682046FFF70AFD84420AD0F0
:101C20001C4B1A6802F150011F4B1960526D5A602B
:101C3000FFF77EFFA5E72046FFF7AAFC164B1B68BF
:101C4000022283F84820134A1360E9E728B10146CD
:101C50002846FFF7EDFC84420AD00E4B1A6802F1C9
:101C60005001114B1960526D5A60FFF761FF88E710
:101C70002846FFF785FE084C2068FFF76BFC054BF4
:101C800002221A6022681A60E7E7704719A700204D
:101C90001CA70020C8050020D4050020BC0500209A
:101CA00049190008F0A60020CC0500200000000023
:101CB0002DE9F84F81460E4615461C46744B1B789D
:101CC00053B104EBC503734A52F8233053B14FF0BC
:101CD000010A5046BDE8F88FFFF7FCFC6C4B01226F
:101CE0001A70EEE7882000F0B3F98346694F04EBE1
:101CF000C50847F828008246C0F8049057F82830F5
:101D00009E603046FEF70EFC02460B465EA1D1E90E
:101D10000001FEF7ABFD57F82860FEF755FFB081D4
:101D200057F828300A9A1A6157F82820EB00234305
:101D3000137057F82820002382F85C3057F82820C9
:101D4000C2F860B057F82820536657F828300B9A2D
:101D5000DA6457F82860900080B200F079F9706575
:101D600057F82800436D002B00F08880FFF7FEFC39
:101D70003E46474656F828304FF00008C3F85880D2
:101D800056F8273000225A6456F82730C3F84080AE
:101D9000414B197856F8270090F800C0012202FA4A
:101DA0000CFC41EAEC01C9B2197090F800C003EBD9
:101DB000DC03597802FA0CF202F007020A435A7067
:101DC000C0F82C8056F82730C3F8308056F82730FA
:101DD000C3F8348056F827002430FFF75BFB56F831
:101DE00027001430FFF756FB56F827001C30FFF78A
:101DF00051FB56F82790FFF781FBC9F81400C9F88A
:101E0000181056F82730C3F8388056F8273083F872
:101E10003C8056F82700FFF79DFB56F827801420DA
:101E200000F016F9C8F8700056F82710086F40B394
:101E3000FFF79DF9194B1B78B3B956F82710184BCB
:101E40000222096F1748FFF774F904EBC504114B20
:101E500053F8240000F15C017430FFF788F90F4A51
:101E600013780133137034E704EBC503094A52F8C1
:101E70002330196F0B48FFF7B4F9E6E74FF0000A7B
:101E800027E74FF0000A24E70000000080842E417D
:101E90001BA70020ECA5002010A70020ECA6002026
:101EA00031160008F0A6002010B549F64040FFF7B3
:101EB0009BFA0020FFF77EFA0020FFF781FA114815
:101EC000FFF784FAFFF7DCFA0F4C2046FFF7E2FA3F
:101ED000FFF714FBC4E90001FFF7FAFD0B4B186094
:101EE00050B100F150020A4B1A60426D5A60094A23
:101EF00093E8030082E80300FFF78AFBFFF718FE70
:101F000010BD00BF411B0008E0050020C8050020EF
:101F1000CC050020C0050020014B1870704700BFA1
:101F200019A70020064B1B6823B193F84820D2B2B2
:101F3000012A00D070479A6D10449865FAE700BFF7
:101F4000BC050020012383F31388BFF34F8F05499D
:101F5000CA6802F4E062044B1343CB60BFF34F8FB7
:101F600000BFFDE700ED00E00400FA05154A4FF45C
:101F700080331360002353600121918203E0124AF1
:101F80000021D1540133B3F5803FF8D30F490E4AF5
:101F90000A6000238B800E490E48016002F57040F4
:101FA000C0F8F83FA0F8FC3F064B4FF6F870D86039
:101FB00011604FF6F071D96091809960012283F829
:101FC000202070472CA700200000001024A700202C
:101FD000F8FF001020A700201B4B00E01B681A68C8
:101FE0008242FBD3002B2DD09A8813FA82F28242D0
:101FF0000BD0828800EB020C19688C450DD01A6852
:10200000026098421ED0186070479A88818811FA41
:1020100082F292B29A801846EBE710B41C680B4922
:1020200009688C420CD0196889880A4482801A6831
:1020300012680260984200D018605DF8044B704747
:102040000160F7E7704700BF24A7002020A7002009
:1020500070B5044672B62A4B93F8203093B1002C29
:1020600043D00834A2B214F0030F03D022F00302CD
:10207000043292B21546224B9B689A4239D82149C4
:102080000C6807E0FFF772FF1D4B1E4A1A61E6E776
:1020900021461C46A388934202D22368002BF7D125
:1020A00004F07040184B984225D1184B1B68A3428E
:1020B00023D013488369013383610E68083623688F
:1020C0000B60A388991A082909DC0D4B9A68521BEA
:1020D0009A605A682A445A600023236006E0601917
:1020E0008180A280FFF778FFEFE7002662B63046D6
:1020F00070BD0026FAE70026F8E70026F6E700BFE5
:102100002CA7002024A700200000001020A70020FA
:10211000D8B108B502460D49CB690133CB61083807
:1021200052F8083C03B108BD72B632F804CC0B4635
:102130004968A1EB0C01596032F8041C9A680A4402
:102140009A60FFF749FF62B6EDE770472CA70020C1
:1021500002460378302B05D0302B0AD0302B13D019
:10216000002014E0417878290AD05829F4D10320BE
:102170000DE05178622905D04229EFD1012006E017
:10218000032004E0012002E0022000E01A4613468A
:1021900013F8011B39B152782E2AF7D15A78002A48
:1021A000F4D004207047704703463038C0B2092885
:1021B00010D9A3F16102D2B2052A07D9A3F14102D5
:1021C000D2B2052A05D8373BD8B27047573BD8B2B0
:1021D0007047002070470000034640785C2800D01C
:1021E00070479878302837D0FAD37428F8D8622806
:1021F000F6D3A0F16203122BF2D801A252F823F019
:102200004D220008E1210008E1210008E121000839
:10221000E1210008E1210008E1210008E121000896
:10222000E1210008E1210008E1210008E121000886
:1022300051220008E1210008E1210008E121000805
:102240005D220008E121000855220008082070479F
:102250000A20704709207047002070470D20BFE713
:1022600070B506460378222B02D03546002409E0DB
:102270000136FAE7681EFFF7AFFF3055013501352B
:102280000134A4B22B7843B15C2BF3D0222B01D0C4
:102290003355F4E700233355F1E73355304670BD2D
:1022A0002DE9F843064603782D2B17D04FF001098E
:1022B00000203044FFF74CFF8046022815D0032849
:1022C00016D001280ED000230A27B9F1FF3F12D003
:1022D000002213441E440024234610E04FF0FF392F
:1022E0000120E6E702231F46EFE701230827ECE77A
:1022F00002231027E9E70122EBE7013601243078B9
:1023000058B12E28F9D003FB07F5FFF74DFF2B1826
:1023100004EB840464000136F1E7B8F1040F13D133
:1023200094B107EE903AF8EE677A07EE104AB8EEED
:10233000477AC7EE876A07EE909AF8EEE77A67EE7B
:10234000A67A17EE900A01E003FB09F0BDE8F883D6
:1023500010B504460023826D013100F020FE20B14B
:102360000146204600F0DCFE10BD0020FCE708B569
:10237000844608460B78272B0BD02D2B0FD0A3F1CA
:102380003002D2B2092A0AD9242B0BD093B90020EB
:1023900008BD4A78002AF0D0FFF71EFFF8E7FFF7E4
:1023A0007FFFF5E74278002AF0D001466046FFF74C
:1023B000CFFFEDE7FFF754FFEAE72DE9F0478CB0D8
:1023C0000646894615461F462022002104A808F02B
:1023D0003DFB99F8028008F00F08A84501DA05F1E5
:1023E000FF3800240CE004F1010A57F82A103046A7
:1023F000FFF7BDFF0CAB03EB840444F8200C5446FC
:1024000005F1FF3CA445EEDCB8F1070F49D8DFE841
:1024100008F0040A0F151C242E3AD9F80830984702
:102420000CB0BDE8F087D9F8083004989847F7E772
:10243000D9F80830059904989847F1E7D9F8083099
:10244000069A059904989847EAE7D9F80840079B47
:10245000069A05990498A047E2E7D9F80840089B36
:102460000093079B069A05990498A047D8E7D9F8E6
:102470000840099B0193089B0093079B069A0599C6
:102480000498A047CCE7D9F808400A9B0293099B1F
:102490000193089B0093079B069A05990498A0470F
:1024A000BEE74FF0FF30BBE708B5044B98664FF42A
:1024B00000720349184600F0ABFD08BD50A700208C
:1024C000BCA700200048704750A700200023042B21
:1024D0000BDC1946054A52F8232012B101331BB216
:1024E000F5E7024B43F8210070477047C8A9002068
:1024F0000246002002E01354013080B20B5C002B36
:10250000F9D1135470478446002318461CF8032061
:102510007AB110B4CC5C4CB1A24207D1013080B288
:1025200001339BB21CF80320002AF3D15DF8044B61
:1025300070477047437803F00F03012B05D9072B31
:1025400005D9082B05D8C0687047C0687047C068B7
:102550007047C068704730B5002306E01A1D00EBD5
:1025600082020021516001331BB2072BF6DD0021EE
:10257000C1860B4601250DE002699E46D41812F86B
:1025800003C0BCF1220F15D0BDB924785C2C23D038
:1025900001339BB282899A4225D90029ECD1026984
:1025A000D418D25C202A01D0002AE5D10022227062
:1025B0000125EDE781F00101E6E7C58E072D09D879
:1025C00005F1010CA0F836C0043500EB85056C6000
:1025D0000025DAE70025D8E772445278002AD7D0E0
:1025E00001339BB2D4E730BD10B504460023A0F8F8
:1025F0005430B0F850305BB1B0F8523053B3013BB7
:102600000E3304EB830321695868FDF7E1FD00B345
:10261000B4F852300E3304EB830321695868FFF796
:1026200067FF20B1B4F852300133A4F85230B4F847
:10263000503001339BB2A4F85030052B02D905234A
:10264000A4F85030B4F85230042B02D90023A4F877
:10265000523010BD0423D3E770B5054600240AE0CC
:1026600000211170221D05EB820251680131516079
:102670000CE00134A4B2EB8EA34216D92346221DEE
:1026800005EB8202526811782229E9D0043305EB68
:1026900083035E683046FDF7A5FD83B2013BF25C23
:1026A000222AE6D10022F254E3E770BD002301E0C4
:1026B00001331BB2042B0ADC064A52F8230000281F
:1026C000F6D090F8602012F0020FF1D000E0002068
:1026D000704700BFC8A9002000B583B08DF807106F
:1026E000836E01210DF10700984703B05DF804FBEC
:1026F00008B5C3898289934200D308BD0269591C79
:10270000C181D15CFFF7E8FFF7E7C38903B97047E0
:1027100010B504460821FFF7DFFFE389013BE381A1
:1027200010BD38B5856E35B10C460846FDF75AFD2B
:1027300081B22046A847002038BD000010B50446ED
:102740000160886850B1037853B1E38E012B18D92A
:10275000A169FDF73DFDB0B1002202E0012200E0D9
:10276000012294F8603062F3000384F86030094974
:102770002046FFF7D6FF94F8603013F0010F04D124
:1027800010BD0022EDE70122EBE703492046FFF7E9
:10279000C8FFF5E710DB00081CDB000810B5044695
:1027A00090F8603013F0010F19D091B9236859687F
:1027B0002046FFF7B6FF0C492046FFF7B2FFA1689D
:1027C00059B12046FFF7ADFF08492046FFF7A9FFA2
:1027D00010BD0749FFF7A5FFE8E70649F1E70649FD
:1027E000FFF79FFFF4E700BFDCDB0008E0DB000839
:1027F00038DC0008D8DB0008E4DB000810B504462C
:10280000036899680069FDF7E3FC68B994F86030E3
:1028100043F0010384F8603006492046FFF781FF4A
:102820000023A381E38110BD03492046FFF779FF10
:10283000F6E700BF1CDB000800DC000808B5FFF766
:1028400035FF10B10149FFF76CFF08BD10DB000830
:1028500098B10EB410B5A3B0044626AB0193259AE7
:102860007F2102A808F0C4FD02A92046FFF759FF06
:1028700023B0BDE8104003B0704770470B7843B1F8
:102880004A7802F00F02082A03D002681278134235
:102890000DD090F8603013F0010F0BD14B7813F08E
:1028A000100F01D0002070474FF0FF3070474FF0FD
:1028B000FF3070470020704700230B72082304E0AC
:1028C0003032013BDBB2CA54000928B100F00F02DC
:1028D000092AF5D95732F4E7C3F1080040B270472E
:1028E000002304E00E4A3021D1540133DBB2082B1F
:1028F000F8D9437803F00F03012B05D9072B05D92D
:10290000082B05D84068704740687047406870479A
:1029100010B5034C21464068FFF7CEFF204610BD9E
:10292000BCA9002010B4041E04DB22460023CB7295
:102930000B2011E06242F9E7114B83FB023CD317F5
:10294000C3EBAC039C4603EB8303A2EB43030138C8
:10295000C0B230330B546246002AEDD1002C0ADBA2
:102960001CB90138C0B230230B54C0F10B0040B287
:102970005DF8044B70470138C0B22D230B54EFE7CC
:102980006766666670B584B004460E46184B01ADA6
:1029900093E8070085E8070016492046FFF7C1FEC7
:1029A00029463046FFF7BEFFC0F10B0129442046FF
:1029B000FFF7B7FE10492046FFF7B3FE002307E0FC
:1029C00004AA1A444FF0300C02F80CCC01331BB2AD
:1029D0000A2BF5DD01A93046FFF76EFF01A920465D
:1029E000FFF79FFE05492046FFF79BFE04B070BD30
:1029F00028DC000814DC000820DC000838DC0008B3
:102A000070B505460E460846FFF76AFF01462846A0
:102A1000FFF787FEC0F1160424B2002C17DD2D212C
:102A20002846FFF759FE013C24B2002CF7D17378F9
:102A300003F00F03012B0CD9072B0FD9082B12D948
:102A4000092B15D80D492846FFF76BFE05E0042435
:102A5000E5E70B492846FFF764FE70BD09492846A3
:102A6000FFF75FFEF9E708492846FFF75AFEF4E74B
:102A700006492846FFF755FEEFE700BF48DC00088F
:102A800034DC00083CDC000840DC00084CDC0008BA
:102A9000F8B50646876D0F49FFF743FE002401E0B5
:102AA000013424B2B6F85C309C4211DA07EB04150D
:102AB0006B7803F00F03012BF2D829463046FFF75D
:102AC000DDFE0028ECD129463046FFF799FFE7E705
:102AD000F8BD00BF54DC000808B5FFF7E7FD08B1FA
:102AE000FFF7D6FF08BD0000F8B50646876D104910
:102AF000FFF717FE002401E0013424B2B6F85C3081
:102B00009C4214DA07EB04156B7803F00F030E33C5
:102B100003F00F03052BEFD829463046FFF7AEFE32
:102B20000028E9D129463046FFF76AFFE4E7F8BDFF
:102B300068DC000808B5FFF7B9FD08B1FFF7D4FF5E
:102B400008BD0000F8B50646876D0F49FFF7E9FD9F
:102B5000002401E0013424B2B6F85C309C4211DA62
:102B600007EB04156B7803F00F03082BF2D129460D
:102B70003046FFF783FE0028ECD129463046FFF7A8
:102B80003FFFE7E7F8BD00BF78DC000808B5FFF7B6
:102B90008DFD08B1FFF7D6FF08BD0000F8B5064669
:102BA000876D0F49FFF7BDFD002401E0013424B219
:102BB000B6F85C309C4211DA07EB04156B7803F031
:102BC0000F03092BF2D129463046FFF757FE0028A4
:102BD000ECD129463046FFF713FFE7E7F8BD00BF09
:102BE00088DC000808B5FFF761FD08B1FFF7D6FFE4
:102BF00008BD08B5FFF74CFF08BD000038B5054615
:102C000004E005492846FFF78CFD21464B1EDCB247
:102C10000029F6D138BD00BF98DC000838B505465C
:102C20008489C389E41A24B205E020212846FFF7ED
:102C300053FD013C24B2002CF7DC297B2846FFF72A
:102C4000DDFF38BD10B50446002919DDB0F9542068
:102C5000531EA0F85430B0F85230B0F850108B42E8
:102C600038BF0B4659428A4201DCA4F85410204672
:102C7000FFF7D4FFB4F9543083B9A381E38110BDC9
:102C80000029FCDAB0F9543001331BB2A0F85430FB
:102C9000002BECDD0023A0F85430F0E7B4F852200C
:102CA00005321A440C4981FB0231D317C3EB61038F
:102CB00003EB8303D31A0E3304EB830359682069B3
:102CC000FFF716FCA0810028D9D0E08121692046B9
:102CD000FFF727FDD3E700BF6766666608B50121E9
:102CE000FFF7B0FF08BD08B54FF0FF31FFF7AAFFAF
:102CF00008BD00002DE9F84F0546B0F834A08389DF
:102D000043B102694FF0000802F80380876D444622
:102D1000C14624E0FFF76DFF01212846FFF73EFD85
:102D20005EE007EB081841462846FFF769FE40467B
:102D3000FFF7D6FD80463046FFF7D2FD01464046FC
:102D4000FFF7E1FB824528BF82461FFA8AFA1FFA85
:102D500084F809F101091FFA89F9013424B2B5F8A0
:102D60005C309C421EDA07EB041631462846FFF71A
:102D700085FD0028F1D1D5F810B03046FFF7B0FD41
:102D800001465846FFF7BFFBAB899842E5D1B9F140
:102D9000000FDCD0B9F1010FC3D11A492846FFF763
:102DA000C0FCBEE7B9F1000F1AD0B9F1010F19D07C
:102DB0002C6907EB08173846FFF792FD01462046BD
:102DC000FFF796FBA881B9F1010F0FD82A69AB89EB
:102DD0000021D154AB89EB8129692846FFF7A1FC7A
:102DE000BDE8F88F2846FFF719FFE1E73946284686
:102DF000FFF706FE01212846FFF7D0FCA5F80CA03E
:102E0000E4E700BF38DC000870B504468389828E91
:102E1000013A934207DAC289934210D093424ED9C5
:102E20009B1A1BB223E02649FFF77BFC01212046B9
:102E3000FFF7B4FC21692046FFF773FC3FE002690D
:102E4000581CA081D1542269A3890020D054E38961
:102E50000133E3812046FFF73FFC30E02069E2893F
:102E60001A44851815F8015C8554013B1BB2002BF0
:102E7000F4DC2269E389581CE081D1542269A389DA
:102E800001339BB2A3810021D154E689013E36B2C1
:102E900006E02369995D2046FFF71EFC013636B235
:102EA000A589AE42F5DBE389ED1A2DB205E00821D4
:102EB0002046FFF711FC013D2DB2002DF7DC70BD5F
:102EC0009CDC000838B50446B1F1FF3F14BF002375
:102ED0000123C2890AB9012955D0A089824203D0B1
:102EE000824205D01BB219E0B1F1FF3FF8D14AE0B0
:102EF0000129F7D1013AE281431E9BB2A3812269E5
:102F00000021D15401212046FFF778FE3BE02069E3
:102F10001A44551E825C425501331BB2A089E289D6
:102F2000851AAB42F3DB0138A081B1F1FF3F06D136
:102F30002269A3890021D154B4F90E500DE0013A61
:102F4000E28108212046FFF7C7FBF1E72369595DBD
:102F50002046FFF7C1FB01352DB2A3899D42F5DB69
:102F600020212046FFF7B8FBA589E389ED1AADB211
:102F700001352DB205E008212046FFF7ADFB013DEC
:102F80002DB2002DF7DC38BD08B50121FFF79AFFFF
:102F900008BD08B54FF0FF31FFF794FF08BD2DE9DC
:102FA000F04780468A4617469946B0F85C60836DC4
:102FB000D31AC3F30F13F31A9EB2002406E04A4655
:102FC000504608F0D5F900B30134A4B2B4421BD284
:102FD00007EB041595F801C00CF00F0CBCF1090FBC
:102FE000F2D029464046FFF749FC0028ECD128469C
:102FF000FFF776FC0146B9F1000FE0D15046FDF72E
:10300000E7F80028E0D100E000252846BDE8F08779
:1030100010B5044672B600238381C381A0F85430F2
:10302000A0F85030A0F85230036090F8600040F0F3
:10303000010084F8600021611648A0FB022C4FEAD1
:103040009C0CA4F834C009E003FB0CC0084403F155
:103050000E0204EB8202506001331BB2042BF3DD3D
:103060000D4AA2650D4B9B1A1B09A4F85C30204643
:10307000FFF72CFA0023A26D09492046FFF78FFFC6
:1030800001462046FFF75AFB01212046FFF786FB49
:1030900062B610BDABAAAAAAB8D80008F8D9000831
:1030A000C0DC000870B504460D46FFF7FFFA20B1FA
:1030B0000646012C02D0012C03DC70BDFFF799FD00
:1030C000FBE70023826D6968FFF769FF0446D8B10A
:1030D00010493046FFF725FB2046FFF701FC01466B
:1030E0003046FFF71EFB0C4D29463046FFF719FB13
:1030F0002046FFF71FFA01463046FFF712FB29462C
:103100003046FFF70EFBD8E704493046FFF709FBCE
:10311000D3E700BFD0DC000838DC0008E4DC00089E
:1031200008B54B7803F00F03023B052B16D8DFE8F8
:1031300003F003060A0D0D0F8B68186808BD8B6835
:10314000B3F90000FAE78B681878F7E78868F5E7C5
:103150008A68536823B110689847EFE70020EDE7CD
:103160000020EBE770B584B004460D46274B93E88A
:10317000070004AB03E9070029462046FFF7D0FF0C
:10318000064669682046FFF7CCFA21492046FFF73A
:10319000C8FA6B7803F00F03052B10D001A9304655
:1031A000FFF7C0FBC0F10B0101AB19442046FFF74C
:1031B000B8FA18492046FFF7B4FA002315E0164D77
:1031C00029462046FFF7ADFA31462046FFF7A9FA17
:1031D00029462046FFF7A5FA11E004AA1A444FF049
:1031E000300C02F80CCC01331BB20A2BF5DD01A91F
:1031F0003046FFF761FB01A92046FFF792FA074925
:103200002046FFF78EFA304604B070BD28DC000877
:10321000F8DC000820DC0008FCDC000838DC0008D2
:1032200070B505460C464B7813F0400F0AD14B7829
:1032300003F00F03023B052B07D8DFE803F00B0E6A
:103240001114191D1249FFF76CFA21462846FFF7A1
:1032500089FF70BDA3681A60F7E7A3681A80F4E7D6
:10326000A3681A70F1E71146A068FFF741F9ECE78F
:103270000849FFF756FAE8E7A3689E68002EE4D0F5
:10328000186810B11146B047DFE71046B047DCE7D9
:1032900000DD00081CDD000870B504460D46FFF790
:1032A00005FA20B306460023826D2146FFF777FE1C
:1032B000014660B1437803F00F030E3303F00F03B0
:1032C000052B0AD82A463046FFF7AAFF70BD0949E8
:1032D0003046FFF726FA0020F8E721463046FFF790
:1032E00020FA05493046FFF71CFA0020EEE70020DF
:1032F000ECE700BF30DD000840DD000870B5044693
:103300000D4690F8603043F0020380F860304B784F
:1033100013F00F0314D0012B23D04A7802F00F02D0
:103320000E3202F00F02052A2AD9082B2CD00026D3
:1033300094F860306FF3410384F86030304670BD1C
:10334000FFF78AF9AB6804F11401E08E984706464E
:103350006B7813F0200FEBD101462046FFF712FBEC
:10336000E6E700F11403C28EFFF727F806466B78F4
:1033700013F0200FDCD101462046FFF703FBD7E70F
:10338000FFF7F0FE0026D3E7FFF7D8F90026CFE7D6
:1033900008B590F860206FF3820280F86020FFF794
:1033A00033FD08BD83895BB310B504460269002173
:1033B000D15490F8603013F0010F1ED0FFF714F9CC
:1033C0002046FFF7C8F80023E381A381E38EB3B161
:1033D0000C492046FFF7A5F90023A26D616920463C
:1033E000FFF7DDFD014618B12046FFF787FF06E035
:1033F00005492046FFF795F901E0FFF7FFF910BDF9
:10340000704700BF38DC0008E4DC000810B5044653
:10341000FFF7C8FF01212046FFF7C0F910BD0000EB
:10342000002965D02DE9F04706468A46836B13F4E0
:103430007F4F08D113F47F090AD113F07F4F0ED1CB
:103440004FF0180808E06FF0FF094FF0000803E0A4
:10345000DFF8A0904FF00808B76D00240DE04FF0A2
:103460007F494FF01008F7E7AB680BB1304698473B
:103470000023B36333E0013424B2B6F85C309C42DD
:103480002ADA07EB04156B7803F00F03092BF2D14E
:1034900029463046FFF7F2F90028ECD16B6803EAC1
:1034A0000901B26B9142E6D1FF2101FA08F10B400C
:1034B0000AFA08F18B42DED10A43B263B8F1000F79
:1034C000D2D06B68A8F10800FF2202FA00F0034294
:1034D000CAD04FF0000ACEE7BAF1000F01D1BDE823
:1034E000F0870023B36351463046FFF751FFF6E7FC
:1034F000704700BF0000FFFF38B504460D4662B9B3
:10350000D0F8123001209847D4F81A30284698474E
:10351000D4F812300020984738BDD0F8123000207F
:103520009847F1E770B505460C4600228D21FFF75C
:10353000E3FF14B9074E002408E0074EFBE7002222
:10354000315D2846FFF7D8FF0134E4B2012CF6D9EB
:1035500070BD00BF78EB000874EB000870B505463D
:1035600000260BE0012200212846FFF7C5FF0134A9
:10357000E4B214F0800FF5D00136F6B2072E12D85F
:10358000A6F150010022C9B22846FFF7B5FF00227C
:1035900011462846FFF7B0FF002210212846FFF70A
:1035A000ABFF0024E5E770BD8020704740207047E6
:1035B000B0B3F8B50E460746A1B3002519E003EBFA
:1035C000C50256F82220125D9A401143C9B2013358
:1035D000DBB2072BF3D901223846FFF78DFF013408
:1035E000E4B214F0800F02D100210B46F1E701355F
:1035F000EDB2072D12D8A5F150010022C9B238460C
:10360000FFF77AFF002211463846FFF775FF0022C8
:1036100010213846FFF770FF0024E2E70120F8BDD3
:10362000002070470020FAE70120704710B50446DB
:10363000D0F8163040799847D4F80A309847D4F833
:1036400006309847D4F80E30012098476420FDF7E3
:10365000A5FED4F80E30002098470022AE21204667
:10366000FFF74AFF0022D5212046FFF745FF002241
:1036700050212046FFF740FF0022A8212046FFF7F7
:103680003BFF00223F212046FFF736FF0022D321D7
:103690002046FFF731FF002211462046FFF72CFF9E
:1036A000002240212046FFF727FF00228D212046DF
:1036B000FFF722FF002214212046FFF71DFF002202
:1036C00014212046FFF718FF002220212046FFF793
:1036D00013FF002202212046FFF70EFF0022A02147
:1036E0002046FFF709FF0022C8212046FFF704FF0C
:1036F0000022DA212046FFF7FFFE00221221204699
:10370000FFF7FAFE002281212046FFF7F5FE002296
:10371000EF212046FFF7F0FE0022D9212046FFF7D7
:10372000EBFE0022F1212046FFF7E6FE0022DB211E
:103730002046FFF7E1FE002230212046FFF7DCFEA5
:103740000022A4212046FFF7D7FE0022A621204612
:10375000FFF7D2FE0022AF212046FFF7CDFE204624
:10376000FFF7FCFE012010BD08B5084B18700422BD
:103770005A7002225A8001229A80054AC2F801300A
:10378000044A12681846904708BD00BFDCA9002013
:1037900000AA0020C401002008B50146034BDB68E5
:1037A000034AD2F80100984708BD00BFC4010020B9
:1037B00000AA002070B50A4C08232360094BA360BF
:1037C0000223A38000252573074E33682A46294625
:1037D00020469847B36829462046984770BD00BFE9
:1037E000E4A90020000C0240E001002070B50A4C62
:1037F00008232360094BA3600123A38000252573C0
:10380000074E33682A46294620469847B36829461A
:103810002046984770BD00BF20AA0020000C02403F
:10382000E001002008B520B10146012802D00021A6
:1038300000E00221024B9B680248984708BD00BF88
:10384000E0010020E4A9002008B520B101460128CC
:1038500002D0002100E00221024B9B6802489847F9
:1038600008BD00BFE001002020AA00200C4B002270
:103870001A705A710B4AC3F816200B4AC3F81A2063
:103880000A4AC3F806200A4AC3F80E20094AC3F8B8
:103890000A20094AC3F812200120084B187070470B
:1038A00000AA00206937000899370008ED370008A2
:1038B00049380008B5370008253800083DAA00201F
:1038C00008B5084B00221A70FFF7D0FF38B1064B3D
:1038D0001B680648984710B1024B01221A70014B31
:1038E000187808BD3CAA00200000002000AA002093
:1038F00010B5054B1C7824B10146044B9B68044865
:103900009847204610BD00BF3CAA002000000020C0
:1039100000AA002010B582B00B4C636998478DF85F
:103920000000A36998478DF80100BDF80030ADF89C
:10393000043000209DF8043063F307009DF8053043
:1039400063F30F2002B010BD0000002008B5034B48
:103950009B680BB1984708BD0020FCE71C000020C5
:10396000014B18770120704748AA0020014B587777
:103970000120704748AA00202DE9F04788B04A4B43
:103980005F7F012F00F08980022F00F08A80002FD6
:1039900043D0002008B0BDE8F087DFF814A1DAF8C2
:1039A000003053F8248018F80560DFF80091D9F84A
:1039B0000C309847ADF800009DF80030013B5B1BD0
:1039C000DAF8002052F8241018F803304B5552F85A
:1039D0002480D9F80C309847ADF804009DF80430E5
:1039E000013B5B1B08F803600134E4B22F4BDB683A
:1039F0009847ADF808009DF80930A342CDD80135AD
:103A0000EDB22A4BDB689847ADF80C009DF80C30FE
:103A1000B5EB530F03D23C46E8E73D46F1E7012002
:103A2000B8E7DFF88C80D8F8009059F825301E5D93
:103A30001E4FFB689847ADF810009DF81130013B10
:103A40005B1B59F82320D8F8008058F82530125D08
:103A50001A55FB689847ADF814009DF81530013BE6
:103A60005B1B58F823301E550134E4B20F4BDB6862
:103A70009847ADF818009DF81830A342D1D8013509
:103A8000EDB20A4BDB689847ADF81C009DF81D307D
:103A9000B5EB530F03D20024E8E70025F1E701203E
:103AA00078E7012076E700BF48AA00201C0000202C
:103AB00074AA002020B1034A1060D0F813007047A8
:103AC0000020704740AA0020014B1868704700BFD3
:103AD00040AA002008B5FFF7F7FF034608B1D0F869
:103AE0000F30184608BD08B5FFF7EEFF18B1C378D0
:103AF0001BB9022008BD0020FCE70120FAE738B519
:103B000005460C46FFF7E0FF28B18580FFF7DCFF94
:103B1000C480012038BD0020FCE7000030B583B030
:103B2000124DEB689847ADF800009DF80040EB6837
:103B30009847ADF804009DF805500020A84213D224
:103B4000002305E052F820200021D1540133DBB2DC
:103B5000A34206D2064A1268002AF3D1002003B01D
:103B600030BD0130C0B2E9E70120F8E71C000020B9
:103B700074AA002001238340024A10781843107071
:103B8000704700BF44AA0020014B1878704700BF5F
:103B900084000020054B1A7812F0020F05D1012392
:103BA00003FA00F01043014B1870704784000020A6
:103BB00001238340024A107820EA03001070704706
:103BC000840000202DE9F84381460E461746FFF792
:103BD0007BFF0446DFF82880437A027AB0F90610AA
:103BE000B0F90400D8F80050A847D8F804803B4644
:103BF00032464946D4F80A00C047BDE8F88300BF02
:103C0000540100202DE9F04782B082460E46174647
:103C10009846FFF759FF0446DFF83490437A027A5A
:103C2000B0F90610B0F90400D9F80050A847D9F847
:103C30001490D4F80A109DF828300193CDF8008034
:103C40003B4632465046C84702B0BDE8F08700BF49
:103C5000540100202DE9F04782B082460E461746F7
:103C60009846FFF731FF0446DFF83490437A027A32
:103C7000B0F90610B0F90400D9F80050A847D9F8F7
:103C80000C90D4F80A109DF828300193CDF80080EC
:103C90003B4632465046C84702B0BDE8F08700BFF9
:103CA000540100202DE9F04782B082460E461746A7
:103CB0009846FFF709FF0446DFF83490437A027A0A
:103CC000B0F90610B0F90400D9F80050A847D9F8A7
:103CD0001090D4F80A109DF828300193CDF8008098
:103CE0003B4632465046C84702B0BDE8F08700BFA9
:103CF000540100202DE9F04784B082460E46174655
:103D00009846FFF7E1FE0446DFF83890437A027ADE
:103D1000B0F90610B0F90400D9F80050A847D9F856
:103D20002090D4F80A009DF8343002939DF830308A
:103D30000193CDF800803B4632465146C84704B057
:103D4000BDE8F087540100202DE9F04782B082469B
:103D50000E4617469846FFF7B7FE0446DFF8349044
:103D6000437A027AB0F90610B0F90400D9F800508D
:103D7000A847D9F82490D4F80A009DF82830019378
:103D8000CDF800803B4632465146C84702B0BDE8F8
:103D9000F08700BF540100202DE9F04782B0824631
:103DA0000E4617469846FFF78FFE0446DFF834901C
:103DB000437A027AB0F90610B0F90400D9F800503D
:103DC000A847D9F82890D4F80A009DF82830019324
:103DD000CDF800803B4632465146C84702B0BDE8A8
:103DE000F08700BF540100202DE9F04383B08146E5
:103DF0000E461746FFF768FE0446DFF83480437A24
:103E0000027AB0F90610B0F90400D8F80050A847BB
:103E1000D8F80880D4F80A009DF8283001930F23C1
:103E200000933B4632464946C04703B0BDE8F083A5
:103E3000540100202DE9F04782B082460E46174615
:103E40009846FFF741FE0446DFF83490437A027A41
:103E5000B0F90610B0F90400D9F80050A847D9F815
:103E60000890D4F80A009DF82C300193CDF800801A
:103E70003B4632465146C84702B0BDE8F08700BF16
:103E8000540100202DE9F04784B082460E461746C3
:103E90009846FFF719FE0446DFF84090437A027A0D
:103EA000B0F90610B0F90400D9F80050A847D9F8C5
:103EB0001C90D4F80A009DF8383003939DF83430F4
:103EC00002939DF830300193CDF800803B46324696
:103ED0005146C84704B0BDE8F08700BF5401002038
:103EE0002DE9F04784B082460E4617469846FFF704
:103EF000EBFD0446DFF83890437A027AB0F90610F9
:103F0000B0F90400D9F80050A847D9F81890D4F8AF
:103F10000A009DF8343002939DF830300193CDF8BB
:103F200000803B4632465146C84704B0BDE8F087A2
:103F3000540100202DE9F04784B082460E46174612
:103F40009846FFF7C1FD0446DFF83890437A027ABD
:103F5000B0F90610B0F90400D9F80050A847D9F814
:103F60003890D4F80A009DF8343002939DF8303030
:103F70000193CDF800803B4632465146C84704B015
:103F8000BDE8F087540100202DE9F04782B0824659
:103F90000E4617469846FFF797FD0446DFF8309027
:103FA000437A027AB0F90610B0F90400D9F800504B
:103FB000A847D9F83090D4F80A00CDF804800F2330
:103FC00000933B4632465146C84702B0BDE8F087F1
:103FD000540100202DE9F04782B082460E46174674
:103FE0009846FFF771FD0446DFF83490437A027A71
:103FF000B0F90610B0F90400D9F80050A847D9F874
:104000003090D4F80A009DF828300193CDF8008054
:104010003B4632465146C84702B0BDE8F08700BF74
:10402000540100202DE9F04782B082460E46174623
:104030009846FFF749FD0446DFF83490437A027A48
:10404000B0F90610B0F90400D9F80050A847D9F823
:104050003490D4F80A009DF828300193CDF8008000
:104060003B4632465146C84702B0BDE8F08700BF24
:104070005401002008B5FFF727FD08B1007A08BDFC
:104080000020FCE700487047AC0000200378012BBB
:1040900011D0022B1CD00BB10020704719B101299F
:1040A00005D0002070474368B3F9040070474368A7
:1040B000B3F90600704719B1012905D000207047F7
:1040C0004368B3F9040070474368B3F906007047CA
:1040D00019B1012905D0002070474368B3F90400E5
:1040E00070474368B3F9060070472DE9F0410C466C
:1040F0000546D8B1F5B1FCB100212846FFF7C6FF4F
:10410000074601212846FFF7C1FF06460021204649
:10411000FFF7BCFF804601212046FFF7B7FF86422C
:104120000CDC0ED147450EDB204608E00029E1D12A
:10413000084604E0204602E0284600E02846BDE8A4
:10414000F0812046FBE72846F9E700000048704769
:104150008800002088B138B515460446084B9B6896
:104160000A460121984730B1054B9B682A46002139
:104170002046984700B9002038BD0020704700BF96
:104180000001002030B110B50346034844681846CA
:10419000A04710BD002070470001002030B110B5CD
:1041A0000346034884691846A04710BD00207047A5
:1041B00000010020B0B138B50446FFF785FC90F946
:1041C0002530B4F9062012FA83F31DB2E380FFF71D
:1041D0007BFC437A9D4207DA044B5B692046984793
:1041E000012038BD002070470020FAE700010020C0
:1041F00070B108B5012905D8012905D0054A126911
:10420000904700E0002008BD024AD2689047FAE7D4
:104210000020704700010020004870479C000020EB
:1042200028B108B5034A52689047012008BD002014
:10423000704700BF1C01002028B108B5034AD268AE
:104240009047012008BD0020704700BF1C010020DE
:1042500030B110B50346034884681846A04710BD26
:10426000002070471C010020B0B138B50446FFF7AC
:104270002BFC90F92530B4F9062012FA83F31DB215
:10428000E380FFF721FC437A9D4207DA044B1B6968
:1042900020469847012038BD002070470020FAE7EB
:1042A0001C01002000487047C800002038B110B53C
:1042B0000346044884681846A047012010BD00202A
:1042C000704700BF3001002028B108B5034A52688A
:1042D0009047012008BD0020704700BF300100203A
:1042E00020B108B5024AD268904708BD0020704747
:1042F0003001002080B108B50346D0F81F2007EE3A
:10430000902AFDEEE77A17EE902A10B2D3F80D301E
:1043100023B19847012008BD002070470120FAE72B
:10432000D8B138B50446FFF7CFFB90F92530B4F982
:10433000062012FA83F31DB2E380FFF7C5FB437A30
:104340009D420CDAB4F90420037A9A4209DA064B4A
:104350005B6920469847012038BD00207047002047
:10436000FAE70020F8E700BF30010020B0B108B53F
:104370000369ABB11A78012A08D0022A0AD00AB11F
:10438000002008BD5868FFF715FFFAE75868FFF7E7
:104390006BFFF6E75868FFF7C3FFF2E700207047AE
:1043A0000020EEE70048704768AA00202DE9F041A0
:1043B000074688460820FDF74BFE05461420FDF70A
:1043C00047FE0646FFF780FB07B304460EB315B35E
:1043D00018B36F6085F8008029463046FCF7C7FEA9
:1043E000D4F8210038B13146FCF7FBFE237F0133BE
:1043F000237701200BE0C4F82160C4F82660084B45
:10440000022200213046FCF794FEEFE70020BDE8D1
:10441000F0810020FBE70020F9E70020F7E700BF6C
:10442000EB4000082DE9F04784B004460D46914664
:1044300098462120FDF70CFEC8B10646074600212C
:10444000FFF7B4FF98B10C4BD3F800A09DF83830BB
:1044500003939DF8343002939DF830300193CDF8EA
:1044600000804B462A4621463046D04700B90027F7
:10447000384604B0BDE8F087000100202DE9F04384
:1044800083B00446884616461D461120FDF7E0FD20
:1044900048B107460A4BD3F8009000953346424690
:1044A0002146C84720B90024204603B0BDE8F08368
:1044B0003C4601213846FFF779FF0028F4D1F2E7A6
:1044C0001C0100202DE9F04387B0054688461646BA
:1044D0001C462820FDF7BCFDA8B10746104BD3F8B9
:1044E0000090BDF944300493BDF940300393BDF909
:1044F0003C300293BDF938300193009643462A467A
:104500002146C84720B90024204607B0BDE8F08303
:104510003C4602213846FFF749FF0028F4D1F2E774
:104520003001002010B582B0FFF7CEFA002836D057
:104530000378D3B9FFF7C8FA0346C07898B90122C7
:10454000DA70184B9C69D4B1FFF7BEFAD0F81D1091
:104550002046FCF746FE0220FFF71CFB114A1378A9
:1045600001331370012002B010BD437A027A012199
:104570000191009100210846FFF7B2FCDAE7FFF74E
:10458000A3FAD0F81D40074B9C61FFF79DFA00236A
:104590000122D0F81D102046FCF7CBFDDBE7002000
:1045A000E1E700BF48AA002008B5FFF7EDFA10F0D8
:1045B000100F17D00220FFF7EDFA3B4B00221A70C4
:1045C00010E03A4B1B68984730B30020FFF7F0FA31
:1045D0000220FFF7DFFA344A13780133DBB213709D
:1045E000052B59D0FFF7D0FA0346002859D02E4AA0
:1045F0001278134113F0010FEDD0042A52D801A311
:1046000053F822F0C3450008A546000827460008D5
:1046100043460008A14600080020FFF7ABFA01203E
:10462000FFF7B8FAD7E7FFF779FA30B10220FFF7C2
:10463000BFFA0320FFF7AEFACDE70120FFF7AAFA91
:10464000C9E71B4B5B7A002BC5D0194B1B78E3B134
:1046500000231A46174916488069FCF7D9FD68B946
:10466000FFF78AF9114B5B68134A106898470320DB
:10467000FFF79EFA0420FFF78DFAACE70120FFF761
:1046800079FA0120FFF786FAA5E70220FFF772FA10
:104690000120FFF77FFA9EE7134600221A70A1E778
:1046A000012008BD0020FCE770AA00201C000020AB
:1046B00048AA0020BD46000874AA00202DE9F04158
:1046C00086B00C46B1F90430B3B9B1F906309BB9E4
:1046D0000D7A354BDB689847ADF804009DF804303F
:1046E0009D4209D3657A304BDB689847ADF80800E6
:1046F0009DF809309D422FD2B4F90650EDB249E041
:104700002A4F3B6853F82580274EF3689847ADF849
:104710000C009DF80C200021404606F089F93B680A
:1047200053F82570D4F80A3053F82580F368984779
:10473000ADF810009DF810204146384606F078F993
:104740000135EDB2184BDB689847ADF814009DF8C1
:104750001530AB42D4D823E00025F3E7134B1E6895
:1047600056F82500B4F90430227A0021184406F0E6
:104770006DF956F82560B4F90400D4F80A10B4F9BC
:104780000630EB1A227A51F82310304406F050F923
:104790000135EDB2B4F90630627A13449D42DDDB97
:1047A000002006B0BDE8F0811C00002074AA0020A3
:1047B00010B5FFF789F990B1002409E0D0F80A306C
:1047C000027A002153F8240006F040F90134E4B2E3
:1047D000FFF77AF9437AA342F0D8012010BD0020F8
:1047E000FCE7000008B5FCF78FFE054B5B68C31AB9
:1047F000312B03D9024B5860012008BD0020FCE793
:1048000048AA0020002832D0F8B5054603680BB945
:104810000020F8BD5E7A1F7AD3F81D00FDF778FC02
:104820002B68D3F80A00FDF773FC002408E02B681E
:10483000D3F80A3053F82400FDF76AFC0134E4B2DF
:10484000B442F4D307FB06F60A4B1A6932441A61E4
:10485000D9688E1BDE605B699A4201D90020D8E7D7
:104860002868FDF755FC00232B600120D1E70020CC
:10487000704700BF48AA002000B583B0FFF724F9B5
:10488000D0F821000022009213460349FCF7E1FC16
:1048900003B05DF804FB00BF6D43000810B504468B
:1048A000FFF712F9D0F826206AB3D0F8263063B3A8
:1048B00094F90010037FDBB2994201DD037F23707E
:1048C00094F90030002B09DD94F90030002B07DD4E
:1048D000D16829B1D268013B2370F5E7002B0ADBD0
:1048E000C0F82620D0F82630186900F057FC10BD1B
:1048F00092680133237094F90030002BF0DA91684C
:104900000029F5D1ECE70020F1E70020EFE70000F7
:1049100010B5FFF7D9F8C8B10E4A1278012A17D995
:10492000C47814B90124204610BD0021D0F81D0020
:10493000FCF7B5FC0220FFF72DF9FFF7C5F80023BF
:10494000C370044A1378013B1370ECE70024EAE7D4
:104950000024E8E748AA002000B589B00D480369A3
:10496000026B816B0691416B05910492C26A0392BE
:1049700002938368019343680093C3698269016A63
:10498000006800F0EDFB044800F002FC09B05DF89F
:1049900004FB00BF48000020754000082DE9F04FDF
:1049A00087B08246894617469846614B5E69002E5D
:1049B0004DD1604CE3689847ADF800009DF8015078
:1049C000E3689847ADF804009DF8043005FB03F355
:1049D000574A536103EB830353611361E3689847BC
:1049E000ADF808009DF809008000FDF731FB524B3F
:1049F0001860002846D000244E4BDB689847ADF87D
:104A000014009DF81530A3421FD94A4BDB68984724
:104A1000ADF80C00484DD5F800B09DF80C00FDF73E
:104A200017FB4BF824002B6853F8245055B3414B27
:104A3000DB689847ADF810009DF81020002128464B
:104A400006F004F80134E4B2D6E7FFF785FF2A2028
:104A5000FDF7FEFA0646002861D0A0F804A0A0F8F1
:104A60000690077280F80980012343700023837049
:104A7000109BC0F817302E4B1B6907FB08F94B45FC
:104A800004D20026304607B0BDE8F08F4FEA880018
:104A9000FDF7DEFAC6F80A00002842D0002444459B
:104AA00012D2D6F80A503846FDF7D2FA45F824005B
:104AB000D6F80A3053F82400A8B33A46002105F08E
:104AC000C5FF0134E4B2EAE7194B1A69A2EB090207
:104AD0001A61DA684A44DA605A7A01325A72174B1C
:104AE000C6F80F30164BC6F813301420FDF7B0FA95
:104AF000C6F81D00C8B13146FCF739FB9DF84430BB
:104B000033700023F370337786F8253086F826302B
:104B100086F8273086F8283086F82930B2E7002654
:104B2000B0E70026AEE70026ACE70026AAE700BF04
:104B300048AA00201C00002074AA00204800002081
:104B40002C00002001608280C38000230372704724
:104B500018B18180C280012070470020704700009A
:104B600010B59DF814C0C8B1044680F80CC080F898
:104B70000DC09DF81000A0732046FFF7E3FF9DF8DD
:104B80000830E3779DF80C3084F82030044BC4F8EB
:104B90001730044BC4F81B30012010BD0020FCE787
:104BA0007CEB000880EB000848B1012903D0C0F875
:104BB0001B2001207047C0F81720012070470020FB
:104BC000704750B1012904D049B9C0F81320012021
:104BD0007047C0F80F200120704700207047002068
:104BE0007047F0B108B50346827B012A06D0D2B9DE
:104BF000027B417B8A420AD0012008BD427B12B968
:104C000001205873F9E7002242730120F5E7B2FA58
:104C100082F252094273D0F80F3033B19847012025
:104C2000EBE7002070470020E7E70120E5E770B1DF
:104C300008B5827B012A0CD0027B417B8A420AD0D4
:104C40004273D0F8133043B19847012008BD0020CB
:104C500070470120FAE70120F8E70120F6E728B1C4
:104C600008B512B209B2FFF773FF08BD0020704704
:104C7000002873D070B584B00446837B012B2FD0FD
:104C80003F4B1B68002B6DD03D4B9D6A002D6CD0B7
:104C9000DE68002E6BD0637B012B32D001230293A0
:104CA00001930323009394F82030E27FB4F90610B7
:104CB000B4F90400B047A37B012B3ED0D4F8171001
:104CC00000295AD02E4B1E68A28805320125009576
:104CD000B4F9063012B22B480078B047284642E0BB
:104CE000437B012B07D0002B3AD1D0F81330002B97
:104CF000C6D09847C4E7D0F80F30002BC0D09847F3
:104D0000BEE701930323009394F82030E27FB4F9C7
:104D10000610B4F90400A847D4F8171049B3184B8B
:104D20001E68A288053201250095B4F9063012B23A
:104D300014480078B047284615E0D4F81B10D1B1CC
:104D40000F4B1E68A288093201250095B4F9063080
:104D500012B20C480078B047284604E000207047A3
:104D6000002000E0002004B070BD0020FBE7002020
:104D7000F9E70120F7E70120F5E70120F3E700BF9D
:104D800078AA00205001002068B110B50446FFF752
:104D9000D9FE9DF808302374002323736373A37333
:104DA000E373012010BD0020704710B1C1600120E5
:104DB00070470020704718B108B5FFF7C9FE08BD5D
:104DC0000020704750B108B50346007C80F0010018
:104DD0001874DB6823B19847012008BD0020704794
:104DE0000120FAE72DE9F843BDF92440BDF9285028
:104DF000BDF92C60BDF93080002849D094461A4690
:104E00000746AC4246DDB54247DCB44247DB0129E8
:104E100001D900203FE001734FF0000980F8239092
:104E2000BDF920306146FFF78DFE07EE904AF8EE9F
:104E3000E77A17EE903AC7F8153007EE905AF8EE79
:104E4000E77A17EE903AC7F81130A7F81D80641B77
:104E500007EE908AB8EEE77A07EE904AF8EEE77A26
:104E6000C7EE877A17EE903AC7F8193007EE906AC6
:104E7000F8EEE77A17EE906AC7F81F6087F824907B
:104E800087F8259087F8269087F82790012002E080
:104E9000002000E00020BDE8F8830020FBE70020B0
:104EA000F9E718B108B5FFF753FE08BD00207047B9
:104EB00018B1C0F80D10012070470020704703465C
:104EC00090B399B3D0F81F20B1F9000007EE900A13
:104ED000D3F81900B8EEE77A07EE900A67EE277A62
:104EE00007EE102A77EE277AD3F8152007EE102A5E
:104EF000B4EEE77AF1EE10FA05D8C3F81F200023CC
:104F00000B8001207047D3F8112007EE102AB4EE71
:104F1000E77AF1EE10FA02DBC3F81F20EFE717EE95
:104F2000902AC3F81F20EAE700207047002070474E
:104F300078B108B5D0F80D206AB1D0F81F3007EE6F
:104F4000903AFDEEE77A17EE903A18B290470120BA
:104F500008BD002070470120FAE710B1012280F857
:104F60002320704710B190F823007047002070474D
:104F70002DE9F04F85B0B0F90650002849D004461D
:104F80000FFA85F8294B1F68002F44D0DB69002BEE
:104F900043D0264B1B69002B41D0D0F800B05846B7
:104FA000FBF720F9C600B6B2ADB205F103090FFA5E
:104FB00089F9731D9BB203931D4B1878082823D0E1
:104FC000A28803324FF0010ACDF800A0434612B286
:104FD0005946B847154B1F69CDF804A0CDF800A07D
:104FE00007231A464946BDF90C00B847247CC4B1D2
:104FF0000E4BDF69F01D691DCDF800A003231A4692
:1050000009B200B2B8470DE005F101080FFA88F8BF
:10501000D6E7002406E0002404E0002402E0002497
:1050200000E00124204605B0BDE8F08F78AA0020FA
:1050300050010020B0F90620002800F082802DE900
:10504000F04182B00446134642490E68002E7AD0E1
:10505000C969002979D04049087808286AD0D4F86D
:10506000152007EE902AD4F8112007EE102A77EECB
:10507000C77AFDEEE77A17EE902A15B2A2880332BE
:105080000121009112B22168B047237B002B54D13B
:10509000B4F9243043B9A6882068FBF7A3F806EBDF
:1050A000C006B6B20536A684B4F9263013B9E38833
:1050B0000533E384B4F92400D4F81F3006EE903AA7
:1050C000D4F8113007EE903A76EEE76A07EE905A80
:1050D000B8EEE77AC6EE877A9FED207A27EE877AD8
:1050E00007EE900AF8EEE77A77EE877AFDEEE77A38
:1050F00017EE903A0FFA83F8164F01250095022318
:105100002822B4F92610FE69B047E488E11C009516
:105110000623032209B24046FE69B047FF69611DBC
:1051200000950223032209B24046B847284602B040
:10513000BDE8F081013213B291E7012B07D10120C4
:10514000F5E7002070470020F1E70020EFE700209E
:10515000EDE700BF78AA00205001002000001442B3
:1051600030B40A4C029D6561039DA561A160606039
:105170002261E360049B2360059B2362069B6362BC
:10518000089BA362079BE36130BC704778AA0020AC
:10519000014B1860704700BFA4AA00202DE9F0471A
:1051A00082B00446524B1B68A3B1984705460028BD
:1051B00000F09780002C00F096804E4B1B780C2B53
:1051C00013D0102B13D0082B06D00024204602B099
:1051D000BDE8F0878025EDE70A262378012B44D02F
:1051E000022B52D02BB10124F0E70B26F5E70B265A
:1051F000F3E7414B5B6A002B77D06268B2F9046039
:105200000FFA86F9B2F906300FFA83F892F82050B7
:1052100015FA83F5ADB2013D0FFA85FAD37F13FA83
:1052200086F636B2344F01240194009404230222FE
:1052300051464846BD69A8470194009402231A4686
:1052400041464846BD69A8470194009408230222BC
:1052500051463046BD69A847BD6901940094234674
:10526000022241463046A847B0E763689888033079
:10527000D9880131204BDF69AA1F012400943346ED
:10528000D2B209B200B2B847A0E7D4F80480B8F8A7
:10529000067001373FB24046FFF764FE044670B91E
:1052A000B8F804000330144BD3F81C80AA1F012463
:1052B00000943346D2B2394600B2C04786E7B8F808
:1052C0002400033882B20C4BD3F81C80AA1AD2B245
:1052D000063A012300933346D2B2394600B2C047A2
:1052E00074E7002472E7002470E700246EE700BF33
:1052F000A4AA00205001002078AA002010B4044C79
:1053000063712271208061805DF8044B704700BF9B
:10531000A8AA002010B40C4C94F804C061450BDA24
:105320006479A24208DA002906DB002A04DB33B1E3
:1053300050F8223001225A545DF8044B704750F85F
:10534000223000225A54F7E7A8AA00202DE9F04F96
:1053500083B01F46BDF930A09DF834B0203AD3B2D7
:105360000193374B1B79BB4263DD8146884600269B
:105370005446009647E0019B03EB4303314A02EB9E
:105380008303009A9E5C00251CE02F4B019A03EBDF
:105390000213009A9E5CF6E758F82430DB5DBBEB05
:1053A000030318BF0123224639464046FFF7B2FFE8
:1053B0007600F6B2013424B2A4EB0A034B451BDAA3
:1053C0000135EDB2072D1AD81D4AB2F90030127915
:1053D0001344BB422FDD16F0800FDDD18BF00103AB
:1053E00058F82420D25D9B1A18BF01232246394663
:1053F0004046FFF78FFFDBE701373FB25446009B83
:105400000133DBB20093009B4B4510D2B9F10C0F76
:10541000B1D0B9F1100FB8D0B9F1080FB3D1019BD9
:10542000C3EBC302094B1344009A9E5CABE7012017
:1054300002E0002000E0002003B0BDE8F08F00BFD4
:10544000A8AA002010E1000884E5000874DE000826
:105450002DE9F04383B007460E4615461C46BDF9BC
:1054600028909DF82C8002E0063424B201352A7879
:1054700052B1CDF80480CDF800902346314638462D
:10548000FFF764FF0028EFD103B0BDE8F0830020F0
:1054900002E00630C0B201310B78002BF9D1704721
:1054A0002DE9F04F85B00090884691469DF8402048
:1054B0000192DBB2C9B2A3EB010A4FFA8AFA9DF856
:1054C00038005FFA89F2A0EB020B4FFA8BFBBAF1BE
:1054D000000F0EDD01230293BBF1000F16DD012347
:1054E0000393DA451FDD0FFA8AF700263546344666
:1054F0001EE0BAF1000F06D0CB1A4FFA83FA4FF034
:10550000FF330293E8E7CDF808A0E5E7BBF1000F11
:1055100006D0121A4FFA82FB4FF0FF330393E0E7F5
:10552000CDF80CB0DDE70FFA8BF7DEE70136F6B207
:10553000B7421CDB019B4A4641460098FFF7EAFE52
:105540005444A2B224B25D44ABB22DB2A74205DCF2
:10555000D21B14B2029A90444FFA88F8AF42E5DCAD
:10556000DB1B1DB2039B99444FFA89F9DEE705B0B6
:10557000BDE8F08F10B584B049B29C189DF81C307E
:1055800002939DF81830019364B200940B4652B216
:10559000FFF786FF04B010BD10B584B052B20B44C3
:1055A0009DF81C4002949DF81840019400925BB253
:1055B00049B2FFF775FF04B010BD2DE9F04F85B07B
:1055C0000446019102920393BDF938709DF83C5056
:1055D0009DF8406015F0010F0BD115F0020F24D19A
:1055E00015F0080F3ED115F0040F58D105B0BDE8F5
:1055F000F08FBDF80C80BDF804A008EB0A011FFA7B
:1056000087F9BDF808B0A9EB0B02334612B209B214
:10561000FFF780FE08EB0B01A9EB0A02334612B23A
:1056200009B22046FFF776FED7E7BDF80C80BDF83B
:1056300004A0A8EB0A011FFA87F9BDF808B0A9EB8E
:105640000B02334612B209B22046FFF763FEA8EB05
:105650000B01A9EB0A02334612B209B22046FFF74A
:1056600059FEBDE7BDF80C80BDF8049008EB0901B8
:105670001FFA87FABDF808B00AEB0B02334612B2E4
:1056800009B22046FFF746FE08EB0B0109EB0A02C0
:10569000334612B209B22046FFF73CFEA3E7BDF83D
:1056A0000C80BDF80490A8EB0901BFB2BDF808500A
:1056B0007A19334612B209B22046FFF72BFEA8EB47
:1056C000050109EB0702334612B209B22046FFF783
:1056D00021FE8BE72DE9F04F87B0049005919146AC
:1056E0009DF840A09DF844B0C3F1010464B2C3EB3F
:1056F000C3184FEA48084FFA88F81EB2CDF808B030
:10570000CDF804A000920B4632460021FFF755FF6A
:10571000002501271BE0013E36B208F102034FFAD3
:1057200083F854FA83F464B201352DB2BB1C5FB226
:1057300054FA83F464B2CDF808B0CDF804A0CDF8E3
:105740000090059B324629460498FFF736FFB54284
:1057500002DA002CDFDAE7E707B0BDE8F08F10B51A
:1057600082B09DF8144001949DF810400094FFF71A
:10577000B1FF02B010BD2DE9F04F83B00546019195
:1057800014469DF838708AB2009202EB03081FFAA3
:1057900088F808F1FF380FFA88F89DF83090A14496
:1057A0001FFA89F909F1FF390FFA89F9CEB21DE024
:1057B0000FFA86FA87F0010B55F824309B5DBBEB9E
:1057C000030318BF0123224651462846FFF7A2FDD6
:1057D00055F829309B5DBBEB030318BF01234A46F4
:1057E00051462846FFF796FD0136F6B2B0451ADB62
:1057F000002FDDD00FFA86FA55F824309B5DFB1A96
:1058000018BF0123224651462846FFF783FD55F86D
:1058100029309B5DFB1A18BF01234A465146284692
:10582000FFF778FDE0E7E4B20134E4B2DDF804B05C
:1058300020E0009B591C26B287F0010A55F824305D
:1058400013F80B30BAEB030318BF0123324609B239
:105850002846FFF75FFD55F8243013F80830BAEBFF
:10586000030318BF0123324641462846FFF752FD85
:105870000134E4B24C451BDA002FDAD026B255F8D9
:10588000243013F80B30FB1A18BF01233246594657
:105890002846FFF73FFD55F8243013F80830FB1A6F
:1058A00018BF0123324641462846FFF733FDDFE7A4
:1058B00003B0BDE8F08F2DE9F04F8DB0044694465B
:1058C0009DF85C609DF860909DF864500791BDF86C
:1058D0001C20B1188FB2099709B20491CDF820C0ED
:1058E000BDF820B006EB0B018FB20FFA81FECDF8A8
:1058F00014E013449BB29A1B013A1FFA82FECDF8C2
:1059000028E012B206929DF8582093441FFA8BFBB0
:10591000ABEB060A0AF1FF3A1FFA8AF80FFA8AFA85
:10592000013B9BB20B930BF1FF3B1FFA8BFB0195E5
:1059300004230093334652460499FFF7CBFE9DF9AA
:105940001C107FB24FFA88F80295CDF80490CDF87C
:1059500000800B463A462046FFF7A2FD019508233A
:1059600000933346524606992046FFF7B3FE9DF951
:1059700024A04FFA8BF29DF928B00295CDF804903F
:1059800000925B4651462046FFF78AFD01950223AF
:1059900000933346059A04992046FFF79BFE9DF934
:1059A00020200295CDF8049000925B465146204697
:1059B000FFF776FD0195012300933346059A06997A
:1059C0002046FFF787FE9DF92C100295CDF8049034
:1059D000CDF800800B463A462046FFF761FD0DB03A
:1059E000BDE8F08F2DE9F04F87B005460C4616460E
:1059F0000393BDF940909DF844709DF8488017F0DE
:105A0000010F0BD117F0020F32D117F0080F5AD146
:105A100017F0040F77D107B0BDE8F08FBDF80C1078
:105A20001FFA84FA049151441FFA89F21FFA86FB87
:105A30000592A2EB0B02731CCDF8048001200090AC
:105A4000DBB212B209B22846FFF794FD049B03EBC8
:105A50000B01059AA2EB0A02631CCDF80480012019
:105A60000090DBB212B209B22846FFF783FDC9E706
:105A7000BDF80C101FFA84FA0491A1EB0A011FFA79
:105A800089F21FFA86FB0592A2EB0B02731CCDF87C
:105A9000048001200090DBB212B209B22846FFF761
:105AA00069FD049BA3EB0B01059AA2EB0A02631CA0
:105AB000CDF8048001200090DBB212B209B2284672
:105AC000FFF758FDA1E7BDF80CA00AEB0401731C19
:105AD000CDF804804FF0010BCDF800B0DBB24A46A0
