:020000040800F2
:100000000000022035710008056B0008076B00082E
:100010001B6B00081D6B00081F6B00080000000030
:10002000000000000000000000000000216B00083C
:10003000236B000800000000256B0008496B0008D6
:1000400085710008857100088571000885710008B8
:1000500085710008857100088571000885710008A8
:100060008571000885710008857100088571000898
:1000700085710008857100080D4800088571000829
:1000800085710008F5470008857100088571000832
:100090008571000885710008857100088571000868
:1000A0008571000885710008857100088571000858
:1000B00095470008B5470008D54700088571000836
:1000C0008571000885710008857100088571000838
:1000D00085710008D93E00085D3F0008E13F000837
:1000E0008571000885710008BF4C00088571000803
:1000F0008571000885710008857100088571000808
:1001000085710008857100088571000885710008F7
:1001100085710008857100088571000885710008E7
:1001200085710008857100088571000885710008D7
:1001300085710008000000000000000085710008C3
:10014000857100088571000885710008CD4C000894
:100150008571000885710008254800086540000881
:100160008571000885710008857100088571000897
:100170008571000885710008000000000000000083
:0801800085710008857100087B
:1001900010B5054C237833B9044B13B10448AFF3C1
:1001A00000800123237010BDF00300200000000038
:1001B000B09F000808B5034B1BB103490348AFF3D8
:1001C000008008BD00000000F4030020B09F00087C
:1001D000034613F8012B002AFBD1181A0138704787
:1001E00001F0FF01102A2BDB10F0070F08D010F8E8
:1001F000013B013A8B422DD010F0070F42B3F6D1EC
:10020000F0B441EA012141EA014122F007047FF004
:1002100000070023F0E80256083C85EA010586EA5B
:10022000010685FA47F5A3FA87F586FA47F6A5FA97
:1002300087F68EB9EED1F0BC01F0FF0102F00702A3
:1002400032B110F8013B013A83EA010313B1F8D14E
:100250000020704701387047002D06BF354603382F
:10026000073815F0010F07D1013015F4807F02BF68
:10027000013015F4C03F0130F0BC0138704700BFB9
:1002800081F0004102E000BF83F0004330B54FEA47
:1002900041044FEA430594EA050F08BF90EA020FB4
:1002A0001FBF54EA000C55EA020C7FEA645C7FEA47
:1002B000655C00F0E2804FEA5454D4EB5555B8BF6A
:1002C0006D420CDD2C4480EA020281EA030382EADB
:1002D000000083EA010180EA020281EA0303362D6D
:1002E00088BF30BD11F0004F4FEA01314FF4801C40
:1002F0004CEA113102D0404261EB410113F0004F52
:100300004FEA03334CEA133302D0524263EB430308
:1003100094EA050F00F0A780A4F10104D5F1200EA6
:100320000DDB02FA0EFC22FA05F2801841F1000101
:1003300003FA0EF2801843FA05F359410EE0A5F1D5
:1003400020050EF1200E012A03FA0EFC28BF4CF006
:10035000020C43FA05F3C01851EBE37101F00045BC
:1003600007D54FF0000EDCF1000C7EEB00006EEBC9
:100370000101B1F5801F1BD3B1F5001F0CD3490853
:100380005FEA30004FEA3C0C04F101044FEA4452AA
:1003900012F5800F80F09A80BCF1004F08BF5FEA31
:1003A000500C50F1000041EB045141EA050130BD11
:1003B0005FEA4C0C404141EB0101013C28BFB1F523
:1003C000801FE9D291F0000F04BF01460020B1FA6E
:1003D00081F308BF2033A3F10B03B3F120020CDA41
:1003E0000C3208DD02F1140CC2F10C0201FA0CF01F
:1003F00021FA02F10CE002F11402D8BFC2F1200C84
:1004000001FA02F120FA0CFCDCBF41EA0C01904039
:10041000E41AA2BF01EB0451294330BD6FEA040482
:100420001F3C1CDA0C340EDC04F11404C4F120026D
:1004300020FA04F001FA02F340EA030021FA04F37F
:1004400045EA030130BDC4F10C04C4F1200220FAD6
:1004500002F001FA04F340EA0300294630BD21FA14
:1004600004F0294630BD94F0000F83F4801306BFDA
:1004700081F480110134013D4EE77FEA645C18BFCE
:100480007FEA655C29D094EA050F08BF90EA020F65
:1004900005D054EA000C04BF1946104630BD91EA5D
:1004A000030F1EBF0021002030BD5FEA545C05D160
:1004B0004000494128BF41F0004130BD14F580049F
:1004C0003CBF01F5801130BD01F0004545F0FE4113
:1004D00041F470014FF0000030BD7FEA645C1ABF48
:1004E000194610467FEA655C1CBF0B46024650EA7F
:1004F000013406BF52EA033591EA030F41F40021AB
:1005000030BD00BF90F0000F04BF0021704730B530
:100510004FF4806404F132044FF000054FF0000105
:1005200050E700BF90F0000F04BF0021704730B5C6
:100530004FF4806404F1320410F0004548BF40429B
:100540004FF000013EE700BF42004FEAE2014FEAF0
:1005500031014FEA02701FBF12F07F4393F07F4FCB
:1005600081F06051704732F07F4208BF704793F0CE
:100570007F4F04BF41F40021704730B54FF46074E1
:1005800001F0004521F000411CE700BF50EA0102E4
:1005900008BF704730B54FF000050AE050EA01028D
:1005A00008BF704730B511F0004502D5404261EBFD
:1005B00041014FF4806404F132045FEA915C3FF43E
:1005C000D8AE4FF003025FEADC0C18BF03325FEADB
:1005D000DC0C18BF033202EBDC02C2F1200300FA8C
:1005E00003FC20FA02F001FA03FE40EA0E0021FAB1
:1005F00002F11444BDE600BF70B54FF0FF0C4CF49F
:10060000E06C1CEA11541DBF1CEA135594EA0C0F50
:1006100095EA0C0F00F0DEF82C4481EA030621EA8B
:100620004C5123EA4C5350EA013518BF52EA0335C6
:1006300041F4801143F4801338D0A0FB02CE4FF078
:100640000005E1FB02E506F00042E0FB03E54FF0A8
:100650000006E1FB03569CF0000F18BF4EF0010EA0
:10066000A4F1FF04B6F5007F64F5407404D25FEA9C
:100670004E0E6D4146EB060642EAC62141EA55514F
:100680004FEAC52040EA5E504FEACE2EB4F1FD0C91
:1006900088BFBCF5E06F1ED8BEF1004F08BF5FEA0F
:1006A000500E50F1000041EB045170BD06F00046C1
:1006B00046EA010140EA020081EA0301B4EB5C046E
:1006C000C2BFD4EB0C0541EA045170BD41F4801166
:1006D0004FF0000E013C00F3AB8014F1360FDEBF8B
:1006E000002001F0004170BDC4F10004203C35DA67
:1006F0000C341BDC04F11404C4F1200500FA05F3EA
:1007000020FA04F001FA05F240EA020001F000428A
:1007100021F0004110EBD37021FA04F642EB060100
:100720005EEA430E08BF20EAD37070BDC4F10C042A
:10073000C4F1200500FA04F320FA05F001FA04F2EE
:1007400040EA020001F0004110EBD37041F10001DA
:100750005EEA430E08BF20EAD37070BDC4F12005E5
:1007600000FA05F24EEA020E20FA04F301FA05F24D
:1007700043EA020321FA04F001F0004121FA04F2F5
:1007800020EA020000EBD3705EEA430E08BF20EAC5
:10079000D37070BD94F0000F0FD101F000464000FF
:1007A00041EB010111F4801F08BF013CF7D041EA81
:1007B000060195F0000F18BF704703F00046520085
:1007C00043EB030313F4801F08BF013DF7D043EA56
:1007D0000603704794EA0C0F0CEA135518BF95EA0C
:1007E0000C0F0CD050EA410618BF52EA4306D1D193
:1007F00081EA030101F000414FF0000070BD50EAB2
:10080000410606BF1046194652EA430619D094EA3B
:100810000C0F02D150EA013613D195EA0C0F05D125
:1008200052EA03361CBF104619460AD181EA030179
:1008300001F0004141F0FE4141F470014FF0000031
:1008400070BD41F0FE4141F4780170BD70B54FF0CC
:10085000FF0C4CF4E06C1CEA11541DBF1CEA13554C
:1008600094EA0C0F95EA0C0F00F0A7F8A4EB05042E
:1008700081EA030E52EA03354FEA013100F0888025
:100880004FEA03334FF0805545EA131343EA1263EE
:100890004FEA022245EA111545EA10654FEA0026A3
:1008A0000EF000419D4208BF964244F1FD0404F55C
:1008B000407402D25B084FEA3202B61A65EB0305B8
:1008C0005B084FEA32024FF480104FF4002CB6EB75
:1008D000020E75EB030E22BFB61A754640EA0C00F5
:1008E0005B084FEA3202B6EB020E75EB030E22BF35
:1008F000B61A754640EA5C005B084FEA3202B6EB76
:10090000020E75EB030E22BFB61A754640EA9C0034
:100910005B084FEA3202B6EB020E75EB030E22BF04
:10092000B61A754640EADC0055EA060E18D04FEAC2
:10093000051545EA16754FEA06164FEAC30343EA62
:1009400052734FEAC2025FEA1C1CC0D111F4801F2F
:100950000BD141EA00014FF000004FF0004CB6E728
:1009600011F4801F04BF01430020B4F1FD0C88BFC7
:10097000BCF5E06F3FF6AFAEB5EB030C04BFB6EBD2
:10098000020C5FEA500C50F1000041EB045170BDC5
:100990000EF0004E4EEA113114EB5C04C2BFD4EBF2
:1009A0000C0541EA045170BD41F480114FF0000E76
:1009B000013C90E645EA060E8DE60CEA135594EAF2
:1009C0000C0F08BF95EA0C0F3FF43BAF94EA0C0FF5
:1009D0000AD150EA01347FF434AF95EA0C0F7FF46A
:1009E00025AF104619462CE795EA0C0F06D152EABE
:1009F00003353FF4FDAE1046194622E750EA4106A2
:100A000018BF52EA43067FF4C5AE50EA41047FF4B2
:100A10000DAF52EA43057FF4EBAE12E74FF0FF3C17
:100A200006E000BF4FF0010C02E000BF4FF0010CE8
:100A30004DF804CD4FEA410C7FEA6C5C4FEA430C61
:100A400018BF7FEA6C5C1BD001B050EA410C0CBFB0
:100A500052EA430C91EA030F02BF90EA020F002012
:100A6000704710F1000F91EA030F58BF994208BF79
:100A700090422CBFD8176FEAE37040F00100704736
:100A80004FEA410C7FEA6C5C02D150EA013C07D18D
:100A90004FEA430C7FEA6C5CD6D152EA033CD3D0D8
:100AA0005DF8040B704700BF8446104662468C46D2
:100AB0001946634600E000BF01B5FFF7B7FF002805
:100AC00048BF10F1000F01BD4DF808EDFFF7F4FF2E
:100AD0000CBF012000205DF808FB00BF4DF808EDB9
:100AE000FFF7EAFF34BF012000205DF808FB00BFDC
:100AF0004DF808EDFFF7E0FF94BF012000205DF8FE
:100B000008FB00BF4DF808EDFFF7CEFF94BF0120B2
:100B100000205DF808FB00BF4DF808EDFFF7C4FFAB
:100B200034BF012000205DF808FB00BF4FEA410CF4
:100B30007FEA6C5C02D150EA013C0AD14FEA430CD7
:100B40007FEA6C5C02D152EA033C02D14FF0000014
:100B500070474FF0010070474FEA410212F5001252
:100B600015D211D56FF47873B3EB625212D94FEAF4
:100B7000C12343F0004343EA505311F0004F23FADE
:100B800002F018BF404270474FF00000704750EA33
:100B9000013005D111F0004008BF6FF000407047F0
:100BA0004FF00000704700BF4A0011D212F500124A
:100BB00011D20DD56FF47873B3EB62520ED44FEAB5
:100BC000C12343F0004343EA505323FA02F0704735
:100BD0004FF00000704750EA013002D14FF0FF3073
:100BE00070474FF00000704780F0004002E000BF07
:100BF00081F0004142001FBF5FEA410392EA030F08
:100C00007FEA226C7FEA236C6AD04FEA1262D2EB51
:100C10001363C1BFD218414048404140B8BF5B4256
:100C2000192B88BF704710F0004F40F4000020F0EF
:100C30007F4018BF404211F0004F41F4000121F005
:100C40007F4118BF494292EA030F3FD0A2F101024F
:100C500041FA03FC10EB0C00C3F1200301FA03F18D
:100C600000F0004302D5494260EB4000B0F5000FB0
:100C700013D3B0F1807F06D340084FEA310102F16F
:100C80000102FE2A51D2B1F1004F40EBC25008BF21
:100C900020F0010040EA03007047490040EB0000EB
:100CA000013A28BFB0F5000FEDD2B0FA80FCACF1EC
:100CB000080CB2EB0C0200FA0CF0AABF00EBC25019
:100CC00052421843BCBFD0401843704792F0000F07
:100CD00081F4000106BF80F400000132013BB5E75A
:100CE0004FEA41037FEA226C18BF7FEA236C21D0D0
:100CF00092EA030F04D092F0000F08BF0846704735
:100D000090EA010F1CBF0020704712F07F4F04D102
:100D1000400028BF40F00040704712F100723CBF15
:100D200000F50000704700F0004343F0FE4040F43F
:100D3000000070477FEA226216BF08467FEA2363FD
:100D40000146420206BF5FEA412390EA010F40F4E8
:100D5000800070474FF0000304E000BF10F0004334
:100D600048BF40425FEA000C08BF704743F096431B
:100D700001464FF000001CE050EA010208BF704736
:100D80004FF000030AE000BF50EA010208BF7047BD
:100D900011F0004302D5404261EB41015FEA010CD2
:100DA00002BF84460146002043F0B64308BFA3F1CA
:100DB0008053A3F50003BCFA8CF2083AA3EBC253AC
:100DC00010DB01FA02FC634400FA02FCC2F12002CB
:100DD000BCF1004F20FA02F243EB020008BF20F002
:100DE0000100704702F1200201FA02FCC2F1200268
:100DF00050EA4C0021FA02F243EB020008BF20EA5D
:100E0000DC70704753B94AB9002908BF00281CBFDD
:100E10004FF0FF314FF0FF3000F074B9ADF1080C26
:100E20006DE904CE00F006F8DDF804E0DDE9022308
:100E300004B070472DE9F047089D04468E46002B0C
:100E40004DD18A42944669D9B2FA82F252B101FA7E
:100E500002F3C2F1200120FA01F10CFA02FC41EA8E
:100E6000030E94404FEA1C48210CBEFBF8F61FFA13
:100E70008CF708FB16E341EA034306FB07F19942AE
:100E80000AD91CEB030306F1FF3080F01F81994261
:100E900040F21C81023E63445B1AA4B2B3FBF8F03B
:100EA00008FB103344EA034400FB07F7A7420AD9C2
:100EB0001CEB040400F1FF3380F00A81A74240F2EA
:100EC00007816444023840EA0640E41B00261DB155
:100ED000D4400023C5E900433146BDE8F0878B428A
:100EE00009D9002D00F0EF800026C5E90001304649
:100EF0003146BDE8F087B3FA83F6002E4AD18B4223
:100F000002D3824200F2F980841A61EB03030120CC
:100F10009E46002DE0D0C5E9004EDDE702B9FFDEB8
:100F2000B2FA82F2002A40F09280A1EB0C014FEA63
:100F30001C471FFA8CFE0126200CB1FBF7F307FBC0
:100F4000131140EA01410EFB03F0884208D91CEB63
:100F5000010103F1FF3802D2884200F2CB80434600
:100F6000091AA4B2B1FBF7F007FB101144EA0144DF
:100F70000EFB00FEA64508D91CEB040400F1FF316E
:100F800002D2A64500F2BB800846A4EB0E0440EA5C
:100F900003409CE7C6F12007B34022FA07FC4CEA65
:100FA000030C20FA07F401FA06F31C43F9404FEA58
:100FB0001C4900FA06F3B1FBF9F8200C1FFA8CFE6D
:100FC00009FB181140EA014108FB0EF0884202FAC1
:100FD00006F20BD91CEB010108F1FF3A80F0888082
:100FE000884240F28580A8F102086144091AA4B23F
:100FF000B1FBF9F009FB101144EA014100FB0EFEC0
:101000008E4508D91CEB010100F1FF346CD28E45EE
:101010006AD90238614440EA0840A0FB0294A1EB7F
:101020000E01A142C846A64656D353D05DB1B3EBDC
:10103000080261EB0E0101FA07F722FA06F3F1400C
:101040001F43C5E9007100263146BDE8F087C2F1B3
:101050002003D8400CFA02FC21FA03F3914001432B
:101060004FEA1C471FFA8CFEB3FBF7F007FB103664
:101070000B0C43EA064300FB0EF69E4204FA02F410
:1010800008D91CEB030300F1FF382FD29E422DD963
:10109000023863449B1B89B2B3FBF7F607FB163398
:1010A00041EA034106FB0EF38B4208D91CEB010118
:1010B00006F1FF3816D28B4214D9023E6144C91A98
:1010C00046EA004638E72E46284605E70646E3E6A8
:1010D0001846F8E64B45A9D2B9EB020864EB0C0EB2
:1010E0000138A3E74646EAE7204694E74046D1E7C1
:1010F000D0467BE7023B614432E7304609E764446F
:10110000023842E7704700BF03690A6902610B6158
:10111000704791B110B40C46096959B10161E16899
:10112000C1606360227002704360002383605DF8D9
:10113000044B70470021C160F5E70021C1600270D7
:101140004360002383607047034620B1002018618C
:101150009860D86070476FF00100704738B504465A
:101160000D46FFF7F1FF00B9256138BD08B5C3682A
:101170001BB18068FFF7FAFF08BD8160C860FBE71C
:1011800008B5C3681BB11846FFF7FAFF08BDC16078
:101190008860FBE74368EBB10269DAB170B50E69AC
:1011A0006EB10D46044631461046984738B12A695B
:1011B000824205D0E06840B12946FFF7EBFF70BDE1
:1011C00029462046FFF7A0FFF4E7E560AC60002366
:1011D000EB60F4E77047A8B108B549B143684B60CC
:1011E00003780B70012B07D05AB212B1022B06D034
:1011F00008BDFFF7BBFFFBE7FFF7C2FFF8E7FFF70C
:10120000C9FFF5E77047D0B1F8B505461E46174649
:101210000C4611B10BB90169A047E86820B133460B
:101220003A462146FFF7EFFF64B1012E01D00020BE
:10123000F8BD3A4629692846A0470020F8E76FF034
:10124000010070470020F3E7F8B108B50346826853
:101250006AB1C06858B1D060DA68986890600022BE
:101260009A60DA6009B118698847002008BD0AB1A0
:10127000D86830B1002AF5D1DA68002AF2D01346D6
:10128000F0E7D0609860D860ECE76FF0010070473D
:101290000249034B0A681A607047000028ED00E01D
:1012A0000C04002010B582B0002401941349144BA3
:1012B0000A681A60EFF3098393B9EFF309830E4BC1
:1012C0001B68002B0FDB13F0804F0FD10A4B1B68FC
:1012D00013F0020F01D044F00204204602B010BD0A
:1012E000EFF30883EBE74FF00104ECE744F002046E
:1012F000FFF7CEFF0190E9E7100400202CED00E09D
:101300001004002030B40D4A55680D4B1B7800FBCB
:1013100003F35C009268002105E0E81A02441144DE
:101320001A46A14207D2054B9B689A42FBD0F4D9DA
:10133000D21A1144F4E730BC704700BF10E000E05F
:101340001404002010B5441E28B14FF47A70FFF742
:10135000D9FF2046F7E710BD014B1861704700BF69
:1013600018040020014B5861704700BF180400208A
:10137000014B9861704700BF180400200000000076
:1013800038B50546204C00232377FFF7BBF802460B
:101390000B461BA1D1E90001FFF758FAFFF704FC47
:1013A000A060E560FFF7AEF802460B4614A1D1E954
:1013B0000001FFF74BFA04460D46144B1868FFF77F
:1013C000A1F822462B46FFF741FAFFF7EDFB013863
:1013D000B0F1807F09D20E4B58600E4AF02182F89E
:1013E000231000229A6007221A60042001F02EFFC9
:1013F000094802F0CFF8012038BD00BFAFF30080EC
:101400000000000080842E411804002018020020F3
:1014100010E000E000ED00E03C04002008B5034BC4
:1014200001221A771B6903B1984708BD18040020F0
:1014300000220023C0E9002370474DF804BD8B4211
:1014400008BF824205D2801A61EB03015DF804BB3C
:101450007047101A63EB0101F8E700000F4B1B7F88
:10146000012B01D0002070472DE900480B4B9A68F2
:10147000D3E9000110EB020B41F1000CC3E900BC01
:1014800001225A77064B1B6803B19847034B9B69AF
:1014900003B198470120BDE8008800BF1804002070
:1014A00038040020014BD3E90001704718040020E4
:1014B00008B54FF47A7200230249D1E90001FFF721
:1014C000A1FC08BD1804002010B4054B1C68596825
:1014D00082B20023101943EB01015DF8044B704701
:1014E00018040020054BD3E90023994208BF90421D
:1014F00001D2002070470120704700BF180400206F
:10150000FEE7000070B40478E20804F00705094B18
:101510001978012404FA02F63143C9B21970134450
:101520005A78AC402243D2B25A70002380F8483037
:1015300070BC70478CA4002010B40378DC0803F062
:1015400007020A4B23445978012000FA02F221EAEB
:1015500002025A705B7833B904490B7800FA04F43C
:1015600023EA04040C705DF8044B704780A400204B
:1015700010B40378DC0803F007020A4B23445978BF
:10158000012000FA02F221EA02025A705B7833B9B4
:1015900004490B7800FA04F423EA04040C705DF8A3
:1015A000044B70478CA4002005484FF0FF010170E8
:1015B000002080F309880348016881F30888704798
:1015C00022ED00E05CCF0020034678B193B103B177
:1015D000C9B130B4187800250A7800F0070002F08D
:1015E0000702AD4211D809D030BC70470029EDD1B7
:1015F000002070470029EAD008467047904206D381
:10160000F2D90846F0E7184670470846ECE7184656
:10161000EAE710B50446037803F0C7036FF302034B
:10162000037000234360836083810361C3620363AB
:101630004363836300224264036480F864308366FA
:10164000C36600F164017C30FFF788FD04F12400DB
:10165000FFF7EEFE04F11400FFF7EAFE04F11C00B0
:10166000FFF7E6FE052384F8483010BDF8B54FF4C7
:1016700020520021194805F0C9FD194B194A1A607A
:10168000002718E0184D04EBC70655F82600FFF7B1
:10169000C0FF55F826200023D36455F82620536553
:1016A00055F82620136545F826300134E4B2072C9E
:1016B000E8D90137FFB2072F01D80024F7E70B4B19
:1016C00000221A705A611A61DA60094B1868FFF734
:1016D000A0FF084B01221A70F8BD00BF680400206B
:1016E0005CCF002064A400205CCE002068A4002011
:1016F0004C04002095A4002010B50446C26C0021C3
:10170000406D05F083FD04F15403E26C02F1804268
:10171000013A03EB820323F007034FF0807243F892
:10172000042C094A22F0010243F8082C074A43F826
:101730000C2C002243F8202C6FF0020243F8242CDA
:10174000443B236510BD00BF811800080115000847
:1017500010B584B06846FFF76BFE02A8FFF768FE7D
:10176000FFF7A0FE02460B46CDE902230B49D1E963
:101770000001FFF762FE0A4B1C6801341C60FFF792
:10178000FBFA07EE904AF8EE677A07EE100A87EE4A
:10179000877A044B83ED007A04B010BD600400200A
:1017A0005C0400205804002000B583B06846FFF7B1
:1017B0003FFE314B1C680CE0FFF774FEE0612162D4
:1017C0006062A16211E0022384F848302B4B0022B2
:1017D0001A6094F84830002BFBD12046FFF7C8FE72
:1017E000264B1C60A36B002BE6D0012384F8483005
:1017F000236920469847A36B0133A363E26D636BB3
:101800009A4200D96263236C13442364626AA36A18
:10181000E069216AFFF711FECDE90001256CFFF7B1
:10182000ABFA07EE905AF8EE677A07EE100A87EEE9
:10183000877A84ED117AE36D226B13442363A26BE4
:10184000012A01D95B082363A089FFF73DFE60628E
:10185000A162A56B002DB6D0FFF78EFA07EE905A65
:10186000F8EE677A07EE100A87EE877ABCEEC77A41
:1018700084ED0B7AA7E700BF500400204C04002041
:1018800008B5094B186800B908BD084A1378013338
:10189000DBB21370064A1278934201D0FFF784FF3F
:1018A000044B01221A70F9E75004002096A400208E
:1018B00068A4002098A40020A9B110B50C460A4BDA
:1018C0001B78DBB2022B00D010BD91F84830022B00
:1018D000FAD1486A896AFFF705FE0028F4D120464C
:1018E000FFF710FEF0E7704795A4002070B404786D
:1018F000E20804F00705094B1978012404FA02F6FE
:101900003143C9B2197013445A78AC402243D2B261
:101910005A70042380F8483070BC704780A40020BF
:10192000034B044A92E8030083E80300704700BFBA
:1019300054CE002060CF0020134B1B780BB3124B0A
:101940001A78D2B211498A5C13445B78DBB2CB5C63
:1019500003EBC2000E4951F8200000B1704770B48B
:1019600009490D78012404FA02F625EA06050D70EE
:101970000A44517804FA03F321EA0303537070BC5C
:1019800070470020704700BF80A40020C89F000857
:101990005CCE0020000000000000000000000000FD
:1019A000074B19680868B0E8F04F1EF0100F08BF29
:1019B000B0EC108A80F30988BFF36F8F704700BFC7
:1019C00054CE002008B5FFF7EBFF08BD0000000073
:1019D000EFF30980BFF36F8FDFF850301A681EF005
:1019E000100F08BF20ED108A20E9F04F10602DE99C
:1019F00009004FF0500080F31188BFF34F8FBFF301
:101A00006F8FFFF78DFF4FF0000080F3118809BC46
:101A100019680868B0E8F04F1EF0100F08BFB0EC6E
:101A2000108A80F30988BFF36F8F704754CE00206F
:101A3000134B1B780BB3124B1A78D2B211498A5C44
:101A400013445B78DBB2CB5C03EBC2000E4951F868
:101A5000200000B1704770B409490D78012404FAE0
:101A600002F625EA06050D700A44517804FA03F3DC
:101A700021EA0303537070BC70470020704700BF19
:101A80008CA40020C89F00085CCE002002484FF0C4
:101A9000805101607047000004ED00E0514B1B785D
:101AA000DBB2022B40F09D8070B54F4B1B78BBB969
:101AB000FFF7BEFF4D4B1860FFF73EFF05464C4B4E
:101AC00018604C4B1C6894B1484B1E68B4426BD0F4
:101AD0002EB131462046FFF777FD86423DD070BDDE
:101AE0000123002244494548FFF78DFBE0E7B8B1E8
:101AF0003E4B1C6874B3A04205D001462046FFF758
:101B000063FD85421BD0A54219D0384B1A6802F1FB
:101B100050013B4B1960526D5A60FFF7B7FFDEE78B
:101B2000324B1B6843B103F15001354A11605B6DC4
:101B30005360FFF7ABFFD2E7FFF70AFECFE7284677
:101B4000FFF7FAFC2A4B1B68022283F84820274A39
:101B50001360DAE7254B1860D7E72046FFF708FD4A
:101B6000244B1868FFF7C2FE214B1C6834B11F4B91
:101B700019682046FFF728FD84420AD01B4B1A68DB
:101B800002F150011E4B1960526D5A60FFF77EFF43
:101B9000A5E72046FFF7D0FC154B1B68022283F80F
:101BA0004820124A1360E9E728B101462046FFF7B2
:101BB0000BFD85420AD00D4B1A6802F15001104B03
:101BC0001960526D5A60FFF761FF88E72046FFF702
:101BD0008DFE074C2068FFF795FC2268034B1A60C6
:101BE000E9E7704795A4002098A400205004002045
:101BF000540400204C040020B91800086CA40020F4
:101C000060CF0020000000002DE9F04F83B001906C
:101C10008B4617461E46824B1B785BB106EBC7030B
:101C2000804A52F823305BB14FF00108404603B0C0
:101C3000BDE8F08FFFF71AFD794B01221A70EDE72E
:101C4000902005F0C5FA8146764C4FEAC70A0AEBA8
:101C5000060544F825008046019B436054F8253072
:101C6000C3F808B05846FEF74DFC02460B466AA181
:101C7000D1E90001FEF7EAFD54F825B0FEF794FF24
:101C8000ABF80C0054F825300C9A1A6154F8253042
:101C90004AEA060A83F800A054F82520002382F8B7
:101CA000643054F82520C2F8689054F82520D36693
:101CB00054F825300D9ADA6454F82590900005F018
:101CC00087FAC9F8540054F82500436D002B00F042
:101CD0009A80FFF711FD54F8253093F858206FF3E0
:101CE000030283F8582054F8253093F858206FF3F6
:101CF000071283F8582054F825304FF00009C3F834
:101D00005C9054F82530C3F8609054F825300022D8
:101D10005A6454F82530C3F84090434B197854F86E
:101D2000250090F800C0012202FA0CFC41EAEC0107
:101D3000C9B2197090F800C003EBDC03597802FABD
:101D40000CF202F007020A435A70C0F82C9054F8C3
:101D50002530C3F8309054F82530C3F8349054F847
:101D600025002430FFF764FB54F825001430FFF7FA
:101D70005FFB54F825001C30FFF75AFB54F825A0F0
:101D8000FFF790FBCAF81400CAF8181054F8253071
:101D9000C3F8389054F8253083F83C9054F8250067
:101DA000FFF7B0FB54F82590142005F011FAC9F89C
:101DB000780054F82510886F40B3FFF7CFF91B4B1C
:101DC0001B78B3B954F82510194B0222896F1948B2
:101DD000FFF79FF906EBC706124B53F8260000F1F8
:101DE00064017C30FFF7BAF9104A1378013313709D
:101DF0001CE706EBC7030B4A52F82330996F0D48D6
:101E0000FFF7E9F9E6E74FF000080FE74FF00008A9
:101E10000CE700BFAFF300800000000080842E417B
:101E200097A400205CCE00208CA4002068A4002091
:101E3000C91500086CA4002010B549F64040FFF712
:101E40009FFA0020FFF788FA0020FFF78BFA11486D
:101E5000FFF78EFAFFF7E2FA0F4C2046FFF7E8FA99
:101E6000FFF720FBC4E90001FFF7E2FD0B4B186010
:101E700050B100F150020A4B1A60426D5A60094A93
:101E800093E8030082E80300FFF78EFBFFF7FEFDF7
:101E900010BD00BF9D1A00086004002050040020FF
:101EA00060CF002054CE0020014B1870704700BF57
:101EB00095A40020154A4FF480331360002353602B
:101EC0000121918203E0124A0021D1540133B3F57C
:101ED000803FF8D30F490E4A0A6000238B800E49D9
:101EE0000E48016002F57040C0F8F83FA0F8FC3FD2
:101EF000064B4FF6F870D86011604FF6F071D9605C
:101F00009180996001229A75704700BFA8A40020B3
:101F100000000010A0A40020F8FF00109CA40020E6
:101F2000164B1A461B688342FBD3918802EB010CC7
:101F3000844509D0818800EB010C634509D003601A
:101F4000904219D0106070478088014491801046FB
:101F5000F0E710B40A4C2468A3420BD09B881944C4
:101F6000818013681B680360904200D010605DF8A8
:101F7000044B70470460F7E7704700BFA0A400203F
:101F80009CA4002038B5044672B6224B9B7D6BB1F1
:101F900004F108031F4A9268934236D804F0030400
:101FA00014FA83F4A2B21C490C6804E0FFF782FF24
:101FB000EEE721461C46A388934202D22368002BF9
:101FC000F7D1164B1B68A34221D0254655F8083B94
:101FD0000B60A388991A082915DDA0188BB2083B5D
:101FE0008380A2800B4B9968891A996059680A44CA
:101FF0005A60FFF795FF0023236062B6054B064A3F
:102000001A61284638BD0020ECE70025F5E70025D9
:10201000F3E700BFA8A40020A0A400209CA40020F7
:1020200038B504460D4662B9D0F812300120984701
:10203000D4F81A3028469847D4F812300020984730
:1020400038BDD0F8123000209847F1E770B505464A
:102050000C4600228D21FFF7E3FF14B9074E002440
:1020600008E0074EFBE70022315D2846FFF7D8FF66
:102070000134E4B2012CF6D970BD00BF30AB0008CA
:102080002CAB000870B50546002601E00136F6B21B
:10209000072E1CD8A6F150010022C9B22846FFF72E
:1020A000BFFF002211462846FFF7BAFF0022102189
:1020B0002846FFF7B5FF002414F0800FE6D1012277
:1020C00000212846FFF7ACFF0134E4B2F4E770BD0D
:1020D0008020704740207047B0B3F8B50746A9B3D9
:1020E0000E46002519E003EBC50256F82220125DCA
:1020F0009A401143C9B20133DBB2072BF3D9012255
:102100003846FFF78DFF0134E4B214F0800F02D19E
:1021100000210B46F1E70135EDB2072D12D8A5F1EC
:1021200050010022C9B23846FFF77AFF002211465B
:102130003846FFF775FF002210213846FFF770FF81
:102140000024E2E70120F8BD002070470020FAE7F4
:102150000120704710B50446D0F8163040799847F2
:10216000D4F80A309847D4F806309847D4F80E309F
:10217000012098476420FFF7E5F8D4F80E300020DE
:1021800098470022AE212046FFF74AFF0022D521C2
:102190002046FFF745FF002250212046FFF740FF71
:1021A0000022A8212046FFF73BFF00223F212046C6
:1021B000FFF736FF0022D3212046FFF731FF002230
:1021C00011462046FFF72CFF002240212046FFF752
:1021D00027FF00228D212046FFF722FF0022142135
:1021E0002046FFF71DFF002214212046FFF718FFAD
:1021F000002220212046FFF713FF00220221204663
:10220000FFF70EFF0022A0212046FFF709FF002262
:10221000C8212046FFF704FF0022DA212046FFF7FD
:10222000FFFE002212212046FFF7FAFE0022812144
:102230002046FFF7F5FE0022EF212046FFF7F0FED3
:102240000022D9212046FFF7EBFE0022F121204693
:10225000FFF7E6FE0022DB212046FFF7E1FE002229
:1022600030212046FFF7DCFE0022A4212046FFF7A4
:10227000D7FE0022A6212046FFF7D2FE0022AF2182
:102280002046FFF7CDFE2046FFF7FCFE012010BDE3
:1022900008B5084B187004225A7002225A80012295
:1022A0009A80054AC2F80130044A126818469047DD
:1022B00008BD00BFC0A40020D8A40020CC0000208E
:1022C00008B5044BDB680146034AD2F80100984781
:1022D00008BD00BFCC000020D8A4002070B50A4C77
:1022E00008232360094BA3600223A38000252573E4
:1022F000074E33682A46294620469847B368294640
:102300002046984770BD00BFC8A40020000C0240C2
:10231000E800002070B50A4C08232360094BA36035
:102320000123A38000252573074E33682A462946DA
:1023300020469847B36829462046984770BD00BF9D
:10234000F8A40020000C0240E800002008B518B1F5
:10235000012807D0002100E00221034B9B680348BD
:10236000984708BD0121F8E7E8000020C8A4002034
:1023700008B518B1012807D0002100E00221034B65
:102380009B680348984708BD0121F8E7E800002052
:10239000F8A400200B4B00221A705A710A4AC3F8A5
:1023A00016200A4AC3F81A20094AC3F80620094A27
:1023B000C3F80E20084AC3F80A20084AC3F81220BE
:1023C00001207047D8A4002091220008C1220008F3
:1023D0001523000871230008DD2200084D230008A2
:1023E00008B5084B00221A70FFF7D4FF38B1064B2E
:1023F0001B680648984710B1024B01221A70014B26
:10240000187808BD08A5002000000020D8A40020EE
:1024100010B5054B1C7824B10146044B9B68044859
:102420009847204610BD00BF08A5002000000020EE
:10243000D8A4002010B582B0094C636998478DF884
:102440000000A36998478DF80100BDF80030002016
:10245000DAB262F307001B0A63F30F2002B010BD6B
:102460000000002008B5034B9B680BB1984708BDDE
:102470000020FCE71C000020014B1877012070476A
:1024800014A50020014B58770120704714A50020A7
:102490002DE9F04788B04A4B5F7F012F00F089801B
:1024A000022F00F08A80002F43D0002008B0BDE842
:1024B000F087DFF814A1DAF8003053F8248018F818
:1024C0000560DFF80091D9F80C309847ADF80000AE
:1024D0009DF80030013B5B1BDAF8002052F8241015
:1024E00018F803304B5552F82480D9F80C3098472F
:1024F000ADF804009DF80430013B5B1B08F8036055
:102500000134E4B22F4BDB689847ADF808009DF822
:102510000930A342CDD80135EDB22A4BDB6898478C
:10252000ADF80C009DF80C30B5EB530F03D23C46D0
:10253000E8E73D46F1E70120B8E7DFF88C80D8F8FE
:10254000009059F825301E5D1E4FFB689847ADF886
:1025500010009DF81130013B5B1B59F82320D8F87F
:10256000008058F82530125D1A55FB689847ADF881
:1025700014009DF81530013B5B1B58F823301E55A5
:102580000134E4B20F4BDB689847ADF818009DF8B2
:102590001830A342D1D80135EDB20A4BDB68984719
:1025A000ADF81C009DF81D30B5EB530F03D200248D
:1025B000E8E70025F1E7012078E7012076E700BF92
:1025C00014A500201C00002038A5002018B1034AE3
:1025D0001060406970470020704700BF0CA50020C4
:1025E000014B1868704700BF0CA5002008B5FFF725
:1025F000F7FF034600B10369184608BD08B5FFF7A9
:10260000EFFF18B1C3781BB9022008BD0020FCE71A
:102610000120FAE738B505460C46FFF7E1FF28B17F
:102620000571FFF7DDFF4471012038BD0020FCE794
:1026300030B583B0124DEB689847ADF800009DF8B7
:102640000040EB689847ADF804009DF80550002065
:10265000A84213D2002305E052F820200021D154D3
:102660000133DBB2A34206D2064A1268002AF3D134
:10267000002003B030BD0130C0B2E9E70120F8E727
:102680001C00002038A5002001238340024A107856
:1026900018431070704700BF10A50020014B187838
:1026A000704700BF60000020054B1A7812F0020F3F
:1026B00005D1012303FA00F01043014B1870704755
:1026C0006000002001238340024A107820EA0300C2
:1026D00010707047600000202DE9F84381460E46D7
:1026E0001746FFF77DFF0446DFF82080C379827923
:1026F00041790079D8F80050A847D8F804803B46C3
:1027000032464946A068C047BDE8F88384000020EF
:102710002DE9F04782B082460E4617469846FFF7ED
:102720005FFF0446DFF82C90C37982794179007904
:10273000D9F80050A847D9F81490A1689DF828301E
:102740000193CDF800803B4632465046C84702B060
:10275000BDE8F087840000202DE9F04782B0824672
:102760000E4617469846FFF73BFF0446DFF82C90CD
:10277000C379827941790079D9F80050A847D9F80E
:102780000C90A1689DF828300193CDF800803B465D
:1027900032465046C84702B0BDE8F08784000020AA
:1027A0002DE9F04782B082460E4617469846FFF75D
:1027B00017FF0446DFF82C90C379827941790079BC
:1027C000D9F80050A847D9F81090A1689DF8283092
:1027D0000193CDF800803B4632465046C84702B0D0
:1027E000BDE8F087840000202DE9F04782B08246E2
:1027F0000E4617469846FFF7F3FE0446DFF82C9086
:10280000C379827941790079D9F80050A847D9F87D
:102810001C90A0689DF828300193CDF800803B46BD
:1028200032465146C84702B0BDE8F0878400002018
:102830002DE9F04782B082460E4617469846FFF7CC
:10284000CFFE0446DFF82890C37982794179007978
:10285000D9F80050A847D9F80890A068CDF80080B2
:102860003B4632465146C84702B0BDE8F08700BF3C
:10287000840000202DE9F04782B082460E461746BC
:102880009846FFF7ADFE0446DFF82C90C3798279B5
:1028900041790079D9F80050A847D9F81890A06874
:1028A0009DF828300193CDF800803B4632465146D2
:1028B000C84702B0BDE8F0878400002008B5FFF7E4
:1028C000EDFE10F0100F17D00220FFF7EDFE3B4B8E
:1028D00000221A7010E03A4B1B68984730B3002072
:1028E000FFF7F0FE0220FFF7DFFE344A13780133D2
:1028F000DBB21370052B59D0FFF7D0FE034600283A
:1029000059D02E4A1278134113F0010FEDD0042A4A
:1029100052D801A353F822F0D7280008B92900089B
:102920003B29000857290008B52900080020FFF7B7
:10293000ABFE0120FFF7B8FED7E7FFF779FE30B115
:102940000220FFF7BFFE0320FFF7AEFECDE7012018
:10295000FFF7AAFEC9E71B4B5B7A002BC5D0194BCA
:102960001B78E3B100231A46174916488069FEF721
:102970004AFC68B9FFF78CFD114B5B68134A10687D
:1029800098470320FFF79EFE0420FFF78DFEACE77B
:102990000120FFF779FE0120FFF786FEA5E7022060
:1029A000FFF772FE0120FFF77FFE9EE7134600222D
:1029B0001A70A1E7012008BD0020FCE734A5002023
:1029C0001C00002014A50020D129000838A50020F3
:1029D0002DE9F04186B00C468B889BB98D79314B3F
:1029E000DB689847ADF804009DF804309D4209D398
:1029F000E5792C4BDB689847ADF808009DF8093065
:102A00009D422CD2657944E0274F3B6853F82580DE
:102A1000244EF3689847ADF80C009DF80C20002177
:102A2000404604F0E5FB3B6853F82570A36853F873
:102A30002580F3689847ADF810009DF810204146B6
:102A4000384604F0D5FB0135EDB2164BDB689847EC
:102A5000ADF814009DF81530AB42D5D81EE0002526
:102A6000F3E7114B1E6856F825002379A27900215F
:102A7000184404F0CBFB56F825602079A1686379EF
:102A8000EB1AA27951F82310304404F0B1FB013560
:102A9000EDB26379E27913449D42E2DB06B0BDE812
:102AA000F08100BF1C00002038A5002010B5FFF702
:102AB00097FD88B1002408E083688279002153F8EB
:102AC000240004F0A3FB0134E4B2FFF789FDC379CD
:102AD000A342F1D8012010BD0020FCE708B5FEF7A5
:102AE000E7FC054B5B68C31A312B03D9024B5860D6
:102AF000012008BD0020FCE714A5002000282FD0ED
:102B0000F8B5054603680BB90020F8BDDE799F795A
:102B1000186A04F065FB2B68986804F061FB0024D8
:102B200007E02B689B6853F8240004F059FB01343C
:102B3000E4B2B442F5D307FB06F60A4B1A693244F5
:102B40001A61D9688E1BDE605B699A4201D9002048
:102B5000DBE7286804F044FB00232B600120D4E766
:102B60000020704714A500202DE9F04F87B0824661
:102B7000894617469846574B5E69002E4BD1564CF6
:102B8000E3689847ADF800009DF80150E368984766
:102B9000ADF804009DF8043005FB03F34D4A536182
:102BA00003EB830353611361E3689847ADF80800B2
:102BB0009DF809008000FFF7E5F9484B18600028F0
:102BC00043D00024444BDB689847ADF814009DF8CF
:102BD0001530A3421FD9404BDB689847ADF80C0075
:102BE0003E4DD5F800B09DF80C00FFF7CBF94BF83F
:102BF00024002B6853F824503DB3374BDB689847CB
:102C0000ADF810009DF810200021284604F0FEFACF
:102C10000134E4B2D6E72420FFF7B4F906460028D1
:102C20004FD080F804A080F80590877180F8078065
:102C30000123437000238370109B8361254B1B6924
:102C400007FB08F94B4504D20026304607B0BDE823
:102C5000F08F4FEA880004F0BBFAB060002832D051
:102C60000024444510D2B568384604F0B1FA45F85E
:102C70002400B36853F8240038B33A46002104F026
:102C8000C5FA0134E4B2ECE7124B1A69A2EB09026F
:102C90001A61DA684A44DA605A7A01325A72104B81
:102CA0003361104B7361142004F092FA306270B1FA
:102CB0003146FEF753FA9DF8443033700023F37029
:102CC000C3E70026C1E70026BFE70026BDE70026D0
:102CD000BBE700BF14A500201C00002038A5002081
:102CE000440000202C00002010B5FFF779FCC0B193
:102CF0000E4A1278012A16D9C47814B90124204644
:102D000010BD0021006AFEF79FFA0220FFF7CCFCFD
:102D1000FFF766FC0023C370044A1378013B13706D
:102D2000EDE70024EBE70024E9E700BF14A500204D
:102D300010B582B0FFF754FC002832D00378CBB92D
:102D4000FFF74EFC0346C07890B90122DA70164BAB
:102D50009C69C4B1FFF744FC016A2046FEF73BFAC8
:102D60000220FFF7A1FC104A1378013313700120F1
:102D700002B010BDC379827901210091002108467B
:102D8000FFF778FDDCE7FFF72BFC046A064B9C613C
:102D9000FFF726FC00230122016A2046FEF7B9F95D
:102DA000DEE70020E4E700BF14A5002010B4044CC7
:102DB000E370A270207061705DF8044B704700BF33
:102DC0003CA5002030B40C4C94F800C0A478A44476
:102DD00061450ADA084D6C78ED782C44A24204DA99
:102DE0002BB150F8223001225A5430BC704750F8B1
:102DF000223000225A54F8E73CA500202DE9F04F7C
:102E000083B01F469DF830A09DF834B0203AD3B26D
:102E10000193294B9B78BB4248D98046894654464A
:102E20000023009332E0019B03EB4303234A02EBB0
:102E30008303009A9E5C35E08BF0010322463946FD
:102E40004846FFF7BFFF7600F6B20134E4B2A4EBC8
:102E50000A03434513DA0135EDB2072D12D8164A9D
:102E6000137892781344BB4222DD16F0800FE3D032
:102E70005B46224639464846FFF7A4FFE3E70137A1
:102E8000FFB25446009B0133DBB20093009B4345E5
:102E90000AD2B8F10C0FC6D0094B019A03EB02130A
:102EA000009A9E5C0025D8E7012002E0002000E0A7
:102EB000002003B0BDE8F08F3CA50020C8A00008AA
:102EC0003CA500082DE9F04383B007460E461546A1
:102ED0001C469DF828909DF82C8002E00834E4B24E
:102EE00001352A7852B1CDF80480CDF80090234600
:102EF00031463846FFF782FF0028EFD103B0BDE826
:102F0000F083002002E00830C0B201310B78002BC2
:102F1000F9D170472DE9F04F85B001908846914670
:102F20009DF83820A3EB010A4FFA8AFAA2EB090BAD
:102F30004FFA8BFBBAF1000F0EDD01230293BBF1B8
:102F4000000F16DD01230393DA4520DD0FFA8AF71F
:102F50000026354634461FE0BAF1000F06D0CB1AE2
:102F60004FFA83FA4FF0FF330293E8E7CDF808A059
:102F7000E5E7BBF1000F07D0A9EB02024FFA82FB95
:102F80004FF0FF330393DFE7CDF80CB0DCE70FFA27
:102F90008BF7DDE70136F6B2B7421EDB01234A4666
:102FA00041460198FFF70EFF5444E2B264B25D441B
:102FB000EBB26DB221B2B94205DBD21B54B2029A18
:102FC00090445FFA88F82AB2BA42E3DBDB1B5DB2B9
:102FD000039B99445FFA89F9DCE705B0BDE8F08FFF
:102FE0002DE9F84380460F4691461C469DF8206027
:102FF0009DF8245015F0010F0AD115F0020F18D1D9
:1030000015F0080F28D115F0040F38D1BDE8F8836A
:10301000B21A59180123D2B2C9B2FFF7D3FEF21B7C
:1030200004EB09010123D2B2C9B24046FFF7CAFE40
:10303000E3E7A6EB0902E11B0123D2B2C9B2404685
:10304000FFF7C0FEF21BA4EB09010123D2B2C9B203
:103050004046FFF7B7FED3E706EB0902E11901236B
:10306000D2B2C9B24046FFF7ADFEBA1904EB09016E
:103070000123D2B2C9B24046FFF7A4FEC3E706EB74
:103080000902E11B0123D2B2C9B24046FFF79AFE02
:10309000BA19A4EB09010123D2B2C9B24046FFF725
:1030A00091FEB3E72DE9F04F85B003908946924633
:1030B0001E469DF838B0C3F1010464B2C3EBC318D7
:1030C0004FEA48084FFA88F8CDF804B000920B4652
:1030D00032460021FFF784FF0025012719E0013E59
:1030E000F6B208F102034FFA83F854FA83F464B29B
:1030F0000135EDB2BB1C5FB254FA83F464B2CDF873
:1031000004B0CDF800A04B46324629460398FFF79D
:1031100067FFB54202D2002CE1DAE9E705B0BDE86D
:10312000F08F10B582B00F240094FFF7BBFF02B000
:1031300010BD2DE9F04383B080460E4617469DF83A
:103140002C90CD18EDB2013DEDB29DF8284014440D
:10315000E4B2013CE4B2CDF8049000922B46FFF7B4
:10316000D9FECDF80490009433463A4631464046A5
:10317000FFF7D0FECDF8049000942B463A4629463E
:103180004046FFF7C7FECDF8049000942B46224638
:1031900031464046FFF7BEFE03B0BDE8F0830000B5
:1031A00070B586B004460D461E46094903A804F0D2
:1031B00055FD9DF82C3001939DF82830009333463F
:1031C00003AA29462046FFF77DFE06B070BD00BF6A
:1031D00034AB000840F0BF6040F40030014BD860D1
:1031E000704700BF00ED00E0C378FBB1154BDB6812
:1031F000DB43C3F30222C2F10401C9B20F2313411E
:1032000042788A40D2B281780B4013431B01DBB273
:1032100002780D490A4482F80033037803F01F0056
:103220005B090122824041F823207047037803F0B4
:103230001F015B0901228A402033034941F8232002
:10324000704700BF00ED00E000E100E0042805D079
:10325000054A136823F0040313607047024A136899
:1032600043F004031360704710E000E0036823F0AC
:10327000010303600023036043608360C360036154
:10328000212343613C4B98422DD03C4B98422ED099
:103290003B4B984230D03B4B984232D03A4B98420D
:1032A00034D03A4B984235D0394B984236D0394BCE
:1032B000984237D0384B984239D0384B98423AD060
:1032C000374B98423CD0374B98423ED0364B9842D1
:1032D00040D0364B984241D0354B984242D0354B86
:1032E000984243D07047103B3D229A607047283B7C
:1032F0004FF474629A607047403B4FF474129A60C6
:103300007047583B4FF074629A607047703B2A4A8E
:10331000DA607047883B294ADA607047A03B284A48
:10332000DA607047B83B4FF03D52DA607047103BAF
:103330003D229A607047283B4FF474629A60704750
:10334000403B4FF474129A607047583B4FF07462E0
:103350009A607047703B184ADA607047883B174A9A
:10336000DA607047A03B164ADA607047B83B4FF00E
:103370003D52DA60B6E700BF1060024028600240AC
:103380004060024058600240706002408860024025
:10339000A0600240B860024010640240286402400D
:1033A00040640240586402407064024088640240F5
:1033B000A0640240B86402403D000020400F00209D
:1033C00000003D2010B40368134A1A400B68CC6813
:1033D00023434C6923438C692343CC6923430C6A00
:1033E00023434C6A23438C6A23434C6B23438C6BEB
:1033F000234313430360426922F00702CB6A0C6B3C
:103400002343134343610B6943604B6883608B68BC
:10341000C3605DF8044B70473F801CF021B1036826
:1034200043F0010303607047036823F00103036066
:10343000704741607047406880B27047036813F07E
:10344000010F01D001207047002070470B4B9842BC
:103450000DD8A3F20F4311F0005F0AD05B6823F090
:10346000F02323F08213194205D001207047044B4A
:10347000F1E71B68F3E70020704700BF0F640240CC
:10348000006402400A4B98420AD8A3F20F4311F09D
:10349000005F07D021F0F02121F08211D960704740
:1034A000044BF4E721F0F02121F08211996070477C
:1034B0000F64024000640240014B5861704700BF36
:1034C000003C014000230F2B40D8F0B425E0846875
:1034D0002240826082684C79AC402243826044681A
:1034E0009FB20126BE4024EA0604446044688A79FB
:1034F000BA4092B222434260C2689CB26600032482
:10350000B44022EA0402C260C268CC7904FA05F52C
:103510001543C56001330F2B16D801229A400C6861
:10352000A243F7D104685D000322AA40D2431440AD
:10353000046004680E79AE40344304600C79013CA9
:10354000E4B2012CD8D8C2E7F0BC704770470369D9
:10355000194201D001207047002070470183704755
:103560004183704730B401F007039B009A40C908BB
:10357000083150F821400F2505FA03F324EA03042B
:1035800040F8214050F82130134340F8213030BC3E
:103590007047000010B4294B9B6803F00C03042B08
:1035A00023D0082B24D013B1254B036001E0244B1A
:1035B0000360224CA368C3F303132249CB5CDAB245
:1035C0000368D3404360A268C2F382228A5CD2B20D
:1035D00023FA02F28260A268C2F342328A5CD2B25B
:1035E000D340C3605DF8044B7047174B0360E0E7BE
:1035F000124B5A685B6803F03F0312F4800F12D03D
:10360000114AB2FBF3F20D4B5B68C3F3881303FB63
:1036100002F30A4A5268C2F3014201325200B3FB7C
:10362000F2F30360C5E7064AB2FBF3F2034B5B68B3
:10363000C3F3881303FB02F3EBE700BF003802403B
:103640000024F400AC00002000127A0021B1054AE9
:10365000136B034313637047024A136B23EA00039F
:10366000136370470038024021B1054A536B03438E
:1036700053637047024A536B23EA00035363704756
:103680000038024021B1054A136C034313647047AC
:10369000024A136C23EA00031364704700380240A7
:1036A00021B1054A536C034353647047024A536C7B
:1036B00023EA0003536470470038024021B1054AF1
:1036C000136A034313627047024A136A23EA000332
:1036D000136270470038024021B1054A536A034320
:1036E00053627047024A536A23EA000353627047E9
:1036F0000038024008B52A4B98420FD0294B984217
:1037000017D0294B98421FD0284B984227D0284BDE
:1037100098422FD0274B984237D008BD01214FF453
:103720008050FFF7D9FF00214FF48050FFF7D4FFFE
:10373000F3E701214FF48040FFF7C0FF00214FF471
:103740008040FFF7BBFFE8E701214FF40040FFF79F
:10375000B5FF00214FF40040FFF7B0FFDDE7012186
:103760004FF40050FFF7B8FF00214FF40050FFF76F
:10377000B3FFD2E701214FF48010FFF7ADFF002126
:103780004FF48010FFF7A8FFC7E701214FF40010A6
:10379000FFF7A2FF00214FF40010FFF79DFFBCE7E9
:1037A0000030014000380040003C0040003401403F
:1037B00000500140005401402DE9F041038803F41A
:1037C0004152B1F800E0B1F80280B1F804C0CF88EE
:1037D0000E894D898C89CB894EEA080E4CEA0E0C75
:1037E00047EA0C073E4335432C43234313430380EE
:1037F000838B9BB223F400639BB283830B8A038287
:10380000BDE8F08121B1038843F040030380704795
:1038100003889BB223F040039BB2038070478089EA
:103820007047818170470389194201D00120704798
:1038300000207047028A83890B40114202D01BB9D5
:10384000002070470020704701207047C94389B2AB
:103850000182704708B5364B984215D0354B9842D7
:103860001BD0354B984223D0344B98422BD0344B4D
:10387000984233D0334B98423BD0334B984241D09F
:10388000324B984249D008BD01211020FFF724FF98
:1038900000211020FFF720FFF5E701214FF4003051
:1038A000FFF70CFF00214FF40030FFF707FFEAE7B6
:1038B00001214FF48020FFF701FF00214FF4802009
:1038C000FFF7FCFEDFE701214FF40020FFF7F6FED3
:1038D00000214FF40020FFF7F1FED4E701214FF45F
:1038E0008010FFF7EBFE00214FF48010FFF7E6FE9B
:1038F000C9E701212020FFF7EFFE00212020FFF77C
:10390000EBFEC0E701214FF08040FFF7D7FE00211A
:103910004FF08040FFF7D2FEB5E701214FF00040A5
:10392000FFF7CCFE00214FF00040FFF7C7FEAAE7EB
:10393000001001400044004000480040004C00409E
:10394000005000400014014000780040007C00401E
:1039500030B585B004460D46038A9BB223F440532C
:10396000CA881343038283899BB223F4B05323F0A4
:103970000C03898828896A8901430A431343A38178
:10398000A38A9BB223F44073AA891343A382684697
:10399000FFF700FE204B9C4205D003F580639C425C
:1039A00001D0029B00E0039BA28912F4004F1FD1BB
:1039B00003EB830303EB830329688900B3FBF1F175
:1039C000164BA3FB012358090501642300FB1313C5
:1039D000A28912F4004F14D11B0132330F4AA2FB0B
:1039E0000323C3F343132B439BB2238105B030BDA4
:1039F00003EB830303EB830329684900B3FBF1F175
:103A0000DEE7DA003232054BA3FB0232C2F3421288
:103A100042EA0503E8E700BF001001401F85EB51B3
:103A200021B1838943F400538381704783899BB21A
:103A300023F400539BB283817047C1F30801818056
:103A400070478088C0F3080070471AB1838A194311
:103A500081827047838A23EA01018182704710B412
:103A6000C1F3421401F01F01012303FA01F19C424A
:103A700009D0022C09D014304AB1036819430160FF
:103A80005DF8044B70470C30F6E71030F4E703683C
:103A900023EA01010160F3E70388194201D0012004
:103AA00070470020704710B4C1F3421201F01F04A8
:103AB0000123A340012A0DD0022A0ED0828A13408E
:103AC000090A012202FA01F10288114043B159B9F1
:103AD000002006E082891340F2E7028A1340EFE7F4
:103AE00000205DF8044B70470120FAE7090A012322
:103AF0008B409BB2DB439BB20380704710B49DF8B0
:103B00000840016042608360022C15D0012C19D05E
:103B1000019B0361002343614FF480628261C361B2
:103B200003624FF480328262C36203220263436302
:103B300083635DF8044B70470023C3604FF48073C8
:103B40004362E5E74023C36000234362E0E770B5CA
:103B50000C4616461D460121FFF778FD2046FFF76B
:103B600085FB2046FFF76AFC0028FAD13146204643
:103B7000FFF728FC29462046FFF750FC70BD0000E7
:103B800001EBC001014B53F82100704740A5002014
:103B900010B582B001210846FFF758FD0F4C0722EF
:103BA00009212046FFF7DEFC07220A212046FFF705
:103BB000D9FC4FF4C063009302238DF80430032333
:103BC0008DF8053000238DF8063001238DF807307D
:103BD00069462046FFF776FC02B010BD00000240A7
:103BE00010B582B001210846FFF730FD0F4C0722C7
:103BF00002212046FFF7B6FC072203212046FFF7EB
:103C0000B1FC0C23009302238DF8043003238DF8BC
:103C1000053000238DF8063001238DF80730694602
:103C20002046FFF74FFC02B010BD00BF000002406D
:103C300010B582B001210220FFF708FD0F4C0722CA
:103C40000A212046FFF78EFC07220B212046FFF7B2
:103C500089FC4FF44063009302238DF80430032362
:103C60008DF8053000238DF8063001238DF80730DC
:103C700069462046FFF726FC02B010BD0004024052
:103C800010B582B001210420FFF7E0FC0F4C0822A0
:103C900006212046FFF766FC082207212046FFF791
:103CA00061FCC023009302238DF8043003238DF8B8
:103CB000053000238DF8063001238DF80730694662
:103CC0002046FFF7FFFB02B010BD00BF0008024016
:103CD00010B582B001210846FFF7B8FC114C05224F
:103CE00006212046FFF73EFC052207212046FFF76C
:103CF00039FC052211462046FFF734FCE0230093EF
:103D000002238DF8043000238DF8063003228DF84D
:103D100005208DF8073069462046FFF7D3FB02B037
:103D200010BD00BF0000024070B582B0012102202A
:103D3000FFF78CFC194C05220E212046FFF712FCE0
:103D400005220F212046FFF70DFC05220D212046FC
:103D5000FFF708FC4FF44043009302268DF80460FF
:103D600000258DF8065003238DF805308DF8075097
:103D700069462046FFF7A6FB4FF4005300938DF8E9
:103D800004608DF806508DF805608DF8075069467F
:103D90002046FFF797FB02B070BD00BF0004024051
:103DA00010B582B001210420FFF750FC114C06220F
:103DB0000B212046FFF7D6FB06220C212046FFF7F9
:103DC000D1FB06220A212046FFF7CCFB4FF4E0533B
:103DD000009302238DF8043000238DF8063003226F
:103DE0008DF805208DF8073069462046FFF76AFBFD
:103DF00002B010BD0008024070B582B0044608460B
:103E000015461E460121FFF721FC9DF8182031467A
:103E10002046FFF7A7FB009502238DF8043000220F
:103E20008DF807208DF8053001238DF8063069469E
:103E30002046FFF747FB02B070BD30B583B00D469A
:103E400014460121FFF702FC01238DF80430002203
:103E50008DF806208DF8073002238DF80530009587
:103E600069462046FFF72EFB03B030BD30B583B066
:103E70000D4614460121FFF7E9FB00238DF80430BD
:103E80008DF8063002238DF807308DF80530009547
:103E900069462046FFF716FB03B030BD08B5FFF7B3
:103EA00056FB08BD08B522B1012A01D1FFF758FB26
:103EB00008BDFFF753FBFBE700B583B08DF80400A6
:103EC0008DF805108DF806208DF8073001A8FFF752
:103ED0008BF903B05DF804FB10B540F225511C4886
:103EE000FFF7E1FD30B940F224411948FFF7DBFD4F
:103EF000A0B910BD002000F00FF948B1002000F07B
:103F00000BF904461248FFF79CFD0121C0B2A047FF
:103F100040F225510E48FFF7E9FDE4E70D4C002182
:103F20002046FFF77BFA0A4B9A881B882046FFF74A
:103F300082FA09492046FFF7A5FA4FF4807120461E
:103F4000FFF777FA01212046FFF768FAD1E700BFB3
:103F500000100140886402400008002010B540F2C3
:103F600025511C48FFF79FFD30B940F22441194804
:103F7000FFF799FDA0B910BD012000F0CDF848B1C0
:103F8000012000F0C9F804461248FFF75AFD01214C
:103F9000C0B2A04740F225510E48FFF7A7FDE4E765
:103FA0000D4C00212046FFF739FA0A4B9A881B88EE
:103FB0002046FFF740FA09492046FFF763FA4FF41D
:103FC00080712046FFF735FA01212046FFF726FAD7
:103FD000D1E700BF00440040886002400008002094
:103FE00010B540F225511C48FFF75DFD30B940F295
:103FF00024411948FFF757FDA0B910BD022000F079
:104000008BF848B1022000F087F804461248FFF709
:1040100018FD0121C0B2A04740F225510E48FFF71C
:1040200065FDE4E70D4C00212046FFF7F7F90A4B48
:104030009A881B882046FFF7FEF909492046FFF7BA
:1040400021FA4FF480712046FFF7F3F90121204651
:10405000FFF7E4F9D1E700BF0048004028600240C4
:104060000008001010B540F225511C48FFF71BFD59
:1040700030B940F224411948FFF715FDA0B910BD31
:10408000032000F049F848B1032000F045F8044649
:104090001248FFF7D6FC0121C0B2A04740F22551DB
:1040A0000E48FFF723FDE4E70D4C00212046FFF703
:1040B000B5F90A4B9A881B882046FFF7BCF90949D5
:1040C0002046FFF7DFF94FF480712046FFF7B1F982
:1040D00001212046FFF7A2F9D1E700BF00140140FB
:1040E0002864024000080010016000238380C38020
:1040F000038183810C234381704701604FF4805317
:1041000083804FF40053C3804FF480630381002306
:1041100083810C2343817047032803D8024B53F853
:10412000200070470020704780A50020032804D895
:10413000034B43F82010012070470020704700BF58
:1041400080A50020F0B585B004460D4616461F46F2
:10415000174B53F820309847164B53F82430012161
:10416000154A52F8240098479DF82820134B53F81D
:104170002230294668469847114D694655F8240073
:10418000FFF7E6FB012155F82400FFF749FC012267
:1041900040F2255155F82400FFF761FC01233A460F
:1041A00031460848005DFFF787FE05B0F0BD00BF4F
:1041B000B8AB000848AB000858AB0008CCAB00080F
:1041C000BC000020C8AB0008F0B597B004460D460F
:1041D00016461F46314B53F820309847304B53F862
:1041E000243001212F4A52F8240098479DF8782066
:1041F0002D4B53F82230294612A898472B4D12A96F
:1042000055F82400FFF7A4FB002240F2255155F891
:104210002400FFF724FC002240F2266155F8240018
:10422000FFF71DFC002240F2277155F82400FFF72C
:1042300016FC012240F2244155F82400FFF70FFC40
:104240000122402155F82400FFF7FFFB55F82420F8
:1042500002230193BDF8743000931C9B043214496F
:1042600051F8241003A8FFF749FC012303AA1149C0
:1042700051F82410104850F82400FFF768FC01237F
:104280003A4631460D48005DFFF716FE012155F80C
:104290002400FFF7C5FB17B0F0BD00BFB8AB0008A6
:1042A00048AB000858AB0008CCAB0008BC000020AD
:1042B00078AB000888AB000868AB0008C8AB000802
:1042C000032801D90020704770B504460026154B1D
:1042D00043F82060144D55F82000FFF7BBFA324632
:1042E00040F2255155F82400FFF7B9FB324640F261
:1042F000266155F82400FFF7B2FB324640F22771E1
:1043000055F82400FFF7ABFB324640F2244155F844
:104310002400FFF7A4FB314655F82400FFF780FB8B
:10432000012070BD80A50020BC0000202DE9F043D5
:10433000A5B004460D4616469946BDF8B880404BD8
:1043400053F8203098473F4B53F8243001213E4A20
:1043500052F8240098479DF8BC203C4B53F822307B
:10436000294620A898473A4D20A955F82400FFF780
:10437000EFFA002240F2255155F82400FFF76FFBB9
:10438000002240F2266155F82400FFF768FB002266
:1043900040F2277155F82400FFF761FB012240F23B
:1043A000244155F82400FFF75AFB55F82420022336
:1043B0000193CDF800802C9B0432264951F824103B
:1043C00011A8FFF79BFB244B53F82470012311AA7B
:1043D000224951F824103846FFF7B9FB01234A4619
:1043E00031461F48005DFFF767FD55F82420012680
:1043F0000196CDF800802D9B04321A4951F8241003
:1044000002A8FFF77BFB002302AA174951F82410EA
:104410003846FFF79CFB3246402155F82400FFF751
:1044200014FB3246802155F82400FFF70EFB31467D
:1044300055F82400FFF7F4FA25B0BDE8F08300BF7B
:10444000B8AB000848AB000858AB0008CCAB00087C
:10445000BC00002078AB000868AB000888AB0008FF
:10446000C8AB000898AB0008A8AB00082DE9F041E4
:10447000044688461746002608E018F806100A4B3E
:1044800053F82400FFF7D9FA0136F6B2B3B2BB42B3
:1044900008D24021044B53F82400FFF7FDFA00280E
:1044A000F7D0EAE7BDE8F081BC00002038B50D4642
:1044B000084B53F82040084B53F820102046FEF7D5
:1044C000E1FF29462046FEF7B4FF01212046FEF712
:1044D000A5FF38BDA8AB000838AB000838B50446C6
:1044E00003280FD8084B53F82410084B53F8240026
:1044F000FEF7ACFF0128F5D10021044B53F824004E
:10450000FEF78CFF38BD00BF38AB0008A8AB000831
:1045100008B5034B53F82000FFF7ECF808BD00BFC7
:10452000ECAB0008F0B587B004460D4617461E46B2
:10453000204B53F820309847A4BB01211E4B53F861
:104540002400FFF7ADF81D4B53F824402046FFF739
:10455000D1F800212046FFF755F94FF48273ADF8EA
:1045600006300023ADF80430ADF808304FF4007287
:10457000ADF80E20ADF81230ADF80A70ADF80C6051
:104580000723ADF814300E4B33F81530ADF810306A
:1045900001A92046FFF710F901212046FFF732F963
:1045A00007B0F0BD0121044B53F82400FFF76AF86F
:1045B000C9E700BFE0AB0008D4AB0008ECAB0008D3
:1045C000F8AB000838B50D460A4B53F820400021DF
:1045D0002046FFF717F923889BB223F03803064AD9
:1045E00032F815201343238001212046FFF70AF9F2
:1045F00038BD00BFECAB0008F8AB0008F8B50546C5
:104600000F46002402210A4B53F82500FFF70BF94F
:1046100030B90134A4B2B4F57A7FF3D9002006E0B2
:104620003946034B53F82500FFF7FBF80120F8BD8E
:10463000ECAB0008F8B505460F4600242E460221D3
:10464000144B53F82500FFF7EEF830B90134A4B24B
:10465000B4F57A7FF2D900201BE0FF210D4B53F80F
:104660002500FFF7DEF8002401210A4B53F826004D
:10467000FFF7D9F830B90134A4B2B4F57A7FF3D991
:10468000002006E0034B53F82600FFF7C8F8387007
:104690000120F8BDECAB00082DE9F0410546884645
:1046A000174600242E460221154B53F82500FFF72C
:1046B000BAF830B90134A4B2B4F57A7FF2D9002047
:1046C0001BE041460E4B53F82500FFF7AAF80024E3
:1046D00001210B4B53F82600FFF7A5F830B9013440
:1046E000A4B2B4F57A7FF3D9002006E0044B53F866
:1046F0002600FFF794F838700120BDE8F08100BF74
:10470000ECAB00082DE9F843884616460546204ADA
:1047100052F8202092894FF47A745F1EBFB293B38F
:104720006EB116F8019B0221194B53F82500FFF7D3
:104730007AF838B9631E9BB234B31C46F3E74FF0E6
:10474000FF09F0E74946124B53F82500FFF769F8D7
:104750004FF47A7401210E4B53F82500FFF763F8EC
:1047600020B9631E9BB27CB11C46F3E7084B53F89B
:104770002500FFF754F8C0B2B8F1000F01D008F8D7
:10478000010B3B46C9E73C462046BDE8F88300BF25
:10479000ECAB000808B501214FF08040FFF74AF864
:1047A000012800D008BD01214FF08040FFF74EF8EE
:1047B000F8E7000008B501210548FFF73BF801289C
:1047C00000D008BD01210248FFF740F8F9E700BF1B
:1047D0000004004008B501210548FFF72BF8012827
:1047E00000D008BD01210248FFF730F8F9E700BF0B
:1047F0000008004008B506210020FFF7C1F920B1EC
:1048000006210020FFF7BCF9804708BD08B5032149
:104810000020FFF7B5F920B103210020FFF7B0F920
:10482000804708BD08B507210120FFF7A9F920B18D
:1048300007210120FFF7A4F9804708BD10B51446F1
:104840000A4621460078FFF75DFF10BD08B50078E5
:10485000FFF722FF08BD08B50078FFF7EBFE08BDA3
:1048600008B50078FFF7CAFE08BD08B541780078A2
:10487000FFF7A8FE08BD08B50078FFF749FE08BDA0
:1048800008B58388428841780078FFF74BFE08BD61
:10489000704708B5037B012B01D0002008BD81883B
:1048A0008068FFF7FBFA08B90120F7E70220F5E777
:1048B00008B5037B3BB9012907D0002281888068B5
:1048C000FFF7F0FA08BD0020FCE70122818880682C
:1048D000FFF7E8FAF6E700B583B0017301290CD0C1
:1048E0004BB223B102290ED003B05DF804FB8268FD
:1048F00081880068FFF7A1FAF6E78268818800687E
:10490000FFF7B4FAF0E7437B00938379828801686C
:104910008068FFF771FAE7E770B500EB8004A30049
:10492000154CE35C03B970BD16460D4604461348AA
:1049300000EB842002F05CFC04EB84039A000E4B35
:1049400013449B7A012B06D9022BECD13146204629
:10495000FFF7ACFD04E0324629462046FFF786FD0E
:1049600004EB84039A00044B13441B7C002BDAD124
:104970002046FFF7B3FDD6E790A50020F4B900204C
:1049800070B584B005461446012958D04AB222B108
:1049900002296ED0002004B070BD102BFBD100EBBB
:1049A00080029300354AD05C0028F4D1042D36D023
:1049B000A379012B23D05AB2A2B1022BEBD1AB02C7
:1049C0002F4818442F491944637922790026039609
:1049D0004FF4806602960191009021682846FFF707
:1049E000A5FC1EE063792279002100912168284608
:1049F000FFF7A8FBA1682846FFF798FB11E02049C4
:104A000001EB852163792279002002904FF48060C8
:104A10000190009121682846FFF7D6FB01E000F0E5
:104A200033F8164BAA005019810001265E545D1818
:104A3000043594E80F0085E80F003046ABE7FFF738
:104A40003FFC00212846FFF771FB0323A3710021DF
:104A5000217161712160A160084BAA005619B00054
:104A600019541D18043594E80F0085E80F00012043
:104A700091E72146FFF75AFB01208CE790A5002023
:104A8000F4A50020F4B9002008B500F071F808BDC5
:104A900008B500F009F808BD10B5084614461146DF
:104AA000FFF7F6FF204610BD08B501F041FB0020DE
:104AB00008BD00000D4B1B68FF2B01D90220704779
:104AC00010B40B4A1268FF2A02D9094A002111606A
:104AD00007490A68074CA05401320A600133034AAF
:104AE000136000205DF8044B704700BF6CCF0020BE
:104AF00068CF002074CF002000238B4218D230B43E
:104B000006E001340B4A148001339BB28B420DD274
:104B1000084A1488C55C224495700D2DF1D1C21845
:104B200052780A2AEDD1044B01221A7030BC70472A
:104B3000704700BF74D00020F5CD0020014B1878DD
:104B4000704700BFF5CD00200023074A1370074AC5
:104B50001380FF2B06D8054A1A44002191700133B7
:104B60009BB2F6E7704700BFF5CD002074D000205F
:104B700010B582B00B4B00930B4B0C4A01210C4833
:104B800001F01FFC00240B4B1C600B4B1C600B4BFB
:104B90001C600B4B01221A70FFF7D6FF204602B0B3
:104BA00010BD00BFFC01002004010020DC0100203A
:104BB00078D1002068CF002070CF00206CCF00207B
:104BC000F4CD0020F0B583B001210846FEF73EFD8C
:104BD0004FF4C053009303278DF8057002238DF81E
:104BE000043000268DF806608DF807601D4C69467C
:104BF0002046FEF767FC0A220B212046FEF7B2FC96
:104C00000A220C212046FEF7ADFC4FF400730093FE
:104C10008DF805708DF8046001258DF806508DF82B
:104C2000076069462046FEF74DFC4FF48063009311
:104C30008DF806508DF807508DF8057069462046AE
:104C4000FEF740FC0A2211462046FEF78BFC29465F
:104C50004FF48040FEF724FD29468020FEF704FD36
:104C600003B0F0BD0000024000B583B04FF4C06057
:104C7000FEF7B0FA43238DF8043001238DF8053098
:104C800003228DF806208DF8073001A8FEF7ACFA54
:104C900003B05DF804FB0000C0EB0010C300064A3F
:104CA000A2FB03129B1A02EB53029208002301336A
:104CB0009A42FCD2704700BF25499224704708B53C
:104CC0004FF48020FEF7F8FB08BD000008B502484D
:104CD00000F0E7FE08BD00BF78D10020C3684FF0A8
:104CE000FF325A60C3686FF080425A61014BC2685C
:104CF000936170470008008030B583B005460024FA
:104D000001940320FFF7C8FFEB681A690192013490
:104D10000E4A944217D8019A002AF2DA019A42F018
:104D200001020192019A1A610023EA681269019254
:104D30000133064A934203D8019A12F0010FF4D1CD
:104D40000320FFF7A9FF002003B030BD400D030092
:104D500010B4C4786CB903339C10323200EB82007B
:104D600080680023A34204D251F8042B026001336F
:104D7000F8E700205DF8044B704710B4033292103E
:104D8000D0F8D0400023934204D2206841F8040BAD
:104D90000133F8E708465DF8044B704730B4002350
:104DA000C370012383704023838001290BD081BB12
:104DB0000023C3720C230370062343704FF4A063D7
:104DC000C3802A4C0CE00123C37208230370042320
:104DD00043704FF4A073C380022303724FF0A044CA
:104DE000C46004F500630361002342789A4212D93B
:104DF00004EB431202F51065191D00EB81018D6073
:104E000002F5306203F1140100EB81014A600133C5
:104E1000EBE70024E4E704F58063436104F588636D
:104E2000C0F8CC30002309E004EB431101F5A06188
:104E300003F1220200EB82029160013305789D426A
:104E4000F2D800239D420AD904EB033101F58051C9
:104E500003F1320200EB820291600133F2E704F5C4
:104E60006064C0F80C41002030BC70470000044072
:104E700038B50446037A012B22D10025C268936B12
:104E80006FF31043417A09B143F480139363E268EE
:104E9000D3686FF386136FF396536FF351436FF339
:104EA000D343D3602046FFF727FFE378012B19D1C6
:104EB000052363F3440545F02005E3689D6011E098
:104EC000C268D16841F04003D360FFF715FF4FF48B
:104ED0003413627A0AB14FF47413E26893631420B6
:104EE000FFF7ECFEE378012B01D0002038BDE3682A
:104EF0009D68052262F3440545F020059D60F4E7B6
:104F0000C268936843F00103936000207047C26851
:104F1000936823F0010393600020704700B583B0CD
:104F200000230193019A42F020020192019A61F359
:104F30008A120192C26801991161C26812690192D4
:104F40000133074A934203D8019A12F0200FF4D19B
:104F50000320FFF7A1FE002003B05DF804FB00BFB3
:104F6000400D030000B583B000230193019A42F085
:104F700010020192C26801991161C268126901921E
:104F80000133074A934203D8019A12F0100FF4D16B
:104F90000320FFF781FE002003B05DF804FB00BF93
:104FA000400D030008B5C268D3686FF35D736FF3FB
:104FB0009E73012903D021B943F0804301E043F0FF
:104FC0000053D3603220FFF779FE002008BDC3688C
:104FD000586900F00100704708B5FFF7F8FF10F1BD
:104FE000FF3018BF012008BDC36858699B6918408D
:104FF00070470269136861F301031360704738B5A5
:1050000005460024C3689C61C3686FF080425A6102
:10501000FFF764FEEB7803B9102444F4701444F4F1
:10502000605444F00804EA68936923EA04031C43CB
:105030009461002038BDF8B5044600263546D0F806
:105040000C311E600269136866F3CC231360C37AC7
:10505000012B12D010212046FFF760FF2046FFF7FA
:1050600081FF2269002313612269536122694FF095
:10507000FF3191612269D36135E037460321FFF7A3
:10508000B8FFE26880235362202262F31F4663F375
:105090000F06E1688E62A02161F30F0763F31F47DB
:1050A000E368C3F804714FF4907363F30F0762F37E
:1050B0001F47E368C3F808714FF4A07363F30F0749
:1050C0006FF31F47E368C3F80C71C3E74FF09041DB
:1050D00011601A1D04EB8202916800200861926839
:1050E000FF219160013362789A4208D91A1D04EBBE
:1050F0008202926811680029E8DB0021E8E70023BA
:105100000DE04FF09041116003F1140204EB8202B4
:105110005168002008615268FF2191600133627874
:105120009A4209D903F1140204EB82025268116811
:105130000029E6DB0021E6E745F480752269136962
:1051400023EA05031D431561E378012B04D02046B3
:10515000FFF755FF0020F8BD0323402262F38A03C6
:1051600043F4803362F3594322691363EFE7036921
:105170009B68C3F34103022B04D005D8012B05D053
:1051800003207047012070470220704702207047BB
:1051900003699B6882691168C3F34103022B09D03C
:1051A0006FF30A0111600269536843F4807353601E
:1051B00000207047032363F30A01F3E730B40024AF
:1051C0004B78012B22D00D7805F1140200EB8202FE
:1051D00052680123AB4063F31F44136813F4004F7C
:1051E0000DD18D6865F30A03CD7865F39343897912
:1051F00061F3995343F0805343F400431360026911
:10520000D3692343D361002030BC70470D782A1D39
:1052100000EB82029268AB4063F30F04DDE730B429
:10522000002214464B78012B14D00D7805F114019F
:1052300000EB810149680123AB4063F31F446FF326
:10524000CF320A600269D36923EA0403D3610020E4
:1052500030BC70470D78291D00EB81018968AB4097
:1052600063F30F04EBE770B54B78012B20D00B787C
:10527000143300EB83035D682A682C694B69002BAB
:105280006BD18B6863F31204012363F3DC442C615C
:10529000C378012B71D0CB78012B76D042F0044239
:1052A0000B78143300EB830043681A60002070BD54
:1052B0000B78043300EB83039D682A682C694B69E3
:1052C000B3B96FF31204012363F3DC442C61C37898
:1052D000012B1CD0CB78012B20D04B69F3B10C787B
:1052E000012303FA04F405696B6B23436B6315E038
:1052F00063F312048E683344013BB3FBF6F363F3AC
:10530000DC44CB78012BE1D163F35E74DEE70B78EC
:10531000043300EB83039B680C695C61CB78012B41
:1053200010D042F004420B78043300EB83039B68F7
:105330001A60CB78012BB9D18B8A0A78C968FFF73C
:1053400007FDB3E703699B6813F4807F02D142F045
:105350000052E6E742F08052E3E78E683344013BB7
:10536000B3FBF6F3C3F3090363F3DC44C6F312069D
:1053700003FB06F363F3120489E70B78143300EBA5
:1053800083035B680C695C6185E74B7913B142F07C
:10539000005283E742F0805280E730B482B04B780D
:1053A000012B2ED00B7803F1140200EB820254681B
:1053B0002268246900944C69002C6CD18D689DF89A
:1053C000004065F306048DF800409DF80240012579
:1053D00065F3C4048DF80240143300EB83035B686B
:1053E000009C1C61C378012B65D042F004420B780D
:1053F000143300EB830043681A60002002B030BC15
:10540000704783691A681C6900944C6914BB9DF845
:1054100000406FF306048DF800409DF8024001251E
:1054200065F3C4048DF80240009C1C61C478012C13
:1054300029D042F004421A60C378002BDDD14B69B9
:10544000002BDAD00A78012393400269516B0B4399
:105450005363D2E78D68AC420ED94D619DF8004090
:1054600065F306048DF800409DF80240012565F3C0
:10547000C4048DF80240D7E79DF8005064F3060598
:105480008DF80050F0E70C78043400EB8404A46835
:105490000D696561CDE78D684D619DF8004065F34C
:1054A00006048DF800409DF80240012565F3C40410
:1054B0008DF8024090E70B78143300EB83035B68B0
:1054C0000C695C6191E74B78012B0AD00B7814339F
:1054D00000EB83004268116841F400131360002060
:1054E00070470B78043300EB830082681368002B4D
:1054F00003DB43F400131360F1E743F08043F8E764
:105500004B78012B0FD00B78143300EB83004068ED
:1055100002686FF35552CB78023BDBB2012B08D9FE
:105520000260002070470B78043300EB8300806832
:10553000EEE742F08052F3E703699869DB691840AF
:10554000000C7047143100EB81014B689A680369C5
:1055500058691040704703699869DB69184080B248
:10556000704782B000230093C0238DF803304FF0C2
:105570000003012262F3C4038DF8023018238DF872
:105580000030436D009A1A61C378012B01D002B03C
:10559000704700F2CC52436D5A61436D1A684FF068
:1055A00080221A60F3E7000010B50446837A43B105
:1055B000D0F80C316FF341036FF30003D0F80C21E6
:1055C00013602269536823F001035360054B1B6885
:1055D0009B69204698474FF00043E26853610120E1
:1055E00010BD00BFC001002030B583B005460024C7
:1055F0008DF8074090F812318DF80730164B1B6874
:105600005B6998472B699A684FF40064EB685C61AA
:10561000AB7A33B112F0010F03D095F81531012B9D
:1056200002D0012003B030BD9DF80730DBB2032B60
:10563000F7D1D5F80C21136843F001031360D5F8B6
:105640000C21136843F003031360044A136943F009
:1056500006031361E5E700BFC001002000ED00E094
:1056600010B50446044B1B68DB6898470823E268C2
:105670005361012010BD00BFC001002010B50446D9
:10568000044B1B68DB6998474FF48013E268536151
:10569000012010BDC001002010B50446044B1B685A
:1056A0001B6A98474FF40013E2685361012010BD54
:1056B000C001002010B402691469536BCB40DB01B8
:1056C000DBB22343043100EB81008268906818400C
:1056D0005DF8044B704700002DE9F0410746FFF7E5
:1056E0002BFF044600252CE005F1140307EB830390
:1056F0005B681969AA002A44D3003B44D3F87C2391
:10570000C1F31201521AC3F88C2332E016F0020FD3
:1057100006D0022605F1140307EB83035B689E6045
:1057200016F0080F0BD01E4B1B689B683846984735
:10573000082605F1140307EB83035B689E600135BF
:1057400064084CB314F0010FF9D05FFA85F84146B4
:105750003846FFF7F7FE064610F0010FD6D00126B7
:1057600005F1140307EB83035B689E60FB78B3428B
:10577000BAD00B4B1B681B68414638469847FB78EC
:10578000012BC3D1002DC1D197F81131052BBDD10B
:105790003846FFF7E6FEB9E70120BDE8F08100BF1B
:1057A000C00100202DE9F04107460D468A000A4459
:1057B000D3000344D3F83021D3F83411521AD3F86C
:1057C0002431934200D3134603F103084FEA9808AB
:1057D0002B1D07EB83039B689B691DE006F1030803
:1057E0004FEA9808AB002B44DC003C44B3B2EAB269
:1057F000D4F828113846FFF7ABFAD4F828313344EF
:10580000C4F82831D4F834311E44C4F834612B1D57
:1058100007EB83039B689B699BB2434515D9AB009B
:105820002B44DA003A44D2F83411D2F8303199429C
:105830000BD253B15B1A05EB8501CA003A44D2F88A
:1058400024619E42CAD31E46C8E70120BDE8F0810C
:105850002DE9F0410746FFF77EFE0546002628E0C9
:1058600014F0080F05D00824331D07EB83039B6851
:105870009C6014F0100F05D01024331D07EB830338
:105880009B689C6014F0400F05D04024331D07EB4B
:1058900083039B689C6014F0020F05D00224331D23
:1058A00007EB83039B689C6014F0800F31D10136B5
:1058B0006D08002D38D015F0010FF8D05FFA86F88A
:1058C00041463846FFF7F6FE044610F0010FC7D0F8
:1058D000012303FA06F039694A6B22EA00024A639F
:1058E0001C46321D07EB820292689360104B1B68C6
:1058F0005B68414638469847FB78A342B0D1002EFA
:10590000AED197F81131042BAAD13846FFF729FE02
:10591000A6E731463846FFF745FF8024331D07EBE5
:1059200083039B689C60C2E70120BDE8F08100BF53
:10593000C00100202DE9F0410446C268936923F0BC
:1059400010039361C3681D6A05F00F06C5F3434356
:10595000022B09D0062B23D0E268936943F0100391
:1059600093610120BDE8F08147F6F0732B42F3D03C
:10597000C5F30A154FEA860808EB0603DF00074463
:105980002A46D7F88013FFF7F8F9D7F880332B446D
:10599000C7F88033D7F88C331D44C7F88C53DBE746
:1059A000082200F2CC51FFF7E8F9C5F30A15B3005D
:1059B0009919CA002244D2F88C331D44C2F88C5382
:1059C000CAE700002DE9F84304460025A8462F4603
:1059D0002E460269536823F0010353602946FFF7FE
:1059E0009DFA2B4662789A420DD91A1D04EB820269
:1059F0009268FF21916003F1140204EB8202526865
:105A000091600133EEE723694FF0FF329A614FF066
:105A1000010969F30F0569F31F452369DD6148F04A
:105A20000B082369C3F8148047F00B0723691F6133
:105A3000226913686FF30A1313602046FFF791FD84
:105A400046F48056E3685E61034B1B681B69204681
:105A500098474846BDE8F883C001002038B50446A1
:105A6000FFF796FBE368DD682046FFF780FB03281D
:105A70000ED00123A3704023A380052363F38D255B
:105A8000E368DD604FF40053E2685361012038BDE4
:105A90000023A3704FF40073A380092363F38D25C3
:105AA000EEE72DE9F0410646FFF796FA18B9002413
:105AB0002046BDE8F0813046FFF796FA05460028FB
:105AC0005BD0C0F3074717F0080F29D1002417F067
:105AD000040F2AD15FFA85F818F0020F02D00223D2
