:020000040800F2
:100000000000022075510008F14C0008F34C000874
:10001000074D0008094D00080B4D000800000000C6
:100020000000000000000000000000000D4D00086E
:100030000F4D000800000000114D00084D4D000854
:10004000C5510008C5510008C5510008C551000838
:10005000C5510008C5510008C5510008C551000828
:10006000C5510008C5510008C5510008C551000818
:10007000C5510008C55100088B370008C55100085C
:10008000C551000889370008C5510008C55100084E
:10009000C5510008C5510008C5510008C5510008E8
:1000A000C5510008C5510008C5510008C5510008D8
:1000B000293700084937000869370008C55100088A
:1000C000C5510008C5510008C5510008C5510008B8
:1000D000C55100086D320008FD3200088D3300085C
:1000E000C5510008C551000895380008C5510008E1
:1000F000C5510008C5510008C5510008C551000888
:10010000C5510008C5510008C5510008C551000877
:10011000C5510008C5510008C5510008C551000867
:10012000C5510008C5510008C5510008C551000857
:10013000C55100080000000000000000C551000883
:10014000C5510008C5510008C5510008A138000874
:10015000C5510008C55100088D3700081D3400083E
:10016000C5510008C5510008C5510008C551000817
:10017000C5510008C5510008000000000000000043
:08018000C5510008C55100083B
:1001900010B5054C237833B9044B13B10448AFF3C1
:1001A00000800123237010BDD80200200000000051
:1001B000F493000808B5034B1BB103490348AFF3A0
:1001C000008008BD00000000DC020020F49300085D
:1001D000034613F8012B002AFBD1181A0138704787
:1001E00001F0FF01102A2BDB10F0070F08D010F8E8
:1001F000013B013A8B422DD010F0070F42B3F6D1EC
:10020000F0B441EA012141EA014122F007047FF004
:1002100000070023F0E80256083C85EA010586EA5B
:10022000010685FA47F5A3FA87F586FA47F6A5FA97
:1002300087F68EB9EED1F0BC01F0FF0102F00702A3
:1002400032B110F8013B013A83EA010313B1F8D14E
:100250000020704701387047002D06BF354603382F
:10026000073815F0010F07D1013015F4807F02BF68
:10027000013015F4C03F0130F0BC0138704700BFB9
:1002800081F0004102E000BF83F0004330B54FEA47
:1002900041044FEA430594EA050F08BF90EA020FB4
:1002A0001FBF54EA000C55EA020C7FEA645C7FEA47
:1002B000655C00F0E2804FEA5454D4EB5555B8BF6A
:1002C0006D420CDD2C4480EA020281EA030382EADB
:1002D000000083EA010180EA020281EA0303362D6D
:1002E00088BF30BD11F0004F4FEA01314FF4801C40
:1002F0004CEA113102D0404261EB410113F0004F52
:100300004FEA03334CEA133302D0524263EB430308
:1003100094EA050F00F0A780A4F10104D5F1200EA6
:100320000DDB02FA0EFC22FA05F2801841F1000101
:1003300003FA0EF2801843FA05F359410EE0A5F1D5
:1003400020050EF1200E012A03FA0EFC28BF4CF006
:10035000020C43FA05F3C01851EBE37101F00045BC
:1003600007D54FF0000EDCF1000C7EEB00006EEBC9
:100370000101B1F5801F1BD3B1F5001F0CD3490853
:100380005FEA30004FEA3C0C04F101044FEA4452AA
:1003900012F5800F80F09A80BCF1004F08BF5FEA31
:1003A000500C50F1000041EB045141EA050130BD11
:1003B0005FEA4C0C404141EB0101013C28BFB1F523
:1003C000801FE9D291F0000F04BF01460020B1FA6E
:1003D00081F308BF2033A3F10B03B3F120020CDA41
:1003E0000C3208DD02F1140CC2F10C0201FA0CF01F
:1003F00021FA02F10CE002F11402D8BFC2F1200C84
:1004000001FA02F120FA0CFCDCBF41EA0C01904039
:10041000E41AA2BF01EB0451294330BD6FEA040482
:100420001F3C1CDA0C340EDC04F11404C4F120026D
:1004300020FA04F001FA02F340EA030021FA04F37F
:1004400045EA030130BDC4F10C04C4F1200220FAD6
:1004500002F001FA04F340EA0300294630BD21FA14
:1004600004F0294630BD94F0000F83F4801306BFDA
:1004700081F480110134013D4EE77FEA645C18BFCE
:100480007FEA655C29D094EA050F08BF90EA020F65
:1004900005D054EA000C04BF1946104630BD91EA5D
:1004A000030F1EBF0021002030BD5FEA545C05D160
:1004B0004000494128BF41F0004130BD14F580049F
:1004C0003CBF01F5801130BD01F0004545F0FE4113
:1004D00041F470014FF0000030BD7FEA645C1ABF48
:1004E000194610467FEA655C1CBF0B46024650EA7F
:1004F000013406BF52EA033591EA030F41F40021AB
:1005000030BD00BF90F0000F04BF0021704730B530
:100510004FF4806404F132044FF000054FF0000105
:1005200050E700BF90F0000F04BF0021704730B5C6
:100530004FF4806404F1320410F0004548BF40429B
:100540004FF000013EE700BF42004FEAE2014FEAF0
:1005500031014FEA02701FBF12F07F4393F07F4FCB
:1005600081F06051704732F07F4208BF704793F0CE
:100570007F4F04BF41F40021704730B54FF46074E1
:1005800001F0004521F000411CE700BF50EA0102E4
:1005900008BF704730B54FF000050AE050EA01028D
:1005A00008BF704730B511F0004502D5404261EBFD
:1005B00041014FF4806404F132045FEA915C3FF43E
:1005C000D8AE4FF003025FEADC0C18BF03325FEADB
:1005D000DC0C18BF033202EBDC02C2F1200300FA8C
:1005E00003FC20FA02F001FA03FE40EA0E0021FAB1
:1005F00002F11444BDE600BF70B54FF0FF0C4CF49F
:10060000E06C1CEA11541DBF1CEA135594EA0C0F50
:1006100095EA0C0F00F0DEF82C4481EA030621EA8B
:100620004C5123EA4C5350EA013518BF52EA0335C6
:1006300041F4801143F4801338D0A0FB02CE4FF078
:100640000005E1FB02E506F00042E0FB03E54FF0A8
:100650000006E1FB03569CF0000F18BF4EF0010EA0
:10066000A4F1FF04B6F5007F64F5407404D25FEA9C
:100670004E0E6D4146EB060642EAC62141EA55514F
:100680004FEAC52040EA5E504FEACE2EB4F1FD0C91
:1006900088BFBCF5E06F1ED8BEF1004F08BF5FEA0F
:1006A000500E50F1000041EB045170BD06F00046C1
:1006B00046EA010140EA020081EA0301B4EB5C046E
:1006C000C2BFD4EB0C0541EA045170BD41F4801166
:1006D0004FF0000E013C00F3AB8014F1360FDEBF8B
:1006E000002001F0004170BDC4F10004203C35DA67
:1006F0000C341BDC04F11404C4F1200500FA05F3EA
:1007000020FA04F001FA05F240EA020001F000428A
:1007100021F0004110EBD37021FA04F642EB060100
:100720005EEA430E08BF20EAD37070BDC4F10C042A
:10073000C4F1200500FA04F320FA05F001FA04F2EE
:1007400040EA020001F0004110EBD37041F10001DA
:100750005EEA430E08BF20EAD37070BDC4F12005E5
:1007600000FA05F24EEA020E20FA04F301FA05F24D
:1007700043EA020321FA04F001F0004121FA04F2F5
:1007800020EA020000EBD3705EEA430E08BF20EAC5
:10079000D37070BD94F0000F0FD101F000464000FF
:1007A00041EB010111F4801F08BF013CF7D041EA81
:1007B000060195F0000F18BF704703F00046520085
:1007C00043EB030313F4801F08BF013DF7D043EA56
:1007D0000603704794EA0C0F0CEA135518BF95EA0C
:1007E0000C0F0CD050EA410618BF52EA4306D1D193
:1007F00081EA030101F000414FF0000070BD50EAB2
:10080000410606BF1046194652EA430619D094EA3B
:100810000C0F02D150EA013613D195EA0C0F05D125
:1008200052EA03361CBF104619460AD181EA030179
:1008300001F0004141F0FE4141F470014FF0000031
:1008400070BD41F0FE4141F4780170BD70B54FF0CC
:10085000FF0C4CF4E06C1CEA11541DBF1CEA13554C
:1008600094EA0C0F95EA0C0F00F0A7F8A4EB05042E
:1008700081EA030E52EA03354FEA013100F0888025
:100880004FEA03334FF0805545EA131343EA1263EE
:100890004FEA022245EA111545EA10654FEA0026A3
:1008A0000EF000419D4208BF964244F1FD0404F55C
:1008B000407402D25B084FEA3202B61A65EB0305B8
:1008C0005B084FEA32024FF480104FF4002CB6EB75
:1008D000020E75EB030E22BFB61A754640EA0C00F5
:1008E0005B084FEA3202B6EB020E75EB030E22BF35
:1008F000B61A754640EA5C005B084FEA3202B6EB76
:10090000020E75EB030E22BFB61A754640EA9C0034
:100910005B084FEA3202B6EB020E75EB030E22BF04
:10092000B61A754640EADC0055EA060E18D04FEAC2
:10093000051545EA16754FEA06164FEAC30343EA62
:1009400052734FEAC2025FEA1C1CC0D111F4801F2F
:100950000BD141EA00014FF000004FF0004CB6E728
:1009600011F4801F04BF01430020B4F1FD0C88BFC7
:10097000BCF5E06F3FF6AFAEB5EB030C04BFB6EBD2
:10098000020C5FEA500C50F1000041EB045170BDC5
:100990000EF0004E4EEA113114EB5C04C2BFD4EBF2
:1009A0000C0541EA045170BD41F480114FF0000E76
:1009B000013C90E645EA060E8DE60CEA135594EAF2
:1009C0000C0F08BF95EA0C0F3FF43BAF94EA0C0FF5
:1009D0000AD150EA01347FF434AF95EA0C0F7FF46A
:1009E00025AF104619462CE795EA0C0F06D152EABE
:1009F00003353FF4FDAE1046194622E750EA4106A2
:100A000018BF52EA43067FF4C5AE50EA41047FF4B2
:100A10000DAF52EA43057FF4EBAE12E74FF0FF3C17
:100A200006E000BF4FF0010C02E000BF4FF0010CE8
:100A30004DF804CD4FEA410C7FEA6C5C4FEA430C61
:100A400018BF7FEA6C5C1BD001B050EA410C0CBFB0
:100A500052EA430C91EA030F02BF90EA020F002012
:100A6000704710F1000F91EA030F58BF994208BF79
:100A700090422CBFD8176FEAE37040F00100704736
:100A80004FEA410C7FEA6C5C02D150EA013C07D18D
:100A90004FEA430C7FEA6C5CD6D152EA033CD3D0D8
:100AA0005DF8040B704700BF8446104662468C46D2
:100AB0001946634600E000BF01B5FFF7B7FF002805
:100AC00048BF10F1000F01BD4DF808EDFFF7F4FF2E
:100AD0000CBF012000205DF808FB00BF4DF808EDB9
:100AE000FFF7EAFF34BF012000205DF808FB00BFDC
:100AF0004DF808EDFFF7E0FF94BF012000205DF8FE
:100B000008FB00BF4DF808EDFFF7CEFF94BF0120B2
:100B100000205DF808FB00BF4DF808EDFFF7C4FFAB
:100B200034BF012000205DF808FB00BF4FEA410CF4
:100B30007FEA6C5C02D150EA013C0AD14FEA430CD7
:100B40007FEA6C5C02D152EA033C02D14FF0000014
:100B500070474FF0010070474FEA410212F5001252
:100B600015D211D56FF47873B3EB625212D94FEAF4
:100B7000C12343F0004343EA505311F0004F23FADE
:100B800002F018BF404270474FF00000704750EA33
:100B9000013005D111F0004008BF6FF000407047F0
:100BA0004FF00000704700BF4A0011D212F500124A
:100BB00011D20DD56FF47873B3EB62520ED44FEAB5
:100BC000C12343F0004343EA505323FA02F0704735
:100BD0004FF00000704750EA013002D14FF0FF3073
:100BE00070474FF0000070474FEA4102B2F1E04316
:100BF00024BFB3F5001CDCF1FE5C0DD901F0004C04
:100C00004FEAC0024CEA5070B2F1004F40EB830053
:100C100008BF20F00100704711F0804F21D113F17F
:100C20003872BCBF01F00040704741F480114FEAB8
:100C30005252C2F11802C2F1200C10FA0CF320FA41
:100C400002F018BF40F001004FEAC1234FEAD3235E
:100C500003FA0CFC40EA0C0023FA02F34FEA4303C8
:100C6000CCE77FEA625307D150EA01331EBF4FF051
:100C7000FE4040F44000704701F0004040F0FE406C
:100C800040F40000704700BF80F0004002E000BF69
:100C900081F0004142001FBF5FEA410392EA030F67
:100CA0007FEA226C7FEA236C6AD04FEA1262D2EBB1
:100CB0001363C1BFD218414048404140B8BF5B42B6
:100CC000192B88BF704710F0004F40F4000020F04F
:100CD0007F4018BF404211F0004F41F4000121F065
:100CE0007F4118BF494292EA030F3FD0A2F10102AF
:100CF00041FA03FC10EB0C00C3F1200301FA03F1ED
:100D000000F0004302D5494260EB4000B0F5000F0F
:100D100013D3B0F1807F06D340084FEA310102F1CE
:100D20000102FE2A51D2B1F1004F40EBC25008BF80
:100D300020F0010040EA03007047490040EB00004A
:100D4000013A28BFB0F5000FEDD2B0FA80FCACF14B
:100D5000080CB2EB0C0200FA0CF0AABF00EBC25078
:100D600052421843BCBFD0401843704792F0000F66
:100D700081F4000106BF80F400000132013BB5E7B9
:100D80004FEA41037FEA226C18BF7FEA236C21D02F
:100D900092EA030F04D092F0000F08BF0846704794
:100DA00090EA010F1CBF0020704712F07F4F04D162
:100DB000400028BF40F00040704712F100723CBF75
:100DC00000F50000704700F0004343F0FE4040F49F
:100DD000000070477FEA226216BF08467FEA23635D
:100DE0000146420206BF5FEA412390EA010F40F448
:100DF000800070474FF0000304E000BF10F0004394
:100E000048BF40425FEA000C08BF704743F096437A
:100E100001464FF000001CE050EA010208BF704795
:100E20004FF000030AE000BF50EA010208BF70471C
:100E300011F0004302D5404261EB41015FEA010C31
:100E400002BF84460146002043F0B64308BFA3F129
:100E50008053A3F50003BCFA8CF2083AA3EBC2530B
:100E600010DB01FA02FC634400FA02FCC2F120022A
:100E7000BCF1004F20FA02F243EB020008BF20F061
:100E80000100704702F1200201FA02FCC2F12002C7
:100E900050EA4C0021FA02F243EB020008BF20EABC
:100EA000DC70704753B94AB9002908BF00281CBF3D
:100EB0004FF0FF314FF0FF3000F074B9ADF1080C86
:100EC0006DE904CE00F006F8DDF804E0DDE9022368
:100ED00004B070472DE9F047089D04468E46002B6C
:100EE0004DD18A42944669D9B2FA82F252B101FADE
:100EF00002F3C2F1200120FA01F10CFA02FC41EAEE
:100F0000030E94404FEA1C48210CBEFBF8F61FFA72
:100F10008CF708FB16E341EA034306FB07F199420D
:100F20000AD91CEB030306F1FF3080F01F819942C0
:100F300040F21C81023E63445B1AA4B2B3FBF8F09A
:100F400008FB103344EA034400FB07F7A7420AD921
:100F50001CEB040400F1FF3380F00A81A74240F249
:100F600007816444023840EA0640E41B00261DB1B4
:100F7000D4400023C5E900433146BDE8F0878B42E9
:100F800009D9002D00F0EF800026C5E900013046A8
:100F90003146BDE8F087B3FA83F6002E4AD18B4282
:100FA00002D3824200F2F980841A61EB030301202C
:100FB0009E46002DE0D0C5E9004EDDE702B9FFDE18
:100FC000B2FA82F2002A40F09280A1EB0C014FEAC3
:100FD0001C471FFA8CFE0126200CB1FBF7F307FB20
:100FE000131140EA01410EFB03F0884208D91CEBC3
:100FF000010103F1FF3802D2884200F2CB80434660
:10100000091AA4B2B1FBF7F007FB101144EA01443E
:101010000EFB00FEA64508D91CEB040400F1FF31CD
:1010200002D2A64500F2BB800846A4EB0E0440EABB
:1010300003409CE7C6F12007B34022FA07FC4CEAC4
:10104000030C20FA07F401FA06F31C43F9404FEAB7
:101050001C4900FA06F3B1FBF9F8200C1FFA8CFECC
:1010600009FB181140EA014108FB0EF0884202FA20
:1010700006F20BD91CEB010108F1FF3A80F08880E1
:10108000884240F28580A8F102086144091AA4B29E
:10109000B1FBF9F009FB101144EA014100FB0EFE1F
:1010A0008E4508D91CEB010100F1FF346CD28E454E
:1010B0006AD90238614440EA0840A0FB0294A1EBDF
:1010C0000E01A142C846A64656D353D05DB1B3EB3C
:1010D000080261EB0E0101FA07F722FA06F3F1406C
:1010E0001F43C5E9007100263146BDE8F087C2F113
:1010F0002003D8400CFA02FC21FA03F3914001438B
:101100004FEA1C471FFA8CFEB3FBF7F007FB1036C3
:101110000B0C43EA064300FB0EF69E4204FA02F46F
:1011200008D91CEB030300F1FF382FD29E422DD9C2
:10113000023863449B1B89B2B3FBF7F607FB1633F7
:1011400041EA034106FB0EF38B4208D91CEB010177
:1011500006F1FF3816D28B4214D9023E6144C91AF7
:1011600046EA004638E72E46284605E70646E3E607
:101170001846F8E64B45A9D2B9EB020864EB0C0E11
:101180000138A3E74646EAE7204694E74046D1E720
:10119000D0467BE7023B614432E7304609E76444CE
:1011A000023842E7704700BF03690A6902610B61B8
:1011B00070478C4651B1096941B10161DCF80C10EE
:1011C000C160CCF804308CF8002001E00021C1603F
:1011D00002704360002383607047034620B1002003
:1011E00018619860D86070476FF00100704738B59B
:1011F00004460D46FFF7F1FF00B9256138BD08B57B
:101200000346C06810B1FFF7FAFF08BDD9608B60D4
:10121000FBE738B543687BB104460D46006958B119
:10122000096949B1984738B12A69824205D0E06816
:1012300040B12946FFF7EDFF38BD29462046FFF7AC
:10124000B3FFF4E7E560AC600023EB60F4E778B14E
:1012500008B531B142684A6002780A7012B1012AB9
:1012600003D008BDFFF7CBFFFBE7FFF7D2FFF8E79E
:10127000704770B170B50C4615460646C06808B197
:10128000FFF7F7FF44B12A4631693046A0470020F6
:1012900070BD6FF0010070470020F9E7F0B108B5AC
:1012A0000346826862B1C06850B1D0609A688260BB
:1012B00000229A60DA6009B118698847002008BDE9
:1012C0000AB1D86830B1002AF5D1DA68002AF2D024
:1012D0001346F0E7D0609860D860ECE76FF001004B
:1012E000704700000249034B0A681A60704700000B
:1012F00028ED00E0F402002010B582B00024019433
:101300001349144B0A681A60EFF3098393B9EFF39A
:1013100009830E4B1B68002B0FDB13F0804F0FD19E
:101320000A4B1B6813F0020F01D044F00204204660
:1013300002B010BDEFF30883EBE74FF00104ECE7D8
:1013400044F00204FFF7CEFF0190E9E7F802002025
:101350002CED00E0F802002010B44FF0E0225469B8
:101360000D4B1B7800FB03F34FEA430C93690021FC
:1013700004E0E01A02441144614509D21A464FF0D4
:10138000E0239B699A42FAD0F3D9D21A1144F3E7C9
:101390005DF8044B704700BFFC02002010B504E06C
:1013A0004FF47A70FFF7D8FF2046441E0028F7D18B
:1013B00010BD0000014B1861704700BF0003002002
:1013C000014B5861704700BF00030020014B98613A
:1013D000704700BF0003002038B50546204C0023AD
:1013E0002377FFF78FF802460B461BA1D1E90001D6
:1013F000FFF72CFAFFF7D8FBA060E560FFF782F853
:1014000002460B4614A1D1E90001FFF71FFA04467A
:101410000D46144B1868FFF775F822462B46FFF768
:1014200015FAFFF7C1FB0138B0F1807F0AD24FF007
:10143000E02358610C4AF02182F8231000229A61BF
:1014400007221A61042001F0DEFB084801F094FC39
:10145000012038BDAFF300800000000080842E41E1
:10146000000300200001002000ED00E02403002024
:1014700008B5034B01221A771B6903B1984708BDD1
:101480000003002000220023C0E9002370478242AD
:1014900073EB010C03D2801A61EB03017047101A41
:1014A00063EB01017047000008B50E4B1B7F012B59
:1014B00001D0002008BD0B4B00225A7798681A68AB
:1014C0005968121841F100011A60596001225A77D7
:1014D000054B1B6803B19847024B9B6903B19847C2
:1014E0000120E7E70003002020030020014BD3E99F
:1014F000000170470003002008B54FF47A72002302
:101500000249D1E90001FFF7CDFC08BD000300202E
:10151000034A13685168C01841F10001704700BFC9
:1015200000030020054B1A685B68904271EB0303CF
:1015300001D2002070470120704700BF0003002047
:10154000FEE7000010B590F800C04FEADC020CF096
:10155000070E0A4B19784FF0010C0CFA02F42143E4
:10156000C9B2197013445A780CFA0EFC42EA0C0204
:10157000D2B25A70002380F8483010BD88A40020F1
:10158000007800F0070C0D4B03EBD0035A780121D3
:1015900001FA0CF122EA01025A70597861B900B5DA
:1015A0004FEAD00E05490B78012202FA0EF223EA27
:1015B00002030B705DF804FB704700BF7CA40020A1
:1015C000007800F0070C0D4B03EBD0035A78012193
:1015D00001FA0CF122EA01025A70597861B900B59A
:1015E0004FEAD00E05490B78012202FA0EF223EAE7
:1015F00002030B705DF804FB704700BF88A4002055
:1016000005484FF0FF010170002080F3098803486E
:10161000016881F30888704722ED00E06003002034
:10162000034690B1A3B103B1B1B100B518784FF042
:10163000000E0A7800F0070002F00702F6450ED807
:101640000ED190420AD30BD909E00029EAD101E07A
:101650000029E8D0084670471946FBE719460846B6
:101660005DF804FB10B5044603786FF3C5030370FF
:10167000DBB26FF302030370002343608360838156
:101680000361C362036343638363002242640364B0
:1016900080F864308366C36600F164017C30FFF734
:1016A000A6FD04F12400FFF7EDFE04F11400FFF79E
:1016B000E9FE04F11C00FFF7E5FE052384F848303D
:1016C00010BD0000F8B54FF420520021194803F076
:1016D000BDFD194B194A1A60002718E0184D04EB9C
:1016E000C70655F82600FFF7BDFF55F82620002352
:1016F000D36455F82620536555F82620136545F820
:1017000026300134E4B2072CE8D90137FFB2072FA5
:1017100001D80024F7E70B4B00221A705A611A61B6
:10172000DA60094B1868FFF79DFF084B01221A7019
:10173000F8BD00BF640300206003002060A3002008
:1017400064A3002064A400203403002091A400209E
:1017500010B50446C26C0021406D03F077FD04F122
:101760005403E26C02F18042013A03EB820323F05E
:1017700007034FF0807243F8042C094A22F001025B
:1017800043F8082C074A43F80C2C002243F8202C7D
:101790006FF0020243F8242C443B236510BD00BFC8
:1017A000ED1800084115000810B584B06846FFF731
:1017B00069FE02A8FFF766FEFFF798FE02460B4699
:1017C000029003910D49D1E90001FFF760FE024646
:1017D0000B46CDE900230A4B1C6801341C60FFF75F
:1017E0001BFB06EE900A07EE904AF8EE677A87EE4A
:1017F000A67A044B83ED007A04B010BD5803002094
:10180000540300205003002000B583B0044668460E
:10181000FFF738FE40E0FFF769FEE0612162606299
:10182000A16242E02046FFF7CBFE022384F8483055
:10183000A36B0133A363E26D636B9A4200D96263C9
:10184000236C13442364626AA36AE069216AFFF788
:101850001EFE02460B46CDE90023256CFFF7DCFA9D
:1018600006EE900A07EE905AF8EE677A87EEA67AAF
:1018700084ED117AE36D226B13442363A26B012A7A
:1018800001D95B082363A089FFF742FE6062A16271
:1018900015E0154B00221A6094F84830002BF8D15F
:1018A000114B1C60A36B002BB5D0012384F848308A
:1018B00023692046984794F84830012BB2D0A56B95
:1018C000002DE6D0606AA16AFFF7A6FA06EE900A3C
:1018D00007EE905AF8EE677A87EEA67ABCEEC77AE2
:1018E00084ED0B7AD5E700BF3403002008B5034B25
:1018F000186800B908BDFFF787FF00BF400300204C
:10190000A9B110B50C460A4B1B78DBB2022B00D0F4
:1019100010BD91F84830022BFAD1486A896AFFF766
:1019200001FE0028F4D12046FFF70CFEF0E77047D7
:1019300091A4002010B590F800C04FEADC020CF032
:10194000070E0A4B19784FF0010C0CFA02F42143F0
:10195000C9B2197013445A780CFA0EFC42EA0C0210
:10196000D2B25A70042380F8483010BD7CA4002005
:10197000034B044A92E8030083E80300704700BF6A
:101980003803002044030020144B1B781BB3134B77
:101990001A78D2B212498A5C13445B78DBB2CB5C12
:1019A00003EBC2000F4951F8200000B1704710B599
:1019B0000A4991F800E04FF0010C0CFA02F42EEA0B
:1019C000040E81F800E00A4451780CFA03F321EA8E
:1019D0000303537010BD0020704700BF7CA400209B
:1019E0001094000864A30020000000000000000024
:1019F000084B19680868B0E8F04F1EF0100F08BFD8
:101A0000B0EC108A80F30988BFF36F8F704700BF76
:101A1000704700003803002008B5FFF7E9FF08BD54
:101A2000EFF30980BFF36F8FDFF850301A681EF0B4
:101A3000100F08BF20ED108A20E9F04F10602DE94B
:101A400009004FF0500080F31188BFF34F8FBFF3B0
:101A50006F8FFFF78DFF4FF0000080F3118809BCF6
:101A600019680868B0E8F04F1EF0100F08BFB0EC1E
:101A7000108A80F30988BFF36F8F70473803002006
:101A8000704700BF144B1B781BB3134B1A78D2B2AC
:101A900012498A5C13445B78DBB2CB5C03EBC20077
:101AA0000F4951F8200000B1704710B50A4991F86C
:101AB00000E04FF0010C0CFA02F42EEA040E81F85B
:101AC00000E00A4451780CFA03F321EA030353704F
:101AD00010BD0020704700BF88A4002010940008AB
:101AE00064A3002002484FF080510160704700005D
:101AF00004ED00E04A4B1B78DBB2022B00D07047AC
:101B000070B5002247494848FFF7B3FBFFF7BAFF1B
:101B1000464B1860FFF738FF0446454B1860454BAD
:101B20001D685DB1414B1E68B5425ED02EB1314695
:101B30002846FFF775FD864235D070BD90B13B4B0E
:101B4000186838B32146FFF76BFD844219D0374B34
:101B50001A6802F15001384B1960526D5A60FFF754
:101B6000C1FFEAE7314B1B6843B103F15001324A30
:101B700011605B6D5360FFF7B5FFDEE7FFF714FE02
:101B8000DBE7012384F84830284B1C602046FFF730
:101B9000F7FCDCE7012384F84830244B1C60204626
:101BA000FFF7EEFCD3E72846FFF7C4FE214B186889
:101BB000FFF706FD1E4B1C6834B11C4B196820460C
:101BC000FFF72EFD84420DD0184C2068FFF7BAFCB9
:101BD000226802F15001184B1960526D5A60FFF7EC
:101BE00081FFAAE7114B1C60EEE70028A5D0314623
:101BF0002846FFF715FD84429FD12846FFF79AFE3D
:101C00000B4C2068FFF79EFC2368084A136003F121
:101C10005001094A11605B6D5360FFF763FF8CE769
:101C200091A400200119000868A4002040030020AE
:101C30004C03002034030020440300200000000077
:101C40002DE9F84F81460E4615461C467E4B1B7803
:101C500053B104EBC5037D4A52F8233053B14FF022
:101C6000010A5046BDE8F88FFFF72CFD764B0122A4
:101C70001A70EEE7902003F0CBFA8346734F04EB23
:101C8000C50847F828008246C0F8049086603046B0
:101C9000FEF738FC02460B4669A1D1E90001FEF7C8
:101CA000D5FD57F82860FEF77FFFB08157F8283040
:101CB0000A9A1A6157F82820EB002343137057F84B
:101CC0002820002382F8643057F82820C2F868B032
:101CD00057F82820D36657F828300B9ADA6457F85B
:101CE0002860900003F094FA706557F82800436D5F
:101CF000002B00F09C80FFF72BFD3E46474656F830
:101D0000283093F858206FF3030283F8582056F8D0
:101D1000283093F858206FF3071283F8582056F8AC
:101D200028304FF00008C3F85C8056F82730C3F81D
:101D3000608056F8273000225A6456F82730C3F8DE
:101D40004080434B197856F8270090F800C00122D4
:101D500002FA0CFC41EAEC01C9B2197090F800C01B
:101D600003EBDC03597802FA0CF202F007020A4393
:101D70005A70C0F82C8056F82730C3F8308056F8D7
:101D80002730C3F8348056F827002430FFF77AFB59
:101D900056F827001430FFF775FB56F827001C3063
:101DA000FFF770FB56F82790FFF7A0FBC9F8140067
:101DB000C9F8181056F82730C3F8388056F827307D
:101DC00083F83C8056F82700FFF7BCFB56F82780C5
:101DD000142003F01DFAC8F8780056F82710886F11
:101DE00040B3FFF704FA1B4B1B78B3B956F8271022
:101DF000194B0122896F1948FFF7DBF904EBC50481
:101E0000124B53F8240000F164017C30FFF7EFF926
:101E1000104A13780133137023E704EBC5030B4A10
:101E200052F82330996F0D48FFF711FAE6E74FF0AB
:101E3000000A16E74FF0000A13E700BFAFF3008077
:101E40000000000080842E4192A4002064A30020A2
:101E500088A4002064A400202116000868A40020A3
:101E600010B549F64040FFF7B7FA0020FFF7A2FA95
:101E70000020FFF7A5FA1148FFF7A8FAFFF7F8FAD4
:101E80000F4C2046FFF7FEFAFFF730FBC4E90001D4
:101E9000FFF7F8FD0B4B186050B100F150020A4BF0
:101EA0001A60426D5A60094A93E8030082E8030011
:101EB000FFF7A6FBFFF716FE10BD00BFF51A0008DE
:101EC0005803002040030020440300203803002072
:101ED000014B1870704700BF91A4002038B504462C
:101EE0000D464AB9C36801209847A3692846984718
:101EF000E3680120984738BDC36800209847F4E79D
:101F000038B5054600228D21FFF7E8FF002407E0E1
:101F10000022054B195D2846FFF7E0FF0134E4B2CB
:101F2000012CF5D938BD00BF749F000870B5054677
:101F300000260BE0002211462846FFF7CFFF0134B0
:101F4000E4B214F0800FF5D00136F6B2072E12D8A5
:101F5000A6F150010022C9B22846FFF7BFFF0022B8
:101F600011462846FFF7BAFF002210212846FFF746
:101F7000B5FF0024E5E770BD802070474020704722
:101F800028B310B50C4621B34FF0000E18E04FEA0D
:101F9000D30C54F82E20D15C03F0070001FA00F0B6
:101FA0000D4A02EBCE0212F80C10014302F80C109D
:101FB0000133DBB23F2BEAD90EF1010E5FFA8EFE40
:101FC0001EF0800F01D10023F4E7012010BD002096
:101FD00070470020FAE700BF94A40020F8B5064639
:101FE000FFF7CEFF074628B300250EE0124B03EBA8
:101FF000C4030022595D3046FFF770FF0134E4B29C
:1020000014F0800FF2D00135EDB2072D12D8A5F1F2
:1020100050010022C9B23046FFF760FF002211468E
:102020003046FFF75BFF002210213046FFF756FFD6
:102030000024E5E73846F8BD94A4002010B5044616
:10204000436940789847A368984763689847E3686E
:10205000012098476420FFF7A1F9E3680020984722
:102060000022AE212046FFF739FF0022D52120466D
:10207000FFF734FF002250212046FFF72FFF0022F8
:10208000A8212046FFF72AFF00223F212046FFF724
:1020900025FF0022D3212046FFF720FF0022114612
:1020A0002046FFF71BFF002240212046FFF716FFC6
:1020B00000228D212046FFF711FF00221421204627
:1020C000FFF70CFF002214212046FFF707FF002234
:1020D00020212046FFF702FF002202212046FFF7C1
:1020E000FDFE0022A0212046FFF7F8FE0022C821B5
:1020F0002046FFF7F3FE0022DA212046FFF7EEFE2E
:10210000002212212046FFF7E9FE0022812120460D
:10211000FFF7E4FE0022EF212046FFF7DFFE00225A
:10212000D9212046FFF7DAFE0022F1212046FFF7F1
:10213000D5FE0022DB212046FFF7D0FE0022302111
:102140002046FFF7CBFE0022A4212046FFF7C6FE63
:102150000022A6212046FFF7C1FE0022AF21204623
:10216000FFF7BCFE2046FFF7E1FE012010BD000096
:1021700000B583B08DF8000000238DF801300223F4
:10218000ADF802300123ADF80430034B1B686846FC
:10219000984703B05DF804FBA400002008B506488A
:1021A00008230360054B83600223838000210173B1
:1021B000034B1B68984708BD94A80020000C024000
:1021C000C000002008B5064808230360054B836063
:1021D0000123838000210173034B1B68984708BDCE
:1021E000C0A80020000C0240C000002008B518B1B3
:1021F000012807D0002100E00121034B9B68034820
:10220000984708BD0221F8E7C000002094A80020EC
:1022100008B518B1012807D0002100E00121034BC7
:102220009B680348984708BD0221F8E7C0000020DA
:10223000C0A80020084B00221A705A70074A5A6141
:10224000074A5A60074ADA60074A9A60074A1A61E1
:102250000120074B18707047A4A8002071210008C6
:10226000C5210008112200089D210008ED21000869
:10227000D1A8002008B5084B00221A70FFF7DAFF3A
:1022800038B1064B1B680648984710B1024B012233
:102290001A70014B187808BDD0A80020000000205B
:1022A000A4A8002010B5054B1C7824B10146044BAE
:1022B0009B6804489847204610BD00BFD0A8002066
:1022C00000000020A4A8002010B582B00B4C2369A8
:1022D00098478DF80000636998478DF80100BDF8B4
:1022E0000030ADF8043000209DF8043063F307009F
:1022F0009DF8053063F30F2002B010BD00000020F0
:102300000020704708B5FFF7FBFF034600B14369A3
:10231000184608BD08B5FFF7F3FF034600B103698F
:10232000184608BD38B505460C46FFF7E9FF28B149
:10233000C570FFF7E5FF0471012038BD0020FCE700
:10234000F8B505460F461446FFF7DAFF074B1E683F
:1023500090F803C090F804E0BE440CEB050123465E
:102360005FFA8EF2C9B28068B047F8BD68000020FD
:102370002DE9F04383B005460E4691469846FFF797
:10238000BFFF094B1F69C27804794A4481689DF8F0
:10239000283001934444E4B20094D3B23246284634
:1023A000B84703B0BDE8F083680000202DE9F04392
:1023B00083B005460E4691469846FFF7A1FF094BAC
:1023C0009F68C27804794A4481689DF82830019357
:1023D0004444E4B20094D3B232462846B84703B02E
:1023E000BDE8F083680000202DE9F04383B0054686
:1023F0000E4691469846FFF783FF094BDF68C27887
:1024000004794A4481689DF8283001934444E4B239
:102410000094D3B232462846B84703B0BDE8F083F3
:10242000680000202DE9F04182B080460D46164636
:102430001C46FFF765FF0C4B9F69C17890F804C0FC
:102440008B190CEB0502414480689DF820500195E2
:10245000A4445FFA8CF40094DBB2D2B2C9B2B8479C
:1024600002B0BDE8F08100BF680000202DE9F04116
:1024700082B00646884614461D46FFF741FF094BC9
:102480005F6890F803C090F804E0C6440CEB0601C6
:102490008068009523465FFA8EF2C9B2B84702B051
:1024A000BDE8F081680000202DE9F04182B00646C9
:1024B000884614461D46FFF723FF0B4B5F6990F8D3
:1024C00003C090F804E0C6440CEB060180689DF858
:1024D00020300193009523465FFA8EF2C9B2B847C7
:1024E00002B0BDE8F08100BF68000020F0B585B003
:1024F0000E46CB785BB90C794CB94D79264B9B686D
:102500009847ADF800009DF800309D4201D0347925
:102510003DE0B579204B9B689847ADF804009DF8E5
:1025200005309D42F3D111E01C4B1B681D6825440A
:10253000B768194B9B689847ADF808009DF80820CC
:102540003946284602F074FE0134E4B2124B9B680F
:102550009847ADF80C009DF80D30A342E4D819E07F
:102560000E4B1D68F37855F8230072790021204442
:1025700002F06CFEF37855F82300B26852F823108D
:1025800072792144204402F053FE0134E4B2B3795D
:10259000A342E5D805B0F0BD18000020E8A800204F
:1025A00030B583B0002410E00D4B1B681D68254436
:1025B0000C4B9B689847ADF800009DF80020002167
:1025C000284602F043FE0134E4B2064B9B6898476C
:1025D000ADF804009DF80530A342E5D803B030BD46
:1025E000E8A800201800002008B5194B1B78042B20
:1025F0002CD8DFE803F0052B11170300012008BDDC
:10260000144B1B68984718B1114B02221A70ECE763
:102610000F4B01221A70E8E7FFF7C2FF0C4B0322B1
:102620001A70E2E70C4B5B7923B9094B04221A704C
:102630000120E4E700220949074BD868FEF719FE9C
:10264000044B5B68064A10689847EEE70020D6E71F
:10265000E4A8002018000020D4A80020ED240008E1
:10266000E8A8002008B5FEF747FF064A1368C31A1A
:102670001279934203D3034B1860012008BD002058
:10268000FCE700BFD4A8002038B3F8B506460368BD
:102690000BB90020F8BD9D795F79986802F0C0FD04
:1026A000002407E033689B6853F8240002F0B8FD6B
:1026B0000134E4B2AC42F5D307FB05F5094A1389AE
:1026C0002B449BB21381D1884D1BD58052899342F4
:1026D00005D8002333600120DCE70020704700208C
:1026E000D8E700BFD4A800202DE9F04786B0804687
:1026F0008A4616461D46504B5B89002B43D1DFF8B6
:102700004091D9F808309847ADF804009DF805408D
:10271000D9F808309847ADF808009DF8083014FB48
:1027200003F3DB009BB2444A53811381D9F808308C
:102730009847ADF80C009DF80D00800002F068FD90
:102740003E4B186000286DD0002401E00134E4B253
:102750003B4B9B689847ADF814009DF815C0A44505
:1027600011D9374B9B689847ADF810009DF81000C1
:10277000324B1F68800002F04BFD47F82400002810
:10278000E4D1002014E0242002F042FD814600281C
:102790004AD080F8038080F804A0467185710E9BB2
:1027A0008361254B1A8906FB05F39A4203DA002060
:1027B00006B0BDE8F087A80002F02AFDC9F80800BD
:1027C000A0B30024AC420CD2D9F80870304602F015
:1027D0001FFD47F82400D9F808304BB30134E4B2A8
:1027E000F0E706FB05F5144B1A89521B1A81DE88A7
:1027F0003544DD805A7901325A71124BC9F81030D4
:10280000114BC9F81430142002F002FDC9F8200061
:1028100080B14946FEF7EBFC9DF83C3089F800306A
:102820004846C5E70020C3E70020C1E70020BFE716
:102830000020BDE70020BBE7D4A80020E8A80020C6
:1028400018000020340000202400002008B5FFF705
:1028500057FD40B10021006AFEF720FD034B022224
:102860001A70012008BD0020FCE700BFE4A800208A
:1028700010B582B0FFF744FDC0B103786BB90C4BC3
:10288000DC68FFF73DFD016A2046FEF7E0FC094BDE
:1028900002221A70012002B010BD837942790179B9
:1028A000C07801240094FFF7FFFDE8E70020F2E77D
:1028B000D4A80020E4A8002023B150F82130012141
:1028C0009954704750F82130002199547047000006
:1028D0002DE9F04F83B007468A4698469DF8309020
:1028E0009DF834B0203AD3B201934C4600230093B4
:1028F0002EE0019B03EB43031D4A02EB8303009A86
:102900009D5C30E08BF00103224641465046FFF7C4
:10291000D3FF6D00EDB20134E4B2A4EB0903BB4276
:102920000DD00136F6B2072E0ED815F0800FE9D083
:102930005B46224641465046FFF7BEFFE9E708F1F5
:1029400001085FFA88F84C46009B0133DBB2009324
:10295000009BBB4209D20C2FCBD0064B019A03EB54
:102960000213009A9D5C0026DDE703B0BDE8F08FFE
:1029700010950008849900082DE9F04383B00746BC
:102980000E4615461C469DF828909DF82C800BE0BD
:10299000CDF80480CDF80090234631463846FFF745
:1029A00097FF0834E4B201352A78002AF0D103B049
:1029B000BDE8F0832DE9F04F85B00190884691463F
:1029C0009DF83820A3EB010A4FFA8AFAA2EB090B13
:1029D0004FFA8BFBBAF1000F0EDD01230293BBF11E
:1029E000000F16DD01230393DA4520DD5FFA8AF735
:1029F0000026354634461FE0BAF1000F06D0CB1A48
:102A00004FFA83FA4FF0FF330293E8E7CDF808A0BE
:102A1000E5E7BBF1000F07D0A9EB02024FFA82FBFA
:102A20004FF0FF330393DFE7CDF80CB0DCE75FFA3C
:102A30008BF7DDE70136F6B27B1C9E421ADC0123E0
:102A40004A4641460198FFF737FF5444E4B25D44DB
:102A5000EDB2A74205D2E41BE4B2029B98445FFAB0
:102A600088F8AF42E6D2ED1BEDB2039B99445FFAC2
:102A700089F9DFE705B0BDE8F08F2DE9F04383B0B9
:102A800080460E4617469DF82C90CD18EDB2CDF835
:102A9000049000922B46FFF78DFF9DF828403C44A0
:102AA000E4B2CDF80490009433463A4631464046AD
:102AB000FFF780FFCDF8049000942B463A46294654
:102AC0004046FFF777FFCDF8049000942B4622464E
:102AD00031464046FFF76EFF03B0BDE8F0830000CB
:102AE00070B586B004460D461E46094903A803F09A
:102AF000D5F89DF82C3001939DF82830009333468B
:102B000003AA29462046FFF737FF06B070BD00BF75
:102B1000789F0008000000002DE9F04F2DED028B9A
:102B200085B003900E4693469A469DF94450284638
:102B3000FDF7F8FC2CA3D3E90023FDF787FEFEF791
:102B400053F80290002D02DB0024B14644E06835C2
:102B50006DB2F9E70298FDF7F7FC41EC180B41EC78
:102B6000100B05F045FA57EC106B5046FDF7DAFCF8
:102B7000CDE9000102460B4630463946FDF73CFDE3
:102B800006460F464846FDF7CDFC32463B46FDF76C
:102B90007DFBFEF709F85FFA80F8B0EE480AF0EE28
:102BA000680A05F0DDF953EC102BDDE90001FDF7B3
:102BB00023FD06460F465846FDF7B4FC32463B4619
:102BC000FDF762FBFDF7F0FF0123C2B24146039817
:102BD000FFF772FE0134E4B2AC42BBDB05B0BDECE2
:102BE000028BBDE8F08F00BFF8C1631ADCA54C4032
:102BF00010B582B0682401949DF810400094FFF74E
:102C00008BFF02B010BD042806D04FF0E0221369FC
:102C100023F00403136170474FF0E022136943F07F
:102C200004031361704721B1036843F0010303609B
:102C30007047036823F001030360704741607047E9
:102C4000406880B2704700000A4B98420AD8A3F24D
:102C50000F4311F0005F07D021F0F02121F0821125
:102C6000D9607047044BF4E721F0F02121F0821184
:102C7000996070470F64024000640240014B586144
:102C8000704700BF003C014000230F2B4ED830B5E9
:102C900016E0C2681FFA83FE4FEA4E044FF0030E9F
:102CA0000EFA04FE22EA0E02C260C26891F807E042
:102CB0000EFA0CFC42EA0C02C26001330F2B34D82E
:102CC00001229A400C68A243F7D104684FEA430CF2
:102CD000032202FA0CF26FEA020E24EA02020260F8
:102CE00002680C7904FA0CF4224302600A79013A72
:102CF000D2B2012ACDD882680EEA020282608268CE
:102D00004C7904FA0CF42243826044689DB24FF07F
:102D1000010E0EFA05FE24EA0E04446044688A7926
:102D2000AA4092B222434260B3E730BD70470369C4
:102D3000194201D00120704700207047018370477D
:102D40004183704700B501F007039B0002FA03FCC2
:102D5000C908083150F821204FF00F0E0EFA03F386
:102D600022EA030340F8213050F8212042EA0C0205
:102D700040F821205DF804FB10B4294B9B6803F058
:102D80000C03042B23D0082B24D013B1254B036054
:102D900001E0244B0360224CA368C3F303132249D0
:102DA000CB5CDAB20368D3404360A268C2F38222EC
:102DB0008A5CD2B223FA02F28260A268C2F3423283
:102DC0008A5CD2B2D340C3605DF8044B7047174BA6
:102DD0000360E0E7124B59685A6802F03F0211F4B1
:102DE000800F12D0114BB3FBF2F30D4A5268C2F3BD
:102DF000881202FB03F30A4A5268C2F3014201320D
:102E00005200B3FBF2F30360C5E7064BB3FBF2F3EA
:102E1000034A5268C2F3881202FB03F3EBE700BFD8
:102E2000003802400024F4009400002000127A00D0
:102E300021B1054A136B184310637047024A136BA4
:102E400023EA0000106370470038024021B1054AB0
:102E5000136C184310647047024A136C23EA000095
:102E6000106470470038024021B1054A536C184382
:102E700050647047024A536C23EA00005064704764
:102E80000038024021B1054A136A184310627047A6
:102E9000024A136A23EA00001062704700380240B9
:102EA00021B1054A536A184350627047024A536A77
:102EB00023EA0000506270470038024008B52A4BF0
:102EC00098420FD0294B984217D0294B98421FD0D7
:102ED000284B984227D0284B98422FD0274B984216
:102EE00037D008BD01214FF48050FFF7D9FF0021F2
:102EF0004FF48050FFF7D4FFF3E701214FF48040F7
:102F0000FFF7C0FF00214FF48040FFF7BBFFE8E769
:102F100001214FF40040FFF7B5FF00214FF40040BE
:102F2000FFF7B0FFDDE701214FF40050FFF7B8FFD6
:102F300000214FF40050FFF7B3FFD2E701214FF417
:102F40008010FFF7ADFF00214FF48010FFF7A8FFBE
:102F5000C7E701214FF40010FFF7A2FF00214FF453
:102F60000010FFF79DFFBCE7003001400038004033
:102F7000003C00400034014000500140005401403A
:102F80002DE9F041038803F441520F88B1F8028023
:102F90008E88CD880C89B1F80AE0B1F80CC0CB89D5
:102FA00047EA08073E4335432C434EEA040E4CEAF9
:102FB0000E0C43EA0C0313430380838B9BB223F470
:102FC00000639BB283830B8A0382BDE8F08129B141
:102FD00003889BB243F040030380704703889BB291
:102FE00023F040039BB203807047808980B2704712
:102FF000818170470389194201D001207047002068
:103000007047028A83890B40114202D01BB900200D
:1030100070470020704701207047C94389B2018280
:103020007047C1F30801818070478088C0F30800B1
:103030007047C1F3421C01F01F01012303FA01F1A3
:103040009C4508D0BCF1020F07D014303AB1036898
:103050001943016070470C30F8E71030F6E7036859
:1030600023EA010101607047C1F3421201F01F0C15
:10307000012303FA0CF3012A0FD0022A11D0828A0D
:1030800092B21340090A012202FA01F1028892B2B7
:103090000A4053B15AB900207047828992B2134056
:1030A000F0E7028A92B21340ECE70020704701205B
:1030B0007047090A01238B409BB2DB439BB203801C
:1030C0007047000010B582B001210846FFF7B0FE3E
:1030D000114C052206212046FFF734FE0522072168
:1030E0002046FFF72FFE052211462046FFF72AFE55
:1030F000E023009302238DF8043000238DF806307E
:1031000003228DF805208DF8073069462046FFF729
:10311000BBFD02B010BD00BF0000024070B582B020
:1031200001210220FFF784FE194C05220E212046C2
:10313000FFF708FE05220F212046FFF703FE0522B8
:103140000D212046FFF7FEFD4FF440430093022679
:103150008DF8046000258DF8065003238DF80530A6
:103160008DF8075069462046FFF78EFD4FF4005357
:1031700000938DF804608DF806508DF805608DF889
:10318000075069462046FFF77FFD02B070BD00BFC3
:103190000004024010B582B001210420FFF748FE70
:1031A000114C06220B212046FFF7CCFD06220C21F4
:1031B0002046FFF7C7FD06220A212046FFF7C2FD81
:1031C0004FF4E053009302238DF8043000238DF870
:1031D000063003228DF805208DF807306946204619
:1031E000FFF752FD02B010BD0008024030B583B0B9
:1031F0000D4614460121FFF71BFE01238DF8043014
:1032000000228DF806208DF8073002238DF8053056
:10321000009569462046FFF737FD03B030BD30B555
:1032200083B00D4614460121FFF702FE00238DF8FE
:1032300004308DF8063002238DF807308DF8053004
:10324000009569462046FFF71FFD03B030BD08B565
:10325000FFF76DFD08BD08B512B1012A03D008BD06
:10326000FFF76EFDFBE7FFF769FDF8E710B540F2E9
:1032700027711F48FFF7F8FE60B140F225511C4846
:10328000FFF7F2FE80B940F224411948FFF7ECFE47
:10329000A0B910BD002240F2266100F1804000F587
:1032A0008830FFF7C6FEE8E7114C2046FFF7BDFE69
:1032B00040F225512046FFF7FCFEE4E70D4C0021CB
:1032C0002046FFF7B0FC0A4B9A881B882046FFF780
:1032D000B7FC09492046FFF7B7FC4FF48071204640
:1032E000FFF7ACFC01212046FFF79DFCD1E700BFB2
:1032F00000100140886402400008002010B540F230
:1033000027711F48FFF7B0FE60B140F225511C48FD
:10331000FFF7AAFE68B940F224411948FFF7A4FE5E
:10332000A8B910BD002240F226611548FFF781FEC2
:10333000EBE7134C2046FFF778FEC1B22046FFF7BB
:1033400070FE40F225512046FFF7B3FEE3E70D4C37
:1033500000212046FFF767FC094B9A881B8820460E
:10336000FFF76EFC08492046FFF76EFC4FF48071B2
:103370002046FFF763FC01212046FFF754FCD0E70D
:1033800000440040886002400008002010B540F270
:1033900027711F48FFF768FE60B140F225511C48B5
:1033A000FFF762FE68B940F224411948FFF75CFE5E
:1033B000A8B910BD002240F226611548FFF739FE7A
:1033C000EBE7134C2046FFF730FEC1B22046FFF773
:1033D00028FE40F225512046FFF76BFEE3E70D4C37
:1033E00000212046FFF71FFC094B9A881B882046C6
:1033F000FFF726FC08492046FFF726FC4FF48071B2
:103400002046FFF71BFC01212046FFF70CFCD0E70C
:1034100000480040286002400008001010B540F24B
:1034200027711F48FFF720FE60B140F225511C486C
:10343000FFF71AFE68B940F224411948FFF714FE5D
:10344000A8B910BD002240F226611548FFF7F1FD32
:10345000EBE7134C2046FFF7E8FDC1B22046FFF72B
:10346000E0FD40F225512046FFF723FEE3E70D4C37
:1034700000212046FFF7D7FB094B9A881B8820467E
:10348000FFF7DEFB08492046FFF7DEFB4FF48071B3
:103490002046FFF7D3FB01212046FFF7C4FBD0E70E
:1034A00000140140286402400008001008B5034BD6
:1034B00053F82000FFF702FD08BD00BF949F0008ED
:1034C000F0B587B004460D4617461E46204B53F80C
:1034D00020309847A4BB01211E4B53F82400FFF76E
:1034E000C3FCADF80A70ADF80C601B4B53F82440D8
:1034F0002046FFF7E3FC00212046FFF768FD4FF46C
:103500008273ADF806300023ADF80430ADF8083012
:103510004FF40072ADF80E20ADF812300723ADF86D
:1035200014300E4B33F81530ADF8103001A9204699
:10353000FFF726FD01212046FFF749FD07B0F0BD4A
:103540000121044B53F82400FFF780FCC9E700BFBA
:10355000889F00087C9F0008949F0008A09F000897
:1035600038B50D460A4B53F8204000212046FFF79E
:103570002EFD23889BB223F03803064A32F815202B
:103580001343238001212046FFF721FD38BD00BFF2
:10359000949F0008A09F000870B505460E460024C1
:1035A00002210A4B53F82500FFF724FD30B90134FE
:1035B000A4B2B4F57A7FF3D9002006E03146034B7C
:1035C00053F82500FFF714FD012070BD949F0008FB
:1035D00070B505460E4600240221154B53F8250010
:1035E000FFF708FD30B90134A4B2B4F57A7FF3D9FE
:1035F00000201BE0FF210E4B53F82500FFF7F8FCDD
:10360000002401210A4B53F82500FFF7F3FC30B9E1
:103610000134A4B2B4F57A7FF3D9002006E0044B5C
:1036200053F82500FFF7E1FC3070012070BD00BFAA
:10363000949F0008F8B505460F461646002402215F
:10364000144B53F82500FFF7D5FC30B90134A4B270
:10365000B4F57A7FF3D900201BE039460D4B53F8BF
:103660002500FFF7C5FC002401210A4B53F8250073
:10367000FFF7C0FC30B90134A4B2B4F57A7FF3D9B6
:10368000002006E0034B53F82500FFF7AEFC307036
:103690000120F8BD949F00082DE9F84305460F4628
:1036A0001646204A52F8202092894FF47A7403F18A
:1036B000FF381FFA88F883B36EB116F8019B022118
:1036C000184B53F82500FFF795FC38B9631E9BB2E1
:1036D00024B31C46F3E74FF0FF09F0E74946114BCE
:1036E00053F82500FFF784FC4FF47A7401210D4B49
:1036F00053F82500FFF77EFC20B9631E9BB26CB126
:103700001C46F3E7074B53F82500FFF76EFCC0B2E9
:103710000FB107F8010B4346C9E744462046BDE810
:10372000F88300BF949F000808B501214FF0804046
:10373000FFF767FC012800D008BD01214FF0804051
:10374000FFF76BFCF8E7000008B501210548FFF71B
:1037500058FC012800D008BD01210248FFF75DFC9C
:10376000F9E700BF0004004008B501210548FFF754
:1037700048FC012800D008BD01210248FFF74DFC9C
:10378000F9E700BF0008004070477047704708B570
:103790008C46114662460078FFF77EFF08BD08B5EB
:1037A0000078FFF747FF08BD08B50078FFF710FF66
:1037B00008BD08B50078FFF7EFFE08BD08B54178F1
:1037C0000078FFF7CDFE08BD08B50078FFF76EFE64
:1037D00008BD08B58388428841780078FFF770FEFD
:1037E00008BD704710B5047B012C02D00024204690
:1037F00010BD81888068FFF72AFD0028F7D00224D9
:10380000F5E708B5037B3BB9012907D00022818881
:103810008068FFF720FD08BD0020FCE701228188B9
:103820008068FFF718FDF6E708B5017311B10129AB
:1038300006D008BD826881880068FFF7D7FCF8E7EA
:10384000826881880068FFF7EAFCF2E708B500F0BB
:1038500009F808BD10B5084614461146FFF7F6FFF3
:10386000204610BD08B500F03BFE002008BD00005A
:10387000C0EB0010C000064AA2FB0032801A02EB27
:1038800050029208002301339A42FCD2704700BFD5
:103890002549922408B54FF48020FFF7EFF908BDC1
:1038A00008B5024800F0DDFC08BD00BFECA8002010
:1038B00010B4C47874B903334FEAA30C323200EB6E
:1038C00082008068002303E051F8042B026001337A
:1038D0006345F9D300205DF8044B704710B40346EC
:1038E0000846D11C8910D3F8D040002303E0226899
:1038F00040F8042B01338B42F9D35DF8044B704739
:1039000000B583B000230193019A42F02002019296
:10391000019A61F38A120192C26801991161C26829
:10392000126901920133074A934203D8019A12F0B7
:10393000200FF4D10320FFF79BFF002003B05DF8B8
:1039400004FB00BF400D0300C368586900F001008C
:10395000704708B5FFF7F8FF013818BF012008BD10
:10396000C36858699B691840704703699B68C3F333
:103970004103022B07D0032B07D0012B01D00320DA
:10398000704702207047012070470220704703698A
:103990009B6882691168C3F34103022B09D06FF35E
:1039A0000A0111600269536843F480735360002078
:1039B0007047032363F30A01F3E710B54FF0000EDD
:1039C0004A78012A23D00B7803F1140C00EB8C0CFD
:1039D000DCF8044001229A4062F31F4E236813F47E
:1039E000004F0DD18A6862F30A03CA7862F39343E9
:1039F000CA8862F3995343F0805343F40043236031
:103A00000269D36943EA0E03D361002010BD91F827
:103A100000C00CF1040200EB82029468012303FA57
:103A20000CF363F30F0ED9E770B54B78012B20D060
:103A30000B78143300EB83035D682B682C694A69AB
:103A4000002A6BD18A6862F31204012262F3DC441B
:103A50002C61C278012A71D0CA78012A76D043F04D
:103A600004430A78143200EB82004268136000209D
:103A700070BD0B78043300EB83039D682B682C69C1
:103A80004A69B2B96FF31204012262F3DC442C617B
:103A9000C278012A1CD0CA78012A20D04A69F2B122
:103AA0000C78012202FA04F405696A6B22436A6306
:103AB00015E062F312048E683244013AB2FBF6F26A
:103AC00062F3DC44CA78012AE1D162F35E74DEE776
:103AD0000A78043200EB820292680C695461CA7859
:103AE000012A10D043F004430A78043200EB82022A
:103AF00092681360CB78012BB9D18B8A0A78C96898
:103B0000FFF7D6FEB3E70269926812F4807F02D114
:103B100043F00053E6E743F08053E3E78E68324416
:103B2000013AB2FBF6F2C2F3090262F3DC44C6F3D7
:103B3000120606FB02F262F3120489E70A781432D5
:103B400000EB820252680C69546185E74A7912B130
:103B500043F0005383E743F0805380E730B482B0F2
:103B6000002300934B78012B2ED00B7803F1140225
:103B700000EB820254682268246900944C69002C8E
:103B80006CD18D689DF8004065F306048DF8004007
:103B90009DF80240012565F3C4048DF802401433FA
:103BA00000EB83035B68009C1C61C378012B65D02C
:103BB00042F004420B78143300EB830043681A6030
:103BC000002002B030BC704783691A681C690094F9
:103BD0004C6914BB9DF800406FF306048DF800405B
:103BE0009DF80240012565F3C4048DF80240009C55
:103BF0001C61C478012C29D042F004421A60C378B9
:103C0000002BDDD14B69002BDAD00A7801239340D9
:103C10000269516B0B435363D2E78D68AC420ED9F6
:103C20004D619DF8004065F306048DF800409DF855
:103C30000240012565F3C4048DF80240D7E79DF8E2
:103C4000005064F306058DF80050F0E70C7804345A
:103C500000EB8404A4680D696561CDE78D684D6152
:103C60009DF8004065F306048DF800409DF8024081
:103C7000012565F3C4048DF8024090E70B781433F6
:103C800000EB83035B680C695C6191E74B78012B67
:103C90000AD00B78143300EB83004268136843F4B6
:103CA00000131360002070470B78043300EB83008F
:103CB00082681368002B03DB43F400131360F1E701
:103CC00043F08043F8E74B78012B0FD00B78143387
:103CD00000EB8300406802686FF35552CB78023BDB
:103CE000DBB2012B08D90260002070470B78043347
:103CF00000EB83008068EEE742F08052F3E703694F
:103D00009869DB691840000C7047143100EB8101A1
:103D10004B689A680369586910407047036998694D
:103D2000DB69184080B2704782B0002300939DF891
:103D3000033043F0C0038DF803309DF802300122B8
:103D400062F3C4038DF802309DF80030182262F34C
:103D500006038DF80030436D02F1404202F5002267
:103D60001A61C378012B01D002B0704700F2CC5227
:103D7000436D5A61436D1A684FF080221A60F3E771
:103D800010B50446837A43B1D0F80C316FF3410388
:103D90006FF30003D0F80C2113602269536823F0FD
:103DA00001035360054B1B689B6920469847E368F5
:103DB0004FF000425A61012010BD00BFFC000020FE
:103DC00010B582B0044600238DF8073090F8123108
:103DD0008DF80730164B1B685B6998472369996813
:103DE000E3684FF400625A61A37A33B111F0010F16
:103DF00003D094F81531012B02D0012002B010BD80
:103E00009DF80730DBB2032BF7D1D4F80C211368EF
:103E100043F001031360D4F80C21136843F003034B
:103E20001360044A136943F006031361E5E700BF1A
:103E3000FC00002000ED00E010B50446044B1B68B8
:103E4000DB689847E36808225A61012010BD00BF73
:103E5000FC00002010B50446044B1B68DB69984742
:103E6000E3684FF480125A61012010BDFC0000206D
:103E700010B50446044B1B681B6A9847E3684FF46F
:103E800000125A61012010BDFC00002010B402692C
:103E90001469536BCB40DB01DBB22343043100EBED
:103EA00081008268906818405DF8044B70470000FC
:103EB0002DE9F0418046FFF722FF044600252CE063
:103EC00005F1140308EB83035B68196905EB8503AF
:103ED00008EBC303D3F87C23C1F31201521AC3F8D1
:103EE0008C2332E016F0020F06D0022605F11403EF
:103EF00008EB83035B689E6016F0080F0BD01E4B27
:103F00001B689B684046984705F1140308EB830340
:103F10005B6808229A600135640854B314F0010FFD
:103F2000F9D0EFB239464046FFF7EFFE064610F0F3
:103F3000010FD7D0012605F1140308EB83035B685A
:103F40009E6098F80330B342BAD00B4B1B681B68D5
:103F500039464046984798F80330012BC2D1002DCE
:103F6000C0D198F81131052BBCD14046FFF7DCFEDB
:103F7000B8E70120BDE8F081FC0000202DE9F04108
:103F800007460C4601EB810300EBC303D3F8302155
:103F9000D3F83411521AD3F82431934200D3134684
:103FA00003F103084FEA9808231D07EB83039B687E
:103FB0009B691DE006F103084FEA980804EB8405AD
:103FC00007EBC505B3B2E2B2D5F828113846FFF7C2
:103FD0006FFCD5F828313344C5F82831D5F8343191
:103FE0003344C5F83431231D07EB83039B689B6979
:103FF0009BB2434515D904EB840207EBC202D2F809
:104000003411D2F8303199420BD253B15B1A04EB20
:10401000840207EBC202D2F824619E42CAD31E4634
:10402000C8E70120BDE8F0812DE9F0418046FFF7A7
:1040300075FE0446002728E015F0080F05D0082576
:104040003B1D08EB83039B689D6015F0100F05D0A6
:1040500010253B1D08EB83039B689D6015F0400F06
:1040600005D040253B1D08EB83039B689D6015F040
:10407000020F05D002253B1D08EB83039B689D6062
:1040800015F0800F32D101376408002C39D014F0BC
:10409000010FF8D0FEB231464046FFF7F7FE054665
:1040A00010F0010FC8D0012303FA07F0D8F8101060
:1040B0004A6B22EA00024A631D463A1D08EB82025F
:1040C00092689360104B1B685B6831464046984786
:1040D00098F80330AB42AFD1002FADD198F8113131
:1040E000042BA9D14046FFF71FFEA5E739464046FD
:1040F000FFF744FF3B1D08EB83039B6880229A6017
:10410000C1E70120BDE8F081FC0000202DE9F0416D
:104110000446C268936923F010039361C3681D6A63
:1041200005F00F06C5F34343022B09D0062B21D01F
:10413000E268936943F0100393610120BDE8F081C8
:1041400047F6F0732B42F3D0C5F30A1506EB86074A
:1041500000EBC7072A46D7F88013FFF7BFFBD7F855
:1041600080332B44C7F88033D7F88C331D44C7F80D
:104170008C53DDE7082200F2CC51FFF7AFFBC5F30B
:104180000A1506EB860304EBC303D3F88C2315440E
:10419000C3F88C53CCE7000070B5054600242646D2
:1041A0000269536823F0010353602146FFF7A8FB1F
:1041B00021460CE00B1D05EB83039B68FF229A60F0
:1041C00001F1140305EB83035B689A6001316B789E
:1041D0008B42EFD82B694FF0FF329A612B694FF079
:1041E0000112DA610B242B695C6126432B691E6185
:1041F0002A6913686FF30A1313602846FFF794FDCA
:10420000EB684FF480525A61034B1B681B692846C8
:104210009847012070BD00BFFC00002038B504465F
:10422000FFF7B5FBE368DD682046FFF79EFB032838
:104230000ED00123A3704023A380052363F38D25B3
:10424000E368DD60E3684FF400525A61012038BD35
:104250000023A3704FF40073A380092363F38D251B
:10426000EEE72DE9F8430446FFF773FB18B9002584
:104270002846BDE8F8832046FFF772FB0646002873
:104280005BD0C0F3074710F4002F29D1002517F0A9
:10429000040F2AD15FFA86F916F0020F02D0E36804
:1042A00002225A61002E25DBC6F3072816F4006FA0
:1042B00025D119F0080F27D119F0100F29D118F0C6
:1042C000100F2BD118F0200F2DD117F0100F2FD178
:1042D00017F0200FCCD02046FFF7CAFD0543C7E7F3
:1042E0002046FFF7E5FD0546D1E72046FFF79CFE97
:1042F0000543CFE72046FFF743FD0543D4E72046BB
:10430000FFF75EFD0543D4E72046FFF795FD054323
:10431000D2E72046FFF7FAFE0543D0E72046FFF735
:104320003BFF0543CEE72046FFF778FF0543CCE788
:104330002046FFF78FFD0543CAE7054698E710B50D
:104340008E464CB2002C1BDB01F07F0C0CEB8C0C6E
:104350004FEACC0C0CF55C7C84440CF104010EF0AB
:104360007F0E81F800E0E40F4C708A60CB700CB1D6
:10437000A1F806E0022B0FD0FFF71FFB002010BDB5
:1043800001F07F0C0CEB8C0C4FEACC0C0CF58C7C08
:1043900084440CF10401E2E700230B71ECE710B553
:1043A00001F07F0404EB8401C90001F55C71014454
:1043B000043104EB840C00EBCC0CCCF88023CCF85B
:1043C00088330023CCF88C338CF875338CF8744325
:1043D000C378012B04D034B9FFF7C0FB002010BD17
:1043E000CCF88423F7E7FFF71FFBF7E710B501F0E0
:1043F0007F0404EB8401C90001F58C710144043190
:1044000004EB840C00EBCC0C4FF0010E8CF81DE19A
:104410008CF81C41CCF82821CCF82C210022CCF8B7
:104420003421CCF830311CB9FFF798FB002010BDC7
:10443000FFF7FAFAFAE708B50A464FFA81FCBCF131
:10444000000F13DB01EB8103DB0003F55C73034416
:10445000191D01238B7002F07F020A704FEADC7C89
:1044600081F801C0FFF712FC002008BD01F07F03B6
:1044700003EB8303DB0003F58C730344191DE8E7AA
:1044800010B50A464FFA81FCBCF1000F13DB01EBBB
:104490008103DB0003F55C730344191D00248C7059
:1044A00002F07F020A704FEADC7C81F801C0FFF75E
:1044B0000AFC204610BD01F07F0303EB8303DB0001
:1044C00003F58C730344191DE8E74FF0000C61F30A
:1044D0000A1C0269136843EA0C031360704700006A
:1044E00000228A4217D230B402E001328A420FD24F
:1044F0000A4C236810F802C0094D05F803C00133C7
:104500002360B3F5006FF0D3234600241C60ECE772
:10451000002030BC70470020704700BFE0B600208C
:10452000E0AE00200369024A12685A60002070471A
:10453000E4B6002010B50446D0F8E8351B6998476A
:1045400094F8133184F81231032384F812310020D7
:1045500010BD08B590F8123180F81331042380F8AB
:104560001231D0F8E835DB689847002008BD08B55F
:10457000D0F8E435DB6903B19847002008BD08B5E1
:10458000D0F8E4351B6A9847002008BD08B5D0F87C
:10459000E4355B6A9847002008BD10B50446002347
:1045A00040221946FFF7CBFE0023402280212046FF
:1045B000FFF7C5FE012384F81231D4F8E8355B68B3
:1045C000A0789847002010BD10B582B00446694617
:1045D00000F04EF99DF8001001F01F03012B0FD0E1
:1045E000022B12D02BB101F080012046FFF723FFF0
:1045F00003E06946204600F0ABFA002002B010BD8F
:104600006946204600F0C8FAF7E76946204600F000
:10461000DFFAF2E710B5044600294CD190F81131C9
:10462000022B05D094F81631012B3DD0002010BD8F
:10463000D0F83821D0F824319A4212D9D21AC0F8D1
:104640003821C178012906D092B2D4F82811204629
:1046500000F0A0F8E6E7D0F828110B44C0F82831A4
:10466000F2E7D0F83C11B1FBF3F203FB12122AB9C6
:104670008B4203D8D0F8403199420BD3D4F8E435BB
:10468000DB681BB194F81221032A0AD0204600F0FF
:10469000A0F8C7E7114600F07DF80023C4F84031C8
:1046A000C0E720469847F1E72046FFF73BFF00238D
:1046B00084F81631BAE70A46D0F8E4355B69002B76
:1046C000B4D090F812110329B0D111469847ADE744
:1046D00010B5044679BB90F81131032B01D00020AE
:1046E00010BDD0F89033D0F87C23934215D99B1A93
:1046F000C0F89033C178012909D09A4228BF1A46E0
:1047000092B2D4F88013204600F04CF8E7E7D0F8D6
:1047100080131144C0F88013EFE7D0F8E4351B692B
:104720001BB190F81221032A03D0204600F042F872
:10473000D5E79847F9E70A46D0F8E4359B69002B9E
:10474000CDD090F812110329C9D111469847C6E778
:1047500010B50446D0F8E4351B689847D4F8E8351E
:104760009B689847002010BD08B5D0F8E4355B6819
:104770009847002008BD08B51346C0F83C21C0F892
:104780003821022280F811210A460021FFF72EFE6F
:10479000002008BD08B513460A460021FFF726FE93
:1047A000002008BD08B513460A460021FFF7F7FDB3
:1047B000002008BD10B50446042380F81131002301
:1047C0001A461946FFF712FE2046FFF7ADFA002001
:1047D00010BD10B50446052380F8113100231A4698
:1047E0001946FFF7DCFD2046FFF79EFA002010BDBA
:1047F00010B504464B88012B02D0022B0AD010BD05
:10480000C0F81831D0F8E4359B6898472046FFF788
:10481000D1FFF4E78B8813F0FF0FF0D102695268E3
:104820001B0A013B042B07D8DFE803F0030F131723
:104830001B00012363F306120C4B1A60012384F85A
:1048400016312046FFF7B6FFD9E7022363F30612BD
:10485000F2E7032363F30612EEE7042363F3061281
:10486000EAE7052363F30612E6E700BFE4B600209B
:1048700090F8CC350B7090F8CD354B7090F8CE3564
:1048800090F8CF2503EB02234B8090F8D03590F8B9
:10489000D12503EB02238B8090F8D23590F8D325F5
:1048A00003EB02239BB2CB80C0F84031012380F898
:1048B0001131704710B504468021FFF7BCFD00217F
:1048C0002046FFF7B8FD2046FFF72EFA10BD30B5A1
:1048D00083B005460C464A88130A013B062B78D85C
:1048E000DFE803F004163277776E7300D0F8EC350A
:1048F0001B680DF1060180789847E388402B03D0B0
:1049000095F81231012B0ED10823ADF806300AE0DC
:10491000D0F8E4359B6A0DF10601807898470223B0
:104920004370C5F8F005BDF80620002A4BD0E38897
:10493000002B48D09A4228BF1A46ADF806200146FF
:104940002846FFF718FF3EE0D2B2052A34D8DFE848
:1049500002F0030B131B232BD0F8EC355B680DF131
:10496000060180789847DEE7D0F8EC359B680DF1BA
:10497000060180789847D6E7D0F8EC35DB680DF172
:10498000060180789847CEE7D0F8EC351B690DF129
:10499000060180789847C6E7D0F8EC355B690DF1E1
:1049A000060180789847BEE7D0F8EC359B690DF199
:1049B000060180789847B6E72146FFF77BFF02E0C3
:1049C0002146FFF777FF03B030BD2146FFF772FFA6
:1049D000F9E72146FFF76EFFF5E738B504468B8807
:1049E000E3B9CB88D3B98D7805F07F0590F8123103
:1049F000032B0CD080F814512946FFF766FD2046A2
:104A0000FFF7D8FE35B1022384F8123109E0FFF731
:104A100051FF06E0012384F8123102E02046FFF73F
:104A200049FF38BD10B504468B78204A1370012B1E
:104A300008D890F81221022A07D0032A15D0FFF7D0
:104A400039FF01E0FFF736FF10BD5BB180F8103190
:104A5000032280F812211946FFF77AFE2046FFF75D
:104A6000A9FEF1E7FFF7A6FEEEE783B190F810117B
:104A70008B4218D0FFF778FE0C4B197884F8101190
:104A80002046FFF765FE2046FFF794FEDCE7022292
:104A900080F8122180F810311946FFF765FE204694
:104AA000FFF788FED0E7FFF785FECDE7F4B60020DC
:104AB00008B5CB88012B08D190F81231022B07D012
:104AC000032B0AD0FFF7F6FE01E0FFF7F3FE08BD67
:104AD00001220549FFF74FFEF9E7012200F5887131
:104AE000FFF749FEF3E700BFECB6002008B590F8E9
:104AF0001231023B012B0DD8084B01221A60D0F86D
:104B0000183113B1054B03221A6002220349FFF743
:104B100032FE08BDFFF7CEFEFBE700BFE8B600207F
:104B200010B5044690F81231023B012B0DD84B888A
:104B3000012B0CD10023C0F81831D0F8E4359B6864
:104B400098472046FFF736FE01E0FFF7B3FE10BDA1
:104B500008B54B78092B1CD8DFE803F012181B1599
:104B60001B09051B0F0CFFF7B2FE002008BDFFF765
:104B700034FFFAE7FFF756FFF7E7FFF799FFF4E78F
:104B8000FFF7B4FFF1E7FFF733FEEEE7FFF7C8FFEB
:104B9000EBE7FFF78FFEE8E738B504460D4690F8DF
:104BA0001231032B0FD10B79012B09D8D0F8E43542
:104BB0009B689847EB8843B92046FFF7FBFD04E06C
:104BC000FFF778FE01E0FFF775FE002038BD00001A
:104BD00038B505460C468A88D1B26378012B28D0B7
:104BE000032B03D0002B48D0002038BD90F81231A1
:104BF000022B05D0032B0AD02146FFF75BFEF3E71B
:104C00000029F1D08029EFD0FFF715FCECE763888D
:104C100013B909B1802909D1D5F8E4359B6821463B
:104C2000284698472846FFF7C5FDDDE7FFF703FC58
:104C3000F2E790F81231022B05D0032B0AD021465F
:104C4000FFF738FED0E70029CED08029CCD0FFF77F
:104C5000F2FBC9E76388002BC6D109B1802903D1D3
:104C60002846FFF7A7FDBFE7FFF70AFCD5F8E435B4
:104C70009B68214628469847F2E790F81231022BAC
:104C800005D0032B0AD02146FFF714FEACE700291C
:104C9000AAD08029A8D0FFF7CEFBA5E712F0800F9D
:104CA0000FD101EB810100EBC10191F87633CBB15B
:104CB0000E4B01221A6002220C492846FFF75BFDC9
:104CC00092E701F07F0101EB810100EBC10191F856
:104CD0001E311BB1054B01221A60ECE7034B002289
:104CE0001A60E8E7014B00221A60E4E7F0B6002002
:104CF000704700B583B000238DF80430FCF7FCFA50
:104D00008DF80400FEE7FEE7FEE7FEE77047704718
:104D100008B5012210210B48FEF79DFA0A4B1B78BB
:104D20006BB9094B01221A700220FDF7D1F8FCF78C
:104D300073FE002210210348FEF78DFA08BDFCF730
:104D40006FFEF6E700040240F5B6002010B5074CF0
:104D5000012220212046FEF77EFAFCF7A5FB002267
:104D600020212046FEF777FA10BD00BF0004024064
:104D700082B00023019300932A4A136843F48033DE
:104D80001360284B1B6803F400330093019B01332D
:104D90000193009B1BB9019BB3F5A04FF1D1214BAF
:104DA0001B6813F4003F06D001230093009B012BE6
:104DB00004D002B0704700230093F7E7194B1A6C38
:104DC00042F080521A6418490A6842F440420A606C
:104DD0009A689A609A6842F400429A609A6842F42B
:104DE000A0529A60114A5A601A6842F080721A60A2
:104DF0000C4B1B6813F0007FFAD00D4B40F205728C
:104E00001A60A3F580639A6822F003029A609A6898
:104E100042F002029A60034B9B6803F00C03082BDC
:104E2000F9D1C6E70038024000700040085440073E
:104E3000003C024010B5104CD4F8883043F47003A5
:104E4000C4F888300D4B1A6842F001021A60002144
:104E500099601A6822F0847222F480321A60084A3B
:104E60005A601A6822F480221A60D960FFF780FF26
:104E70004FF00063A36010BD00ED00E00038024079
:104E80001030002410B5064C012208212046FEF700
:104E9000E2F9002208212046FEF7DDF910BD00BF2F
:104EA0000004024010B5064C012204212046FEF702
:104EB000D2F9002204212046FEF7CDF910BD00BF33
:104EC0000004024010B5064C012202212046FEF7E4
:104ED000C2F9002202212046FEF7BDF910BD00BF35
:104EE0000004024010B5064C012211462046FEF790
:104EF000B2F9002201212046FEF7ADF910BD00BF36
:104F00000004024010B582B0404C2246012102202C
:104F1000FEF76CF9224602210846FEF767F92246A1
:104F200004210220FEF762F9224608210220FEF742
:104F30005DF9224610210220FEF758F92246202171
:104F40000220FEF753F9012211462046FEF783F9AD
:104F5000012202212046FEF77EF90122042120468B
:104F6000FEF779F9012208212046FEF774F90122A3
:104F700010212046FEF76FF9012220212046FEF77E
:104F80006AF9FFF757FFC8240194214B00930023CF
:104F90001A464FF47A711F48FCF752FE1E4B1860F8
:104FA00001941E4B0093012300224FF47A611C48A8
:104FB000FCF746FE1B4B186001941B4B0093022329
:104FC00000224FF4FA611948FCF73AFE184B1860BA
:104FD0000194184B0093032300224FF47A71164872
:104FE000FCF72EFE154B18600194154B009304231B
:104FF00000224FF47A711348FCF722FE124B18601E
:10500000FCF72EFF002002B010BD00BF00040240DC
:1050100029510008AC9F000808B70020854E000801
:10502000B49F0008F8B60020A54E0008BC9F0008F9
:10503000FCB60020C54E0008C49F000800B7002041
:10504000E54E0008CC9F000804B700202DE9F04190
:1050500082B02E4CE36832209847256801260196DD
:105060002B4B009314231E2200210846A847294FEA
:10507000386063689847C3689847D0F8088000256F
:1050800000950223082231210C20C047636838684C
:10509000984703689847276801961F4B009314238D
:1050A000282229462020B8471C4F3860636898475B
:1050B000C3689847D0F8088000950223082232215F
:1050C0000C20C0476368386898470368984727688A
:1050D0000196134B0093142350221E211820B84729
:1050E000104E306063689847C3689847876800959A
:1050F0000223082232210C20B847636830689847A1
:105100000368984702B0BDE8F08100BF500000205E
:10511000D49F000810B70020DC9F000814B70020BF
:10512000E49F000818B7002008B5104B1B78012B2E
:1051300009D0022B13D003B108BDFFF787FF0B4B3B
:1051400001221A70F8E70A4B1B69984718B1074B00
:1051500002221A70F0E7054B01221A70ECE7044BAB
:105160005B699847014B01221A70E5E70CB70020F4
:1051700050000020DFF834D0002103E00C4B5B58D6
:10518000435004310B480C4B42189A42F6D30B4A59
:1051900002E0002342F8043B094B9A42F9D3FFF79F
:1051A00049FE00F011F8FFF7ADFE70470000022045
:1051B000B0A5000800000020D4020020D802002082
:1051C00030B70020FEE7000070B50D4D0D4C641B9C
:1051D000A4100026A64209D10B4D0C4C04F00AF98C
:1051E000641BA4100026A64205D170BD55F8043BEF
:1051F00098470136EEE755F8043B98470136F2E749
:10520000A8A50008A8A50008A8A50008ACA5000846
:10521000024B0146186800F06DB800BF0401002081
:10522000024B0146186800F019B800BF04010020C5
:105230000A44914200F1FF3300D1704710B511F8D4
:10524000014B03F8014F9142F9D110BD02440346CE
:10525000934200D1704703F8011BF9E737B50029E5
:1052600044D051F8043C0190002BA1F10404B8BFD4
:10527000E41801F093FE1E4A0198136833B9636085
:10528000146003B0BDE8304001F08EBEA34208D9DF
:10529000256861198B4201BF19685B684919216053
:1052A000EDE71A465B680BB1A342FAD911685518AD
:1052B000A5420BD1246821445418A3421160E0D1C7
:1052C0001C685B68536021441160DAE702D90C2343
:1052D0000360D6E7256861198B4204BF19685B68D3
:1052E000636004BF491921605460CAE703B030BD50
:1052F0001CB70020F8B5CD1C25F0030508350C2D92
:1053000038BF0C25002D064601DBA94203D90C232A
:1053100033600020F8BD01F041FE21490A681446BF
:105320009CB9204F3B6823B92146304600F0A6FCCB
:1053300038602946304600F0A1FC431C23D10C23E1
:105340003360304601F030FEE3E723685B1B17D47F
:105350000B2B03D923601C44256004E06368A24240
:105360000CBF0B605360304601F01EFE04F10B00D1
:10537000231D20F00700C21ACCD01B1AA350C9E786
:1053800022466468CCE7C41C24F00304A042E3D0A6
:10539000211A304600F072FC0130DDD1CFE700BFAA
:1053A0001CB7002020B700202DE9FF4755EC104B1B
:1053B000002D0E4619462B46BBBF05F100431D4686
:1053C00000232D230B700D9BDDF830A0914623F0B8
:1053D0002008BCBF22461446B8F1460F05D0B8F1EC
:1053E000450F00D10136022100E0032103AB0193F8
:1053F00002AB009345EC104B5346324600F0BCFD27
:10540000B8F1470F074602D119F0010F22D0B8F1C9
:10541000460F07EB060910D13B78302B0AD100224A
:10542000002320462946FBF74FFB18B9C6F10106B9
:10543000CAF80060DAF800309944002200232046C0
:105440002946FBF741FB08B1CDF80C903022039BB5
:105450004B4507D3039B0E9ADB1B3846136004B001
:10546000BDE8F087591C03911A70F0E7F7B50346C1
:105470000029B8BF494203F8022BB4BF2D222B22CA
:10548000092942702ADD0DF10704A4460A27A64621
:105490000A4691FBF7F607FB16153035632A04F12F
:1054A000FF340EF8015C3146F1DC3031AEF102051B
:1054B00004F8011C441C294661450AD30DF1090278
:1054C000A2EB0E02654588BF00221344181A03B0F0
:1054D000F0BD11F8012B04F8012FEDE73023303136
:1054E0008370C170031DF1E72DE9F04F2DED028BA4
:1054F0008DB00C46DDF8608016461F46054601F06B
:10550000E1FCD0F800A05046FAF762FE00230A93AF
:1055100023680593D8F8003094F818B0073323F0C7
:10552000070303F10802C8F80020D3E90023C4E907
:105530001223D4E9128929F000430793CDF818808B
:1055400008EE100A9F4BDDE906014FF0FF32FBF732
:10555000EDFA88BBDDE906019A4B4FF0FF32FBF70D
:10556000C7FA48BB0022002340464946FBF7B6FA7B
:1055700010B12D2384F84330934B9448BBF1470F6F
:1055800094BF9846804603232361059B23F00402C1
:1055900022604FF00009009733460BAA21462846A7
:1055A00000F0D8F9013040F090804FF0FF300DB09E
:1055B000BDEC028BBDE8F08F42464B464046494663
:1055C000FBF7B4FA40B14B46002BBCBF2D2384F847
:1055D00043307F487F4BD1E763680BF0DF020692D0
:1055E0005A1C3FD106236360059B616843F48062C7
:1055F000002303930AABCDE901B309AB49EC108B4F
:10560000009322600DF123032846FFF7CDFE069B91
:105610000999472B804608D1C81C02DB6368994270
:1056200041DDABF1020B5FFA8BFBBBF1650F20D8BC
:1056300001395A4604F150000991FFF717FF0A9A01
:105640001318012A8146236102DC2268D20701D5A2
:10565000013323619DF82330002B9CD02D2384F847
:10566000433098E7069A472ABED1002BBCD10123CC
:10567000B9E7BBF1660F18D1002963680BDD216122
:1056800013B92268D00702D501330B442361A16509
:105690004FF00009DEE713B92268D20701D50233C3
:1056A000F4E70123F2E74FF0670B0A9B994205DB11
:1056B00023682161D807EAD54B1CE7E70029D4BF4E
:1056C000C1F1020201221344E0E723685A0507D41E
:1056D0002369424631462846B84701302CD164E759
:1056E000BBF1650F40F2E080D4E9120100220023F3
:1056F000FBF7EAF9002834D0374A0123314628461F
:10570000B84701303FF451AFDDE909239A4202DB8B
:105710002368D80710D518EE103A5246314628466D
:10572000B84701303FF441AF4FF0000804F11A09C7
:105730000A9B013B434509DC23689B0700F1058177
:10574000E0680B9B9842B8BF184630E701234A46F1
:1057500031462846B84701303FF427AF08F1010829
:10576000E6E7099B002B39DC1B4A0123314628461A
:10577000B84701303FF419AFDDE90923134302D1E3
:105780002368D907D8D518EE103A52463146284634
:10579000B84701303FF409AF4FF0000904F11A0A8D
:1057A000099B5B424B4501DC0A9B92E70123524671
:1057B00031462846B84701303FF4F7AE09F10109F8
:1057C000EEE700BFFFFFEF7FF09F0008F49F0008A7
:1057D000FC9F0008F89F000800A000080A9AA36D2B
:1057E0009A42A8BF1A46002A914637DC4FF0000BB8
:1057F00029EAE97904F11A02A36D0593A3EB0903E1
:105800005B4533DCDDE909239A423BDB2368DA0799
:1058100038D40A9B059A09999A1AA3EB0109914574
:10582000A8BF9146B9F1000F35DC4FF0000829EA16
:10583000E97904F11A0ADDE909239B1AA3EB0903AC
:1058400043457FF779AF0123524631462846B84792
:1058500001303FF4AAAE08F10108ECE713463146E7
:1058600042462846B8470130C0D19EE60123314662
:1058700028460592B84701303FF497AE059A0BF1E0
:10588000010BB9E718EE103A524631462846B847A0
:105890000130BED189E6059A4B464244314628463E
:1058A000B8470130C1D180E60A9A012A01DCDB0742
:1058B00038D50123424631462846B84701303FF4E7
:1058C00074AE18EE103A524631462846B8470130B9
:1058D0003FF46BAED4E9120100220023FBF7F4F889
:1058E000D8B90A9B08F10102013B31462846B84766
:1058F00001300ED159E60123524631462846B847B9
:1059000001303FF452AE08F101080A9B013B4345C8
:10591000F1DC4B4604F15002DCE64FF0000804F1E4
:105920001A0AF2E701234246DFE701234A463146DD
:105930002846B84701303FF438AE08F10108E36863
:105940000B995B1A4345F0DCFAE64FF0000804F1CE
:105950001909F4E72DE9F047164699468A680B695C
:10596000DDF820809342B8BF1346336091F843209E
:1059700007460C460AB1013333602368990642BFDB
:10598000336802333360256815F0060506D104F14B
:10599000190AE36832689B1AAB4226DC94F843206C
:1059A000131E226818BF012392062BD404F1430270
:1059B00049463846C04701301ED02368E568326842
:1059C00003F00603042B08BFAD1AA36822690CBFBD
:1059D00025EAE57500259342C4BF9B1AED18002601
:1059E0001A34B5421AD1002008E001235246494634
:1059F0003846C047013003D14FF0FF30BDE8F08793
:105A00000135C6E7E1185A1C302081F843002244D2
:105A100094F8451082F843100233C7E70123224669
:105A200049463846C0470130E6D00136D9E7000084
:105A30002DE9FF470F7E0C9D782F914680460C463E
:105A40009A4601F1430207D8622F0AD8002F00F0CE
:105A5000D880582F00F0A38004F1420584F84270EA
:105A60003AE0A7F16303152BF6D801A151F823F012
:105A7000C95A0008DD5A0008595A0008595A000846
:105A8000595A0008595A0008DD5A0008595A0008A6
:105A9000595A0008595A0008595A0008E95B000889
:105AA0000D5B0008CB5B0008595A0008595A0008E2
:105AB0000B5C0008595A00080D5B0008595A000891
:105AC000595A0008D35B00082B681A1D1B682A600E
:105AD00004F1420584F842300123A3E020682968DC
