:020000040800F2
:1000000000000220958B0008298600082B86000836
:100010003F86000841860008438600080000000073
:1000200000000000000000000000000045860008FD
:100030004786000800000000498600086D86000819
:10004000E58B0008E58B0008E58B0008E58B0008D0
:10005000E58B0008E58B0008E58B0008E58B0008C0
:10006000E58B0008E58B0008E58B0008E58B0008B0
:10007000E58B0008E58B00081D630008E58B000890
:10008000E58B000805630008E58B0008E58B000898
:10009000E58B0008E58B0008E58B0008E58B000880
:1000A000E58B0008E58B0008E58B0008E58B000870
:1000B000A5620008C5620008E5620008E58B00083B
:1000C000E58B0008E58B0008E58B0008E58B000850
:1000D000E58B0008A1590008515A0008015B00088F
:1000E000E58B0008E58B0008F5670008E58B000844
:1000F000E58B0008E58B0008E58B0008E58B000820
:10010000E58B0008E58B0008E58B0008E58B00080F
:10011000E58B0008E58B0008E58B0008E58B0008FF
:10012000E58B0008E58B0008E58B0008E58B0008EF
:10013000E58B00080000000000000000E58B0008CF
:10014000E58B0008E58B0008E58B000801680008D6
:10015000E58B0008E58B000835630008855B000827
:10016000E58B0008E58B0008E58B0008E58B0008AF
:10017000E58B0008E58B000800000000000000008F
:08018000E58B0008E58B000887
:1001900010B5054C237833B9044B13B10448AFF3C1
:1001A00000800123237010BD2804002000000000FF
:1001B00028BA000808B5034B1BB103490348AFF345
:1001C000008008BD000000002C04002028BA0008B0
:1001D00010F8012B11F8013B012A28BF9A42F7D0F1
:1001E000D01A7047034613F8012B002AFBD1181AC6
:1001F000013870470000000000000000000000000F
:1002000001F0FF01102A2BDB10F0070F08D010F8C7
:10021000013B013A8B422DD010F0070F42B3F6D1CB
:10022000F0B441EA012141EA014122F007047FF0E4
:1002300000070023F0E80256083C85EA010586EA3B
:10024000010685FA47F5A3FA87F586FA47F6A5FA77
:1002500087F68EB9EED1F0BC01F0FF0102F0070283
:1002600032B110F8013B013A83EA010313B1F8D12E
:100270000020704701387047002D06BF354603380F
:10028000073815F0010F07D1013015F4807F02BF48
:10029000013015F4C03F0130F0BC0138704700BF99
:1002A00081F0004102E000BF83F0004330B54FEA27
:1002B00041044FEA430594EA050F08BF90EA020F94
:1002C0001FBF54EA000C55EA020C7FEA645C7FEA27
:1002D000655C00F0E2804FEA5454D4EB5555B8BF4A
:1002E0006D420CDD2C4480EA020281EA030382EABB
:1002F000000083EA010180EA020281EA0303362D4D
:1003000088BF30BD11F0004F4FEA01314FF4801C1F
:100310004CEA113102D0404261EB410113F0004F31
:100320004FEA03334CEA133302D0524263EB4303E8
:1003300094EA050F00F0A780A4F10104D5F1200E86
:100340000DDB02FA0EFC22FA05F2801841F10001E1
:1003500003FA0EF2801843FA05F359410EE0A5F1B5
:1003600020050EF1200E012A03FA0EFC28BF4CF0E6
:10037000020C43FA05F3C01851EBE37101F000459C
:1003800007D54FF0000EDCF1000C7EEB00006EEBA9
:100390000101B1F5801F1BD3B1F5001F0CD3490833
:1003A0005FEA30004FEA3C0C04F101044FEA44528A
:1003B00012F5800F80F09A80BCF1004F08BF5FEA11
:1003C000500C50F1000041EB045141EA050130BDF1
:1003D0005FEA4C0C404141EB0101013C28BFB1F503
:1003E000801FE9D291F0000F04BF01460020B1FA4E
:1003F00081F308BF2033A3F10B03B3F120020CDA21
:100400000C3208DD02F1140CC2F10C0201FA0CF0FE
:1004100021FA02F10CE002F11402D8BFC2F1200C63
:1004200001FA02F120FA0CFCDCBF41EA0C01904019
:10043000E41AA2BF01EB0451294330BD6FEA040462
:100440001F3C1CDA0C340EDC04F11404C4F120024D
:1004500020FA04F001FA02F340EA030021FA04F35F
:1004600045EA030130BDC4F10C04C4F1200220FAB6
:1004700002F001FA04F340EA0300294630BD21FAF4
:1004800004F0294630BD94F0000F83F4801306BFBA
:1004900081F480110134013D4EE77FEA645C18BFAE
:1004A0007FEA655C29D094EA050F08BF90EA020F45
:1004B00005D054EA000C04BF1946104630BD91EA3D
:1004C000030F1EBF0021002030BD5FEA545C05D140
:1004D0004000494128BF41F0004130BD14F580047F
:1004E0003CBF01F5801130BD01F0004545F0FE41F3
:1004F00041F470014FF0000030BD7FEA645C1ABF28
:10050000194610467FEA655C1CBF0B46024650EA5E
:10051000013406BF52EA033591EA030F41F400218A
:1005200030BD00BF90F0000F04BF0021704730B510
:100530004FF4806404F132044FF000054FF00001E5
:1005400050E700BF90F0000F04BF0021704730B5A6
:100550004FF4806404F1320410F0004548BF40427B
:100560004FF000013EE700BF42004FEAE2014FEAD0
:1005700031014FEA02701FBF12F07F4393F07F4FAB
:1005800081F06051704732F07F4208BF704793F0AE
:100590007F4F04BF41F40021704730B54FF46074C1
:1005A00001F0004521F000411CE700BF50EA0102C4
:1005B00008BF704730B54FF000050AE050EA01026D
:1005C00008BF704730B511F0004502D5404261EBDD
:1005D00041014FF4806404F132045FEA915C3FF41E
:1005E000D8AE4FF003025FEADC0C18BF03325FEABB
:1005F000DC0C18BF033202EBDC02C2F1200300FA6C
:1006000003FC20FA02F001FA03FE40EA0E0021FA90
:1006100002F11444BDE600BF70B54FF0FF0C4CF47E
:10062000E06C1CEA11541DBF1CEA135594EA0C0F30
:1006300095EA0C0F00F0DEF82C4481EA030621EA6B
:100640004C5123EA4C5350EA013518BF52EA0335A6
:1006500041F4801143F4801338D0A0FB02CE4FF058
:100660000005E1FB02E506F00042E0FB03E54FF088
:100670000006E1FB03569CF0000F18BF4EF0010E80
:10068000A4F1FF04B6F5007F64F5407404D25FEA7C
:100690004E0E6D4146EB060642EAC62141EA55512F
:1006A0004FEAC52040EA5E504FEACE2EB4F1FD0C71
:1006B00088BFBCF5E06F1ED8BEF1004F08BF5FEAEF
:1006C000500E50F1000041EB045170BD06F00046A1
:1006D00046EA010140EA020081EA0301B4EB5C044E
:1006E000C2BFD4EB0C0541EA045170BD41F4801146
:1006F0004FF0000E013C00F3AB8014F1360FDEBF6B
:10070000002001F0004170BDC4F10004203C35DA46
:100710000C341BDC04F11404C4F1200500FA05F3C9
:1007200020FA04F001FA05F240EA020001F000426A
:1007300021F0004110EBD37021FA04F642EB0601E0
:100740005EEA430E08BF20EAD37070BDC4F10C040A
:10075000C4F1200500FA04F320FA05F001FA04F2CE
:1007600040EA020001F0004110EBD37041F10001BA
:100770005EEA430E08BF20EAD37070BDC4F12005C5
:1007800000FA05F24EEA020E20FA04F301FA05F22D
:1007900043EA020321FA04F001F0004121FA04F2D5
:1007A00020EA020000EBD3705EEA430E08BF20EAA5
:1007B000D37070BD94F0000F0FD101F000464000DF
:1007C00041EB010111F4801F08BF013CF7D041EA61
:1007D000060195F0000F18BF704703F00046520065
:1007E00043EB030313F4801F08BF013DF7D043EA36
:1007F0000603704794EA0C0F0CEA135518BF95EAEC
:100800000C0F0CD050EA410618BF52EA4306D1D172
:1008100081EA030101F000414FF0000070BD50EA91
:10082000410606BF1046194652EA430619D094EA1B
:100830000C0F02D150EA013613D195EA0C0F05D105
:1008400052EA03361CBF104619460AD181EA030159
:1008500001F0004141F0FE4141F470014FF0000011
:1008600070BD41F0FE4141F4780170BD70B54FF0AC
:10087000FF0C4CF4E06C1CEA11541DBF1CEA13552C
:1008800094EA0C0F95EA0C0F00F0A7F8A4EB05040E
:1008900081EA030E52EA03354FEA013100F0888005
:1008A0004FEA03334FF0805545EA131343EA1263CE
:1008B0004FEA022245EA111545EA10654FEA002683
:1008C0000EF000419D4208BF964244F1FD0404F53C
:1008D000407402D25B084FEA3202B61A65EB030598
:1008E0005B084FEA32024FF480104FF4002CB6EB55
:1008F000020E75EB030E22BFB61A754640EA0C00D5
:100900005B084FEA3202B6EB020E75EB030E22BF14
:10091000B61A754640EA5C005B084FEA3202B6EB55
:10092000020E75EB030E22BFB61A754640EA9C0014
:100930005B084FEA3202B6EB020E75EB030E22BFE4
:10094000B61A754640EADC0055EA060E18D04FEAA2
:10095000051545EA16754FEA06164FEAC30343EA42
:1009600052734FEAC2025FEA1C1CC0D111F4801F0F
:100970000BD141EA00014FF000004FF0004CB6E708
:1009800011F4801F04BF01430020B4F1FD0C88BFA7
:10099000BCF5E06F3FF6AFAEB5EB030C04BFB6EBB2
:1009A000020C5FEA500C50F1000041EB045170BDA5
:1009B0000EF0004E4EEA113114EB5C04C2BFD4EBD2
:1009C0000C0541EA045170BD41F480114FF0000E56
:1009D000013C90E645EA060E8DE60CEA135594EAD2
:1009E0000C0F08BF95EA0C0F3FF43BAF94EA0C0FD5
:1009F0000AD150EA01347FF434AF95EA0C0F7FF44A
:100A000025AF104619462CE795EA0C0F06D152EA9D
:100A100003353FF4FDAE1046194622E750EA410681
:100A200018BF52EA43067FF4C5AE50EA41047FF492
:100A30000DAF52EA43057FF4EBAE12E74FF0FF3CF7
:100A400006E000BF4FF0010C02E000BF4FF0010CC8
:100A50004DF804CD4FEA410C7FEA6C5C4FEA430C41
:100A600018BF7FEA6C5C1BD001B050EA410C0CBF90
:100A700052EA430C91EA030F02BF90EA020F0020F2
:100A8000704710F1000F91EA030F58BF994208BF59
:100A900090422CBFD8176FEAE37040F00100704716
:100AA0004FEA410C7FEA6C5C02D150EA013C07D16D
:100AB0004FEA430C7FEA6C5CD6D152EA033CD3D0B8
:100AC0005DF8040B704700BF8446104662468C46B2
:100AD0001946634600E000BF01B5FFF7B7FF0028E5
:100AE00048BF10F1000F01BD4DF808EDFFF7F4FF0E
:100AF0000CBF012000205DF808FB00BF4DF808ED99
:100B0000FFF7EAFF34BF012000205DF808FB00BFBB
:100B10004DF808EDFFF7E0FF94BF012000205DF8DD
:100B200008FB00BF4DF808EDFFF7CEFF94BF012092
:100B300000205DF808FB00BF4DF808EDFFF7C4FF8B
:100B400034BF012000205DF808FB00BF4FEA410CD4
:100B50007FEA6C5C02D150EA013C0AD14FEA430CB7
:100B60007FEA6C5C02D152EA033C02D14FF00000F4
:100B700070474FF0010070474FEA410212F5001232
:100B800015D211D56FF47873B3EB625212D94FEAD4
:100B9000C12343F0004343EA505311F0004F23FABE
:100BA00002F018BF404270474FF00000704750EA13
:100BB000013005D111F0004008BF6FF000407047D0
:100BC0004FF00000704700BF4A0011D212F500122A
:100BD00011D20DD56FF47873B3EB62520ED44FEA95
:100BE000C12343F0004343EA505323FA02F0704715
:100BF0004FF00000704750EA013002D14FF0FF3053
:100C000070474FF00000704780F0004002E000BFE6
:100C100081F0004142001FBF5FEA410392EA030FE7
:100C20007FEA226C7FEA236C6AD04FEA1262D2EB31
:100C30001363C1BFD218414048404140B8BF5B4236
:100C4000192B88BF704710F0004F40F4000020F0CF
:100C50007F4018BF404211F0004F41F4000121F0E5
:100C60007F4118BF494292EA030F3FD0A2F101022F
:100C700041FA03FC10EB0C00C3F1200301FA03F16D
:100C800000F0004302D5494260EB4000B0F5000F90
:100C900013D3B0F1807F06D340084FEA310102F14F
:100CA0000102FE2A51D2B1F1004F40EBC25008BF01
:100CB00020F0010040EA03007047490040EB0000CB
:100CC000013A28BFB0F5000FEDD2B0FA80FCACF1CC
:100CD000080CB2EB0C0200FA0CF0AABF00EBC250F9
:100CE00052421843BCBFD0401843704792F0000FE7
:100CF00081F4000106BF80F400000132013BB5E73A
:100D00004FEA41037FEA226C18BF7FEA236C21D0AF
:100D100092EA030F04D092F0000F08BF0846704714
:100D200090EA010F1CBF0020704712F07F4F04D1E2
:100D3000400028BF40F00040704712F100723CBFF5
:100D400000F50000704700F0004343F0FE4040F41F
:100D5000000070477FEA226216BF08467FEA2363DD
:100D60000146420206BF5FEA412390EA010F40F4C8
:100D7000800070474FF0000304E000BF10F0004314
:100D800048BF40425FEA000C08BF704743F09643FB
:100D900001464FF000001CE050EA010208BF704716
:100DA0004FF000030AE000BF50EA010208BF70479D
:100DB00011F0004302D5404261EB41015FEA010CB2
:100DC00002BF84460146002043F0B64308BFA3F1AA
:100DD0008053A3F50003BCFA8CF2083AA3EBC2538C
:100DE00010DB01FA02FC634400FA02FCC2F12002AB
:100DF000BCF1004F20FA02F243EB020008BF20F0E2
:100E00000100704702F1200201FA02FCC2F1200247
:100E100050EA4C0021FA02F243EB020008BF20EA3C
:100E2000DC70704753B94AB9002908BF00281CBFBD
:100E30004FF0FF314FF0FF3000F074B9ADF1080C06
:100E40006DE904CE00F006F8DDF804E0DDE90223E8
:100E500004B070472DE9F047089D04468E46002BEC
:100E60004DD18A42944669D9B2FA82F252B101FA5E
:100E700002F3C2F1200120FA01F10CFA02FC41EA6E
:100E8000030E94404FEA1C48210CBEFBF8F61FFAF3
:100E90008CF708FB16E341EA034306FB07F199428E
:100EA0000AD91CEB030306F1FF3080F01F81994241
:100EB00040F21C81023E63445B1AA4B2B3FBF8F01B
:100EC00008FB103344EA034400FB07F7A7420AD9A2
:100ED0001CEB040400F1FF3380F00A81A74240F2CA
:100EE00007816444023840EA0640E41B00261DB135
:100EF000D4400023C5E900433146BDE8F0878B426A
:100F000009D9002D00F0EF800026C5E90001304628
:100F10003146BDE8F087B3FA83F6002E4AD18B4202
:100F200002D3824200F2F980841A61EB03030120AC
:100F30009E46002DE0D0C5E9004EDDE702B9FFDE98
:100F4000B2FA82F2002A40F09280A1EB0C014FEA43
:100F50001C471FFA8CFE0126200CB1FBF7F307FBA0
:100F6000131140EA01410EFB03F0884208D91CEB43
:100F7000010103F1FF3802D2884200F2CB804346E0
:100F8000091AA4B2B1FBF7F007FB101144EA0144BF
:100F90000EFB00FEA64508D91CEB040400F1FF314E
:100FA00002D2A64500F2BB800846A4EB0E0440EA3C
:100FB00003409CE7C6F12007B34022FA07FC4CEA45
:100FC000030C20FA07F401FA06F31C43F9404FEA38
:100FD0001C4900FA06F3B1FBF9F8200C1FFA8CFE4D
:100FE00009FB181140EA014108FB0EF0884202FAA1
:100FF00006F20BD91CEB010108F1FF3A80F0888062
:10100000884240F28580A8F102086144091AA4B21E
:10101000B1FBF9F009FB101144EA014100FB0EFE9F
:101020008E4508D91CEB010100F1FF346CD28E45CE
:101030006AD90238614440EA0840A0FB0294A1EB5F
:101040000E01A142C846A64656D353D05DB1B3EBBC
:10105000080261EB0E0101FA07F722FA06F3F140EC
:101060001F43C5E9007100263146BDE8F087C2F193
:101070002003D8400CFA02FC21FA03F3914001430B
:101080004FEA1C471FFA8CFEB3FBF7F007FB103644
:101090000B0C43EA064300FB0EF69E4204FA02F4F0
:1010A00008D91CEB030300F1FF382FD29E422DD943
:1010B000023863449B1B89B2B3FBF7F607FB163378
:1010C00041EA034106FB0EF38B4208D91CEB0101F8
:1010D00006F1FF3816D28B4214D9023E6144C91A78
:1010E00046EA004638E72E46284605E70646E3E688
:1010F0001846F8E64B45A9D2B9EB020864EB0C0E92
:101100000138A3E74646EAE7204694E74046D1E7A0
:10111000D0467BE7023B614432E7304609E764444E
:10112000023842E7704700BF03690A6902610B6138
:1011300070478C4651B1096941B10161DCF80C106E
:10114000C160CCF804308CF8002001E00021C160BF
:1011500002704360002383607047034620B1002083
:1011600018619860D86070476FF00100704738B51B
:1011700004460D46FFF7F1FF00B9256138BD08B5FB
:10118000C3681BB18068FFF7FAFF08BD8160C860C3
:10119000FBE708B50346C06810B1FFF7FAFF08BDCA
:1011A000D9608B60FBE738B543687BB104460D46D8
:1011B000006958B1096949B1984738B12A69824232
:1011C00005D0E06840B12946FFF7EDFF38BD29465C
:1011D0002046FFF7A9FFF4E7E560AC600023EB6071
:1011E000F4E7A0B199B108B543684B6003780B7080
:1011F000012B06D0022B07D003B108BDFFF7BFFFBC
:10120000FBE7FFF7C6FFF8E7FFF7CDFFF5E770470D
:10121000D0B1F8B50C4616461D46074611B10BB9BC
:101220000169A047F86820B12B4632462146FFF7F6
:10123000EFFF64B1012D01D00020F8BD32463969BD
:101240003846A0470020F8E76FF001007047002003
:10125000F3E7F0B108B50346826862B1C06850B1E7
:10126000D0609A68826000229A60DA6009B11869D9
:101270008847002008BD0AB1D86830B1002AF5D1EE
:10128000DA68002AF2D01346F0E7D0609860D860A0
:10129000ECE76FF0010070470249034B0A681A60DF
:1012A0007047000028ED00E04404002010B582B033
:1012B000002401941349144B0A681A60EFF3098360
:1012C00093B9EFF309830E4B1B68002B0FDB13F070
:1012D000804F0FD10A4B1B6813F0020F01D044F06E
:1012E0000204204602B010BDEFF30883EBE74FF095
:1012F0000104ECE744F00204FFF7CEFF0190E9E7B8
:10130000480400202CED00E04804002010B44FF009
:10131000E02254690D4B1B7800FB03F34FEA430CAA
:101320009369002104E0E01A02441144614509D2A6
:101330001A464FF0E0239B699A42FAD0F3D9D21AA9
:101340001144F3E75DF8044B704700BF4C040020E4
:1013500010B504E04FF47A70FFF7D8FF2046441E22
:101360000028F7D110BD0000014B1861704700BF85
:1013700050040020014B5861704700BF500400200A
:10138000014B9861704700BF50040020014B9868E2
:10139000704700BF5004002038B50546204C00239C
:1013A0002377FFF7BFF802460B461BA1D1E90001E6
:1013B000FFF75CFAFFF708FCA060E560FFF7B2F802
:1013C00002460B4614A1D1E90001FFF74FFA04468B
:1013D0000D46144B1868FFF7A5F822462B46FFF779
:1013E00045FAFFF7F1FB0138B0F1807F0AD24FF0E8
:1013F000E02358610C4AF02182F8231000229A6100
:1014000007221A61042003F071FC084803F022FE51
:10141000012038BDAFF300800000000080842E4121
:10142000500400205402002000ED00E0740400206D
:1014300008B5034B01221A771B6903B1984708BD11
:101440005004002000220023C0E90023704782429C
:1014500073EB010C03D2801A61EB03017047101A81
:1014600063EB01017047000008B50E4B1B7F012B99
:1014700001D0002008BD0B4B00225A7798681A68EB
:101480005968121841F100011A60596001225A7717
:10149000054B1B6803B19847024B9B6903B1984702
:1014A0000120E7E75004002070040020014BD3E93D
:1014B000000170475004002008B54FF47A720023F1
:1014C0000249D1E90001FFF7ADFC08BD500400203E
:1014D000034A13685168C01841F10001704700BF0A
:1014E00050040020054B1A685B68904271EB0303BF
:1014F00001D2002070470120704700BF5004002037
:10150000FEE7000010B590F800C04FEADC020CF0D6
:10151000070E0A4B19784FF0010C0CFA02F4214324
:10152000C9B2197013445A780CFA0EFC42EA0C0244
:10153000D2B25A70002380F8483010BDD8A50020E0
:10154000007800F0070C0D4B03EBD0035A78012113
:1015500001FA0CF122EA01025A70597861B900B51A
:101560004FEAD00E05490B78012202FA0EF223EA67
:1015700002030B705DF804FB704700BFCCA5002090
:10158000007800F0070C0D4B03EBD0035A780121D3
:1015900001FA0CF122EA01025A70597861B900B5DA
:1015A0004FEAD00E05490B78012202FA0EF223EA27
:1015B00002030B705DF804FB704700BFD8A5002044
:1015C00005484FF0FF010170002080F309880348AF
:1015D000016881F30888704722ED00E0B004002024
:1015E000034690B1A3B103B1B1B100B518784FF083
:1015F000000E0A7800F0070002F00702F6450ED848
:101600000ED190420AD30BD909E00029EAD101E0BA
:101610000029E8D0084670471946FBE719460846F6
:101620005DF804FB10B5044603786FF3C50303703F
:10163000DBB26FF302030370002343608360838196
:101640000361C362036343638363002242640364F0
:1016500080F85C300366436600F15C017430FFF78C
:1016600086FD04F12400FFF7EDFE04F11400FFF7FE
:10167000E9FE04F11C00FFF7E5FE052384F848307D
:1016800010BD0000F8B54FF4205200211B4807F0B0
:10169000DDFA1B4B1B4A1A60002718E01A4D04EBB9
:1016A000C70655F82600FFF7BDFF55F82620002392
:1016B000D36455F82620536555F82620136545F860
:1016C00026300134E4B2072CE8D90137FFB2072FE6
:1016D00001D80024F7E70D4B00221A705A611A61F5
:1016E000DA600B4B1868FFF79DFF0A4B01221A7056
:1016F000094BF02283F82220F8BD00BFB40400207B
:10170000B0040020B0A40020B4A40020B4A50020A0
:1017100084040020E1A5002000ED00E010B504469F
:10172000C26C92008B21406D07F090FA04F15403D3
:10173000E26C02F18042013A03EB820323F00703DB
:101740004FF0807243F8042C084A22F0010243F85B
:10175000082C074A43F80C2C002243F8202C6FF089
:10176000020243F8242C443B236510BDC118000835
:101770000115000810B584B06846FFF763FE02A8A3
:10178000FFF760FEFFF792FE02460B4602900391C0
:101790000D49D1E90001FFF75AFE02460B46CDE99B
:1017A00000230A4B1C6801341C60FFF7F5FA06EEB3
:1017B000900A07EE904AF8EE677A87EEA67A044B15
:1017C00083ED007A04B010BDA8040020A40400201A
:1017D000A004002000B583B06846FFF733FE354B08
:1017E0001C680CE0FFF762FEE06121626062A162AA
:1017F00012E0022384F848302F4B00221A6094F83C
:101800004830002BFBD1A3652046FFF7B9FE2A4BD9
:101810001C60A36B002BE5D0012384F848302369BA
:1018200020469847A36B0133A363A26D636B9A4272
:1018300000D96263236C13442364626AA36AE0697B
:10184000216AFFF704FE02460B46CDE90023256C12
:10185000FFF7A2FA06EE900A07EE905AB8EE677A02
:10186000C7EE267AC4ED117A9FED147A67EE877A77
:10187000C4ED117AA36D226B13442363A26B012A7A
:1018800001D95B082363A089FFF722FE6062A16291
:10189000A56B002DADD0FFF77FFA06EE900A07EE9C
:1018A000905AF8EE677A87EEA67ABCEEC77A84ED96
:1018B0000B7A9EE790040020840400200000C842B8
:1018C00008B5094B186800B908BD084A13780133F8
:1018D000DBB21370064A1278934201D0FFF77AFF09
:1018E000044B01221A70F9E790040020E2A50020C1
:1018F000B4A50020E4A50020A9B110B50C460A4B00
:101900001B78DBB2022B00D010BD91F84830022BBF
:10191000FAD1486A896AFFF7E5FD0028F4D120462C
:10192000FFF7F0FDF0E77047E1A5002010B590F853
:1019300000C04FEADC020CF0070E0A4B19784FF09A
:10194000010C0CFA02F42143C9B2197013445A78FD
:101950000CFA0EFC42EA0C02D2B25A70042380F850
:10196000483010BDCCA50020034B044A92E8030088
:1019700083E80300704700BF88040020940400201F
:10198000144B1B781BB3134B1A78D2B212498A5CE2
:1019900013445B78DBB2CB5C03EBC2000F4951F818
:1019A000200000B1704710B50A4991F800E04FF0EF
:1019B000010C0CFA02F42EEA040E81F800E00A444D
:1019C00051780CFA03F321EA0303537010BD002091
:1019D000704700BFCCA5002060BB0008B4A4002065
:1019E000074B19680868B0E8F04F1EF0100F08BFE9
:1019F000B0EC108A80F30988BFF36F8F704700BF87
:101A00008804002008B5FFF7EBFF08BD00000000C8
:101A1000EFF30980BFF36F8FDFF850301A681EF0C4
:101A2000100F08BF20ED108A20E9F04F10602DE95B
:101A300009004FF0500080F31188BFF34F8FBFF3C0
:101A40006F8FFFF791FF4FF0000080F3118809BC02
:101A500019680868B0E8F04F1EF0100F08BFB0EC2E
:101A6000108A80F30988BFF36F8F704788040020C5
:101A7000144B1B781BB3134B1A78D2B212498A5CF1
:101A800013445B78DBB2CB5C03EBC2000F4951F827
:101A9000200000B1704710B50A4991F800E04FF0FE
:101AA000010C0CFA02F42EEA040E81F800E00A445C
:101AB00051780CFA03F321EA0303537010BD0020A0
:101AC000704700BFD8A5002060BB0008B4A4002068
:101AD00002484FF0805101607047000004ED00E0C3
:101AE000524B1B78DBB2022B40F09F8070B5504BFD
:101AF0001B78BBB9FFF7BCFF4E4B1860FFF740FFE8
:101B000004464D4B18604D4B1D6895B1494B1E68FE
:101B1000B5426BD02EB131462846FFF761FD8642B3
:101B20003DD070BD0123002245494648FFF770FBB8
:101B3000E0E7B8B13F4B1D6875B3A84205D0014638
:101B40002846FFF74DFD84421BD0AC4219D0394BDB
:101B50001A6802F150013C4B1960526D5A60FFF750
:101B6000B7FFDEE7334B1B6843B103F15001364A40
:101B700011605B6D5360FFF7ABFFD2E7FFF7FAFD33
:101B8000CFE72046FFF7DCFC2B4B1B68022283F8D3
:101B90004820284A1360DAE7264B1860D7E7284622
:101BA000FFF7EEFC254B1868FFF7C0FE224B1C68C0
:101BB00034B1204B19682046FFF712FD84420AD049
:101BC0001C4B1A6802F150011F4B1960526D5A608C
:101BD000FFF77EFFA5E72046FFF7B2FC164B1B6818
:101BE000022283F84820134A1360E9E728B101462E
:101BF0002846FFF7F5FC84420AD00E4B1A6802F122
:101C00005001114B1960526D5A60FFF761FF88E770
:101C10002846FFF78BFE084C2068FFF773FC054B46
:101C200002221A6022681A60E7E77047E1A50020E7
:101C3000E4A50020900400209C04002084040020DF
:101C4000F9180008B8A50020940400200000000046
:101C50002DE9F84F81460E4615461C46744B1B78FD
:101C600053B104EBC503734A52F8233053B14FF01C
:101C7000010A5046BDE8F88FFFF704FD6C4B0122C6
:101C80001A70EEE7882000F09FF98346694F04EB55
:101C9000C50847F828008246C0F8049057F8283055
:101CA0009E603046FEF73EFC02460B465EA1D1E93F
:101CB0000001FEF7DBFD57F82860FEF785FFB081D5
:101CC00057F828300A9A1A6157F82820EB00234366
:101CD000137057F82820002382F85C3057F828202A
:101CE000C2F860B057F82820536657F828300B9A8E
:101CF000DA6457F82860900080B200F065F97065EA
:101D000057F82800436D002B00F08880FFF706FD90
:101D10003E46474656F828304FF00008C3F8588032
:101D200056F8273000225A6456F82730C3F840800E
:101D3000414B197856F8270090F800C0012202FAAA
:101D40000CFC41EAEC01C9B2197090F800C003EB39
:101D5000DC03597802FA0CF202F007020A435A70C7
:101D6000C0F82C8056F82730C3F8308056F827305A
:101D7000C3F8348056F827002430FFF763FB56F889
:101D800027001430FFF75EFB56F827001C30FFF7E2
:101D900059FB56F82790FFF789FBC9F81400C9F8DA
:101DA000181056F82730C3F8388056F8273083F8D3
:101DB0003C8056F82700FFF7A5FB56F82780142033
:101DC00000F002F9C8F8700056F82710086F40B309
:101DD000FFF7CDF9194B1B78B3B956F82710184BFC
:101DE0000222096F1748FFF7A4F904EBC504114B51
:101DF00053F8240000F15C017430FFF7B8F90F4A82
:101E000013780133137034E704EBC503094A52F821
:101E10002330196F0B48FFF7E4F9E6E74FF0000AAB
:101E200027E74FF0000A24E70000000080842E41DD
:101E3000E3A50020B4A40020D8A50020B4A500206C
:101E4000E1150008B8A5002010B549F64040FFF79D
:101E5000A3FA0020FFF788FA0020FFF78BFA114859
:101E6000FFF78EFAFFF7E4FA0F4C2046FFF7EAFA85
:101E7000FFF71CFBC4E90001FFF7FAFD0B4B1860EC
:101E800050B100F150020A4B1A60426D5A60094A83
:101E900093E8030082E80300FFF792FBFFF718FEC8
:101EA00010BD00BFE11A0008A80400209004002023
:101EB0009404002088040020014B1870704700BF74
:101EC000E1A50020064B1B6823B193F84820D2B24D
:101ED000012A00D070479A6D10449865FAE700BF58
:101EE00084040020154A4FF48033136000235360AC
:101EF0000121918203E0124A0021D1540133B3F54C
:101F0000803FF8D30F490E4A0A6000238B800E49A8
:101F10000E48016002F57040C0F8F83FA0F8FC3FA1
:101F2000064B4FF6F870D86011604FF6F071D9602B
:101F300091809960012283F820207047F4A5002049
:101F400000000010ECA50020F8FF0010E8A500201C
:101F50001B4B00E01B681A688242FBD3002B2DD07C
:101F60009A8813FA82F282420BD0828800EB020C2C
:101F700019688C450DD01A68026098421ED018600E
:101F800070479A88818811FA82F292B29A80184634
:101F9000EBE710B41C680B4909688C420CD0196837
:101FA00089880A4482801A6812680260984200D0C8
:101FB00018605DF8044B70470160F7E7704700BF99
:101FC000ECA50020E8A5002070B5044672B62A4BA7
:101FD00093F8203093B1002C43D00834A2B214F00F
:101FE000030F03D022F00302043292B21546224BB3
:101FF0009B689A4239D821490C6807E0FFF772FFC5
:102000001D4B1E4A1A61E6E721461C46A3889342EF
:1020100002D22368002BF7D104F07040184B98428D
:1020200025D1184B1B68A34223D013488369013381
:1020300083610E68083623680B60A388991A082903
:1020400009DC0D4B9A68521B9A605A682A445A6000
:102050000023236006E060198180A280FFF778FFEB
:10206000EFE7002662B6304670BD0026FAE700268C
:10207000F8E70026F6E700BFF4A50020ECA5002055
:1020800000000010E8A50020D8B108B502460D49AF
:10209000CB690133CB61083852F8083C03B108BD65
:1020A00072B632F804CC0B464968A1EB0C015960BA
:1020B00032F8041C9A680A449A60FFF749FF62B636
:1020C000EDE77047F4A5002002460378302B05D0D9
:1020D000302B0AD0302B13D0002014E0417878291F
:1020E0000AD05829F4D103200DE05178622905D097
:1020F0004229EFD1012006E0032004E0012002E0A4
:10210000022000E01A46134613F8011B39B1527839
:102110002E2AF7D15A78002AF4D00420704770474D
:1021200003463038C0B2092810D9A3F16102D2B2F7
:10213000052A07D9A3F14102D2B2052A05D8373BB7
:10214000D8B27047573BD8B27047002070470000A4
:10215000034640785C2800D070479878302837D004
:10216000FAD37428F8D86228F6D3A0F16203122BB0
:10217000F2D801A252F823F0C52100085921000825
:102180005921000859210008592100085921000847
:102190005921000859210008592100085921000837
:1021A0005921000859210008C921000859210008B7
:1021B0005921000859210008D5210008592100089B
:1021C000CD210008082070470A2070470920704779
:1021D000002070470D20BFE770B506460378222B1C
:1021E00002D03546002409E00136FAE7681EFFF701
:1021F000AFFF3055013501350134A4B22B7843B11E
:102200005C2BF3D0222B01D03355F4E70023335558
:10221000F1E73355304670BD2DE9F84306460378A3
:102220002D2B17D04FF0010900203044FFF74CFF51
:102230008046022815D0032816D001280ED000238E
:102240000A27B9F1FF3F12D0002213441E44002494
:10225000234610E04FF0FF390120E6E702231F4636
:10226000EFE701230827ECE702231027E9E7012223
:10227000EBE701360124307858B12E28F9D003FB62
:1022800007F5FFF74DFF2B1804EB840464000136BB
:10229000F1E7B8F1040F13D194B107EE903AF8EEDC
:1022A000677A07EE104AB8EE477AC7EE876A07EEFC
:1022B000909AF8EEE77A67EEA67A17EE900A01E0B8
:1022C00003FB09F0BDE8F88310B504460023826DD6
:1022D000013100F0A8FD20B10146204600F062FE69
:1022E00010BD0020FCE708B5844608460B78272B74
:1022F0000BD02D2B0FD0A3F13002D2B2092A0AD96C
:10230000242B0BD093B9002008BD4A78002AF0D0C6
:10231000FFF71EFFF8E7FFF77FFFF5E74278002A97
:10232000F0D001466046FFF7CFFFEDE7FFF754FF1F
:10233000EAE72DE9F0478CB00646894615461F4668
:102340002022002104A806F081FC99F8028008F000
:102350000F08A84501DA05F1FF3800240CE004F16C
:10236000010A57F82A103046FFF7BDFF0CAB03EB0C
:10237000840444F8200C544605F1FF3CA445EEDCEF
:10238000B8F1070F49D8DFE808F0040A0F151C243C
:102390002E3AD9F8083098470CB0BDE8F087D9F844
:1023A000083004989847F7E7D9F808300599049859
:1023B0009847F1E7D9F80830069A059904989847A4
:1023C000EAE7D9F80840079B069A05990498A047C0
:1023D000E2E7D9F80840089B0093079B069A059905
:1023E0000498A047D8E7D9F80840099B0193089BB7
:1023F0000093079B069A05990498A047CCE7D9F863
:1024000008400A9B0293099B0193089B0093079B3A
:10241000069A05990498A047BEE74FF0FF30BBE746
:1024200008B5044B98664FF480620349184600F0E3
:1024300033FD08BD18A6002084A600200023042B2D
:102440000BDC1946054A52F8232012B101331BB2A6
:10245000F5E7024B43F821007047704790AA00202F
:102460000246002002E01354013080B20B5C002BC6
:10247000F9D1135470478446002318461CF80320F2
:102480007AB110B4CC5C4CB1A24207D1013080B219
:1024900001339BB21CF80320002AF3D15DF8044BF2
:1024A00070477047437803F00F03012B05D9072BC2
:1024B00005D9082B05D8C0687047C0687047C06848
:1024C0007047C068704730B5002306E01A1D00EB66
:1024D00082020021516001331BB2072BF6DD00217F
:1024E000C1860B4601250DE002699E46D41812F8FC
:1024F00003C0BCF1220F15D0BDB924785C2C23D0C9
:1025000001339BB282899A4225D90029ECD1026914
:10251000D418D25C202A01D0002AE5D100222270F2
:102520000125EDE781F00101E6E7C58E072D09D809
:1025300005F1010CA0F836C0043500EB85056C6090
:102540000025DAE70025D8E772445278002AD7D070
:1025500001339BB2D4E730BD10B504460023A0F888
:102560005430B0F850305BB1B0F8523053B3013B47
:102570000E3304EB830321695868FDF729FE00B38D
:10258000B4F852300E3304EB830321695868FFF727
:1025900067FF20B1B4F852300133A4F85230B4F8D8
:1025A000503001339BB2A4F85030052B02D90523DB
:1025B000A4F85030B4F85230042B02D90023A4F808
:1025C000523010BD0423D3E770B5054600240AE05D
:1025D00000211170221D05EB82025168013151600A
:1025E0000CE00134A4B2EB8EA34216D92346221D7F
:1025F00005EB8202526811782229E9D0043305EBF9
:1026000083035E683046FDF7EDFD83B2013BF25C6B
:10261000222AE6D10022F254E3E770BD002301E054
:1026200001331BB2042B0ADC064A52F823000028AF
:10263000F6D090F8602012F0020FF1D000E00020F8
:10264000704700BF90AA002000B583B08DF8071036
:10265000836E01210DF10700C0B2984703B05DF809
:1026600004FB08B5C3898289934200D308BD02697F
:10267000591CC181D15CFFF7E7FFF7E7C38903B9B4
:10268000704710B504460821FFF7DEFFE389013BE0
:10269000E38110BD38B5856E35B10C460846FDF7AF
:1026A000A1FD81B2E0B2A847002038BD10B50446B4
:1026B0000160886850B1037853B1E38E012B18D9BB
:1026C000A169FDF785FDB0B1002202E0012200E022
:1026D000012294F8603062F3000384F86030094905
:1026E0002046FFF7D7FF94F8603013F0010F04D1B4
:1026F00010BD0022EDE70122EBE703492046FFF77A
:10270000C9FFF5E760BC00086CBC000810B50446C2
:1027100090F8603013F0010F19D091B9236859680F
:102720002046FFF7B7FF0C492046FFF7B3FFA1682B
:1027300059B12046FFF7AEFF08492046FFF7AAFF30
:1027400010BD0749FFF7A6FFE8E70649F1E706498C
:10275000FFF7A0FFF4E700BF00BE000804BE0008BA
:102760005CBE0008FCBD000808BE000810B50446A9
:10277000036899680069FDF72BFD68B994F860302B
:1027800043F0010384F8603006492046FFF782FFDA
:102790000023A381E38110BD03492046FFF77AFFA0
:1027A000F6E700BF6CBC000824BE000808B5FFF7C0
:1027B00035FF10B10149FFF76DFF08BD60BC00088F
:1027C0000B7843B14A7802F00F02082A03D002685E
:1027D000127813420DD090F8603013F0010F0BD136
:1027E0004B7813F0100F01D0002070474FF0FF30EE
:1027F00070474FF0FF3070470020704700230B7286
:10280000082304E03032013BDBB2CA54000928B18E
:1028100000F00F02092AF5D95732F4E7C3F1080096
:1028200040B27047002304E00E4A3021D1540133F6
:10283000DBB2082BF8D9437803F00F03012B05D93D
:10284000072B05D9082B05D84068704740687047AA
:102850004068704710B5034C21464068FFF7CEFF33
:10286000204610BD84AA002010B4041E04DB2246BA
:102870000023CB720B2011E06242F9E7114B83FB7E
:10288000023CD317C3EBAC039C4603EB8303A2EBE0
:1028900043030138C0B230330B546246002AEDD1F5
:1028A000002C0ADB1CB90138C0B230230B54C0F134
:1028B0000B0040B25DF8044B70470138C0B22D23C5
:1028C0000B54EFE76766666670B584B004460E4643
:1028D000184B01AD93E8070085E80700164920462C
:1028E000FFF7D8FE29463046FFF7BEFFC0F10B01C7
:1028F00029442046FFF7CEFE10492046FFF7CAFEC6
:10290000002307E004AA1A444FF0300C02F80CCC64
:1029100001331BB20A2BF5DD01A93046FFF76EFF2C
:1029200001A92046FFF7B6FE05492046FFF7B2FE93
:1029300004B070BD4CBE000838BE000844BE00089C
:102940005CBE000870B505460E460846FFF76AFFF4
:1029500001462846FFF79EFEC0F1160424B2002C63
:1029600017DD2D212846FFF76FFE013C24B2002C15
:10297000F7D1737803F00F03012B0CD9072B0FD974
:10298000082B12D9092B15D80D492846FFF782FECE
:1029900005E00424E5E70B492846FFF77BFE70BD00
:1029A00009492846FFF776FEF9E708492846FFF768
:1029B00071FEF4E706492846FFF76CFEEFE700BF1B
:1029C0006CBE000858BE000860BE000864BE000867
:1029D00070BE0008F8B50646876D0F49FFF75AFE2E
:1029E000002401E0013424B2B6F85C309C4211DAD4
:1029F00007EB04156B7803F00F03012BF2D829467F
:102A00003046FFF7DDFE0028ECD129463046FFF7BF
:102A100099FFE7E7F8BD00BF78BE000808B5FFF7EB
:102A2000FDFD08B1FFF7D6FF08BD0000F8B506466A
:102A3000876D1049FFF72EFE002401E0013424B217
:102A4000B6F85C309C4214DA07EB04156B7803F09F
:102A50000F030E3303F00F03052BEFD82946304642
:102A6000FFF7AEFE0028E9D129463046FFF76AFF9E
:102A7000E4E7F8BD8CBE000808B5FFF7CFFD08B14C
:102A8000FFF7D4FF08BD0000F8B50646876D0F4973
:102A9000FFF700FE002401E0013424B2B6F85C30F8
:102AA0009C4211DA07EB04156B7803F00F03082B37
:102AB000F2D129463046FFF783FE0028ECD12946A3
:102AC0003046FFF73FFFE7E7F8BD00BF9CBE0008B8
:102AD00008B5FFF7A3FD08B1FFF7D6FF08BD00005A
:102AE000F8B50646876D0F49FFF7D4FD002401E0D5
:102AF000013424B2B6F85C309C4211DA07EB0415BD
:102B00006B7803F00F03092BF2D129463046FFF70B
:102B100057FE0028ECD129463046FFF713FFE7E7C0
:102B2000F8BD00BFACBE000808B5FFF777FD08B1DF
:102B3000FFF7D6FF08BD08B5FFF74CFF08BD000042
:102B400038B5054604E005492846FFF7A3FD2146B0
:102B50004B1EDCB20029F6D138BD00BFBCBE000858
:102B600038B505468489C389E41A24B205E02021DA
:102B70002846FFF769FD013C24B2002CF7DC297BD5
:102B80002846FFF7DDFF38BD10B50446002919DDE2
:102B9000B0F95420531EA0F85430B0F85230B0F8B9
:102BA00050108B4238BF0B4659428A4201DCA4F8D0
:102BB00054102046FFF7D4FFB4F9543083B9A381F1
:102BC000E38110BD0029FCDAB0F9543001331BB2A7
:102BD000A0F85430002BECDD0023A0F85430F0E7CF
:102BE000B4F8522005321A440C4981FB0231D31744
:102BF000C3EB610303EB8303D31A0E3304EB8303AC
:102C000059682069FFF72CFCA0810028D9D0E08109
:102C100021692046FFF73EFDD3E700BF6766666681
:102C200008B50121FFF7B0FF08BD08B54FF0FF312F
:102C3000FFF7AAFF08BD00002DE9F84F0546B0F8E0
:102C400034A0838943B102694FF0000802F8038081
:102C5000876D4446C14624E0FFF76DFF01212846F9
:102C6000FFF754FD5EE007EB081841462846FFF7E2
:102C700069FE4046FFF7D6FD80463046FFF7D2FD9D
:102C800001464046FFF7F7FB824528BF82461FFA00
:102C90008AFA1FFA84F809F101091FFA89F9013447
:102CA00024B2B5F85C309C421EDA07EB04163146BC
:102CB0002846FFF785FD0028F1D1D5F810B0304641
:102CC000FFF7B0FD01465846FFF7D5FBAB899842A8
:102CD000E5D1B9F1000FDCD0B9F1010FC3D11A4928
:102CE0002846FFF7D7FCBEE7B9F1000F1AD0B9F1BB
:102CF000010F19D02C6907EB08173846FFF792FD32
:102D000001462046FFF7ACFBA881B9F1010F0FD8AF
:102D10002A69AB890021D154AB89EB812969284606
:102D2000FFF7B8FCBDE8F88F2846FFF719FFE1E789
:102D300039462846FFF706FE01212846FFF7E6FC44
:102D4000A5F80CA0E4E700BF5CBE000838B5044657
:102D5000B1F1FF3F14BF00230123C2890AB9012941
:102D600055D0A089824203D0824205D01BB219E01F
:102D7000B1F1FF3FF8D14AE00129F7D1013AE281F0
:102D8000431E9BB2A38122690021D1540121204618
:102D9000FFF7D6FE3BE020691A44551E825C42557F
:102DA00001331BB2A089E289851AAB42F3DB0138FB
:102DB000A081B1F1FF3F06D12269A3890021D1543E
:102DC000B4F90E500DE0013AE28108212046FFF7E8
:102DD0003BFCF1E72369595D2046FFF735FC0135DF
:102DE0002DB2A3899D42F5DB20212046FFF72CFC64
:102DF000A589E389ED1AADB201352DB205E00821B0
:102E00002046FFF721FC013D2DB2002DF7DC38BD37
:102E100008B50121FFF79AFF08BD08B54FF0FF3153
:102E2000FFF794FF08BD2DE9F04780468A46174614
:102E30009946B0F85C60836DD31AC3F30F13F31A8D
:102E40009EB2002406E04A46504606F091FB00B3CD
:102E50000134A4B2B4421BD207EB041595F801C0AB
:102E60000CF00F0CBCF1090FF2D029464046FFF7D9
:102E7000A7FC0028ECD12846FFF7D4FC0146B9F1A5
:102E8000000FE0D15046FDF7A3F90028E0D100E0A3
:102E900000252846BDE8F08710B50446002383814D
:102EA000C381A0F85430A0F85030A0F8523003602D
:102EB00090F8600040F0010084F86000216116483D
:102EC000A0FB022C4FEA9C0CA4F834C009E003FBE1
:102ED0000CC0084403F10E0204EB8202506001337F
:102EE0001BB2042BF3DD0D4AA2650D4B9B1A1B0987
:102EF000A4F85C302046FFF7A1FA0023A26D09492F
:102F00002046FFF790FF01462046FFF7CFFB012147
:102F10002046FFF7FBFB10BDABAAAAAA40BA0008E7
:102F200060BB0008C0BE000870B504460D46FFF740
:102F300075FB20B10646012C02D0012C03DC70BDCC
:102F4000FFF7F9FDFBE70023826D6968FFF76BFF70
:102F50000446D8B110493046FFF79CFB2046FFF7E6
:102F600061FC01463046FFF795FB0C4D2946304683
:102F7000FFF790FB2046FFF795FA01463046FFF732
:102F800089FB29463046FFF785FBD8E704493046E0
:102F9000FFF780FBD3E700BFD0BE00085CBE00088F
:102FA000E4BE000808B54B7803F00F03023B052B85
:102FB00016D8DFE803F003060A0D0D0F8B681868BA
:102FC00008BD8B68B3F90000FAE78B681878F7E75B
:102FD0008868F5E78A68536823B110689847EFE777
:102FE0000020EDE70020EBE770B584B004460D4605
:102FF000274B93E8070004AB03E907002946204666
:10300000FFF7D0FF064669682046FFF743FB2149DA
:103010002046FFF73FFB6B7803F00F03052B10D022
:1030200001A93046FFF720FCC0F10B0101AB1944A8
:103030002046FFF72FFB18492046FFF72BFB002304
:1030400015E0164D29462046FFF724FB3146204661
:10305000FFF720FB29462046FFF71CFB11E004AADE
:103060001A444FF0300C02F80CCC01331BB20A2B7F
:10307000F5DD01A93046FFF7C1FB01A92046FFF7A6
:1030800009FB07492046FFF705FB304604B070BD39
:103090004CBE0008F8BE000844BE0008FCBE000894
:1030A0005CBE000870B505460C464B7813F0400F27
:1030B0000AD14B7803F00F03023B052B07D8DFE85A
:1030C00003F00B0E1114191D1249FFF7E3FA214604
:1030D0002846FFF789FF70BDA3681A60F7E7A36869
:1030E0001A80F4E7A3681A70F1E71146A068FFF7A9
:1030F000B7F9ECE70849FFF7CDFAE8E7A3689E685F
:10310000002EE4D0186810B11146B047DFE7104632
:10311000B047DCE700BF00081CBF000870B50446DC
:103120000D46FFF77BFA20B306460023826D214649
:10313000FFF779FE014660B1437803F00F030E33C9
:1031400003F00F03052B0AD82A463046FFF7AAFFE3
:1031500070BD09493046FFF79DFA0020F8E7214687
:103160003046FFF797FA05493046FFF793FA0020FB
:10317000EEE70020ECE700BF30BF000840BF0008CA
:1031800070B504460D4690F8603043F0020380F8B5
:1031900060304B7813F00F0314D0012B23D04A7802
:1031A00002F00F020E3202F00F02052A2AD9082B74
:1031B0002CD0002694F860306FF3410384F860301F
:1031C000304670BDFFF700FAAB6804F11401E08EE1
:1031D000984706466B7813F0200FEBD10146204646
:1031E000FFF772FBE6E700F11403C28EFFF7A1F8C8
:1031F00006466B7813F0200FDCD101462046FFF71E
:1032000063FBD7E7FFF7F0FE0026D3E7FFF74EFAA0
:103210000026CFE783895BB310B50446026900211D
:10322000D15490F8603013F0010F1ED0FFF794F9DD
:103230002046FFF748F90023E381A381E38EB3B171
:103240000C492046FFF726FA0023A26D616920464B
:10325000FFF7E9FD014618B12046FFF791FF06E0B0
:1032600005492046FFF716FA01E0FFF77FFA10BD87
:10327000704700BF5CBE0008E4BE000810B50446FD
:10328000FFF7C8FF01212046FFF740FA10BD38B50F
:1032900004460D4662B9D0F8123001209847D4F8A0
:1032A0001A3028469847D4F812300020984738BD85
:1032B000D0F8123000209847F1E7000070B50546BD
:1032C0000C4600228D21FFF7E2FF14B9074E0024BF
:1032D00008E0074EFBE70022315D2846FFF7D7FFE5
:1032E0000134E4B2012CF6D970BD00BFDCCA00087D
:1032F000D8CA000870B5054600260BE0012200215F
:103300002846FFF7C4FF0134E4B214F0800FF5D073
:103310000136F6B2072E12D8A6F150010022C9B22A
:103320002846FFF7B4FF002211462846FFF7AFFFFB
:10333000002210212846FFF7AAFF0024E5E770BD10
:103340008020704740207047B0B3F8B50E4607465E
:10335000A1B3002519E003EBC50256F82220125D47
:103360009A401143C9B20133DBB2072BF3D90122D2
:103370003846FFF78CFF0134E4B214F0800F02D11D
:1033800000210B46F1E70135EDB2072D12D8A5F16A
:1033900050010022C9B23846FFF779FF00221146DA
:1033A0003846FFF774FF002210213846FFF76FFF01
:1033B0000024E2E70120F8BD002070470020FAE772
:1033C0000120704710B50446D0F816304079984770
:1033D000D4F80A309847D4F806309847D4F80E301D
:1033E000012098476420FDF7B3FFD4F80E30002089
:1033F00098470022AE212046FFF749FF0022D52141
:103400002046FFF744FF002250212046FFF73FFFF0
:103410000022A8212046FFF73AFF00223F21204644
:10342000FFF735FF0022D3212046FFF730FF0022AF
:1034300011462046FFF72BFF002240212046FFF7D0
:1034400026FF00228D212046FFF721FF00221421B4
:103450002046FFF71CFF002214212046FFF717FF2C
:10346000002220212046FFF712FF002202212046E1
:10347000FFF70DFF0022A0212046FFF708FF0022E2
:10348000C8212046FFF703FF0022DA212046FFF77C
:10349000FEFE002212212046FFF7F9FE00228121C4
:1034A0002046FFF7F4FE0022EF212046FFF7EFFE53
:1034B0000022D9212046FFF7EAFE0022F121204612
:1034C000FFF7E5FE0022DB212046FFF7E0FE0022A9
:1034D00030212046FFF7DBFE0022A4212046FFF723
:1034E000D6FE0022A6212046FFF7D1FE0022AF2102
:1034F0002046FFF7CCFE2046FFF7FCFE012010BD62
:1035000008B5084B187004225A7002225A80012212
:103510009A80054AC2F80130044A1268184690475A
:1035200008BD00BFA4AA0020BCAA002008010020FA
:1035300008B50146034BDB68034AD2F801009847FF
:1035400008BD00BF08010020BCAA002070B50A4CCD
:1035500008232360094BA3600223A3800025257361
:10356000074E33682A46294620469847B3682946BD
:103570002046984770BD00BFACAA0020000C024056
:103580002401002070B50A4C08232360094BA36076
:103590000123A38000252573074E33682A46294658
:1035A00020469847B36829462046984770BD00BF1B
:1035B000DCAA0020000C02402401002008B520B144
:1035C0000146012802D0002100E00221024B9B6845
:1035D0000248984708BD00BF24010020ACAA002083
:1035E00008B520B10146012802D0002100E00221E7
:1035F000024B9B680248984708BD00BF2401002089
:10360000DCAA00200C4B00221A705A710B4AC3F836
:1036100016200B4AC3F81A200A4AC3F806200A4AA1
:10362000C3F80E20094AC3F80A20094AC3F8122039
:103630000120084B18707047BCAA00200135000813
:103640003135000885350008E13500084D350008A2
:10365000BD350008EDAA002008B5084B00221A70FD
:10366000FFF7D0FF38B1064B1B680648984710B1EA
:10367000024B01221A70014B187808BDECAA0020F9
:1036800000000020BCAA002010B5054B1C7824B116
:103690000146044B9B6804489847204610BD00BF74
:1036A000ECAA002000000020BCAA002010B582B0C7
:1036B0000B4C636998478DF80000A36998478DF813
:1036C0000100BDF80030ADF8043000209DF8043052
:1036D00063F307009DF8053063F30F2002B010BDBF
:1036E0000000002008B5034B9B680BB1984708BD4C
:1036F0000020FCE71C000020014B187701207047D8
:10370000F8AA0020014B587701207047F8AA002042
:103710002DE9F04788B04A4B5F7F012F00F0898088
:10372000022F00F08A80002F43D0002008B0BDE8AF
:10373000F087DFF814A1DAF8003053F8248018F885
:103740000560DFF80091D9F80C309847ADF800001B
:103750009DF80030013B5B1BDAF8002052F8241082
:1037600018F803304B5552F82480D9F80C3098479C
:10377000ADF804009DF80430013B5B1B08F80360C2
:103780000134E4B22F4BDB689847ADF808009DF890
:103790000930A342CDD80135EDB22A4BDB689847FA
:1037A000ADF80C009DF80C30B5EB530F03D23C463E
:1037B000E8E73D46F1E70120B8E7DFF88C80D8F86C
:1037C000009059F825301E5D1E4FFB689847ADF8F4
:1037D00010009DF81130013B5B1B59F82320D8F8ED
:1037E000008058F82530125D1A55FB689847ADF8EF
:1037F00014009DF81530013B5B1B58F823301E5513
:103800000134E4B20F4BDB689847ADF818009DF81F
:103810001830A342D1D80135EDB20A4BDB68984786
:10382000ADF81C009DF81D30B5EB530F03D20024FA
:10383000E8E70025F1E7012078E7012076E700BFFF
:10384000F8AA00201C0000201CAB002018B1034A7D
:103850001060406970470020704700BFF0AA002048
:10386000014B1868704700BFF0AA002008B5FFF7A9
:10387000F7FF034600B10369184608BD08B5FFF716
:10388000EFFF18B1C3781BB9022008BD0020FCE788
:103890000120FAE738B505460C46FFF7E1FF28B1ED
:1038A0000571FFF7DDFF4471012038BD0020FCE702
:1038B00030B583B0124DEB689847ADF800009DF825
:1038C0000040EB689847ADF804009DF805500020D3
:1038D000A84213D2002305E052F820200021D15441
:1038E0000133DBB2A34206D2064A1268002AF3D1A2
:1038F000002003B030BD0130C0B2E9E70120F8E795
:103900001C0000201CAB002001238340024A1078D9
:1039100018431070704700BFF4AA0020014B1878BC
:10392000704700BF84000020054B1A7812F0020F88
:1039300005D1012303FA00F01043014B18707047C2
:103940008400002001238340024A107820EA03000B
:1039500010707047840000202DE9F84381460E4620
:103960001746FFF77DFF0446DFF82480C37982798C
:1039700090F9051090F90400D8F80050A847D8F83D
:1039800004803B4632464946A068C047BDE8F883FC
:10399000A80000202DE9F04782B082460E46174667
:1039A0009846FFF75DFF0446DFF83090C3798279CF
:1039B00090F9051090F90400D9F80050A847D9F8FB
:1039C0001490A1689DF828300193CDF800803B4603
:1039D00032465046C84702B0BDE8F087A800002034
:1039E0002DE9F04782B082460E4617469846FFF70B
:1039F00037FF0446DFF83090C379827990F90510DB
:103A000090F90400D9F80050A847D9F80C90A168A3
:103A10009DF828300193CDF800803B463246504651
:103A2000C84702B0BDE8F087A80000202DE9F047A4
:103A300082B082460E4617469846FFF711FF0446AD
:103A4000DFF83090C379827990F9051090F904007D
:103A5000D9F80050A847D9F81090A1689DF82830EF
:103A60000193CDF800803B4632465046C84702B02D
:103A7000BDE8F087A80000202DE9F04784B0824619
:103A80000E4617469846FFF7EBFE0446DFF83890DF
:103A9000C379827990F9051090F90400D9F80050A3
:103AA000A847D9F82090A0689DF8343002939DF87B
:103AB00030300193CDF800803B4632465146C8472E
:103AC00004B0BDE8F08700BFA80000202DE9F04752
:103AD00082B082460E4617469846FFF7C1FE04465E
:103AE000DFF83090C379827990F9051090F90400DD
:103AF000D9F80050A847D9F82490A0689DF828303C
:103B00000193CDF800803B4632465146C84702B08B
:103B1000BDE8F087A80000202DE9F04782B082467A
:103B20000E4617469846FFF79BFE0446DFF8309096
:103B3000C379827990F9051090F90400D9F8005002
:103B4000A847D9F82890A0689DF828300193CDF8AF
:103B500000803B4632465146C84702B0BDE8F08778
:103B6000A80000202DE9F04383B081460E46174699
:103B7000FFF776FE0446DFF83480C379827990F946
:103B8000051090F90400D8F80050A847D8F808802C
:103B9000A0689DF8283001930F2300933B463246DE
:103BA0004946C04703B0BDE8F08300BFA80000202D
:103BB0002DE9F04782B082460E4617469846FFF739
:103BC0004FFE0446DFF83090C379827990F90510F2
:103BD00090F90400D9F80050A847D9F80890A068D7
:103BE0009DF82C300193CDF800803B46324651467B
:103BF000C84702B0BDE8F087A80000202DE9F047D3
:103C000084B082460E4617469846FFF729FE0446C2
:103C1000DFF83C90C379827990F9051090F904009F
:103C2000D9F80050A847D9F81C90A0689DF8383002
:103C300003939DF8343002939DF830300193CDF812
:103C400000803B4632465146C84704B0BDE8F08785
:103C5000A80000202DE9F04784B082460E461746A2
:103C60009846FFF7FDFD0446DFF83890C379827966
:103C700090F9051090F90400D9F80050A847D9F838
:103C80001890A0689DF8343002939DF8303001936D
:103C9000CDF800803B4632465146C84704B0BDE8E7
:103CA000F08700BFA80000202DE9F04784B08246CD
:103CB0000E4617469846FFF7D3FD0446DFF83890C6
:103CC000C379827990F9051090F90400D9F8005071
:103CD000A847D9F83890A0689DF8343002939DF831
:103CE00030300193CDF800803B4632465146C847FC
:103CF00004B0BDE8F08700BFA80000202DE9F04720
:103D000082B082460E4617469846FFF7A9FD044644
:103D1000DFF83090C379827990F9051090F90400AA
:103D2000D9F80050A847D9F83090A068CDF80480A1
:103D30000F2300933B4632465146C84702B0BDE8C8
:103D4000F08700BFA80000202DE9F04782B082462E
:103D50000E4617469846FFF783FD0446DFF830907D
:103D6000C379827990F9051090F90400D9F80050D0
:103D7000A847D9F83090A0689DF828300193CDF875
:103D800000803B4632465146C84702B0BDE8F08746
:103D9000A80000202DE9F04782B082460E46174663
:103DA0009846FFF75DFD0446DFF83090C3798279CD
:103DB00090F9051090F90400D9F80050A847D9F8F7
:103DC0003490A0689DF828300193CDF800803B46E0
:103DD00032465146C84702B0BDE8F087A80000202F
:103DE00010B582B0FFF73CFD002833D00378CBB983
:103DF000FFF736FD0346C07890B90122DA70164B02
:103E00009C69CCB1FFF72CFD016A2046FDF7E9F96A
:103E10000220FFF789FD104A137801331370012047
:103E200002B010BDC3798279012101910091002176
:103E30000846FFF70FFFDBE7FFF712FD046A064BAA
:103E40009C61FFF70DFD00230122016A2046FDF76A
:103E500070F9DDE70020E3E7F8AA002008B5FFF7D6
:103E60005DFD10F0100F17D00220FFF75DFD3B4BFA
:103E700000221A7010E03A4B1B68984730B30020BC
:103E8000FFF760FD0220FFF74FFD344A137801333E
:103E9000DBB21370052B59D0FFF740FD0346002815
:103EA00059D02E4A1278134113F0010FEDD0042A95
:103EB00052D801A353F822F0773E0008593F00087A
:103EC000DB3E0008F73E0008553F00080020FFF7E2
:103ED0001BFD0120FFF728FDD7E7FFF7E9FC30B114
:103EE0000220FFF72FFD0320FFF71EFDCDE7012085
:103EF000FFF71AFDC9E71B4B5B7A002BC5D0194BA6
:103F00001B78E3B100231A46174916488069FDF76C
:103F10007FF968B9FFF7FCFB114B5B68134A106827
:103F200098470320FFF70EFD0420FFF7FDFCACE7E8
:103F30000120FFF7E9FC0120FFF7F6FCA5E70220CE
:103F4000FFF7E2FC0120FFF7EFFC9EE7134600229B
:103F50001A70A1E7012008BD0020FCE718AB002083
:103F60001C000020F8AA0020713F00081CAB0020B4
:103F70002DE9F04186B00C46B1F904309BB98D793A
:103F8000334BDB689847ADF804009DF804309D4240
:103F900009D3E5792E4BDB689847ADF808009DF80A
:103FA00009309D422ED294F90550EDB247E0294FD9
:103FB0003B6853F82580264EF3689847ADF80C000F
:103FC0009DF80C200021404604F032FE3B6853F877
:103FD0002570A36853F82580F3689847ADF8100062
:103FE0009DF810204146384604F022FE0135EDB21E
:103FF000174BDB689847ADF814009DF81530AB42BD
:10400000D5D822E00025F3E7124B1E6856F82500AC
:1040100094F90430A2790021184404F017FE56F8F0
:10402000256094F90400A16894F90530EB1AA2798F
:1040300051F82310304404F0FBFD0135EDB294F942
:104040000530E27913449D42DEDB06B0BDE8F08125
:104050001C0000201CAB002010B5FFF701FC88B14C
:10406000002408E083688279002153F8240004F0DA
:10407000EDFD0134E4B2FFF7F3FBC379A342F1D8BD
:10408000012010BD0020FCE708B5FDF715FA054B2F
:104090005B68C31A312B03D9024B5860012008BD5D
:1040A0000020FCE7F8AA002000282FD0F8B505462C
:1040B00003680BB90020F8BDDE799F79186AFDF717
:1040C000E3FF2B689868FDF7DFFF002407E02B680B
:1040D0009B6853F82400FDF7D7FF0134E4B2B442E3
:1040E000F5D307FB06F60A4B1A6932441A61D96800
:1040F0008E1BDE605B699A4201D90020DBE72868ED
:10410000FDF7C2FF00232B600120D4E70020704799
:10411000F8AA002010B5FFF7A3FBC0B10E4A127831
:10412000012A16D9C47814B90124204610BD0021F3
:10413000006AFDF78EF80220FFF7F6FBFFF790FB11
:104140000023C370044A1378013B1370EDE7002489
:10415000EBE70024E9E700BFF8AA002000B589B02A
:104160000B480369026B816B0691416B05910492C8
:10417000C26A039202938368019343680093C36900
:104180008269016A006800F0CBF809B05DF804FBB1
:10419000480000202DE9F04F87B082468946174637
:1041A00098465A4B5E69002E4DD1594CE3689847AA
:1041B000ADF800009DF80150E3689847ADF80400A1
:1041C0009DF8043005FB03F3504A536103EB83036E
:1041D00053611361E3689847ADF808009DF8090042
:1041E0008000FDF7F1FE4B4B1860002845D00024FD
:1041F000474BDB689847ADF814009DF81530A34293
:104200001FD9434BDB689847ADF80C00414DD5F8FA
:1042100000B09DF80C00FDF7D7FE4BF824002B688A
:1042200053F824504DB33A4BDB689847ADF8100073
:104230009DF810200021284604F008FD0134E4B266
:10424000D6E7FFF78BFF3020FDF7BEFE06460028BD
:1042500054D080F804A080F80590877180F807801A
:104260000123437000238370109B8361274B1B69DC
:1042700007FB08F94B4504D20026304607B0BDE8DD
:10428000F08F4FEA8800FDF79FFEB060002837D01E
:104290000024444510D2B5683846FDF795FE45F830
:1042A0002400B36853F8240060B33A46002104F0B8
:1042B000CDFC0134E4B2ECE7144B1A69A2EB09021D
:1042C0001A61DA684A44DA605A7A01325A72124B39
:1042D0003361124B73611420FDF776FE306298B1A2
:1042E0003146FCF744FF9DF8443033700023F370EF
:1042F0007362737786F82830F362BEE70026BCE766
:104300000026BAE70026B8E70026B6E7F8AA00209C
:104310001C0000201CAB0020480000202C000020C6
:1043200030B40A4C029D6561039DA561A160606087
:104330002261E360049B2360059B2362069B63620A
:10434000089BA362079BE36130BC704720AB002051
:1043500010B4044CE370A270207061705DF8044BDF
:10436000704700BF4CAB002010B40C4C94F802C056
:1043700061450BDAE478A24208DA002906DB002A5C
:1043800004DB33B150F8223001225A545DF8044B5B
:10439000704750F8223000225A54F7E74CAB002007
:1043A0002DE9F04F83B01F469DF930A09DF834B041
:1043B000203AD3B201932F4B9B78BB4254DD814608
:1043C00088465446002300933EE0019B03EB4303E1
:1043D000294A02EB8303009A9E5C41E08BF00103C3
:1043E00058F82420D25D9B1A18BF01232246394673
:1043F0004046FFF7B9FF7600F6B2013464B2A4EB91
:104400000A034B4519DA0135EDB2072D18D8194AC0
:10441000137892781344BB4228DD16F0800FDDD06C
:1044200058F82430DB5DBBEB030318BF01232246A1
:1044300039464046FFF798FFDDE701377FB2544623
:10444000009B0133DBB20093009B4B450AD2B9F1CC
:104450000C0FBAD0094B019A03EB0213009A9E5C31
:104460000025D2E7012002E0002000E0002003B098
:10447000BDE8F08F4CAB002074C00008E8C4000811
:104480002DE9F04383B007460E4615461C469DF9BC
:1044900028909DF82C8002E0083464B201352A7817
:1044A00052B1CDF80480CDF800902346314638460D
:1044B000FFF776FF0028EFD103B0BDE8F0830020BE
:1044C00002E00830C0B201310B78002BF9D17047FF
:1044D0002DE9F04F85B00090884691469DF8402028
:1044E0000192DBB2C9B2A3EB010A4FFA8AFA9DF836
:1044F00038005FFA89F2A0EB020B4FFA8BFBBAF19E
:10450000000F0EDD01230293BBF1000F16DD012326
:104510000393DA451FDD0FFA8AF700263546344645
:104520001EE0BAF1000F06D0CB1A4FFA83FA4FF013
:10453000FF330293E8E7CDF808A0E5E7BBF1000FF1
:1045400006D0121A4FFA82FB4FF0FF330393E0E7D5
:10455000CDF80CB0DDE70FFA8BF7DEE70136F6B2E7
:10456000B7421EDB019B4A4641460098FFF7FCFE1E
:104570005444E2B264B25D44EBB26DB221B2B942CE
:1045800005DBD21B54B2029A90444FFA88F82AB243
:10459000BA42E3DBDB1B5DB2039B99444FFA89F916
:1045A000DCE705B0BDE8F08F10B584B013449DF88A
:1045B0001C4002949DF8184001945BB200930B4696
:1045C000FFF786FF04B010BD10B584B00B449DF812
:1045D0001C4002949DF81840019400925BB2FFF7D2
:1045E00077FF04B010BD2DE9F04F85B0044601916E
:1045F000029203939DF938709DF83C509DF84060FD
:1046000015F0010F0BD115F0020F24D115F0080F92
:104610003ED115F0040F58D105B0BDE8F08F9DF8DC
:104620000C809DF804A008EB0A015FFA87F99DF859
:1046300008B0A9EB0B02334652B249B2FFF794FE21
:1046400008EB0B01A9EB0A02334652B249B22046ED
:10465000FFF78AFED7E79DF80C809DF804A0A8EB31
:104660000A015FFA87F99DF808B0A9EB0B023346FF
:1046700052B249B22046FFF777FEA8EB0B01A9EB37
:104680000A02334652B249B22046FFF76DFEBDE73B
:104690009DF80C809DF8049008EB09015FFA87FAF9
:1046A0009DF808B00AEB0B02334652B249B22046DD
:1046B000FFF75AFE08EB0B0109EB0A02334652B230
:1046C00049B22046FFF750FEA3E79DF80C809DF805
:1046D0000490A8EB0901FFB29DF808507A193346FF
:1046E00052B249B22046FFF73FFEA8EB050109EBA5
:1046F0000702334652B249B22046FFF735FE8BE738
:104700002DE9F04F87B00490059191469DF840A0A7
:104710009DF844B0C3F1010464B2C3EBC3184FEA7F
:1047200048084FFA88F85EB2CDF808B0CDF804A07A
:1047300000920B4632460021FFF755FF0025012766
:104740001BE0013E76B208F102034FFA83F854FAF7
:1047500083F464B201356DB2BB1C5FB254FA83F4CA
:1047600064B2CDF808B0CDF804A0CDF80090059B58
:10477000324629460498FFF736FFB54202DA002C8C
:10478000DFDAE7E707B0BDE8F08F10B582B09DF83B
:10479000144001949DF810400094FFF7B1FF02B05F
:1047A00010BD2DE9F04784B080460E4617469DF8AF
:1047B00034909DF838A05D18EDB2013D6DB29DF8C2
:1047C00030401444E4B2013C64B2CDF808A0CDF806
:1047D000049000922B46FFF77BFECDF808A0CDF8A1
:1047E0000490009433463A4631464046FFF770FE47
:1047F000CDF808A0CDF8049000942B463A462946FF
:104800004046FFF765FECDF808A0CDF8049000946F
:104810002B46224631464046FFF75AFE04B0BDE81B
:10482000F0872DE9F04F89B004469DF84C709DF853
:1048300050B09DF8545004919DF8101001EB0709F9
:104840004FFA89F905929DF8142002EB07084FFAF8
:1048500088F81944C9B2CE1B013E76B29DF84830A3
:104860001344DBB2DA1B013A4FFA82FA01394FFAEC
:1048700081FCCDF818C0013B5BB20793019504237E
:1048800000933B4652464946FFF73AFF0295CDF862
:1048900004B0CDF800A004990B4642462046FFF72D
:1048A00017FE0195082300933B46524631462046A9
:1048B000FFF726FF0295CDF804B0079A0092334621
:1048C00049462046FFF704FE0195022300933B462C
:1048D000424649462046FFF713FF0295CDF804B043
:1048E000059A0092334649462046FFF7F1FD0195AF
:1048F000012300933B46424631462046FFF700FF26
:104900000295CDF804B0CDF800A006990B464246BA
:104910002046FFF7DDFD09B0BDE8F08F2DE9F04F2F
:1049200087B004460291039204939DF940709DF86C
:1049300044509DF8486015F0010F0BD115F0020F9F
:1049400031D115F0080F58D115F0040F78D107B008
:10495000BDE8F08F9DF810809DF8089008EB0901E4
:10496000FAB29DF80CA00592A2EB0A020AF101032B
:1049700001964FF0010BCDF800B0DBB252B249B254
:10498000FFF712FE08EB0A01059BA3EB090209EBF6
:104990000B030196CDF800B0DBB252B249B220460B
:1049A000FFF702FECAE79DF810809DF80890A8EB7B
:1049B0000901FAB29DF80CA00592A2EB0A020AF1D5
:1049C000010301964FF0010BCDF800B0DBB252B2FB
:1049D00049B22046FFF7E8FDA8EB0A01059BA3EBCF
:1049E000090209EB0B030196CDF800B0DBB252B21D
:1049F00049B22046FFF7D8FDA3E79DF810809DF847
:104A0000089008EB09019DF80CB00BF10103019629
:104A10004FF0010ACDF800A0DBB23A4649B2204679
:104A2000FFF7C2FD08EB0B0109EB0A030196CDF875
:104A300000A0DBB23A4649B22046FFF7B5FD83E756
:104A40009DF810509DF80880A5EB08019DF80CA07A
:104A50000AF1010301964FF00109CDF80090DBB295
:104A60003A4649B22046FFF79FFDA5EB0A0108EB45
:104A700009030196CDF80090DBB23A4649B22046D0
:104A8000FFF792FD63E72DE9F04F87B004900591A1
:104A900091469DF840A09DF844B0C3F1010464B272
:104AA000C3EBC3184FEA48084FFA88F85EB2CDF856
:104AB00008B0CDF804A000920B4632460021FFF763
:104AC0002DFF002501271BE0013E76B208F102030D
:104AD0004FFA83F854FA83F464B201356DB2BB1C0B
:104AE0005FB254FA83F464B2CDF808B0CDF804A0F4
:104AF000CDF80090059B324629460498FFF70EFF3B
:104B0000B54202DA002CDFDAE7E707B0BDE8F08F44
:104B10002DE9F84F80468A4616469B469DF8287038
:104B20009DF82C900D460CE04B4622462946404607
:104B3000FFF71AFC013464B2F3199C42F4DB01352F
:104B40006DB20AEB0B039D4201DA3446F4E7BDE88F
:104B5000F88F2DE9F04F87B0074691469DF840B099
:104B60009DF844509DF8488002919DF8084004EB60
:104B7000050A4FFA8AFA6E00F6B205939B1BCDF830
:104B80000480CDF800B0DBB25146FFF7C1FF5FFAF9
:104B900089F0039000EB05094FFA89F96B1CDAB232
:104BA000ABEB0606F6B2CDF80480731EDBB20093C1
:104BB000049213464A4602993846FFF7A9FF059A20
:104BC0001444E4B2641B64B2CDF804800096049BE4
:104BD0004A4621463846FFF79BFFCDF80480022362
:104BE00000932B464A4651463846FFF74CFFCDF816
:104BF0000480012300932B464A4621463846FFF79E
:104C000042FF039800EB0B06F6B2761BF6B2023EAB
:104C100076B2CDF80480042300932B4632465146E9
:104C20003846FFF730FFCDF80480082300932B4669
:104C3000324621463846FFF726FF07B0BDE8F08F21
:104C400070B586B004460D461E46094903A804F017
:104C50006FFC9DF82C3001939DF92830009333466A
:104C600003AA29462046FFF70BFC06B070BD00BF23
:104C7000E0CA000840F0BF6040F40030014BD8604B
:104C8000704700BF00ED00E0C378FBB1154BDB6857
:104C9000DB43C3F30222C2F10401C9B20F23134163
:104CA00042788A40D2B281780B4013431B01DBB2B9
:104CB00002780D490A4482F80033037803F01F009C
:104CC0005B090122824041F823207047037803F0FA
:104CD0001F015B0901228A402033034941F8232048
:104CE000704700BF00ED00E000E100E0042806D0BE
:104CF0004FF0E022136923F00403136170474FF073
:104D0000E022136943F0040313617047036823F042
:104D1000010303600023036043608360C360036199
:104D2000212343613C4B98422DD03C4B98422ED0DE
:104D30003B4B984230D03B4B984232D03A4B984252
:104D400034D03A4B984235D0394B984236D0394B13
:104D5000984237D0384B984239D0384B98423AD0A5
:104D6000374B98423CD0374B98423ED0364B984216
:104D700040D0364B984241D0354B984242D0354BCB
:104D8000984243D07047103B3D229A607047283BC1
:104D90004FF474629A607047403B4FF474129A600B
:104DA0007047583B4FF074629A607047703B2A4AD4
:104DB000DA607047883B294ADA607047A03B284A8E
:104DC000DA607047B83B4FF03D52DA607047103BF5
:104DD0003D229A607047283B4FF474629A60704796
:104DE000403B4FF474129A607047583B4FF0746226
:104DF0009A607047703B184ADA607047883B174AE0
:104E0000DA607047A03B164ADA607047B83B4FF053
:104E10003D52DA60B6E700BF1060024028600240F1
:104E2000406002405860024070600240886002406A
:104E3000A0600240B8600240106402402864024052
:104E4000406402405864024070640240886402403A
:104E5000A0640240B86402403D000020400F0020E2
:104E600000003D2010B40368134A1A400B68CC6858
:104E700023434C6923438C692343CC6923430C6A45
:104E800023434C6A23438C6A23434C6B23438C6B30
:104E9000234313430360426922F00702CB6A0C6B81
:104EA0002343134343610B6943604B6883608B6802
:104EB000C3605DF8044B70473F801CF021B103686C
:104EC00043F0010303607047036823F001030360AC
:104ED000704741607047406880B27047036813F0C4
:104EE000010F01D001207047002070470B4B984202
:104EF0000DD8A3F20F4311F0005F0AD05B6823F0D6
:104F0000F02323F08213194205D001207047044B8F
:104F1000F1E71B68F3E70020704700BF0F64024011
:104F2000006402400A4B98420AD8A3F20F4311F0E2
:104F3000005F07D021F0F02121F08211D960704785
:104F4000044BF4E721F0F02121F0821199607047C1
:104F50000F64024000640240014B5861704700BF7B
:104F6000003C014000230F2B4ED830B516E0C2683C
:104F70001FFA83FE4FEA4E044FF0030E0EFA04FEB2
:104F800022EA0E02C260C26891F807E00EFA0CFC39
:104F900042EA0C02C26001330F2B34D801229A403E
:104FA0000C68A243F7D104684FEA430C032202FACB
:104FB0000CF26FEA020E24EA0202026002680C7927
:104FC00004FA0CF4224302600A79013AD2B2012AAF
:104FD000CDD882680EEA0202826082684C7904FAB7
:104FE0000CF42243826044689DB24FF0010E0EFA29
:104FF00005FE24EA0E04446044688A79AA4092B20D
:1050000022434260B3E730BD70470369194201D0C3
:10501000012070470020704701837047418370472B
:1050200000B501F007039B0002FA03FCC908083130
:1050300050F821204FF00F0E0EFA03F322EA03037B
:1050400040F8213050F8212042EA0C0240F821209B
:105050005DF804FB10B4294B9B6803F00C03042B90
:1050600023D0082B24D013B1254B036001E0244B3F
:105070000360224CA368C3F303132249CB5CDAB26A
:105080000368D3404360A268C2F382228A5CD2B232
:1050900023FA02F28260A268C2F342328A5CD2B280
:1050A000D340C3605DF8044B7047174B0360E0E7E3
:1050B000124B59685A6802F03F0211F4800F12D067
:1050C000114BB3FBF2F30D4A5268C2F3881202FB94
:1050D00003F30A4A5268C2F3014201325200B3FBA1
:1050E000F2F30360C5E7064BB3FBF2F3034A5268E1
:1050F000C2F3881202FB03F3EBE700BF0038024063
:105100000024F400E800002000127A0021B1054AD2
:10511000136B184310637047024A136B23EA0000B5
:10512000106370470038024021B1054A536B1843A1
:1051300050637047024A536B23EA00005063704784
:105140000038024021B1054A136C184310647047BF
:10515000024A136C23EA00001064704700380240D2
:1051600021B1054A536C184350647047024A536C8E
:1051700023EA0000506470470038024021B1054A1C
:10518000136A184310627047024A136A23EA000048
:10519000106270470038024021B1054A536A184333
:1051A00050627047024A536A23EA00005062704717
:1051B0000038024008B52A4B98420FD0294B98423C
:1051C00017D0294B98421FD0284B984227D0284B04
:1051D00098422FD0274B984237D008BD01214FF479
:1051E0008050FFF7D9FF00214FF48050FFF7D4FF24
:1051F000F3E701214FF48040FFF7C0FF00214FF497
:105200008040FFF7BBFFE8E701214FF40040FFF7C4
:10521000B5FF00214FF40040FFF7B0FFDDE70121AB
:105220004FF40050FFF7B8FF00214FF40050FFF794
:10523000B3FFD2E701214FF48010FFF7ADFF00214B
:105240004FF48010FFF7A8FFC7E701214FF40010CB
:10525000FFF7A2FF00214FF40010FFF79DFFBCE70E
:105260000030014000380040003C00400034014064
:1052700000500140005401402DE9F041038803F43F
:1052800041520F88B1F802808E88CD880C89B1F820
:105290000AE0B1F80CC0CB8947EA08073E43354322
:1052A0002C434EEA040E4CEA0E0C43EA0C03134363
:1052B0000380838B9BB223F400639BB283830B8AAE
:1052C0000382BDE8F08129B103889BB243F040031B
:1052D0000380704703889BB223F040039BB2038096
:1052E0007047808980B27047818170470389194275
:1052F00001D00120704700207047028A83890B404B
:10530000114202D01BB900207047002070470120D5
:105310007047C94389B201827047000008B5364B17
:10532000984215D0354B98421BD0354B984223D02C
:10533000344B98422BD0344B984233D0334B984265
:105340003BD0334B984241D0324B984249D008BDB4
:1053500001211020FFF720FF00211020FFF71CFF84
:10536000F5E701214FF40030FFF708FF00214FF46B
:105370000030FFF703FFEAE701214FF48020FFF739
:10538000FDFE00214FF48020FFF7F8FEDFE701214A
:105390004FF40020FFF7F2FE00214FF40020FFF74A
:1053A000EDFED4E701214FF48010FFF7E7FE002166
:1053B0004FF48010FFF7E2FEC9E701212020FFF73C
:1053C000EBFE00212020FFF7E7FEC0E701214FF0B0
:1053D0008040FFF7D3FE00214FF08040FFF7CEFE64
:1053E000B5E701214FF00040FFF7C8FE00214FF064
:1053F0000040FFF7C3FEAAE7001001400044004050
:1054000000480040004C00400050004000140140A3
:1054100000780040007C004030B585B004460D4661
:10542000038A9BB223F44053CA88134303828389BF
:105430009BB223F4B05323F00C03898828896A892E
:1054400001430A431343A381A38A9BB223F440730D
:10545000AA891343A3826846FFF7FCFD1F4B9C42B9
:1054600005D003F580639C4201D0029B00E0039BC2
:10547000A28912F4004F1FD103EB830303EB8303D4
:105480002A689200B3FBF2F3154AA2FB03125209F9
:105490001101642002FB1033A28912F4004F14D1D1
:1054A0001B0132330E4AA2FB0323C3F343130B4306
:1054B0009BB2238105B030BD03EB830303EB830371
:1054C0002A685200B3FBF2F3DEE7DB003233044A12
:1054D000A2FB0323C3F342130B43E9E7001001408F
:1054E0001F85EB5129B183899BB243F4005383811B
:1054F000704783899BB223F400539BB2838170472A
:10550000C1F30801818070478088C0F308007047AC
:1055100022B1838A9BB2194381827047838AC9432F
:1055200089B2194081827047C1F3421C01F01F010A
:10553000012303FA01F19C4508D0BCF1020F07D00A
:1055400014303AB103681943016070470C30F8E732
:105550001030F6E7036823EA010101607047038811
:10556000194201D00120704700207047C1F3421258
:1055700001F01F0C012303FA0CF3012A0FD0022AB9
:1055800011D0828A92B21340090A012202FA01F173
:10559000028892B20A4053B15AB9002070478289FA
:1055A00092B21340F0E7028A92B21340ECE7002077
:1055B000704701207047090A01238B409BB2DB43EF
:1055C0009BB2038070479DF804C001604260836015
:1055D000BCF1020F14D0BCF1010F17D0009B036186
:1055E000002343614FF480628261C36103624FF420
:1055F00080328262C3620322026343638363704723
:105600000023C3604FF480734362E7E74023C36025
:1056100000234362E2E770B50C4616461D460121A1
:10562000FFF774FD2046FFF771FB2046FFF756FC9D
:105630000028FAD131462046FFF714FC29462046BF
:10564000FFF73CFC70BD000001EBC001014B53F8BB
:105650002100704750AB002010B582B001210846F0
:10566000FFF754FD0F4C072209212046FFF7D8FC15
:1056700007220A212046FFF7D3FC4FF4C0630093B2
:1056800002238DF8043003238DF8053000238DF8B4
:10569000063001238DF8073069462046FFF762FC8B
:1056A00002B010BD0000024010B582B001210846D2
:1056B000FFF72CFD0F4C072202212046FFF7B0FC1C
:1056C000072203212046FFF7ABFC0C2300930223A3
:1056D0008DF8043003238DF8053000238DF8063053
:1056E00001238DF8073069462046FFF73BFC02B0E6
:1056F00010BD00BF0000024010B582B001210220A1
:10570000FFF704FD0F4C07220A212046FFF788FC13
:1057100007220B212046FFF783FC4FF440630093E0
:1057200002238DF8043003238DF8053000238DF813
:10573000063001238DF8073069462046FFF712FC3A
:1057400002B010BD0004024010B582B00121042057
:10575000FFF7DCFC0F4C082206212046FFF760FC17
:10576000082207212046FFF75BFCC0230093022399
:105770008DF8043003238DF8053000238DF80630B2
:1057800001238DF8073069462046FFF7EBFB02B096
:1057900010BD00BF0008024010B582B001210846CC
:1057A000FFF7B4FC114C052206212046FFF738FC18
:1057B000052207212046FFF733FC0522114620462B
:1057C000FFF72EFCE023009302238DF80430002322
:1057D0008DF8063003228DF805208DF807306946D4
:1057E0002046FFF7BFFB02B010BD00BF0000024023
:1057F00070B582B001210220FFF788FC194C052208
:105800000E212046FFF70CFC05220F212046FFF752
:1058100007FC05220D212046FFF702FC4FF4404310
:10582000009302268DF8046000258DF806500323AE
:105830008DF805308DF8075069462046FFF792FB3A
:105840004FF4005300938DF804608DF806508DF8E6
:1058500005608DF8075069462046FFF783FB02B0CC
:1058600070BD00BF0004024010B582B001210420C9
:10587000FFF74CFC114C06220B212046FFF7D0FB12
:1058800006220C212046FFF7CBFB06220A212046E8
:10589000FFF7C6FB4FF4E053009302238DF804306A
:1058A00000238DF8063003228DF805208DF807308F
:1058B00069462046FFF756FB02B010BD00080240C3
:1058C00070B582B00446084615461E460121FFF712
:1058D0001DFC9DF8182031462046FFF7A1FB0095DE
:1058E00002238DF8043000228DF807208DF8053052
:1058F00001238DF8063069462046FFF733FB02B0DE
:1059000070BD30B583B00D4614460121FFF7FEFB94
:1059100001238DF8043000228DF806208DF8073021
:1059200002238DF80530009569462046FFF71AFBE3
:1059300003B030BD30B583B00D4614460121FFF7EA
:10594000E5FB00238DF804308DF8063002238DF836
:1059500007308DF80530009569462046FFF702FBB9
:1059600003B030BD08B5FFF750FB08BD08B522B144
:10597000012A01D1FFF752FB08BDFFF74DFBFBE702
:1059800000B583B08DF804008DF805108DF8062061
:105990008DF8073001A8FFF777F903B05DF804FB35
:1059A00038B540F225512648FFF7E0FD30B940F206
:1059B00024412348FFF7DAFDA0B938BD002000F0EC
:1059C0003BF948B1002000F037F904461C48FFF7C6
:1059D0009BFD0121C0B2A04740F225511848FFF7B6
:1059E000EAFDE4E7174C00212046FFF767FA144B65
:1059F0009A881B882046FFF76EFAC1B24942CCB2A2
:105A0000002000F019F930B1002000F015F903462C
:105A100021460D4898474FF480652A4600210A48E0
:105A200003F014F9074C09492046FFF77BFA294691
:105A30002046FFF74EFA01212046FFF73FFABCE768
:105A40000010014088640240A0AB00200008002044
:105A500038B540F225512648FFF788FD30B940F2AD
:105A600024412348FFF782FDA0B938BD012000F092
:105A7000E3F848B1012000F0DFF804461C48FFF7C6
:105A800043FD0121C0B2A04740F225511848FFF75D
:105A900092FDE4E7174C00212046FFF70FFA144B64
:105AA0009A881B882046FFF716FAC1B24942CCB249
:105AB000012000F0C1F830B1012000F0BDF803462C
:105AC00021460D4898474FF480652A4600210A4830
:105AD00003F0BCF8074C09492046FFF723FA294692
