:020000040800F2
:1000000000000220D5710008856B0008876B00088E
:100010009B6B00089D6B00089F6B000800000000B0
:10002000000000000000000000000000A16B0008BC
:10003000A36B000800000000A56B0008C96B000856
:100040002572000825720008257200082572000834
:100050002572000825720008257200082572000824
:100060002572000825720008257200082572000814
:1000700025720008257200087948000825720008DA
:1000800025720008614800082572000825720008E2
:1000900025720008257200082572000825720008E4
:1000A00025720008257200082572000825720008D4
:1000B000014800082148000841480008257200084E
:1000C00025720008257200082572000825720008B4
:1000D00025720008553F0008D93F00085D40000820
:1000E0002572000825720008514D0008257200088D
:1000F0002572000825720008257200082572000884
:100100002572000825720008257200082572000873
:100110002572000825720008257200082572000863
:100120002572000825720008257200082572000853
:100130002572000800000000000000002572000881
:100140002572000825720008257200085D4D000820
:10015000257200082572000891480008E140000857
:100160002572000825720008257200082572000813
:100170002572000825720008000000000000000041
:08018000257200082572000839
:1001900010B5054C237833B9044B13B10448AFF3C1
:1001A00000800123237010BD000400200000000027
:1001B00040A0000808B5034B1BB103490348AFF347
:1001C000008008BD000000000404002040A00008DA
:1001D000034613F8012B002AFBD1181A0138704787
:1001E00001F0FF01102A2BDB10F0070F08D010F8E8
:1001F000013B013A8B422DD010F0070F42B3F6D1EC
:10020000F0B441EA012141EA014122F007047FF004
:1002100000070023F0E80256083C85EA010586EA5B
:10022000010685FA47F5A3FA87F586FA47F6A5FA97
:1002300087F68EB9EED1F0BC01F0FF0102F00702A3
:1002400032B110F8013B013A83EA010313B1F8D14E
:100250000020704701387047002D06BF354603382F
:10026000073815F0010F07D1013015F4807F02BF68
:10027000013015F4C03F0130F0BC0138704700BFB9
:1002800081F0004102E000BF83F0004330B54FEA47
:1002900041044FEA430594EA050F08BF90EA020FB4
:1002A0001FBF54EA000C55EA020C7FEA645C7FEA47
:1002B000655C00F0E2804FEA5454D4EB5555B8BF6A
:1002C0006D420CDD2C4480EA020281EA030382EADB
:1002D000000083EA010180EA020281EA0303362D6D
:1002E00088BF30BD11F0004F4FEA01314FF4801C40
:1002F0004CEA113102D0404261EB410113F0004F52
:100300004FEA03334CEA133302D0524263EB430308
:1003100094EA050F00F0A780A4F10104D5F1200EA6
:100320000DDB02FA0EFC22FA05F2801841F1000101
:1003300003FA0EF2801843FA05F359410EE0A5F1D5
:1003400020050EF1200E012A03FA0EFC28BF4CF006
:10035000020C43FA05F3C01851EBE37101F00045BC
:1003600007D54FF0000EDCF1000C7EEB00006EEBC9
:100370000101B1F5801F1BD3B1F5001F0CD3490853
:100380005FEA30004FEA3C0C04F101044FEA4452AA
:1003900012F5800F80F09A80BCF1004F08BF5FEA31
:1003A000500C50F1000041EB045141EA050130BD11
:1003B0005FEA4C0C404141EB0101013C28BFB1F523
:1003C000801FE9D291F0000F04BF01460020B1FA6E
:1003D00081F308BF2033A3F10B03B3F120020CDA41
:1003E0000C3208DD02F1140CC2F10C0201FA0CF01F
:1003F00021FA02F10CE002F11402D8BFC2F1200C84
:1004000001FA02F120FA0CFCDCBF41EA0C01904039
:10041000E41AA2BF01EB0451294330BD6FEA040482
:100420001F3C1CDA0C340EDC04F11404C4F120026D
:1004300020FA04F001FA02F340EA030021FA04F37F
:1004400045EA030130BDC4F10C04C4F1200220FAD6
:1004500002F001FA04F340EA0300294630BD21FA14
:1004600004F0294630BD94F0000F83F4801306BFDA
:1004700081F480110134013D4EE77FEA645C18BFCE
:100480007FEA655C29D094EA050F08BF90EA020F65
:1004900005D054EA000C04BF1946104630BD91EA5D
:1004A000030F1EBF0021002030BD5FEA545C05D160
:1004B0004000494128BF41F0004130BD14F580049F
:1004C0003CBF01F5801130BD01F0004545F0FE4113
:1004D00041F470014FF0000030BD7FEA645C1ABF48
:1004E000194610467FEA655C1CBF0B46024650EA7F
:1004F000013406BF52EA033591EA030F41F40021AB
:1005000030BD00BF90F0000F04BF0021704730B530
:100510004FF4806404F132044FF000054FF0000105
:1005200050E700BF90F0000F04BF0021704730B5C6
:100530004FF4806404F1320410F0004548BF40429B
:100540004FF000013EE700BF42004FEAE2014FEAF0
:1005500031014FEA02701FBF12F07F4393F07F4FCB
:1005600081F06051704732F07F4208BF704793F0CE
:100570007F4F04BF41F40021704730B54FF46074E1
:1005800001F0004521F000411CE700BF50EA0102E4
:1005900008BF704730B54FF000050AE050EA01028D
:1005A00008BF704730B511F0004502D5404261EBFD
:1005B00041014FF4806404F132045FEA915C3FF43E
:1005C000D8AE4FF003025FEADC0C18BF03325FEADB
:1005D000DC0C18BF033202EBDC02C2F1200300FA8C
:1005E00003FC20FA02F001FA03FE40EA0E0021FAB1
:1005F00002F11444BDE600BF70B54FF0FF0C4CF49F
:10060000E06C1CEA11541DBF1CEA135594EA0C0F50
:1006100095EA0C0F00F0DEF82C4481EA030621EA8B
:100620004C5123EA4C5350EA013518BF52EA0335C6
:1006300041F4801143F4801338D0A0FB02CE4FF078
:100640000005E1FB02E506F00042E0FB03E54FF0A8
:100650000006E1FB03569CF0000F18BF4EF0010EA0
:10066000A4F1FF04B6F5007F64F5407404D25FEA9C
:100670004E0E6D4146EB060642EAC62141EA55514F
:100680004FEAC52040EA5E504FEACE2EB4F1FD0C91
:1006900088BFBCF5E06F1ED8BEF1004F08BF5FEA0F
:1006A000500E50F1000041EB045170BD06F00046C1
:1006B00046EA010140EA020081EA0301B4EB5C046E
:1006C000C2BFD4EB0C0541EA045170BD41F4801166
:1006D0004FF0000E013C00F3AB8014F1360FDEBF8B
:1006E000002001F0004170BDC4F10004203C35DA67
:1006F0000C341BDC04F11404C4F1200500FA05F3EA
:1007000020FA04F001FA05F240EA020001F000428A
:1007100021F0004110EBD37021FA04F642EB060100
:100720005EEA430E08BF20EAD37070BDC4F10C042A
:10073000C4F1200500FA04F320FA05F001FA04F2EE
:1007400040EA020001F0004110EBD37041F10001DA
:100750005EEA430E08BF20EAD37070BDC4F12005E5
:1007600000FA05F24EEA020E20FA04F301FA05F24D
:1007700043EA020321FA04F001F0004121FA04F2F5
:1007800020EA020000EBD3705EEA430E08BF20EAC5
:10079000D37070BD94F0000F0FD101F000464000FF
:1007A00041EB010111F4801F08BF013CF7D041EA81
:1007B000060195F0000F18BF704703F00046520085
:1007C00043EB030313F4801F08BF013DF7D043EA56
:1007D0000603704794EA0C0F0CEA135518BF95EA0C
:1007E0000C0F0CD050EA410618BF52EA4306D1D193
:1007F00081EA030101F000414FF0000070BD50EAB2
:10080000410606BF1046194652EA430619D094EA3B
:100810000C0F02D150EA013613D195EA0C0F05D125
:1008200052EA03361CBF104619460AD181EA030179
:1008300001F0004141F0FE4141F470014FF0000031
:1008400070BD41F0FE4141F4780170BD70B54FF0CC
:10085000FF0C4CF4E06C1CEA11541DBF1CEA13554C
:1008600094EA0C0F95EA0C0F00F0A7F8A4EB05042E
:1008700081EA030E52EA03354FEA013100F0888025
:100880004FEA03334FF0805545EA131343EA1263EE
:100890004FEA022245EA111545EA10654FEA0026A3
:1008A0000EF000419D4208BF964244F1FD0404F55C
:1008B000407402D25B084FEA3202B61A65EB0305B8
:1008C0005B084FEA32024FF480104FF4002CB6EB75
:1008D000020E75EB030E22BFB61A754640EA0C00F5
:1008E0005B084FEA3202B6EB020E75EB030E22BF35
:1008F000B61A754640EA5C005B084FEA3202B6EB76
:10090000020E75EB030E22BFB61A754640EA9C0034
:100910005B084FEA3202B6EB020E75EB030E22BF04
:10092000B61A754640EADC0055EA060E18D04FEAC2
:10093000051545EA16754FEA06164FEAC30343EA62
:1009400052734FEAC2025FEA1C1CC0D111F4801F2F
:100950000BD141EA00014FF000004FF0004CB6E728
:1009600011F4801F04BF01430020B4F1FD0C88BFC7
:10097000BCF5E06F3FF6AFAEB5EB030C04BFB6EBD2
:10098000020C5FEA500C50F1000041EB045170BDC5
:100990000EF0004E4EEA113114EB5C04C2BFD4EBF2
:1009A0000C0541EA045170BD41F480114FF0000E76
:1009B000013C90E645EA060E8DE60CEA135594EAF2
:1009C0000C0F08BF95EA0C0F3FF43BAF94EA0C0FF5
:1009D0000AD150EA01347FF434AF95EA0C0F7FF46A
:1009E00025AF104619462CE795EA0C0F06D152EABE
:1009F00003353FF4FDAE1046194622E750EA4106A2
:100A000018BF52EA43067FF4C5AE50EA41047FF4B2
:100A10000DAF52EA43057FF4EBAE12E74FF0FF3C17
:100A200006E000BF4FF0010C02E000BF4FF0010CE8
:100A30004DF804CD4FEA410C7FEA6C5C4FEA430C61
:100A400018BF7FEA6C5C1BD001B050EA410C0CBFB0
:100A500052EA430C91EA030F02BF90EA020F002012
:100A6000704710F1000F91EA030F58BF994208BF79
:100A700090422CBFD8176FEAE37040F00100704736
:100A80004FEA410C7FEA6C5C02D150EA013C07D18D
:100A90004FEA430C7FEA6C5CD6D152EA033CD3D0D8
:100AA0005DF8040B704700BF8446104662468C46D2
:100AB0001946634600E000BF01B5FFF7B7FF002805
:100AC00048BF10F1000F01BD4DF808EDFFF7F4FF2E
:100AD0000CBF012000205DF808FB00BF4DF808EDB9
:100AE000FFF7EAFF34BF012000205DF808FB00BFDC
:100AF0004DF808EDFFF7E0FF94BF012000205DF8FE
:100B000008FB00BF4DF808EDFFF7CEFF94BF0120B2
:100B100000205DF808FB00BF4DF808EDFFF7C4FFAB
:100B200034BF012000205DF808FB00BF4FEA410CF4
:100B30007FEA6C5C02D150EA013C0AD14FEA430CD7
:100B40007FEA6C5C02D152EA033C02D14FF0000014
:100B500070474FF0010070474FEA410212F5001252
:100B600015D211D56FF47873B3EB625212D94FEAF4
:100B7000C12343F0004343EA505311F0004F23FADE
:100B800002F018BF404270474FF00000704750EA33
:100B9000013005D111F0004008BF6FF000407047F0
:100BA0004FF00000704700BF4A0011D212F500124A
:100BB00011D20DD56FF47873B3EB62520ED44FEAB5
:100BC000C12343F0004343EA505323FA02F0704735
:100BD0004FF00000704750EA013002D14FF0FF3073
:100BE00070474FF00000704780F0004002E000BF07
:100BF00081F0004142001FBF5FEA410392EA030F08
:100C00007FEA226C7FEA236C6AD04FEA1262D2EB51
:100C10001363C1BFD218414048404140B8BF5B4256
:100C2000192B88BF704710F0004F40F4000020F0EF
:100C30007F4018BF404211F0004F41F4000121F005
:100C40007F4118BF494292EA030F3FD0A2F101024F
:100C500041FA03FC10EB0C00C3F1200301FA03F18D
:100C600000F0004302D5494260EB4000B0F5000FB0
:100C700013D3B0F1807F06D340084FEA310102F16F
:100C80000102FE2A51D2B1F1004F40EBC25008BF21
:100C900020F0010040EA03007047490040EB0000EB
:100CA000013A28BFB0F5000FEDD2B0FA80FCACF1EC
:100CB000080CB2EB0C0200FA0CF0AABF00EBC25019
:100CC00052421843BCBFD0401843704792F0000F07
:100CD00081F4000106BF80F400000132013BB5E75A
:100CE0004FEA41037FEA226C18BF7FEA236C21D0D0
:100CF00092EA030F04D092F0000F08BF0846704735
:100D000090EA010F1CBF0020704712F07F4F04D102
:100D1000400028BF40F00040704712F100723CBF15
:100D200000F50000704700F0004343F0FE4040F43F
:100D3000000070477FEA226216BF08467FEA2363FD
:100D40000146420206BF5FEA412390EA010F40F4E8
:100D5000800070474FF0000304E000BF10F0004334
:100D600048BF40425FEA000C08BF704743F096431B
:100D700001464FF000001CE050EA010208BF704736
:100D80004FF000030AE000BF50EA010208BF7047BD
:100D900011F0004302D5404261EB41015FEA010CD2
:100DA00002BF84460146002043F0B64308BFA3F1CA
:100DB0008053A3F50003BCFA8CF2083AA3EBC253AC
:100DC00010DB01FA02FC634400FA02FCC2F12002CB
:100DD000BCF1004F20FA02F243EB020008BF20F002
:100DE0000100704702F1200201FA02FCC2F1200268
:100DF00050EA4C0021FA02F243EB020008BF20EA5D
:100E0000DC70704753B94AB9002908BF00281CBFDD
:100E10004FF0FF314FF0FF3000F074B9ADF1080C26
:100E20006DE904CE00F006F8DDF804E0DDE9022308
:100E300004B070472DE9F047089D04468E46002B0C
:100E40004DD18A42944669D9B2FA82F252B101FA7E
:100E500002F3C2F1200120FA01F10CFA02FC41EA8E
:100E6000030E94404FEA1C48210CBEFBF8F61FFA13
:100E70008CF708FB16E341EA034306FB07F19942AE
:100E80000AD91CEB030306F1FF3080F01F81994261
:100E900040F21C81023E63445B1AA4B2B3FBF8F03B
:100EA00008FB103344EA034400FB07F7A7420AD9C2
:100EB0001CEB040400F1FF3380F00A81A74240F2EA
:100EC00007816444023840EA0640E41B00261DB155
:100ED000D4400023C5E900433146BDE8F0878B428A
:100EE00009D9002D00F0EF800026C5E90001304649
:100EF0003146BDE8F087B3FA83F6002E4AD18B4223
:100F000002D3824200F2F980841A61EB03030120CC
:100F10009E46002DE0D0C5E9004EDDE702B9FFDEB8
:100F2000B2FA82F2002A40F09280A1EB0C014FEA63
:100F30001C471FFA8CFE0126200CB1FBF7F307FBC0
:100F4000131140EA01410EFB03F0884208D91CEB63
:100F5000010103F1FF3802D2884200F2CB80434600
:100F6000091AA4B2B1FBF7F007FB101144EA0144DF
:100F70000EFB00FEA64508D91CEB040400F1FF316E
:100F800002D2A64500F2BB800846A4EB0E0440EA5C
:100F900003409CE7C6F12007B34022FA07FC4CEA65
:100FA000030C20FA07F401FA06F31C43F9404FEA58
:100FB0001C4900FA06F3B1FBF9F8200C1FFA8CFE6D
:100FC00009FB181140EA014108FB0EF0884202FAC1
:100FD00006F20BD91CEB010108F1FF3A80F0888082
:100FE000884240F28580A8F102086144091AA4B23F
:100FF000B1FBF9F009FB101144EA014100FB0EFEC0
:101000008E4508D91CEB010100F1FF346CD28E45EE
:101010006AD90238614440EA0840A0FB0294A1EB7F
:101020000E01A142C846A64656D353D05DB1B3EBDC
:10103000080261EB0E0101FA07F722FA06F3F1400C
:101040001F43C5E9007100263146BDE8F087C2F1B3
:101050002003D8400CFA02FC21FA03F3914001432B
:101060004FEA1C471FFA8CFEB3FBF7F007FB103664
:101070000B0C43EA064300FB0EF69E4204FA02F410
:1010800008D91CEB030300F1FF382FD29E422DD963
:10109000023863449B1B89B2B3FBF7F607FB163398
:1010A00041EA034106FB0EF38B4208D91CEB010118
:1010B00006F1FF3816D28B4214D9023E6144C91A98
:1010C00046EA004638E72E46284605E70646E3E6A8
:1010D0001846F8E64B45A9D2B9EB020864EB0C0EB2
:1010E0000138A3E74646EAE7204694E74046D1E7C1
:1010F000D0467BE7023B614432E7304609E764446F
:10110000023842E7704700BF03690A6902610B6158
:1011100070478C4651B1096941B10161DCF80C108E
:10112000C160CCF804308CF8002001E00021C160DF
:1011300002704360002383607047034620B10020A3
:1011400018619860D86070476FF00100704738B53B
:1011500004460D46FFF7F1FF00B9256138BD08B51B
:10116000C3681BB18068FFF7FAFF08BD8160C860E3
:10117000FBE708B50346C06810B1FFF7FAFF08BDEA
:10118000D9608B60FBE738B543687BB104460D46F8
:10119000006958B1096949B1984738B12A69824252
:1011A00005D0E06840B12946FFF7EDFF38BD29467C
:1011B0002046FFF7A9FFF4E7E560AC600023EB6091
:1011C000F4E7A0B199B108B543684B6003780B70A0
:1011D000012B06D0022B07D003B108BDFFF7BFFFDC
:1011E000FBE7FFF7C6FFF8E7FFF7CDFFF5E770472E
:1011F000D0B1F8B50C4616461D46074611B10BB9DD
:101200000169A047F86820B12B4632462146FFF716
:10121000EFFF64B1012D01D00020F8BD32463969DD
:101220003846A0470020F8E76FF001007047002023
:10123000F3E7F0B108B50346826862B1C06850B107
:10124000D0609A68826000229A60DA6009B11869F9
:101250008847002008BD0AB1D86830B1002AF5D10E
:10126000DA68002AF2D01346F0E7D0609860D860C0
:10127000ECE76FF0010070470249034B0A681A60FF
:101280007047000028ED00E01C04002010B582B07B
:10129000002401941349144B0A681A60EFF3098380
:1012A00093B9EFF309830E4B1B68002B0FDB13F090
:1012B000804F0FD10A4B1B6813F0020F01D044F08E
:1012C0000204204602B010BDEFF30883EBE74FF0B5
:1012D0000104ECE744F00204FFF7CEFF0190E9E7D8
:1012E000200400202CED00E02004002010B44FF07A
:1012F000E02254690D4B1B7800FB03F34FEA430CCB
:101300009369002104E0E01A02441144614509D2C6
:101310001A464FF0E0239B699A42FAD0F3D9D21AC9
:101320001144F3E75DF8044B704700BF240400202C
:1013300010B504E04FF47A70FFF7D8FF2046441E42
:101340000028F7D110BD0000014B1861704700BFA5
:1013500028040020014B5861704700BF280400207A
:10136000014B9861704700BF28040020014B98682A
:10137000704700BF2804002038B50546204C0023E4
:101380002377FFF7BFF802460B461BA1D1E9000106
:10139000FFF75CFAFFF708FCA060E560FFF7B2F822
:1013A00002460B4614A1D1E90001FFF74FFA0446AB
:1013B0000D46144B1868FFF7A5F822462B46FFF799
:1013C00045FAFFF7F1FB0138B0F1807F0AD24FF008
:1013D000E02358610C4AF02182F8231000229A6120
:1013E00007221A61042001F05BFF084802F00CF9A3
:1013F000012038BDAFF300800000000080842E4142
:10140000280400202802002000ED00E04C04002009
:1014100008B5034B01221A771B6903B1984708BD31
:101420002804002000220023C0E9002370478242E4
:1014300073EB010C03D2801A61EB03017047101AA1
:1014400063EB01017047000008B50E4B1B7F012BB9
:1014500001D0002008BD0B4B00225A7798681A680B
:101460005968121841F100011A60596001225A7737
:10147000054B1B6803B19847024B9B6903B1984722
:101480000120E7E72804002048040020014BD3E9AD
:10149000000170472804002008B54FF47A72002339
:1014A0000249D1E90001FFF7ADFC08BD2804002086
:1014B000034A13685168C01841F10001704700BF2A
:1014C00028040020054B1A685B68904271EB030307
:1014D00001D2002070470120704700BF280400207F
:1014E000FEE7000070B40478E20804F00705094B39
:1014F0001978012404FA02F63143C9B21970134471
:101500005A78AC402243D2B25A70002380F8483057
:1015100070BC70479CA4002010B40378DC0803F072
:1015200007020A4B23445978012000FA02F221EA0B
:1015300002025A705B7833B904490B7800FA04F45C
:1015400023EA04040C705DF8044B704790A400205B
:1015500010B40378DC0803F007020A4B23445978DF
:10156000012000FA02F221EA02025A705B7833B9D4
:1015700004490B7800FA04F423EA04040C705DF8C3
:10158000044B70479CA4002005484FF0FF010170F8
:10159000002080F309880348016881F308887047B8
:1015A00022ED00E094E00020034678B193B103B14E
:1015B000C9B130B4187800250A7800F0070002F0AD
:1015C0000702AD4211D809D030BC70470029EDD1D7
:1015D000002070470029EAD008467047904206D3A1
:1015E000F2D90846F0E7184670470846ECE7184677
:1015F000EAE710B50446037803F0C7036FF302036C
:10160000037000234360836083810361C3620363CB
:101610004363836300224264036480F85C300366A2
:10162000436600F15C017430FFF791FD04F1240082
:10163000FFF7F8FE04F11400FFF7F4FE04F11C00BC
:10164000FFF7F0FE052384F8483010BDF8B54FF4DD
:10165000205200211B4805F019FE1B4B1B4A1A6043
:10166000002718E01A4D04EBC70655F82600FFF7CF
:10167000C0FF55F826200023D36455F82620536573
:1016800055F82620136545F826300134E4B2072CBE
:10169000E8D90137FFB2072F01D80024F7E70D4B37
:1016A00000221A705A611A61DA600B4B1868FFF752
:1016B000A0FF0A4B01221A70094BF02283F8222066
:1016C000F8BD00BF7804002094E0002074A400203E
:1016D00094DF002078A400205C040020A5A4002052
:1016E00000ED00E010B50446C26C0021406D05F02D
:1016F000CDFD04F15403E26C02F18042013A03EBA8
:10170000820323F007034FF0807243F8042C094A48
:1017100022F0010243F8082C074A43F80C2C00225F
:1017200043F8202C6FF0020243F8242C443B23653D
:1017300010BD00BF79180008E114000810B584B08E
:101740006846FFF76FFE02A8FFF76CFEFFF79EFEEC
:1017500002460B46CDE902230B49D1E90001FFF710
:1017600066FE0A4B1C6801341C60FFF705FB07EEA0
:10177000904AF8EE677A07EE100A87EE877A044BF4
:1017800083ED007A04B010BD700400206C040020CA
:101790006804002000B583B06846FFF743FE334B72
:1017A0001C680CE0FFF772FEE06121626062A162DA
:1017B00012E0022384F848302D4B00221A6094F87E
:1017C0004830002BFBD1A3652046FFF7C1FE284B14
:1017D0001C60A36B002BE5D0012384F848302369FB
:1017E00020469847A36B0133A363A26D636B9A42B3
:1017F00000D96263236C13442364626AA36AE069BC
:10180000216AFFF714FECDE90001256CFFF7B4FA59
:1018100007EE905AB8EE677A07EE900AC7EE277A7D
:101820009FED147A67EE877AC4ED117AA36D226B6F
:1018300013442363A26B012A01D95B082363A089A7
:10184000FFF736FE6062A162A56B002DB1D0FFF7F5
:1018500093FA07EE905AF8EE677A07EE100A87EED1
:10186000877ABCEEC77A84ED0B7AA2E76004002089
:101870005C0400200000C84208B5094B186800B994
:1018800008BD084A13780133DBB21370064A127898
:10189000934201D0FFF77EFF044B01221A70F9E753
:1018A00060040020A6A4002078A40020A8A40020A2
:1018B000A9B110B50C460A4B1B78DBB2022B00D045
:1018C00010BD91F84830022BFAD1486A896AFFF7B7
:1018D000F9FD0028F4D12046FFF704FEF0E7704739
:1018E000A5A4002070B40478E20804F00705094BB1
:1018F0001978012404FA02F63143C9B2197013446D
:101900005A78AC402243D2B25A70042380F848304F
:1019100070BC704790A40020034B044A92E8030077
:1019200083E80300704700BF8CDF002098E00020B0
:10193000134B1B780BB3124B1A78D2B211498A5C45
:1019400013445B78DBB2CB5C03EBC2000E4951F869
:10195000200000B1704770B409490D78012404FAE1
:1019600002F625EA06050D700A44517804FA03F3DD
:1019700021EA0303537070BC70470020704700BF1A
:1019800090A4002058A0000894DF00200000000070
:10199000074B19680868B0E8F04F1EF0100F08BF39
:1019A000B0EC108A80F30988BFF36F8F704700BFD7
:1019B0008CDF002008B5FFF7EBFF08BD000000003A
:1019C000EFF30980BFF36F8FDFF850301A681EF015
:1019D000100F08BF20ED108A20E9F04F10602DE9AC
:1019E00009004FF0500080F31188BFF34F8FBFF311
:1019F0006F8FFFF791FF4FF0000080F3118809BC53
:101A000019680868B0E8F04F1EF0100F08BFB0EC7E
:101A1000108A80F30988BFF36F8F70478CDF002036
:101A2000134B1B780BB3124B1A78D2B211498A5C54
:101A300013445B78DBB2CB5C03EBC2000E4951F878
:101A4000200000B1704770B409490D78012404FAF0
:101A500002F625EA06050D700A44517804FA03F3EC
:101A600021EA0303537070BC70470020704700BF29
:101A70009CA4002058A0000894DF002002484FF0EA
:101A8000805101607047000004ED00E0514B1B786D
:101A9000DBB2022B40F09D8070B54F4B1B78BBB979
:101AA000FFF7BEFF4D4B1860FFF742FF05464C4B5A
:101AB00018604C4B1C6894B1484B1E68B4426BD004
:101AC0002EB131462046FFF76FFD86423DD070BDF6
:101AD0000123002244494548FFF78AFBE0E7B8B1FB
:101AE0003E4B1C6874B3A04205D001462046FFF768
:101AF0005BFD85421BD0A54219D0384B1A6802F114
:101B000050013B4B1960526D5A60FFF7B7FFDEE79B
:101B1000324B1B6843B103F15001354A11605B6DD4
:101B20005360FFF7ABFFD2E7FFF708FECFE7284689
:101B3000FFF7F2FC2A4B1B68022283F84820274A51
:101B40001360DAE7254B1860D7E72046FFF700FD62
:101B5000244B1868FFF7C6FE214B1C6834B11F4B9D
:101B600019682046FFF720FD84420AD01B4B1A68F3
:101B700002F150011E4B1960526D5A60FFF77EFF53
:101B8000A5E72046FFF7C8FC154B1B68022283F827
:101B90004820124A1360E9E728B101462046FFF7C2
:101BA00003FD85420AD00D4B1A6802F15001104B1B
:101BB0001960526D5A60FFF761FF88E72046FFF712
:101BC00091FE074C2068FFF78DFC2268034B1A60DA
:101BD000E9E77047A5A40020A8A400206004002025
:101BE000640400205C040020B11800087CA40020DC
:101BF00098E00020000000002DE9F04F83B0019034
:101C00008B4617461E46784B1B785BB106EBC70325
:101C1000764A52F823305BB14FF00108404603B0DA
:101C2000BDE8F08FFFF712FD6F4B01221A70EDE750
:101C3000882000F099F981466C4C4FEAC70A0AEBFC
:101C4000060544F825008046019B436054F8253082
:101C5000C3F808B05846FEF755FC02460B4660A193
:101C6000D1E90001FEF7F2FD54F825B0FEF79CFF24
:101C7000ABF80C0054F825300C9A1A6154F8253052
:101C80004AEA060A83F800A054F82520002382F8C7
:101C90005C3054F82520C2F8609054F82520536633
:101CA00054F825300D9ADA6454F82590900080B2EB
:101CB00000F05AF9C9F8540054F82500436D002B80
:101CC00000F08680FFF70EFD54F825304FF0000934
:101CD000C3F8589054F8253000225A6454F825303F
:101CE000C3F84090424B197854F8250090F800C092
:101CF000012202FA0CFC41EAEC01C9B2197090F819
:101D000000C003EBDC03597802FA0CF202F0070280
:101D10000A435A70C0F82C9054F82530C3F830901C
:101D200054F82530C3F8349054F825002430FFF7D8
:101D300079FB54F825001430FFF774FB54F82500A4
:101D40001C30FFF76FFB54F825A0FFF79FFBCAF884
:101D50001400CAF8181054F82530C3F8389054F815
:101D6000253083F83C9054F82500FFF7BBFB54F86E
:101D70002590142000F0F8F8C9F8700054F82510E8
:101D8000086F40B3FFF7E3F91A4B1B78B3B954F867
:101D90002510194B0222096F1848FFF7BAF906EB14
:101DA000C706124B53F8260000F15C017430FFF7B0
:101DB000CEF9104A1378013313702FE706EBC703EF
:101DC0000A4A52F82330196F0C48FFF7FAF9E6E790
:101DD0004FF0000822E74FF000081FE7AFF3008044
:101DE0000000000080842E41A7A4002094DF002082
:101DF0009CA4002078A40020A91500087CA4002041
:101E000010B549F64040FFF7B7FA0020FFF79CFAFB
:101E10000020FFF79FFA1148FFF7A2FAFFF7F8FA40
:101E20000F4C2046FFF7FEFAFFF730FBC4E9000134
:101E3000FFF7F6FD0B4B186050B100F150020A4B52
:101E40001A60426D5A60094A93E8030082E8030071
:101E5000FFF79AFBFFF712FE10BD00BF8D1A0008B6
:101E6000700400206004002098E000208CDF002037
:101E7000014B1870704700BFA5A40020064B1B68DB
:101E800023B193F84820D2B2012A00D070479A6D4E
:101E900010449865FAE700BF5C040020134A4FF431
:101EA000803313600023536001219182B3F5803F9A
:101EB00004D20F4A0021D1540133F7E70D4A0C4BED
:101EC0001360002191800C4A0C48026011604FF6AB
:101ED000FC7019521A60054A4FF6F071D160998072
:101EE0009160012382F82030704700BFA8E00020F5
:101EF00000000010A0E00020F8FF0010CCE000205F
:101F0000174B1A68824201D21B68FAE73BB310B440
:101F10009A881A4482420CD08288841819688C42AC
:101F20000ED01A680260984200D018605DF8044B29
:101F30007047998882880A4492B29A801846EBE7E3
:101F40001C68084909688C4207D0196889880A44C6
:101F500082801A6812680260E5E70160E3E7704773
:101F6000A0E00020CCE0002070B5044672B62A4BF9
:101F700093F820309BB1002C44D004F108039BB2AD
:101F800013F0030F03D023F0030304339BB21D4669
:101F9000214A9268934239D820490C6807E0FFF73C
:101FA0007DFF1D4B1D4A1A61E5E721461446A288B4
:101FB0009A4202D22268002AF7D104F07040184AEF
:101FC000904225D1174A1268A24223D01248826952
:101FD000013282610E68083622680A60A288D11A2E
:101FE000082909DC0C4B9A68521B9A605A68154400
:101FF0005D600023236006E060198180A380FFF705
:102000007FFFEFE7002662B6304670BD0026FAE794
:102010000026F8E70026F6E7A8E00020A0E0002070
:1020200000000010CCE0002040B103460C49CA6912
:102030000132CA61083853F8082C02B1704710B554
:1020400072B633F8044C0A464968091B516033F8EC
:10205000041C93680B449360FFF752FF62B610BDF7
:10206000A8E0002038B504460D4662B9D0F8123019
:1020700001209847D4F81A3028469847D4F81230EF
:102080000020984738BDD0F8123000209847F1E77B
:1020900070B505460C4600228D21FFF7E3FF14B909
:1020A000074E002408E0074EFBE70022315D28467A
:1020B000FFF7D8FF0134E4B2012CF6D970BD00BFA0
:1020C000C0AB0008BCAB000870B5054600260BE0AD
:1020D000012200212846FFF7C5FF0134E4B214F0C5
:1020E000800FF5D00136F6B2072E12D8A6F15001B6
:1020F0000022C9B22846FFF7B5FF00221146284644
:10210000FFF7B0FF002210212846FFF7ABFF0024A5
:10211000E5E770BD8020704740207047B0B3F8B548
:102120000E460746A1B3002519E003EBC50256F899
:102130002220125D9A401143C9B20133DBB2072B52
:10214000F3D901223846FFF78DFF0134E4B214F0D1
:10215000800F02D100210B46F1E70135EDB2072DCA
:1021600012D8A5F150010022C9B23846FFF77AFF14
:10217000002211463846FFF775FF0022102138462D
:10218000FFF770FF0024E2E70120F8BD0020704750
:102190000020FAE70120704710B50446D0F8163049
:1021A00040799847D4F80A309847D4F806309847D1
:1021B000D4F80E30012098476420FFF7B9F8D4F81E
:1021C0000E30002098470022AE212046FFF74AFF3C
:1021D0000022D5212046FFF745FF0022502120464E
:1021E000FFF740FF0022A8212046FFF73BFF002217
:1021F0003F212046FFF736FF0022D3212046FFF77C
:1022000031FF002211462046FFF72CFF002240211B
:102210002046FFF727FF00228D212046FFF722FFEF
:10222000002214212046FFF71DFF00221421204622
:10223000FFF718FF002220212046FFF713FF00229E
:1022400002212046FFF70EFF0022A0212046FFF7C3
:1022500009FF0022C8212046FFF704FF0022DA21EF
:102260002046FFF7FFFE002212212046FFF7FAFE6C
:10227000002281212046FFF7F5FE0022EF212046B3
:10228000FFF7F0FE0022D9212046FFF7EBFE0022E7
:10229000F1212046FFF7E6FE0022DB212046FFF772
:1022A000E1FE002230212046FFF7DCFE0022A421BF
:1022B0002046FFF7D7FE0022A6212046FFF7D2FED8
:1022C0000022AF212046FFF7CDFE2046FFF7FCFE9F
:1022D000012010BD08B5084B187004225A70022264
:1022E0005A8001229A80054AC2F80130044A1268D5
:1022F0001846904708BD00BFACA40020C4A400202D
:10230000DC00002008B50146034BDB68034AD2F825
:102310000100984708BD00BFDC000020C4A40020D5
:1023200070B50A4C08232360094BA3600223A380E5
:1023300000252573074E33682A46294620469847CC
:10234000B36829462046984770BD00BFB4A400205A
:10235000000C0240F800002070B50A4C08232360EE
:10236000094BA3600123A38000252573074E336822
:102370002A46294620469847B3682946204698476A
:1023800070BD00BFE4A40020000C0240F800002053
:1023900008B520B10146012802D0002100E0022149
:1023A000024B9B680248984708BD00BFF800002018
:1023B000B4A4002008B520B10146012802D00021B4
:1023C00000E00221024B9B680248984708BD00BF0D
:1023D000F8000020E4A400200C4B00221A705A716F
:1023E0000B4AC3F816200B4AC3F81A200A4AC3F84E
:1023F00006200A4AC3F80E20094AC3F80A20094AEF
:10240000C3F812200120084B18707047C4A40020A4
:10241000D52200080523000859230008B523000829
:102420002123000891230008F5A4002008B5084BDB
:1024300000221A70FFF7D0FF38B1064B1B68064820
:10244000984710B1024B01221A70014B187808BD51
:10245000F4A4002000000020C4A4002010B5054B07
:102460001C7824B10146044B9B68044898472046D9
:1024700010BD00BFF4A4002000000020C4A4002070
:1024800010B582B00B4C636998478DF80000A369C2
:1024900098478DF80100BDF80030ADF804300020F9
:1024A0009DF8043063F307009DF8053063F30F20B7
:1024B00002B010BD0000002008B5034B9B680BB1B3
:1024C000984708BD0020FCE71C000020014B18774E
:1024D0000120704700A50020014B5877012070476C
:1024E00000A500202DE9F04788B04A4B5F7F012FFF
:1024F00000F08980022F00F08A80002F43D0002056
:1025000008B0BDE8F087DFF814A1DAF8003053F81E
:10251000248018F80560DFF80091D9F80C3098474E
:10252000ADF800009DF80030013B5B1BDAF800209D
:1025300052F8241018F803304B5552F82480D9F87B
:102540000C309847ADF804009DF80430013B5B1B4C
:1025500008F803600134E4B22F4BDB689847ADF80C
:1025600008009DF80930A342CDD80135EDB22A4BC1
:10257000DB689847ADF80C009DF80C30B5EB530FB5
:1025800003D23C46E8E73D46F1E70120B8E7DFF833
:102590008C80D8F8009059F825301E5D1E4FFB68DE
:1025A0009847ADF810009DF81130013B5B1B59F8BE
:1025B0002320D8F8008058F82530125D1A55FB68A2
:1025C0009847ADF814009DF81530013B5B1B58F897
:1025D00023301E550134E4B20F4BDB689847ADF849
:1025E00018009DF81830A342D1D80135EDB20A4B3E
:1025F000DB689847ADF81C009DF81D30B5EB530F14
:1026000003D20024E8E70025F1E7012078E7012064
:1026100076E700BF00A500201C00002024A50020B4
:1026200018B1034A1060406970470020704700BF2E
:10263000F8A40020014B1868704700BFF8A40020E0
:1026400008B5FFF7F7FF034600B10369184608BD58
:1026500008B5FFF7EFFF18B1C3781BB9022008BD1A
:102660000020FCE70120FAE738B505460C46FFF7E5
:10267000E1FF28B10571FFF7DDFF4471012038BD8E
:102680000020FCE730B583B0124DEB689847ADF8F9
:1026900000009DF80040EB689847ADF804009DF8F5
:1026A00005500020A84213D2002305E052F8202054
:1026B0000021D1540133DBB2A34206D2064A12688C
:1026C000002AF3D1002003B030BD0130C0B2E9E7E9
:1026D0000120F8E71C00002024A5002001238340EE
:1026E000024A107818431070704700BFFCA4002005
:1026F000014B1878704700BF60000020054B1A7826
:1027000012F0020F05D1012303FA00F01043014B30
:10271000187070476000002001238340024A10783F
:1027200020EA030010707047600000202DE9F84394
:1027300081460E461746FFF77DFF0446DFF82080EE
:10274000C379827941790079D8F80050A847D8F840
:1027500004803B4632464946A068C047BDE8F8833E
:10276000840000202DE9F04782B082460E461746CD
:102770009846FFF75FFF0446DFF82C90C379827913
:1027800041790079D9F80050A847D9F81490A16888
:102790009DF828300193CDF800803B4632465046E4
:1027A000C84702B0BDE8F087840000202DE9F0475B
:1027B00082B082460E4617469846FFF73BFF044616
:1027C000DFF82C90C379827941790079D9F80050EB
:1027D000A847D9F80C90A1689DF828300193CDF84E
:1027E00000803B4632465046C84702B0BDE8F087FD
:1027F000840000202DE9F04782B082460E4617463D
:102800009846FFF717FF0446DFF82C90C3798279CA
:1028100041790079D9F80050A847D9F81090A168FB
:102820009DF828300193CDF800803B463246504653
:10283000C84702B0BDE8F087840000202DE9F047CA
:1028400082B082460E4617469846FFF7F3FE0446CE
:10285000DFF82C90C379827941790079D9F800505A
:10286000A847D9F82090A0689DF828300193CDF8AA
:1028700000803B4632465146C84702B0BDE8F0876B
:10288000840000202DE9F04782B082460E461746AC
:102890009846FFF7CFFE0446DFF82890C379827987
:1028A00041790079D9F80050A847D9F80890A06874
:1028B000CDF800803B4632465146C84702B0BDE8DD
:1028C000F08700BF840000202DE9F04782B08246E7
:1028D0000E4617469846FFF7ADFE0446DFF82C90EB
:1028E000C379827941790079D9F80050A847D9F89D
:1028F0001890A0689DF828300193CDF800803B46E1
:1029000032465146C84702B0BDE8F0878400002037
:1029100008B5FFF7EDFE10F0100F17D00220FFF7FB
:10292000EDFE3B4B00221A7010E03A4B1B689847B3
:1029300030B30020FFF7F0FE0220FFF7DFFE344A3D
:1029400013780133DBB21370052B59D0FFF7D0FE9B
:102950000346002859D02E4A1278134113F0010F74
:10296000EDD0042A52D801A353F822F02B290008F5
:102970000D2A00088F290008AB290008092A000841
:102980000020FFF7ABFE0120FFF7B8FED7E7FFF707
:1029900079FE30B10220FFF7BFFE0320FFF7AEFE45
:1029A000CDE70120FFF7AAFEC9E71B4B5B7A002B9E
:1029B000C5D0194B1B78E3B100231A4617491648B6
:1029C0008069FEF715FC68B9FFF78CFD114B5B6859
:1029D000134A106898470320FFF79EFE0420FFF774
:1029E0008DFEACE70120FFF779FE0120FFF786FEA0
:1029F000A5E70220FFF772FE0120FFF77FFE9EE7AA
:102A0000134600221A70A1E7012008BD0020FCE750
:102A100020A500201C00002000A50020252A000879
:102A200024A500202DE9F04186B00C468B889BB987
:102A30008D79314BDB689847ADF804009DF8043080
:102A40009D4209D3E5792C4BDB689847ADF8080027
:102A50009DF809309D422CD2657944E0274F3B68B0
:102A600053F82580244EF3689847ADF80C009DF884
:102A70000C200021404604F0FBFB3B6853F8257016
:102A8000A36853F82580F3689847ADF810009DF8C7
:102A900010204146384604F0EBFB0135EDB2164BF1
:102AA000DB689847ADF814009DF81530AB42D5D8D7
:102AB0001EE00025F3E7114B1E6856F82500237928
:102AC000A2790021184404F0E1FB56F82560207932
:102AD000A1686379EB1AA27951F82310304404F00D
:102AE000C7FB0135EDB26379E27913449D42E2DB25
:102AF00006B0BDE8F08100BF1C00002024A5002026
:102B000010B5FFF797FD88B1002408E0836882794B
:102B1000002153F8240004F0B9FB0134E4B2FFF7BC
:102B200089FDC379A342F1D8012010BD0020FCE744
:102B300008B5FEF7B1FC054B5B68C31A312B03D90E
:102B4000024B5860012008BD0020FCE700A50020D2
:102B500000282FD0F8B5054603680BB90020F8BD52
:102B6000DE799F79186AFFF75FFA2B689868FFF79C
:102B70005BFA002407E02B689B6853F82400FFF7FA
:102B800053FA0134E4B2B442F5D307FB06F60A4B1C
:102B90001A6932441A61D9688E1BDE605B699A42F9
:102BA00001D90020DBE72868FFF73EFA00232B60FD
:102BB0000120D4E70020704700A500202DE9F04F48
:102BC00087B08246894617469846574B5E69002E65
:102BD0004BD1564CE3689847ADF800009DF8015082
:102BE000E3689847ADF804009DF8043005FB03F353
:102BF0004D4A536103EB830353611361E3689847C4
:102C0000ADF808009DF809008000FFF7ADF9484BCA
:102C10001860002843D00024444BDB689847ADF887
:102C200014009DF81530A3421FD9404BDB6898472C
:102C3000ADF80C003E4DD5F800B09DF80C00FFF744
:102C400093F94BF824002B6853F824503DB3374BCD
:102C5000DB689847ADF810009DF810200021284649
:102C600004F014FB0134E4B2D6E72420FFF77CF92A
:102C7000064600284FD080F804A080F805908771A0
:102C800080F807800123437000238370109B8361C9
:102C9000254B1B6907FB08F94B4504D2002630463B
:102CA00007B0BDE8F08F4FEA8800FFF75DF9B0602C
:102CB000002832D00024444510D2B5683846FFF7CA
:102CC00053F945F82400B36853F8240038B33A4662
:102CD000002104F0DBFA0134E4B2ECE7124B1A698C
:102CE000A2EB09021A61DA684A44DA605A7A0132C0
:102CF0005A72104B3361104B73611420FFF734F993
:102D0000306270B13146FEF722FA9DF844303370DC
:102D10000023F370C3E70026C1E70026BFE70026C3
:102D2000BDE70026BBE700BF00A500201C00002077
:102D300024A50020440000202C00002010B5FFF73F
:102D400079FCC0B10E4A1278012A16D9C47814B998
:102D50000124204610BD0021006AFEF76AFA022015
:102D6000FFF7CCFCFFF766FC0023C370044A13781E
:102D7000013B1370EDE70024EBE70024E9E700BF17
:102D800000A5002010B582B0FFF754FC002832D017
:102D90000378CBB9FFF74EFC0346C07890B9012207
:102DA000DA70164B9C69C4B1FFF744FC016A2046F7
:102DB000FEF707FA0220FFF7A1FC104A137801334F
:102DC0001370012002B010BDC379827901210091F6
:102DD00000210846FFF778FDDCE7FFF72BFC046ACB
:102DE000064B9C61FFF726FC00230122016A204666
:102DF000FEF78FF9DEE70020E4E700BF00A5002022
:102E000010B4044CE370A270207061705DF8044B44
:102E1000704700BF28A5002030B40C4C94F800C0C7
:102E2000A478A44461450ADA084D6C78ED782C4406
:102E3000A24204DA2BB150F8223001225A5430BC9D
:102E4000704750F8223000225A54F8E728A5002095
:102E50002DE9F04F83B01F469DF830A09DF834B0A7
:102E6000203AD3B20193294B9B78BB4248D9804684
:102E7000894654460023009332E0019B03EB430351
:102E8000234A02EB8303009A9E5C35E08BF001033A
:102E9000224639464846FFF7BFFF7600F6B20134B6
:102EA000E4B2A4EB0A03434513DA0135EDB2072D72
:102EB00012D8164A137892781344BB4222DD16F0DA
:102EC000800FE3D05B46224639464846FFF7A4FF11
:102ED000E3E70137FFB25446009B0133DBB20093B6
:102EE000009B43450AD2B8F10C0FC6D0094B019A9A
:102EF00003EB0213009A9E5C0025D8E7012002E054
:102F0000002000E0002003B0BDE8F08F28A50020DD
:102F100058A10008CCA500082DE9F04383B007466E
:102F20000E4615461C469DF828909DF82C8002E020
:102F30000834E4B201352A7852B1CDF80480CDF8D6
:102F40000090234631463846FFF782FF0028EFD134
:102F500003B0BDE8F083002002E00830C0B20131C8
:102F60000B78002BF9D170472DE9F04F85B0019017
:102F7000884691469DF83820A3EB010A4FFA8AFA59
:102F8000A2EB090B4FFA8BFBBAF1000F0EDD012308
:102F90000293BBF1000F16DD01230393DA4520DD18
:102FA0000FFA8AF70026354634461FE0BAF1000FC3
:102FB00006D0CB1A4FFA83FA4FF0FF330293E8E7BB
:102FC000CDF808A0E5E7BBF1000F07D0A9EB02029E
:102FD0004FFA82FB4FF0FF330393DFE7CDF80CB0DD
:102FE000DCE70FFA8BF7DDE70136F6B2B7421EDBFE
:102FF00001234A4641460198FFF70EFF5444E2B2CE
:1030000064B25D44EBB26DB221B2B94205DBD21BB2
:1030100054B2029A90445FFA88F82AB2BA42E3DBCB
:10302000DB1B5DB2039B99445FFA89F9DCE705B0CD
:10303000BDE8F08F2DE9F84380460F4691461C46C7
:103040009DF820609DF8245015F0010F0AD115F06D
:10305000020F18D115F0080F28D115F0040F38D140
:10306000BDE8F883B21A59180123D2B2C9B2FFF7EA
:10307000D3FEF21B04EB09010123D2B2C9B24046D0
:10308000FFF7CAFEE3E7A6EB0902E11B0123D2B278
:10309000C9B24046FFF7C0FEF21BA4EB09010123B1
:1030A000D2B2C9B24046FFF7B7FED3E706EB09023A
:1030B000E1190123D2B2C9B24046FFF7ADFEBA19F9
:1030C00004EB09010123D2B2C9B24046FFF7A4FEC6
:1030D000C3E706EB0902E11B0123D2B2C9B24046A5
:1030E000FFF79AFEBA19A4EB09010123D2B2C9B2C3
:1030F0004046FFF791FEB3E72DE9F04F85B003900E
:10310000894692461E469DF838B0C3F1010464B268
:10311000C3EBC3184FEA48084FFA88F8CDF804B05B
:1031200000920B4632460021FFF784FF002501275D
:1031300019E0013EF6B208F102034FFA83F854FA9F
:1031400083F464B20135EDB2BB1C5FB254FA83F470
:1031500064B2CDF804B0CDF800A04B463246294603
:103160000398FFF767FFB54202D2002CE1DAE9E7E6
:1031700005B0BDE8F08F10B582B00F240094FFF7C2
:10318000BBFF02B010BD2DE9F04383B080460E4670
:1031900017469DF82C90CD18EDB2013DEDB29DF88B
:1031A00028401444E4B2013CE4B2CDF8049000920B
:1031B0002B46FFF7D9FECDF80490009433463A46EB
:1031C00031464046FFF7D0FECDF8049000942B46E0
:1031D0003A4629464046FFF7C7FECDF804900094D2
:1031E0002B46224631464046FFF7BEFE03B0BDE8FF
:1031F000F083000070B586B004460D461E460949AE
:1032000003A804F0B5FC9DF82C3001939DF82830FC
:103210000093334603AA29462046FFF77DFE06B0F9
:1032200070BD00BFC4AB000840F0BF6040F4003088
:10323000014BD860704700BF00ED00E0C378FBB1E0
:10324000154BDB68DB43C3F30222C2F10401C9B2B0
:103250000F23134142788A40D2B281780B40134346
:103260001B01DBB202780D490A4482F8003303786F
:1032700003F01F005B090122824041F823207047C0
:10328000037803F01F015B0901228A4020330349C0
:1032900041F82320704700BF00ED00E000E100E0AE
:1032A000042806D04FF0E022136923F004031361D1
:1032B00070474FF0E022136943F004031361704735
:1032C000036823F00103036000230360436083600D
:1032D000C3600361212343613C4B98422DD03C4B9A
:1032E00098422ED03B4B984230D03B4B984232D044
:1032F0003A4B984234D03A4B984235D0394B9842A9
:1033000036D0394B984237D0384B984239D0384B69
:1033100098423AD0374B98423CD0374B98423ED0F7
:10332000364B984240D0364B984241D0354B98426C
:1033300042D0354B984243D07047103B3D229A60B3
:103340007047283B4FF474629A607047403B4FF4DB
:1033500074129A607047583B4FF074629A607047DD
:10336000703B2A4ADA607047883B294ADA60704726
:10337000A03B284ADA607047B83B4FF03D52DA6014
:103380007047103B3D229A607047283B4FF47462AF
:103390009A607047403B4FF474129A607047583BF4
:1033A0004FF074629A607047703B184ADA60704759
:1033B000883B174ADA607047A03B164ADA607047CC
:1033C000B83B4FF03D52DA60B6E700BF10600240F4
:1033D0002860024040600240586002407060024035
:1033E00088600240A0600240B86002401064024061
:1033F0002864024040640240586402407064024005
:1034000088640240A0640240B86402403D0000208D
:10341000400F002000003D2010B40368134A1A40FA
:103420000B68CC6823434C6923438C692343CC69E4
:1034300023430C6A23434C6A23438C6A23434C6B1B
:1034400023438C6B234313430360426922F007023A
:10345000CB6A0C6B2343134343610B6943604B6896
:1034600083608B68C3605DF8044B70473F801CF03D
:1034700021B1036843F0010303607047036823F040
:1034800001030360704741607047406880B2704735
:10349000036813F0010F01D001207047002070472E
:1034A0000B4B98420DD8A3F20F4311F0005F0AD0E6
:1034B0005B6823F0F02323F08213194205D001202A
:1034C0007047044BF1E71B68F3E70020704700BF2B
:1034D0000F640240006402400A4B98420AD8A3F2EB
:1034E0000F4311F0005F07D021F0F02121F082118D
:1034F000D9607047044BF4E721F0F02121F08211EC
:10350000996070470F64024000640240014B5861AB
:10351000704700BF003C014000230F2B4ED830B550
:1035200016E0C2681FFA83FE4FEA4E044FF0030E06
:103530000EFA04FE22EA0E02C260C26891F807E0A9
:103540000EFA0CFC42EA0C02C26001330F2B34D895
:1035500001229A400C68A243F7D104684FEA430C59
:10356000032202FA0CF26FEA020E24EA020202605F
:1035700002680C7904FA0CF4224302600A79013AD9
:10358000D2B2012ACDD882680EEA02028260826835
:103590004C7904FA0CF42243826044689DB24FF0E7
:1035A000010E0EFA05FE24EA0E04446044688A798E
:1035B000AA4092B222434260B3E730BD704703692C
:1035C000194201D0012070470020704701837047E5
:1035D0004183704700B501F007039B0002FA03FC2A
:1035E000C908083150F821204FF00F0E0EFA03F3EE
:1035F00022EA030340F8213050F8212042EA0C026D
:1036000040F821205DF804FB10B4294B9B6803F0BF
:103610000C03042B23D0082B24D013B1254B0360BB
:1036200001E0244B0360224CA368C3F30313224937
:10363000CB5CDAB20368D3404360A268C2F3822253
:103640008A5CD2B223FA02F28260A268C2F34232EA
:103650008A5CD2B2D340C3605DF8044B7047174B0D
:103660000360E0E7124B59685A6802F03F0211F418
:10367000800F12D0114BB3FBF2F30D4A5268C2F324
:10368000881202FB03F30A4A5268C2F30142013274
:103690005200B3FBF2F30360C5E7064BB3FBF2F352
:1036A000034A5268C2F3881202FB03F3EBE700BF40
:1036B000003802400024F400BC00002000127A0010
:1036C00021B1054A136B184310637047024A136B0C
:1036D00023EA0000106370470038024021B1054A18
:1036E000536B184350637047024A536B23EA000040
:1036F000506370470038024021B1054A136C1843EB
:1037000010647047024A136C23EA0000106470478B
:103710000038024021B1054A536C18435064704789
:10372000024A536C23EA000050647047003802409C
:1037300021B1054A136A184310627047024A136A9E
:1037400023EA0000106270470038024021B1054AA8
:10375000536A184350627047024A536A23EA0000D2
:10376000506270470038024008B52A4B98420FD08B
:10377000294B984217D0294B98421FD0284B98428A
:1037800027D0284B98422FD0274B984237D008BDDE
:1037900001214FF48050FFF7D9FF00214FF48050F2
:1037A000FFF7D4FFF3E701214FF48040FFF7C0FF9C
:1037B00000214FF48040FFF7BBFFE8E701214FF401
:1037C0000040FFF7B5FF00214FF40040FFF7B0FFC6
:1037D000DDE701214FF40050FFF7B8FF00214FF45F
:1037E0000050FFF7B3FFD2E701214FF48010FFF73D
:1037F000ADFF00214FF48010FFF7A8FFC7E70121BC
:103800004FF40010FFF7A2FF00214FF40010FFF764
:103810009DFFBCE70030014000380040003C004004
:103820000034014000500140005401402DE9F041B6
:10383000038803F441520F88B1F802808E88CD8846
:103840000C89B1F80AE0B1F80CC0CB8947EA080747
:103850003E4335432C434EEA040E4CEA0E0C43EA39
:103860000C0313430380838B9BB223F400639BB24E
:1038700083830B8A0382BDE8F08129B103889BB260
:1038800043F040030380704703889BB223F040035A
:103890009BB203807047808980B2704781817047F6
:1038A0000389194201D00120704700207047028A25
:1038B00083890B40114202D01BB9002070470020C1
:1038C000704701207047C94389B2018270470000E8
:1038D00008B5364B984215D0354B98421BD0354B26
:1038E000984223D0344B98422BD0344B984233D05B
:1038F000334B98423BD0334B984241D0324B9842A5
:1039000049D008BD01211020FFF720FF0021102021
:10391000FFF71CFFF5E701214FF40030FFF708FF28
:1039200000214FF40030FFF703FFEAE701214FF4D5
:103930008020FFF7FDFE00214FF48020FFF7F8FE06
:10394000DFE701214FF40020FFF7F2FE00214FF4E2
:103950000020FFF7EDFED4E701214FF48010FFF7C0
:10396000E7FE00214FF48010FFF7E2FEC9E70121D6
:103970002020FFF7EBFE00212020FFF7E7FEC0E745
:1039800001214FF08040FFF7D3FE00214FF080402F
:10399000FFF7CEFEB5E701214FF00040FFF7C8FE6C
:1039A00000214FF00040FFF7C3FEAAE700100140DE
:1039B0000044004000480040004C004000500040DF
:1039C0000014014000780040007C004030B585B014
:1039D00004460D46038A9BB223F44053CA8813431E
:1039E000038283899BB223F4B05323F00C038988AC
:1039F00028896A8901430A431343A381A38A9BB29E
:103A000023F44073AA891343A3826846FFF7FCFDA1
:103A10001F4B9C4205D003F580639C4201D0029B62
:103A200000E0039BA28912F4004F1FD103EB830334
:103A300003EB83032A689200B3FBF2F3154AA2FB5F
:103A4000031252091101642002FB1033A28912F4FF
:103A5000004F14D11B0132330E4AA2FB0323C3F3E0
:103A600043130B439BB2238105B030BD03EB8303AB
:103A700003EB83032A685200B3FBF2F3DEE7DB00BB
:103A80003233044AA2FB0323C3F342130B43E9E797
:103A9000001001401F85EB5129B183899BB243F48B
:103AA00000538381704783899BB223F400539BB2F8
:103AB00083817047C1F30801818070478088C0F31B
:103AC0000800704722B1838A9BB2194381827047F4
:103AD000838AC94389B2194081827047C1F3421C6D
:103AE00001F01F01012303FA01F19C4508D0BCF14C
:103AF000020F07D014303AB10368194301607047D0
:103B00000C30F8E71030F6E7036823EA01010160A2
:103B100070470388194201D0012070470020704788
:103B2000C1F3421201F01F0C012303FA0CF3012A26
:103B30000FD0022A11D0828A92B21340090A0122C0
:103B400002FA01F1028892B20A4053B15AB9002038
:103B50007047828992B21340F0E7028A92B2134012
:103B6000ECE70020704701207047090A01238B40D1
:103B70009BB2DB439BB2038070479DF804C0016099
:103B800042608360BCF1020F14D0BCF1010F17D06A
:103B9000009B0361002343614FF480628261C36133
:103BA00003624FF480328262C36203220263436382
:103BB000836370470023C3604FF480734362E7E779
:103BC0004023C36000234362E2E770B50C4616460B
:103BD0001D460121FFF774FD2046FFF771FB2046CB
:103BE000FFF756FC0028FAD131462046FFF714FCB7
:103BF00029462046FFF73CFC70BD000001EBC001E8
:103C0000014B53F8210070472CA5002010B582B05D
:103C100001210846FFF754FD0F4C072209212046D9
:103C2000FFF7D8FC07220A212046FFF7D3FC4FF408
:103C3000C063009302238DF8043003238DF8053010
:103C400000238DF8063001238DF8073069462046A1
:103C5000FFF762FC02B010BD0000024010B582B058
:103C600001210846FFF72CFD0F4C072202212046B8
:103C7000FFF7B0FC072203212046FFF7ABFC0C2323
:103C8000009302238DF8043003238DF805300023C0
:103C90008DF8063001238DF8073069462046FFF77E
:103CA0003BFC02B010BD00BF0000024010B582B066
:103CB00001210220FFF704FD0F4C07220A212046B4
:103CC000FFF788FC07220B212046FFF783FC4FF407
:103CD0004063009302238DF8043003238DF80530F0
:103CE00000238DF8063001238DF807306946204601
:103CF000FFF712FC02B010BD0004024010B582B004
:103D000001210420FFF7DCFC0F4C0822062120468D
:103D1000FFF760FC082207212046FFF75BFCC02369
:103D2000009302238DF8043003238DF8053000231F
:103D30008DF8063001238DF8073069462046FFF7DD
:103D4000EBFB02B010BD00BF0008024010B582B00E
:103D500001210846FFF7B4FC114C0522062120463C
:103D6000FFF738FC052207212046FFF733FC052228
:103D700011462046FFF72EFCE023009302238DF826
:103D8000043000238DF8063003228DF805208DF8CD
:103D9000073069462046FFF7BFFB02B010BD00BFE9
:103DA0000000024070B582B001210220FFF788FCBC
:103DB000194C05220E212046FFF70CFC05220F218D
:103DC0002046FFF707FC05220D212046FFF702FCE5
:103DD0004FF44043009302268DF8046000258DF8CF
:103DE000065003238DF805308DF8075069462046AC
:103DF000FFF792FB4FF4005300938DF804608DF8A9
:103E000006508DF805608DF8075069462046FFF78B
:103E100083FB02B070BD00BF0004024010B582B049
:103E200001210420FFF74CFC114C06220B212046F7
:103E3000FFF7D0FB06220C212046FFF7CBFB062222
:103E40000A212046FFF7C6FB4FF4E05300930223FC
:103E50008DF8043000238DF8063003228DF80520FC
:103E60008DF8073069462046FFF756FB02B010BDBB
:103E70000008024070B582B00446084615461E464A
:103E80000121FFF71DFC9DF8182031462046FFF761
:103E9000A1FB009502238DF8043000228DF8072045
:103EA0008DF8053001238DF8063069462046FFF76E
:103EB00033FB02B070BD30B583B00D46144601210E
:103EC000FFF7FEFB01238DF8043000228DF8062059
:103ED0008DF8073002238DF805300095694620469D
:103EE000FFF71AFB03B030BD30B583B00D46144662
:103EF0000121FFF7E5FB00238DF804308DF8063033
:103F000002238DF807308DF805300095694620466C
:103F1000FFF702FB03B030BD08B5FFF750FB08BD4B
:103F200008B522B1012A01D1FFF752FB08BDFFF706
:103F30004DFBFBE700B583B08DF804008DF805104C
:103F40008DF806208DF8073001A8FFF777F903B048
:103F50005DF804FB10B540F225511C48FFF7E0FD69
:103F600030B940F224411948FFF7DAFDA0B910BD7D
:103F7000002000F00FF948B1002000F00BF90446D2
:103F80001248FFF79BFD0121C0B2A04740F2255126
:103F90000E48FFF7EAFDE4E70D4C00212046FFF74D
:103FA00067FA0A4B9A881B882046FFF76EFA094980
:103FB0002046FFF791FA4FF480712046FFF763FA2D
:103FC00001212046FFF754FAD1E700BF001001405D
:103FD000886402400008002010B540F225511C48BA
:103FE000FFF79EFD30B940F224411948FFF798FDD4
:103FF000A0B910BD012000F0CDF848B1012000F0BB
:10400000C9F804461248FFF759FD0121C0B2A04784
:1040100040F225510E48FFF7A8FDE4E70D4C0021C2
:104020002046FFF725FA0A4B9A881B882046FFF79F
:104030002CFA09492046FFF74FFA4FF480712046C9
:10404000FFF721FA01212046FFF712FAD1E700BF5E
:1040500000440040886002400008002010B540F293
:1040600025511C48FFF75CFD30B940F22441194846
:10407000FFF756FDA0B910BD022000F08BF848B143
:10408000022000F087F804461248FFF717FD0121CF
:10409000C0B2A04740F225510E48FFF766FDE4E7A5
:1040A0000D4C00212046FFF7E3F90A4B9A881B8844
:1040B0002046FFF7EAF909492046FFF70DFA4FF4C9
:1040C00080712046FFF7DFF901212046FFF7D0F984
:1040D000D1E700BF004800402860024000080010FF
:1040E00010B540F225511C48FFF71AFD30B940F2D7
:1040F00024411948FFF714FDA0B910BD032000F0BA
:1041000049F848B1032000F045F804461248FFF78B
:10411000D5FC0121C0B2A04740F225510E48FFF75F
:1041200024FDE4E70D4C00212046FFF7A1F90A4BDE
:104130009A881B882046FFF7A8F909492046FFF70F
:10414000CBF94FF480712046FFF79DF901212046FD
:10415000FFF78EF9D1E700BF001401402864024048
:1041600000080010016000238380C38003818381E5
:104170000C234381704701604FF4805383804FF4D8
:104180000053C3804FF480630381002383810C2399
:1041900043817047032803D8024B53F8200070472F
:1041A000002070476CA50020032804D8034B43F877
:1041B0002010012070470020704700BF6CA5002030
:1041C000F0B585B004460F4615461E46174B53F80A
:1041D00020309847164B53F824300121154A52F8E5
:1041E000240098479DF82820134B53F82230394675
:1041F00068469847114F694657F82400FFF7E6FBD9
:10420000012157F82400FFF747FC012240F2255115
:1042100057F82400FFF762FC01233246294608487C
:10422000005DFFF787FE05B0F0BD00BF48AC000899
:10423000D8AB0008E8AB00085CAC0008CC0000205C
:1042400058AC0008F0B597B004460D4616461F4618
:10425000314B53F820309847304B53F8243001212C
:104260002F4A52F8240098479DF878202D4B53F898
:104270002230294612A898472B4D12A955F8240040
:10428000FFF7A4FB002240F2255155F82400FFF768
:1042900025FC002240F2266155F82400FFF71EFCA1
:1042A000002240F2277155F82400FFF717FC012285
:1042B00040F2244155F82400FFF710FC0122402170
:1042C00055F82400FFF7FEFB55F824200223019344
:1042D000BDF8743000931C9B0432144951F824102B
:1042E00003A8FFF74AFC012303AA114951F824103F
:1042F000104850F82400FFF768FC01233A46314685
:104300000D48005DFFF716FE012155F82400FFF768
:10431000C3FB17B0F0BD00BF48AC0008D8AB000825
:10432000E8AB00085CAC0008CC00002008AC00083A
:1043300018AC0008F8AB000858AC0008032801D9F5
:104340000020704770B504460026154B43F82060E6
:10435000144D55F82000FFF7BBFA324640F22551C4
:1043600055F82400FFF7BAFB324640F2266155F8B3
:104370002400FFF7B3FB324640F2277155F82400C2
:10438000FFF7ACFB324640F2244155F82400FFF71A
:10439000A5FB314655F82400FFF77EFB012070BDD8
:1043A0006CA50020CC0000202DE9F043A5B0044608
:1043B0000D4616461F46BDF8B890404B53F82030C6
:1043C00098473F4B53F8243001213E4A52F82400CD
:1043D00098479DF8BC203C4B53F82230294620A832
:1043E00098473A4D20A955F82400FFF7EFFA00222C
:1043F00040F2255155F82400FFF770FB002240F2EF
:10440000266155F82400FFF769FB002240F227716E
:1044100055F82400FFF762FB012240F2244155F8D1
:104420002400FFF75BFB55F8242002230193CDF80D
:1044300000902C9B0432264951F8241011A8FFF754
:104440009CFB244B53F82480012311AA224951F8E4
:1044500024104046FFF7B9FB01233A4631461F4876
:10446000005DFFF767FD55F8242001260196CDF881
:1044700000902D9B04321A4951F8241002A8FFF72E
:104480007CFB002302AA174951F824104046FFF78D
:104490009CFB3246402155F82400FFF713FB3246BF
:1044A000802155F82400FFF70DFB314655F8240014
:1044B000FFF7F2FA25B0BDE8F08300BF48AC000872
:1044C000D8AB0008E8AB00085CAC0008CC000020CA
:1044D00008AC0008F8AB000818AC000858AC00089D
:1044E00028AC000838AC0008F8B504460F4616465C
:1044F00000250FE04021094B53F82400FFF709FB8A
:104500000028F7D0795D054B53F82400FFF7D2FA65
:104510000135EDB2ABB2B342ECD3F8BDCC00002014
:1045200038B50D46084B53F82040084B53F820107F
:104530002046FEF7D1FF29462046FEF7A4FF0121C1
:104540002046FEF795FF38BD38AC0008C8AB000820
:1045500010B5044603280FD8084B53F82410084B15
:1045600053F82400FEF79CFF0128F5D10021044BED
:1045700053F82400FEF77CFF10BD00BFC8AB000855
:1045800038AC000808B5034B53F82000FFF7ECF8EF
:1045900008BD00BF7CAC0008F0B587B004460D46EE
:1045A00017461E46204B53F820309847A4BB0121E4
:1045B0001E4B53F82400FFF7ADF81D4B53F8244071
:1045C0002046FFF7D1F800212046FFF756F94FF4B7
:1045D0008273ADF806300023ADF80430ADF8083032
:1045E0004FF40072ADF80E20ADF81230ADF80A703D
:1045F000ADF80C600723ADF814300E4B33F81530CE
:10460000ADF8103001A92046FFF710F9012120462E
:10461000FFF733F907B0F0BD0121044B53F8240034
:10462000FFF76AF8C9E700BF70AC000864AC000887
:104630007CAC000888AC000838B50D460A4B53F82E
:10464000204000212046FFF718F923889BB223F071
:104650003803064A32F815201343238001212046EF
:10466000FFF70BF938BD00BF7CAC000888AC000830
:1046700070B505460E46002402210A4B53F825006A
:10468000FFF70EF930B90134A4B2B4F57A7FF3D94B
:10469000002006E03146034B53F82500FFF7FEF8F3
:1046A000012070BD7CAC000870B505460E460024A4
:1046B0000221154B53F82500FFF7F2F830B9013409
:1046C000A4B2B4F57A7FF3D900201BE0FF210E4B92
:1046D00053F82500FFF7E2F8002401210A4B53F8B4
:1046E0002500FFF7DDF830B90134A4B2B4F57A7FC4
:1046F000F3D9002006E0044B53F82500FFF7CBF870
:104700003070012070BD00BF7CAC0008F8B50546D4
:104710000F46164600240221144B53F82500FFF7DC
:10472000BFF830B90134A4B2B4F57A7FF3D90020D0
:104730001BE039460D4B53F82500FFF7AFF8002476
:1047400001210A4B53F82500FFF7AAF830B90134CC
:10475000A4B2B4F57A7FF3D9002006E0034B53F8F6
:104760002500FFF798F830700120F8BD7CAC0008F8
:104770002DE9F84305460F461646204A52F82020F8
:1047800092894FF47A7403F1FF381FFA88F883B3E3
:104790006EB116F8019B0221184B53F82500FFF764
:1047A0007FF838B9631E9BB224B31C46F3E74FF081
:1047B000FF09F0E74946114B53F82500FFF76EF863
:1047C0004FF47A7401210D4B53F82500FFF768F878
:1047D00020B9631E9BB26CB11C46F3E7074B53F83C
:1047E0002500FFF758F8C0B20FB107F8010B434698
:1047F000C9E744462046BDE8F88300BF7CAC00080A
:1048000008B501214FF08040FFF751F8012800D092
:1048100008BD01214FF08040FFF755F8F8E7000090
:1048200008B501210548FFF742F8012800D008BD6E
:1048300001210248FFF747F8F9E700BF00040040F4
:1048400008B501210548FFF732F8012800D008BD5E
:1048500001210248FFF737F8F9E700BF00080040E0
:1048600008B506210020FFF7C9F920B10621002074
:10487000FFF7C4F9804708BD08B503210020FFF702
:10488000BDF920B103210020FFF7B8F9804708BD2A
:1048900008B507210120FFF7B1F920B10721012058
:1048A000FFF7ACF9804708BD08B58C461146624653
:1048B0000078FFF75DFF08BD08B50078FFF726FF19
:1048C00008BD08B50078FFF7EFFE08BD08B5007811
:1048D000FFF7CEFE08BD08B541780078FFF7ACFEC3
:1048E00008BD08B50078FFF74DFE08BD08B5838800
:1048F000428841780078FFF74FFE08BD704710B539
:10490000047B012C02D00024204610BD81888068E1
:10491000FFF702FB0028F7D00224F5E708B5037B78
:104920003BB9012907D0002281888068FFF7F8FA97
:1049300008BD0020FCE7012281888068FFF7F0FABB
:10494000F6E700B583B0017301290BD002290FD01F
:1049500011B103B05DF804FB826881880068FFF73D
:10496000AAFAF6E7826881880068FFF7BDFAF0E7E7
:10497000437B00938379828801688068FFF77AFA25
:10498000E7E7000070B5044600EB8000154B13F814
:10499000203003B970BD0E461546134800EB842045
:1049A00002F066FC04EB84030E4A02EB83039B7A5D
:1049B000012B06D9022BEDD129462046FFF7B0FD89
:1049C00004E02A4631462046FFF78EFD04EB8403BF
:1049D000044A02EB83031B7C002BDBD12046FFF74C
:1049E000B7FDD7E77CA50020E0B9002070B584B002
:1049F0000446154601295AD0022975D011B100206C
:104A000004B070BD102BFBD100EB8003394A12F8C3
:104A100023000028F4D1042C37D0AB79012B10D01F
:104A2000022B1ED0002BEBD16B792A79002100914B
:104A300029682046FFF7C4FBA9682046FFF7B4FBAE
:104A400025E02D4901EB84216B792A790020029021
:104A50004FF480600190009129682046FFF7F2FB37
:104A600015E0254901EB8421244800EB84206B7973
:104A70002A79002603964FF48066029601900091F1
:104A800029682046FFF790FC01E000F039F8194B47
:104A900004EB84024FF0010C03F822C003EB820404
:104AA000043495E80F0084E80F006046A8E7FFF79C
:104AB00045FC00212046FFF777FB0323AB71002262
:104AC0002A716A712A60AA600A4B04EB840189008A
:104AD0005A5404EB840403EB8404043495E80F0077
:104AE00084E80F0001208BE71146FFF75DFB0120F2
:104AF00086E700BF7CA50020E0A50020E0B90020EB
:104B000008B500F077F808BD08B500F009F808BD51
:104B100010B5084614461146FFF7F6FF204610BDB3
:104B200008B501F043FB002008BD00000D4B1B68D9
:104B3000FF2B01D90220704710B40B4A1268FF2ADC
:104B400002D9094A0021116007490A68074CA0549C
:104B500001320A600133034A136000205DF8044B00
:104B6000704700BFDCD50020D8D50020E0CD002064
:104B700000238B421ED200B508E00CF1010C0E4A56
:104B8000A2F800C001339BB28B4211D20A4AB2F89C
:104B900000C010F803E0624482F802E0C25C0D2A13
:104BA000EBD1C21852780A2AE7D1044B01221A70BD
:104BB0005DF804FB704700BFE0CE0020E3CF00208B
:104BC000014B1878704700BFE3CF00200023074A4D
:104BD0001370074A138005E0054A1A4400219170BA
:104BE00001339BB2FF2BF7D9704700BFE3CF002002
:104BF000E0CE002010B582B00B4B00930B4B0C4A5B
:104C000001210C4801F020FC00240B4B1C600B4BD5
:104C10001C600B4B1C600B4B01221A70FFF7D6FF78
:104C2000204602B010BD00BF0C020020140100207D
:104C3000EC010020E4CF0020D8D50020E0D50020F2
:104C4000DCD50020E2CF0020F0B583B0012108467A
:104C5000FEF736FD4FF4C053009303278DF805701F
:104C600002238DF8043000268DF806608DF8076069
:104C70001D4C69462046FEF74FFC0A220B212046B8
:104C8000FEF7A8FC0A220C212046FEF7A3FC4FF4F5
:104C9000007300938DF805708DF8046001258DF880
:104CA00006508DF8076069462046FEF735FC4FF444
:104CB000806300938DF806508DF807508DF80570CD
:104CC00069462046FEF728FC0A2211462046FEF7D8
:104CD00081FC29464FF48040FEF71CFD29468020C8
:104CE000FEF7FCFC03B0F0BD0000024000B583B04D
:104CF0004FF4C060FEF798FA43238DF80430012387
:104D00008DF8053003228DF806208DF8073001A8B4
:104D1000FEF794FA03B05DF804FB0000C0EB00104E
:104D2000C000064AA2FB0032801A02EB5002920831
:104D3000002301339A42FCD2704700BF25499224D8
:104D400008B54FF47A7303FB00F0FFF7E7FF08BDE7
:104D500008B54FF48020FEF7D9FB08BD08B502481E
:104D600000F0D3FE08BD00BFE4CF0020C3684FF0C1
:104D7000FF325A60C3686FF080425A61C368014ACB
:104D80009A6170470008008030B583B00546002462
:104D900001940320FFF7C2FFEB681A690192013406
:104DA0000E4A944217D8019A002AF2DA019A42F088
:104DB00001020192019A1A610023EA6812690192C4
:104DC0000133064A934203D8019A12F0010FF4D13D
:104DD0000320FFF7A3FF002003B030BD400D030008
:104DE00010B4C47874B903334FEAA30C323200EB29
:104DF00082008068002303E051F8042B0260013335
:104E00006345F9D300205DF8044B704710B40346A6
:104E10000846D11C8910D3F8D040002303E0226853
:104E200040F8042B01338B42F9D35DF8044B7047F3
:104E300030B40023C3700123837040238380012991
:104E40000BD0E9B90023C3720C230370062343700F
:104E50004FF4A063C3802B4C0CE00123C3720823E2
:104E60000370042343704FF4A073C38002230372C2
:104E70004FF0A044C46004F500630361002311E017
:104E80000024F7E704EB431202F51065191D00EB4F
:104E900081018D6002F5306203F1140100EB8101A4
:104EA0004A60013342789A42ECD804F5806343614A
:104EB00004F58863C0F8CC30002309E004EB43110B
:104EC00001F5A06103F1220200EB8202916001333F
:104ED00090F800C09C45F1D8002309E004EB0331B1
:104EE00001F5805103F1320200EB8202916001333F
:104EF0009C45F3D804F56064C0F80C41002030BC38
:104F0000704700BF0000044010B50446037A012B2F
:104F10001DD1C268936B6FF31043417A09B143F41A
:104F200080139363E268D3686FF386136FF396532D
:104F30006FF351436FF3D343D3602046FFF724FF51
:104F4000E378012B15D1E3682A229A6011E0C26848
:104F5000D36843F04003D360FFF716FF4FF43413D8
:104F6000627A0AB14FF47413E26893631420FFF776
:104F7000E7FEE378012B01D0002010BDE2689368C2
:104F8000052161F3440343F020039360F4E7C26812
:104F9000936843F00103936000207047C2689368F0
:104FA00023F00103936000207047000000B583B038
:104FB00000230193019A42F020020192019A61F3C9
:104FC0008A120192C26801991161C2681269019244
:104FD0000133074A934203D8019A12F0200FF4D10B
:104FE0000320FFF79BFE002003B05DF804FB00BF29
:104FF000400D030000B583B000230193019A42F0F5
:1050000010020192C26801991161C268126901928D
:105010000133074A934203D8019A12F0100FF4D1DA
:105020000320FFF77BFE002003B05DF804FB00BF08
:10503000400D030008B5C268D3686FF35D736FF36A
:105040009E73012903D021B943F0804301E043F06E
:105050000053D3603220FFF773FE002008BDC36801
:10506000586900F00100704708B5FFF7F8FF0138F4
:1050700018BF012008BDC36858699B691840704774
:105080000269136861F301031360704738B5054680
:105090000024C3689C61C3686FF080425A61FFF7C7
:1050A00065FEEB7803B9102444F4701444F46054A2
:1050B00044F00804EA68936923EA04031C439461FA
:1050C000002038BD10B504460021D0F80C3119601D
:1050D0000269136861F3CC231360C37A012B12D0E9
:1050E00010212046FFF762FF2046FFF783FF226969
:1050F000002313612269536122694FF0FF319161EE
:105100002269D36124E00321FFF7BAFFE36880221C
:105110005A62E36802F500129A62E368294AC3F80A
:105120000421E368284AC3F80821E3684FF4A07219
:10513000C3F80C21D4E74FF0904111601A1D04EB25
:1051400082029168002008619268FF21916001331A
:1051500062789A4208D91A1D04EB8202926811689B
:105160000029E8DB0021E8E700230DE04FF0904143
:10517000116003F1140204EB8202516800200861FF
:105180005268FF219160013362789A4209D903F194
:10519000140204EB8202526811680029E6DB002148
:1051A000E6E72269136943F480731361E378012B06
:1051B00004D02046FFF76AFF002010BD2369034A90
:1051C0001A63F6E7A000800020012000030181009F
:1051D00003699B68C3F34103022B07D0032B07D05D
:1051E000012B01D003207047022070470120704737
:1051F0000220704703699B6882691168C3F3410309
:10520000022B09D06FF30A0111600269536843F45D
:105210008073536000207047032363F30A01F3E7B0
:1052200010B54FF0000E4A78012A23D00B7803F115
:10523000140C00EB8C0CDCF8044001229A4062F361
:105240001F4E236813F4004F0DD18A6862F30A03DE
:10525000CA7862F39343CA8862F3995343F0805348
:1052600043F4004323600269D36943EA0E03D36128
:10527000002010BD91F800C00CF1040200EB820286
:105280009468012303FA0CF363F30F0ED9E7034686
:105290004FF0000C4A78012A11D0087800F114016F
:1052A00003EB810149680122824062F31F4C002018
:1052B00008601A69D36923EA0C03D3617047087840
:1052C000011D03EB81018968824062F30F0CEEE758
:1052D00070B54B78012B20D00B78143300EB83038F
:1052E0005D682B682C694A69002A6BD18A6862F371
:1052F0001204012262F3DC442C61C278012A71D0CD
:10530000CA78012A76D043F004430A78143200EBBD
:10531000820042681360002070BD0B78043300EBFC
:1053200083039D682B682C694A69B2B96FF3120434
:10533000012262F3DC442C61C278012A1CD0CA78B5
:10534000012A20D04A69F2B10C78012202FA04F451
:1053500005696A6B22436A6315E062F312048E6882
:105360003244013AB2FBF6F262F3DC44CA78012A15
:10537000E1D162F35E74DEE70A78043200EB820268
:1053800092680C695461CA78012A10D043F0044332
:105390000A78043200EB820292681360CB78012B0A
:1053A000B9D18B8A0A78C968FFF71AFDB3E7026999
:1053B000926812F4807F02D143F00053E6E743F095
:1053C0008053E3E78E683244013AB2FBF6F2C2F34F
:1053D000090262F3DC44C6F3120606FB02F262F332
:1053E000120489E70A78143200EB820252680C69D1
:1053F000546185E74A7912B143F0005383E743F0E3
:10540000805380E730B482B0002300934B78012BA7
:105410002ED00B7803F1140200EB8202546822684C
:10542000246900944C69002C6CD18D689DF8004073
:1054300065F306048DF800409DF80240012565F3F0
:10544000C4048DF80240143300EB83035B68009CB6
:105450001C61C378012B65D042F004420B781433F1
:1054600000EB830043681A60002002B030BC704734
:1054700083691A681C6900944C6914BB9DF800404C
:105480006FF306048DF800409DF80240012565F396
:10549000C4048DF80240009C1C61C478012C29D002
:1054A00042F004421A60C378002BDDD14B69002B17
:1054B000DAD00A78012393400269516B0B4353639E
:1054C000D2E78D68AC420ED94D619DF8004065F37E
:1054D00006048DF800409DF80240012565F3C404E0
:1054E0008DF80240D7E79DF8005064F306058DF86B
:1054F0000050F0E70C78043400EB8404A4680D69D4
:105500006561CDE78D684D619DF8004065F3060447
:105510008DF800409DF80240012565F3C4048DF824
:10552000024090E70B78143300EB83035B680C694F
:105530005C6191E74B78012B0AD00B78143300EBB8
:1055400083004268136843F400131360002070471F
:105550000B78043300EB830082681368002B03DBB5
:1055600043F400131360F1E743F08043F8E74B780E
:10557000012B0FD00B78143300EB830040680268D6
:105580006FF35552CB78023BDBB2012B08D9026096
:10559000002070470B78043300EB83008068EEE74F
:1055A00042F08052F3E703699869DB691840000C08
:1055B0007047143100EB81014B689A6803695869A0
:1055C0001040704703699869DB69184080B27047E2
:1055D00082B0002300939DF8033043F0C0038DF8A0
:1055E00003309DF80230012262F3C4038DF80230CB
:1055F0009DF80030182262F306038DF80030436DE9
:1056000002F1404202F500221A61C378012B01D059
:1056100002B0704700F2CC52436D5A61436D1A6874
:105620004FF080221A60F3E710B50446837A43B145
:10563000D0F80C316FF341036FF30003D0F80C2165
:1056400013602269536823F001035360054B1B6804
:105650009B6920469847E3684FF000425A61012059
:1056600010BD00BFD001002010B582B00446002359
:105670008DF8073090F812318DF80730164B1B6803
:105680005B69984723699968E3684FF400625A613F
:10569000A37A33B111F0010F03D094F81531012B27
:1056A00002D0012002B010BD9DF80730DBB2032B01
:1056B000F7D1D4F80C21136843F001031360D4F838
:1056C0000C21136843F003031360044A136943F089
:1056D00006031361E5E700BFD001002000ED00E004
:1056E00010B50446044B1B68DB689847E368082242
:1056F0005A61012010BD00BFD001002010B5044642
:10570000044B1B68DB699847E3684FF480125A61C9
:10571000012010BDD001002010B50446044B1B68C9
:105720001B6A9847E3684FF400125A61012010BDCC
:10573000D001002010B402691469536BCB40DB0127
:10574000DBB22343043100EB81008268906818408B
:105750005DF8044B704700002DE9F0418046FFF7EB
:1057600022FF044600252CE005F1140308EB830317
:105770005B68196905EB850308EBC303D3F87C2349
:10578000C1F31201521AC3F88C2332E016F0020F53
:1057900006D0022605F1140308EB83035B689E60C4
:1057A00016F0080F0BD01E4B1B689B6840469847AD
:1057B00005F1140308EB83035B6808229A60013546
:1057C000640854B314F0010FF9D0EFB239464046E3
:1057D000FFF7EFFE064610F0010FD7D0012605F1C6
:1057E000140308EB83035B689E6098F80330B342B0
:1057F000BAD00B4B1B681B6839464046984798F84F
:105800000330012BC2D1002DC0D198F81131052BE6
:10581000BCD14046FFF7DCFEB8E70120BDE8F081CF
:10582000D00100202DE9F04107460C4601EB810331
:1058300000EBC303D3F83021D3F83411521AD3F854
:105840002431934200D3134603F103084FEA98082A
:10585000231D07EB83039B689B691DE006F103088A
:105860004FEA980804EB840507EBC505B3B2E2B232
:10587000D5F828113846FFF7B3FAD5F82831334464
:10588000C5F82831D5F834313344C5F83431231DF7
:1058900007EB83039B689B699BB2434515D904EBD7
:1058A000840207EBC202D2F83411D2F830319942A7
:1058B0000BD253B15B1A04EB840207EBC202D2F89D
:1058C00024619E42CAD31E46C8E70120BDE8F0818C
:1058D0002DE9F0418046FFF775FE0446002728E0D9
:1058E00015F0080F05D008253B1D08EB83039B68C6
:1058F0009D6015F0100F05D010253B1D08EB8303AC
:105900009B689D6015F0400F05D040253B1D08EBBE
:1059100083039B689D6015F0020F05D002253B1D97
:1059200008EB83039B689D6015F0800F32D101372F
:105930006408002C39D014F0010FF8D0FEB23146C3
:105940004046FFF7F7FE054610F0010FC8D00123CF
:1059500003FA07F0D8F810104A6B22EA00024A63F3
:105960001D463A1D08EB820292689360104B1B683B
:105970005B6831464046984798F80330AB42AFD158
:10598000002FADD198F81131042BA9D14046FFF773
:105990001FFEA5E739464046FFF744FF3B1D08EBD5
:1059A00083039B6880229A60C1E70120BDE8F081F3
:1059B000D00100202DE9F0410446C268936923F02C
:1059C00010039361C3681D6A05F00F06C5F34343D6
:1059D000022B09D0062B21D0E268936943F0100313
:1059E00093610120BDE8F08147F6F0732B42F3D0BC
:1059F000C5F30A1506EB860700EBC7072A46D7F85A
:105A00008013FFF703FAD7F880332B44C7F88033AD
:105A1000D7F88C331D44C7F88C53DDE7082200F219
:105A2000CC51FFF7F3F9C5F30A1506EB860304EB37
:105A3000C303D3F88C231544C3F88C53CCE7000080
:105A400070B50546002426460269536823F0010319
:105A500053602146FFF7AAFA21460CE00B1D05EB27
:105A600083039B68FF229A6001F1140305EB830313
:105A70005B689A6001316B788B42EFD82B694FF0ED
:105A8000FF329A612B694FF00112DA610B242B6906
:105A90005C6126432B691E612A6913686FF30A1340
:105AA00013602846FFF794FDEB684FF480525A616B
:105AB000034B1B681B6928469847012070BD00BF37
:105AC000D001002038B50446FFF794FBE368DD6899
:105AD0002046FFF77DFB03280ED00123A37040234F
