:020000040800F2
:10000000000002200D57000811510008135100088C
:1000100027510008295100082B510008000000005A
:100020000000000000000000000000002D5100084A
:100030002F51000800000000315100086D510008E8
:100040005D5700085D5700085D5700085D570008C0
:100050005D5700085D5700085D5700085D570008B0
:100060005D5700085D5700085D5700085D570008A0
:100070005D5700085D570008AB3B00085D5700085E
:100080005D570008A93B00085D5700085D57000850
:100090005D5700085D5700085D5700085D57000870
:1000A0005D5700085D5700085D5700085D57000860
:1000B000493B0008693B0008893B00085D57000880
:1000C0005D5700085D5700085D5700085D57000840
:1000D0005D5700088D3600081D370008AD37000851
:1000E0005D5700085D570008B53C00085D570008E3
:1000F0005D5700085D5700085D5700085D57000810
:100100005D5700085D5700085D5700085D570008FF
:100110005D5700085D5700085D5700085D570008EF
:100120005D5700085D5700085D5700085D570008DF
:100130005D57000800000000000000005D57000847
:100140005D5700085D5700085D570008C13C000876
:100150005D5700085D570008AD3B00083D380008BA
:100160005D5700085D5700085D5700085D5700089F
:100170005D5700085D570008000000000000000007
:080180005D5700085D570008FF
:1001900010B5054C237833B9044B13B10448AFF3C1
:1001A00000800123237010BDF00200200000000039
:1001B0008885000808B5034B1BB103490348AFF31A
:1001C000008008BD00000000F402002088850008BF
:1001D000034613F8012B002AFBD1181A0138704787
:1001E00001F0FF01102A2BDB10F0070F08D010F8E8
:1001F000013B013A8B422DD010F0070F42B3F6D1EC
:10020000F0B441EA012141EA014122F007047FF004
:1002100000070023F0E80256083C85EA010586EA5B
:10022000010685FA47F5A3FA87F586FA47F6A5FA97
:1002300087F68EB9EED1F0BC01F0FF0102F00702A3
:1002400032B110F8013B013A83EA010313B1F8D14E
:100250000020704701387047002D06BF354603382F
:10026000073815F0010F07D1013015F4807F02BF68
:10027000013015F4C03F0130F0BC0138704700BFB9
:1002800081F0004102E000BF83F0004330B54FEA47
:1002900041044FEA430594EA050F08BF90EA020FB4
:1002A0001FBF54EA000C55EA020C7FEA645C7FEA47
:1002B000655C00F0E2804FEA5454D4EB5555B8BF6A
:1002C0006D420CDD2C4480EA020281EA030382EADB
:1002D000000083EA010180EA020281EA0303362D6D
:1002E00088BF30BD11F0004F4FEA01314FF4801C40
:1002F0004CEA113102D0404261EB410113F0004F52
:100300004FEA03334CEA133302D0524263EB430308
:1003100094EA050F00F0A780A4F10104D5F1200EA6
:100320000DDB02FA0EFC22FA05F2801841F1000101
:1003300003FA0EF2801843FA05F359410EE0A5F1D5
:1003400020050EF1200E012A03FA0EFC28BF4CF006
:10035000020C43FA05F3C01851EBE37101F00045BC
:1003600007D54FF0000EDCF1000C7EEB00006EEBC9
:100370000101B1F5801F1BD3B1F5001F0CD3490853
:100380005FEA30004FEA3C0C04F101044FEA4452AA
:1003900012F5800F80F09A80BCF1004F08BF5FEA31
:1003A000500C50F1000041EB045141EA050130BD11
:1003B0005FEA4C0C404141EB0101013C28BFB1F523
:1003C000801FE9D291F0000F04BF01460020B1FA6E
:1003D00081F308BF2033A3F10B03B3F120020CDA41
:1003E0000C3208DD02F1140CC2F10C0201FA0CF01F
:1003F00021FA02F10CE002F11402D8BFC2F1200C84
:1004000001FA02F120FA0CFCDCBF41EA0C01904039
:10041000E41AA2BF01EB0451294330BD6FEA040482
:100420001F3C1CDA0C340EDC04F11404C4F120026D
:1004300020FA04F001FA02F340EA030021FA04F37F
:1004400045EA030130BDC4F10C04C4F1200220FAD6
:1004500002F001FA04F340EA0300294630BD21FA14
:1004600004F0294630BD94F0000F83F4801306BFDA
:1004700081F480110134013D4EE77FEA645C18BFCE
:100480007FEA655C29D094EA050F08BF90EA020F65
:1004900005D054EA000C04BF1946104630BD91EA5D
:1004A000030F1EBF0021002030BD5FEA545C05D160
:1004B0004000494128BF41F0004130BD14F580049F
:1004C0003CBF01F5801130BD01F0004545F0FE4113
:1004D00041F470014FF0000030BD7FEA645C1ABF48
:1004E000194610467FEA655C1CBF0B46024650EA7F
:1004F000013406BF52EA033591EA030F41F40021AB
:1005000030BD00BF90F0000F04BF0021704730B530
:100510004FF4806404F132044FF000054FF0000105
:1005200050E700BF90F0000F04BF0021704730B5C6
:100530004FF4806404F1320410F0004548BF40429B
:100540004FF000013EE700BF42004FEAE2014FEAF0
:1005500031014FEA02701FBF12F07F4393F07F4FCB
:1005600081F06051704732F07F4208BF704793F0CE
:100570007F4F04BF41F40021704730B54FF46074E1
:1005800001F0004521F000411CE700BF50EA0102E4
:1005900008BF704730B54FF000050AE050EA01028D
:1005A00008BF704730B511F0004502D5404261EBFD
:1005B00041014FF4806404F132045FEA915C3FF43E
:1005C000D8AE4FF003025FEADC0C18BF03325FEADB
:1005D000DC0C18BF033202EBDC02C2F1200300FA8C
:1005E00003FC20FA02F001FA03FE40EA0E0021FAB1
:1005F00002F11444BDE600BF70B54FF0FF0C4CF49F
:10060000E06C1CEA11541DBF1CEA135594EA0C0F50
:1006100095EA0C0F00F0DEF82C4481EA030621EA8B
:100620004C5123EA4C5350EA013518BF52EA0335C6
:1006300041F4801143F4801338D0A0FB02CE4FF078
:100640000005E1FB02E506F00042E0FB03E54FF0A8
:100650000006E1FB03569CF0000F18BF4EF0010EA0
:10066000A4F1FF04B6F5007F64F5407404D25FEA9C
:100670004E0E6D4146EB060642EAC62141EA55514F
:100680004FEAC52040EA5E504FEACE2EB4F1FD0C91
:1006900088BFBCF5E06F1ED8BEF1004F08BF5FEA0F
:1006A000500E50F1000041EB045170BD06F00046C1
:1006B00046EA010140EA020081EA0301B4EB5C046E
:1006C000C2BFD4EB0C0541EA045170BD41F4801166
:1006D0004FF0000E013C00F3AB8014F1360FDEBF8B
:1006E000002001F0004170BDC4F10004203C35DA67
:1006F0000C341BDC04F11404C4F1200500FA05F3EA
:1007000020FA04F001FA05F240EA020001F000428A
:1007100021F0004110EBD37021FA04F642EB060100
:100720005EEA430E08BF20EAD37070BDC4F10C042A
:10073000C4F1200500FA04F320FA05F001FA04F2EE
:1007400040EA020001F0004110EBD37041F10001DA
:100750005EEA430E08BF20EAD37070BDC4F12005E5
:1007600000FA05F24EEA020E20FA04F301FA05F24D
:1007700043EA020321FA04F001F0004121FA04F2F5
:1007800020EA020000EBD3705EEA430E08BF20EAC5
:10079000D37070BD94F0000F0FD101F000464000FF
:1007A00041EB010111F4801F08BF013CF7D041EA81
:1007B000060195F0000F18BF704703F00046520085
:1007C00043EB030313F4801F08BF013DF7D043EA56
:1007D0000603704794EA0C0F0CEA135518BF95EA0C
:1007E0000C0F0CD050EA410618BF52EA4306D1D193
:1007F00081EA030101F000414FF0000070BD50EAB2
:10080000410606BF1046194652EA430619D094EA3B
:100810000C0F02D150EA013613D195EA0C0F05D125
:1008200052EA03361CBF104619460AD181EA030179
:1008300001F0004141F0FE4141F470014FF0000031
:1008400070BD41F0FE4141F4780170BD70B54FF0CC
:10085000FF0C4CF4E06C1CEA11541DBF1CEA13554C
:1008600094EA0C0F95EA0C0F00F0A7F8A4EB05042E
:1008700081EA030E52EA03354FEA013100F0888025
:100880004FEA03334FF0805545EA131343EA1263EE
:100890004FEA022245EA111545EA10654FEA0026A3
:1008A0000EF000419D4208BF964244F1FD0404F55C
:1008B000407402D25B084FEA3202B61A65EB0305B8
:1008C0005B084FEA32024FF480104FF4002CB6EB75
:1008D000020E75EB030E22BFB61A754640EA0C00F5
:1008E0005B084FEA3202B6EB020E75EB030E22BF35
:1008F000B61A754640EA5C005B084FEA3202B6EB76
:10090000020E75EB030E22BFB61A754640EA9C0034
:100910005B084FEA3202B6EB020E75EB030E22BF04
:10092000B61A754640EADC0055EA060E18D04FEAC2
:10093000051545EA16754FEA06164FEAC30343EA62
:1009400052734FEAC2025FEA1C1CC0D111F4801F2F
:100950000BD141EA00014FF000004FF0004CB6E728
:1009600011F4801F04BF01430020B4F1FD0C88BFC7
:10097000BCF5E06F3FF6AFAEB5EB030C04BFB6EBD2
:10098000020C5FEA500C50F1000041EB045170BDC5
:100990000EF0004E4EEA113114EB5C04C2BFD4EBF2
:1009A0000C0541EA045170BD41F480114FF0000E76
:1009B000013C90E645EA060E8DE60CEA135594EAF2
:1009C0000C0F08BF95EA0C0F3FF43BAF94EA0C0FF5
:1009D0000AD150EA01347FF434AF95EA0C0F7FF46A
:1009E00025AF104619462CE795EA0C0F06D152EABE
:1009F00003353FF4FDAE1046194622E750EA4106A2
:100A000018BF52EA43067FF4C5AE50EA41047FF4B2
:100A10000DAF52EA43057FF4EBAE12E74FF0FF3C17
:100A200006E000BF4FF0010C02E000BF4FF0010CE8
:100A30004DF804CD4FEA410C7FEA6C5C4FEA430C61
:100A400018BF7FEA6C5C1BD001B050EA410C0CBFB0
:100A500052EA430C91EA030F02BF90EA020F002012
:100A6000704710F1000F91EA030F58BF994208BF79
:100A700090422CBFD8176FEAE37040F00100704736
:100A80004FEA410C7FEA6C5C02D150EA013C07D18D
:100A90004FEA430C7FEA6C5CD6D152EA033CD3D0D8
:100AA0005DF8040B704700BF8446104662468C46D2
:100AB0001946634600E000BF01B5FFF7B7FF002805
:100AC00048BF10F1000F01BD4DF808EDFFF7F4FF2E
:100AD0000CBF012000205DF808FB00BF4DF808EDB9
:100AE000FFF7EAFF34BF012000205DF808FB00BFDC
:100AF0004DF808EDFFF7E0FF94BF012000205DF8FE
:100B000008FB00BF4DF808EDFFF7CEFF94BF0120B2
:100B100000205DF808FB00BF4DF808EDFFF7C4FFAB
:100B200034BF012000205DF808FB00BF4FEA410CF4
:100B30007FEA6C5C02D150EA013C0AD14FEA430CD7
:100B40007FEA6C5C02D152EA033C02D14FF0000014
:100B500070474FF0010070474FEA410212F5001252
:100B600015D211D56FF47873B3EB625212D94FEAF4
:100B7000C12343F0004343EA505311F0004F23FADE
:100B800002F018BF404270474FF00000704750EA33
:100B9000013005D111F0004008BF6FF000407047F0
:100BA0004FF00000704700BF4A0011D212F500124A
:100BB00011D20DD56FF47873B3EB62520ED44FEAB5
:100BC000C12343F0004343EA505323FA02F0704735
:100BD0004FF00000704750EA013002D14FF0FF3073
:100BE00070474FF00000704780F0004002E000BF07
:100BF00081F0004142001FBF5FEA410392EA030F08
:100C00007FEA226C7FEA236C6AD04FEA1262D2EB51
:100C10001363C1BFD218414048404140B8BF5B4256
:100C2000192B88BF704710F0004F40F4000020F0EF
:100C30007F4018BF404211F0004F41F4000121F005
:100C40007F4118BF494292EA030F3FD0A2F101024F
:100C500041FA03FC10EB0C00C3F1200301FA03F18D
:100C600000F0004302D5494260EB4000B0F5000FB0
:100C700013D3B0F1807F06D340084FEA310102F16F
:100C80000102FE2A51D2B1F1004F40EBC25008BF21
:100C900020F0010040EA03007047490040EB0000EB
:100CA000013A28BFB0F5000FEDD2B0FA80FCACF1EC
:100CB000080CB2EB0C0200FA0CF0AABF00EBC25019
:100CC00052421843BCBFD0401843704792F0000F07
:100CD00081F4000106BF80F400000132013BB5E75A
:100CE0004FEA41037FEA226C18BF7FEA236C21D0D0
:100CF00092EA030F04D092F0000F08BF0846704735
:100D000090EA010F1CBF0020704712F07F4F04D102
:100D1000400028BF40F00040704712F100723CBF15
:100D200000F50000704700F0004343F0FE4040F43F
:100D3000000070477FEA226216BF08467FEA2363FD
:100D40000146420206BF5FEA412390EA010F40F4E8
:100D5000800070474FF0000304E000BF10F0004334
:100D600048BF40425FEA000C08BF704743F096431B
:100D700001464FF000001CE050EA010208BF704736
:100D80004FF000030AE000BF50EA010208BF7047BD
:100D900011F0004302D5404261EB41015FEA010CD2
:100DA00002BF84460146002043F0B64308BFA3F1CA
:100DB0008053A3F50003BCFA8CF2083AA3EBC253AC
:100DC00010DB01FA02FC634400FA02FCC2F12002CB
:100DD000BCF1004F20FA02F243EB020008BF20F002
:100DE0000100704702F1200201FA02FCC2F1200268
:100DF00050EA4C0021FA02F243EB020008BF20EA5D
:100E0000DC70704753B94AB9002908BF00281CBFDD
:100E10004FF0FF314FF0FF3000F074B9ADF1080C26
:100E20006DE904CE00F006F8DDF804E0DDE9022308
:100E300004B070472DE9F047089D04468E46002B0C
:100E40004DD18A42944669D9B2FA82F252B101FA7E
:100E500002F3C2F1200120FA01F10CFA02FC41EA8E
:100E6000030E94404FEA1C48210CBEFBF8F61FFA13
:100E70008CF708FB16E341EA034306FB07F19942AE
:100E80000AD91CEB030306F1FF3080F01F81994261
:100E900040F21C81023E63445B1AA4B2B3FBF8F03B
:100EA00008FB103344EA034400FB07F7A7420AD9C2
:100EB0001CEB040400F1FF3380F00A81A74240F2EA
:100EC00007816444023840EA0640E41B00261DB155
:100ED000D4400023C5E900433146BDE8F0878B428A
:100EE00009D9002D00F0EF800026C5E90001304649
:100EF0003146BDE8F087B3FA83F6002E4AD18B4223
:100F000002D3824200F2F980841A61EB03030120CC
:100F10009E46002DE0D0C5E9004EDDE702B9FFDEB8
:100F2000B2FA82F2002A40F09280A1EB0C014FEA63
:100F30001C471FFA8CFE0126200CB1FBF7F307FBC0
:100F4000131140EA01410EFB03F0884208D91CEB63
:100F5000010103F1FF3802D2884200F2CB80434600
:100F6000091AA4B2B1FBF7F007FB101144EA0144DF
:100F70000EFB00FEA64508D91CEB040400F1FF316E
:100F800002D2A64500F2BB800846A4EB0E0440EA5C
:100F900003409CE7C6F12007B34022FA07FC4CEA65
:100FA000030C20FA07F401FA06F31C43F9404FEA58
:100FB0001C4900FA06F3B1FBF9F8200C1FFA8CFE6D
:100FC00009FB181140EA014108FB0EF0884202FAC1
:100FD00006F20BD91CEB010108F1FF3A80F0888082
:100FE000884240F28580A8F102086144091AA4B23F
:100FF000B1FBF9F009FB101144EA014100FB0EFEC0
:101000008E4508D91CEB010100F1FF346CD28E45EE
:101010006AD90238614440EA0840A0FB0294A1EB7F
:101020000E01A142C846A64656D353D05DB1B3EBDC
:10103000080261EB0E0101FA07F722FA06F3F1400C
:101040001F43C5E9007100263146BDE8F087C2F1B3
:101050002003D8400CFA02FC21FA03F3914001432B
:101060004FEA1C471FFA8CFEB3FBF7F007FB103664
:101070000B0C43EA064300FB0EF69E4204FA02F410
:1010800008D91CEB030300F1FF382FD29E422DD963
:10109000023863449B1B89B2B3FBF7F607FB163398
:1010A00041EA034106FB0EF38B4208D91CEB010118
:1010B00006F1FF3816D28B4214D9023E6144C91A98
:1010C00046EA004638E72E46284605E70646E3E6A8
:1010D0001846F8E64B45A9D2B9EB020864EB0C0EB2
:1010E0000138A3E74646EAE7204694E74046D1E7C1
:1010F000D0467BE7023B614432E7304609E764446F
:10110000023842E7704700BF03690A6902610B6158
:1011100070478C4651B1096941B10161DCF80C108E
:10112000C160CCF804308CF8002001E00021C160DF
:1011300002704360002383607047034620B10020A3
:1011400018619860D86070476FF00100704738B53B
:1011500004460D46FFF7F1FF00B9256138BD08B51B
:10116000C3681BB18068FFF7FAFF08BD8160C860E3
:10117000FBE708B50346C06810B1FFF7FAFF08BDEA
:10118000D9608B60FBE738B543687BB104460D46F8
:10119000006958B1096949B1984738B12A69824252
:1011A00005D0E06840B12946FFF7EDFF38BD29467C
:1011B0002046FFF7A9FFF4E7E560AC600023EB6091
:1011C000F4E7A0B199B108B543684B6003780B70A0
:1011D000012B06D0022B07D003B108BDFFF7BFFFDC
:1011E000FBE7FFF7C6FFF8E7FFF7CDFFF5E770472E
:1011F000D0B1F8B50C4616461D46074611B10BB9DD
:101200000169A047F86820B12B4632462146FFF716
:10121000EFFF64B1012D01D00020F8BD32463969DD
:101220003846A0470020F8E76FF001007047002023
:10123000F3E7F0B108B50346826862B1C06850B107
:10124000D0609A68826000229A60DA6009B11869F9
:101250008847002008BD0AB1D86830B1002AF5D10E
:10126000DA68002AF2D01346F0E7D0609860D860C0
:10127000ECE76FF0010070470249034B0A681A60FF
:101280007047000028ED00E00C03002010B582B08C
:10129000002401941349144B0A681A60EFF3098380
:1012A00093B9EFF309830E4B1B68002B0FDB13F090
:1012B000804F0FD10A4B1B6813F0020F01D044F08E
:1012C0000204204602B010BDEFF30883EBE74FF0B5
:1012D0000104ECE744F00204FFF7CEFF0190E9E7D8
:1012E000100300202CED00E01003002010B44FF09C
:1012F000E02254690D4B1B7800FB03F34FEA430CCB
:101300009369002104E0E01A02441144614509D2C6
:101310001A464FF0E0239B699A42FAD0F3D9D21AC9
:101320001144F3E75DF8044B704700BF140300203D
:1013300010B504E04FF47A70FFF7D8FF2046441E42
:101340000028F7D110BD0000014B1861704700BFA5
:1013500018030020014B5861704700BF180300209C
:10136000014B9861704700BF180300200000000087
:1013700038B50546204C00232377FFF7C3F8024613
:101380000B461BA1D1E90001FFF760FAFFF70CFC47
:10139000A060E560FFF7B6F802460B4614A1D1E95C
:1013A0000001FFF753FA04460D46144B1868FFF787
:1013B000A9F822462B46FFF749FAFFF7F5FB01385B
:1013C000B0F1807F0AD24FF0E02358610C4AF0213F
:1013D00082F8231000229A6107221A61042001F08A
:1013E00023FE084801F0D8FE012038BDAFF300808D
:1013F0000000000080842E41180300201C01002002
:1014000000ED00E03C03002008B5034B01221A77F1
:101410001B6903B1984708BD180300200022002370
:10142000C0E900237047824273EB010C03D2801A9B
:1014300061EB03017047101A63EB01017047000074
:1014400008B50E4B1B7F012B01D0002008BD0B4BB4
:1014500000225A7798681A685968121841F10001F9
:101460001A60596001225A77054B1B6803B19847EF
:10147000024B9B6903B198470120E7E7180300205E
:1014800038030020014BD3E9000170471803002006
:1014900008B54FF47A7200230249D1E90001FFF741
:1014A000B1FC08BD18030020034A13685168C01836
:1014B00041F10001704700BF18030020054B1A6876
:1014C0005B68904271EB030301D20020704701205A
:1014D000704700BF18030020FEE7000010B590F829
:1014E00000C04FEADC020CF0070E0A4B19784FF0EF
:1014F000010C0CFA02F42143C9B2197013445A7852
:101500000CFA0EFC42EA0C02D2B25A70002380F8A8
:10151000483010BDA0A40020007800F0070C0D4B4F
:1015200003EBD0035A78012101FA0CF122EA0102FF
:101530005A70597861B900B54FEAD00E05490B7859
:10154000012202FA0EF223EA02030B705DF804FB9B
:10155000704700BF94A40020007800F0070C0D4BEA
:1015600003EBD0035A78012101FA0CF122EA0102BF
:101570005A70597861B900B54FEAD00E05490B7819
:10158000012202FA0EF223EA02030B705DF804FB5B
:10159000704700BFA0A4002005484FF0FF01017074
:1015A000002080F309880348016881F308887047A8
:1015B00022ED00E078030020034690B1A3B103B10F
:1015C000B1B100B518784FF0000E0A7800F00700AE
:1015D00002F00702F6450ED80ED190420AD30BD97D
:1015E00009E00029EAD101E00029E8D00846704767
:1015F0001946FBE7194608465DF804FB10B504469A
:1016000003786FF3C5030370DBB26FF3020303705B
:1016100000234360836083810361C3620363436388
:10162000836300224264036480F864308366C36687
:1016300000F164017C30FFF78AFD04F12400FFF71C
:10164000EDFE04F11400FFF7E9FE04F11C00FFF7C2
:10165000E5FE052384F8483010BD0000F8B54FF4CE
:1016600020520021194804F0BDF8194B194A1A609C
:10167000002718E0184D04EBC70655F82600FFF7C1
:10168000BDFF55F826200023D36455F82620536566
:1016900055F82620136545F826300134E4B2072CAE
:1016A000E8D90137FFB2072F01D80024F7E70B4B29
:1016B00000221A705A611A61DA60094B1868FFF744
:1016C0009DFF084B01221A70F8BD00BF7C0300206B
:1016D0007803002078A300207CA300207CA40020B5
:1016E0004C030020A9A4002010B50446C26C0021C0
:1016F000406D04F077F804F15403E26C02F180428B
:10170000013A03EB820323F007034FF0807243F8A2
:10171000042C094A22F0010243F8082C074A43F836
:101720000C2C002243F8202C6FF0020243F8242CEA
:10173000443B236510BD00BF85180008D91400087C
:1017400010B584B06846FFF769FE02A8FFF766FE91
:10175000FFF798FE02460B46029003910D49D1E92E
:101760000001FFF760FE02460B46CDE900230A4B5D
:101770001C6801341C60FFF7FFFA06EE900A07EEC2
:10178000904AF8EE677A87EEA67A044B83ED007AEA
:1017900004B010BD700300206C030020680300201B
:1017A00000B583B004466846FFF738FE40E0FFF717
:1017B00069FEE06121626062A16242E02046FFF7BB
:1017C000CBFE022384F84830A36B0133A363E26DA0
:1017D000636B9A4200D96263236C13442364626A88
:1017E000A36AE069216AFFF71EFE02460B46CDE9B7
:1017F0000023256CFFF7C0FA06EE900A07EE905A18
:10180000F8EE677A87EEA67A84ED117AE36D226BA3
:1018100013442363A26B012A01D95B082363A089C7
:10182000FFF742FE6062A16215E0154B00221A60CC
:1018300094F84830002BF8D1114B1C60A36B002B9F
:10184000B5D0012384F8483023692046984794F89E
:101850004830012BB2D0A56B002DE6D0606AA16A9A
:10186000FFF78AFA06EE900A07EE905AF8EE677ACA
:1018700087EEA67ABCEEC77A84ED0B7AD5E700BF77
:101880004C03002008B5034B186800B908BDFFF7EA
:1018900087FF00BF58030020A9B110B50C460A4BC2
:1018A0001B78DBB2022B00D010BD91F84830022B20
:1018B000FAD1486A896AFFF701FE0028F4D1204670
:1018C000FFF70CFEF0E77047A9A4002010B590F8D0
:1018D00000C04FEADC020CF0070E0A4B19784FF0FB
:1018E000010C0CFA02F42143C9B2197013445A785E
:1018F0000CFA0EFC42EA0C02D2B25A70042380F8B1
:10190000483010BD94A40020034B044A92E8030021
:1019100083E80300704700BF500300205C030020F1
:10192000144B1B781BB3134B1A78D2B212498A5C42
:1019300013445B78DBB2CB5C03EBC2000F4951F878
:10194000200000B1704710B50A4991F800E04FF04F
:10195000010C0CFA02F42EEA040E81F800E00A44AD
:1019600051780CFA03F321EA0303537010BD0020F1
:10197000704700BF94A40020A08500087CA300202D
:10198000084B19680868B0E8F04F1EF0100F08BF48
:10199000B0EC108A80F30988BFF36F8F704700BFE7
:1019A000704700005003002008B5FFF7E9FF08BDAD
:1019B000EFF30980BFF36F8FDFF850301A681EF025
:1019C000100F08BF20ED108A20E9F04F10602DE9BC
:1019D00009004FF0500080F31188BFF34F8FBFF321
:1019E0006F8FFFF791FF4FF0000080F3118809BC63
:1019F00019680868B0E8F04F1EF0100F08BFB0EC8F
:101A0000108A80F30988BFF36F8F7047500300205E
:101A1000704700BF144B1B781BB3134B1A78D2B21C
:101A200012498A5C13445B78DBB2CB5C03EBC200E7
:101A30000F4951F8200000B1704710B50A4991F8DC
:101A400000E04FF0010C0CFA02F42EEA040E81F8CB
:101A500000E00A4451780CFA03F321EA03035370BF
:101A600010BD0020704700BFA0A40020A085000882
:101A70007CA3002002484FF08051016070470000B5
:101A800004ED00E04B4B1B78DBB2022B00D070471B
:101A900070B50123002248494848FFF7A9FBFFF72A
:101AA000B9FF474B1860FFF73BFF0446454B1860F2
:101AB000454B1D685DB1424B1E68B5425ED02EB1EC
:101AC00031462846FFF778FD864235D070BD90B18B
:101AD0003B4B186838B32146FFF76EFD844219D09E
:101AE000374B1A6802F15001384B1960526D5A6039
:101AF000FFF7C0FFEAE7324B1B6843B103F1500127
:101B0000324A11605B6D5360FFF7B4FFDEE7FFF709
:101B100017FEDBE7012384F84830294B1C60204680
:101B2000FFF7FAFCDCE7012384F84830244B1C6003
:101B30002046FFF7F1FCD3E72846FFF7C7FE224B0C
:101B40001868FFF709FD1F4B1C6834B11C4B19685E
:101B50002046FFF731FD84420DD0194C2068FFF775
:101B6000BDFC226802F15001184B1960526D5A6099
:101B7000FFF780FFAAE7124B1C60EEE70028A5D014
:101B800031462846FFF718FD84429FD12846FFF7CB
:101B90009DFE0C4C2068FFF7A1FC2368084A1360E7
:101BA00003F15001094A11605B6D5360FFF762FF5A
:101BB0008CE700BFA9A400209918000880A4002089
:101BC00058030020640300204C0300205C03002025
:101BD0002DE9F84F81460E4615461C467E4B1B7874
:101BE00053B104EBC5037D4A52F8233053B14FF093
:101BF000010A5046BDE8F88FFFF730FD764B012211
:101C00001A70EEE7902003F0CFFD8346734F04EB8C
:101C1000C50847F828008246C0F804908660304620
:101C2000FEF770FC02460B4669A1D1E90001FEF700
:101C30000DFE57F82860FEF7B7FFB08157F828303F
:101C40000A9A1A6157F82820EB002343137057F8BB
:101C50002820002382F8643057F82820C2F868B0A2
:101C600057F82820D36657F828300B9ADA6457F8CB
:101C70002860900003F098FD706557F82800436DC8
:101C8000002B00F09C80FFF72FFD3E46474656F89C
:101C9000283093F858206FF3030283F8582056F841
:101CA000283093F858206FF3071283F8582056F81D
:101CB00028304FF00008C3F85C8056F82730C3F88E
:101CC000608056F8273000225A6456F82730C3F84F
:101CD0004080434B197856F8270090F800C0012245
:101CE00002FA0CFC41EAEC01C9B2197090F800C08C
:101CF00003EBDC03597802FA0CF202F007020A4304
:101D00005A70C0F82C8056F82730C3F8308056F847
:101D10002730C3F8348056F827002430FFF77EFBC5
:101D200056F827001430FFF779FB56F827001C30CF
:101D3000FFF774FB56F82790FFF7A4FBC9F81400CF
:101D4000C9F8181056F82730C3F8388056F82730ED
:101D500083F83C8056F82700FFF7C0FB56F8278031
:101D6000142003F021FDC8F8780056F82710886F7A
:101D700040B3FFF7ECF91B4B1B78B3B956F82710AB
:101D8000194B0222896F1948FFF7C3F904EBC50408
:101D9000124B53F8240000F164017C30FFF7D7F9AF
:101DA000104A13780133137023E704EBC5030B4A81
:101DB00052F82330996F0D48FFF703FAE6E74FF02A
:101DC000000A16E74FF0000A13E700BFAFF30080E8
:101DD0000000000080842E41AAA400207CA30020E3
:101DE000A0A400207CA40020B915000880A4002035
:101DF00010B549F64040FFF7BBFA0020FFF7A4FA00
:101E00000020FFF7A7FA1148FFF7AAFAFFF7FCFA3C
:101E10000F4C2046FFF702FBFFF734FBC4E900013B
:101E2000FFF7F8FD0B4B186050B100F150020A4B60
:101E30001A60426D5A60094A93E8030082E8030081
:101E4000FFF7AAFBFFF716FE10BD00BF851A0008BA
:101E500070030020580300205C0300205003002082
:101E6000014B1870704700BFA9A4002038B5044684
:101E70000D4662B9D0F8123001209847D4F81A30D4
:101E800028469847D4F812300020984738BDD0F83B
:101E9000123000209847F1E770B505460C46002245
:101EA0008D21FFF7E3FF14B9074E002408E0074E29
:101EB000FBE70022315D2846FFF7D8FF0134E4B28A
:101EC000012CF6D970BD00BF0891000804910008EC
:101ED00070B5054600260BE0012200212846FFF7D9
:101EE000C5FF0134E4B214F0800FF5D00136F6B22C
:101EF000072E12D8A6F150010022C9B22846FFF7DA
:101F0000B5FF002211462846FFF7B0FF002210213E
:101F10002846FFF7ABFF0024E5E770BD802070473F
:101F200040207047B0B3F8B50E460746A1B3002570
:101F300019E003EBC50256F82220125D9A401143C6
:101F4000C9B20133DBB2072BF3D901223846FFF7C0
:101F50008DFF0134E4B214F0800F02D100210B4652
:101F6000F1E70135EDB2072D12D8A5F1500100229D
:101F7000C9B23846FFF77AFF002211463846FFF70C
:101F800075FF002210213846FFF770FF0024E2E7BA
:101F90000120F8BD002070470020FAE701207047BB
:101FA00010B50446D0F8163040799847D4F80A3076
:101FB0009847D4F806309847D4F80E300120984757
:101FC0006420FFF7B5F9D4F80E30002098470022BE
:101FD000AE212046FFF74AFF0022D5212046FFF719
:101FE00045FF002250212046FFF740FF0022A82194
:101FF0002046FFF73BFF00223F212046FFF736FF38
:102000000022D3212046FFF731FF0022114620464F
:10201000FFF72CFF002240212046FFF727FF002278
:102020008D212046FFF722FF002214212046FFF7D2
:102030001DFF002214212046FFF718FF0022202157
:102040002046FFF713FF002202212046FFF70EFF74
:102050000022A0212046FFF709FF0022C8212046C8
:10206000FFF704FF0022DA212046FFF7FFFE0022DF
:1020700012212046FFF7FAFE002281212046FFF7B9
:10208000F5FE0022EF212046FFF7F0FE0022D921C5
:102090002046FFF7EBFE0022F1212046FFF7E6FE87
:1020A0000022DB212046FFF7E1FE002230212046FE
:1020B000FFF7DCFE0022A4212046FFF7D7FE002216
:1020C000A6212046FFF7D2FE0022AF212046FFF7CF
:1020D000CDFE2046FFF7FCFE012010BD08B5084BE1
:1020E000187004225A7002225A8001229A80054AEE
:1020F000C2F80130044A12681846904708BD00BF74
:10210000ACA40020C4A40020C000002008B50146F3
:10211000034BDB68034AD2F80100984708BD00BFB3
:10212000C0000020C4A4002070B5094C082323601F
:10213000084BA3600223A38000252573064E336855
:10214000294620469847B36829462046984770BDDF
:10215000B4A40020000C0240DC00002070B5094C43
:1021600008232360084BA3600123A3800025257367
:10217000064E3368294620469847B36829462046CC
:10218000984770BDE4A40020000C0240DC00002051
:1021900008B520B10146012802D0002100E002214B
:1021A000024B9B680248984708BD00BFDC00002036
:1021B000B4A4002008B520B10146012802D00021B6
:1021C00000E00221024B9B680248984708BD00BF0F
:1021D000DC000020E4A400200C4B00221A705A718D
:1021E0000B4AC3F816200B4AC3F81A200A4AC3F850
:1021F00006200A4AC3F80E20094AC3F80A20094AF1
:10220000C3F812200120084B18707047C4A40020A6
:10221000DD2000080D2100085D210008B52100081F
:102220002921000891210008F5A4002008B5084BD9
:1022300000221A70FFF7D0FF38B1064B1B68064822
:10224000984710B1024B01221A70014B187808BD53
:10225000F4A4002000000020C4A4002010B5054B09
:102260001C7824B10146044B9B68044898472046DB
:1022700010BD00BFF4A4002000000020C4A4002072
:1022800010B582B00B4C636998478DF80000A369C4
:1022900098478DF80100BDF80030ADF804300020FB
:1022A0009DF8043063F307009DF8053063F30F20B9
:1022B00002B010BD0000002008B5034B9B680BB1B5
:1022C000984708BD0020FCE71C000020642803D8C4
:1022D000024B1872012070470020704700A50020B3
:1022E000014B18770120704700A50020014B58775B
:1022F0000120704700A500202DE9F04788B04A4B27
:102300005F7F012F00F08980022F00F08A80002F6C
:1023100043D0002008B0BDE8F087DFF814A1DAF858
:10232000003053F8248018F80560DFF80091D9F8E0
:102330000C309847ADF800009DF80030013B5B1B66
:10234000DAF8002052F8241018F803304B5552F8F0
:102350002480D9F80C309847ADF804009DF804307B
:10236000013B5B1B08F803600134E4B22F4BDB68D0
:102370009847ADF808009DF80930A342CDD8013543
:10238000EDB22A4BDB689847ADF80C009DF80C3095
:10239000B5EB530F03D23C46E8E73D46F1E7012099
:1023A000B8E7DFF88C80D8F8009059F825301E5D2A
:1023B0001E4FFB689847ADF810009DF81130013BA7
:1023C0005B1B59F82320D8F8008058F82530125D9F
:1023D0001A55FB689847ADF814009DF81530013B7D
:1023E0005B1B58F823301E550134E4B20F4BDB68F9
:1023F0009847ADF818009DF81830A342D1D80135A0
:10240000EDB20A4BDB689847ADF81C009DF81D3013
:10241000B5EB530F03D20024E8E70025F1E70120D4
:1024200078E7012076E700BF00A500201C0000200F
:1024300024A5002018B1034A1060406970470020AD
:10244000704700BFF8A40020014B1868704700BF18
:10245000F8A4002008B5FFF7F7FF034600B10369B1
:10246000184608BD08B5FFF7EFFF18B1C3781BB9D0
:10247000022008BD0020FCE70120FAE738B5054638
:102480000C46FFF7E1FF28B10571FFF7DDFF44714E
:10249000012038BD0020FCE730B583B0124DEB6859
:1024A0009847ADF800009DF80040EB689847ADF8FC
:1024B00004009DF805500020A84213D2002305E037
:1024C00052F820200021D1540133DBB2A34206D2BE
:1024D000064A1268002AF3D1002003B030BD013053
:1024E000C0B2E9E70120F8E71C00002024A5002085
:1024F00001238340024A107818431070704700BFD0
:10250000FCA40020014B1878704700BF6000002039
:10251000054B1A7812F0020F05D1012303FA00F0DF
:102520001043014B18707047600000200123834066
:10253000024A107820EA0300107070476000002003
:102540002DE9F84381460E461746FFF77DFF044606
:10255000DFF82080C379827941790079D8F800507A
:10256000A847D8F804803B4632464946A068C04791
:10257000BDE8F883880000202DE9F04782B082464C
:102580000E4617469846FFF75FFF0446DFF82C908B
:10259000C379827941790079D9F80050A847D9F8F0
:1025A0001490A1689DF828300193CDF800803B4637
:1025B00032465046C84702B0BDE8F0878800002088
:1025C0002DE9F04782B082460E4617469846FFF73F
:1025D0003BFF0446DFF82C90C3798279417900797A
:1025E000D9F80050A847D9F80C90A1689DF8283078
:1025F0000193CDF800803B4632465046C84702B0B2
:10260000BDE8F087880000202DE9F04782B08246BF
:102610000E4617469846FFF717FF0446DFF82C9042
:10262000C379827941790079D9F80050A847D9F85F
:102630001090A1689DF828300193CDF800803B46AA
:1026400032465046C84702B0BDE8F08788000020F7
:102650002DE9F04782B082460E4617469846FFF7AE
:10266000F3FE0446DFF82C90C37982794179007932
:10267000D9F80050A847D9F81C90A0689DF82830D8
:102680000193CDF800803B4632465146C84702B020
:10269000BDE8F087880000202DE9F04782B082462F
:1026A0000E4617469846FFF7CFFE0446DFF82890FF
:1026B000C379827941790079D9F80050A847D9F8CF
:1026C0000890A068CDF800803B4632465146C84786
:1026D00002B0BDE8F08700BF880000202DE9F04778
:1026E00082B082460E4617469846FFF7ADFE044676
:1026F000DFF82C90C379827941790079D9F80050BC
:10270000A847D9F81890A0689DF828300193CDF813
:1027100000803B4632465146C84702B0BDE8F087CC
:102720008800002008B5FFF7EDFE10F0100F17D05D
:102730000220FFF7EDFE3B4B00221A7010E03A4BEF
:102740001B68984730B30020FFF7F0FE0220FFF728
:10275000DFFE344A13780133DBB21370052B59D0F6
:10276000FFF7D0FE0346002859D02E4A12781341B5
:1027700013F0010FEDD0042A52D801A353F822F030
:102780003F27000821280008A3270008BF270008CA
:102790001D2800080020FFF7ABFE0120FFF7B8FE60
:1027A000D7E7FFF779FE30B10220FFF7BFFE032025
:1027B000FFF7AEFECDE70120FFF7AAFEC9E71B4BEE
:1027C0005B7A002BC5D0194B1B78E3B100231A4666
:1027D000174916488069FEF70BFD68B9FFF78CFDB5
:1027E000114B5B68134A106898470320FFF79EFE61
:1027F0000420FFF78DFEACE70120FFF779FE0120F2
:10280000FFF786FEA5E70220FFF772FE0120FFF723
:102810007FFE9EE7134600221A70A1E7012008BD43
:102820000020FCE720A500201C00002000A50020BF
:102830003928000824A500202DE9F04186B00C4677
:102840008B889BB98D79314BDB689847ADF80400D4
:102850009DF804309D4209D3E5792C4BDB689847FD
:10286000ADF808009DF809309D422CD2657944E00E
:10287000274F3B6853F82580244EF3689847ADF8FE
:102880000C009DF80C200021404602F09DFF3B68A3
:1028900053F82570A36853F82580F3689847ADF87E
:1028A00010009DF810204146384602F08DFF01359A
:1028B000EDB2164BDB689847ADF814009DF8153063
:1028C000AB42D5D81EE00025F3E7114B1E6856F841
:1028D00025002379A2790021184402F083FF56F8DD
:1028E00025602079A1686379EB1AA27951F8231049
:1028F000304402F069FF0135EDB26379E2791344A7
:102900009D42E2DB06B0BDE8F08100BF1C00002064
:1029100024A5002010B5FFF797FD88B1002408E03A
:1029200083688279002153F8240002F05BFF0134B0
:10293000E4B2FFF789FDC379A342F1D8012010BDAD
:102940000020FCE708B5FEF7A3FD064A5368C31A4A
:10295000127A934203D3034B5860012008BD002034
:10296000FCE700BF00A5002030B3F8B505460368BA
:102970000BB90020F8BDDE799F79986802F01CFF42
:10298000002407E02B689B6853F8240002F014FF32
:102990000134E4B2B442F5D307FB06F6084B1A69DA
:1029A00032441A61D9688E1BDE605B699A4205D891
:1029B00000232B600120DDE7002070470020D9E7CD
:1029C00000A500202DE9F04F87B0824689461746C2
:1029D0009846574B5E69002E4BD1564CE36898479A
:1029E000ADF800009DF80150E3689847ADF8040089
:1029F0009DF8043005FB03F34D4A536103EB830359
:102A000053611361E3689847ADF808009DF8090029
:102A1000800002F0C9FE484B1860002843D0002413
:102A20000CE0444BDB689847ADF810009DF810208F
:102A30000021284602F0D6FE0134E4B23D4BDB68AB
:102A40009847ADF814009DF81550A54211D9394B9F
:102A5000DB689847ADF80C00374BD3F800B09DF811
:102A60000C0002F0A1FE05464BF824000028D8D146
:102A700019E0242002F098FE064600284FD080F886
:102A800004A080F80590877180F8078001234370C7
:102A900000238370109B8361254B1B6907FB08F99A
:102AA0004B4504D20026304607B0BDE8F08F4FEA10
:102AB000880002F079FEB060002832D0002444453E
:102AC00010D2B568384602F06FFE45F82400B368AE
:102AD00053F8240038B33A46002102F083FE013453
:102AE000E4B2ECE7124B1A69A2EB09021A61DA6848
:102AF0004A44DA605A7A01325A72104B3361104BF1
:102B00007361142002F050FE306270B13146FEF75E
:102B10001EFB9DF8443033700023F370C3E700269A
:102B2000C1E70026BFE70026BDE70026BBE700BFE0
:102B300000A500201C00002024A500204400002047
:102B40002C00002010B5FFF77FFCA0B10C4A1278D2
:102B5000012A12D9C47814B90124204610BD0021DD
:102B6000006AFEF766FB0220FFF7D2FCFFF76CFC61
:102B70000023C370F1E70024EFE70024EDE700BF76
:102B800000A5002010B582B0FFF75EFC002832D00F
:102B90000378CBB9FFF758FC0346C07890B90122FF
:102BA000DA70164B9C69C4B1FFF74EFC016A2046EF
:102BB000FEF707FB0220FFF7ABFC104A1378013346
:102BC0001370012002B010BDC379827901210091F8
:102BD00000210846FFF782FDDCE7FFF735FC046AB9
:102BE000064B9C61FFF730FC00230122016A20465E
:102BF000FEF78FFADEE70020E4E700BF00A5002023
:102C000010B4044CE370A270207061705DF8044B46
:102C1000704700BF28A5002030B40C4C94F800C0C9
:102C2000A478A44461450ADA084D6C78ED782C4408
:102C3000A24204DA2BB150F8223001225A5430BC9F
:102C4000704750F8223000225A54F8E728A5002097
:102C50002DE9F04F83B01F469DF830A09DF834B0A9
:102C6000203AD3B20193294B9B78BB4248D9804686
:102C7000894654460023009332E0019B03EB430353
:102C8000234A02EB8303009A9E5C35E08BF001033C
:102C9000224639464846FFF7BFFF7600F6B20134B8
:102CA000E4B2A4EB0A03434513DA0135EDB2072D74
:102CB00012D8164A137892781344BB4222DD16F0DC
:102CC000800FE3D05B46224639464846FFF7A4FF13
:102CD000E3E70137FFB25446009B0133DBB20093B8
:102CE000009B43450AD2B8F10C0FC6D0094B019A9C
:102CF00003EB0213009A9E5C0025D8E7012002E056
:102D0000002000E0002003B0BDE8F08F28A50020DF
:102D1000A0860008148B00082DE9F04383B0074615
:102D20000E4615461C469DF828909DF82C8002E022
:102D30000834E4B201352A7852B1CDF80480CDF8D8
:102D40000090234631463846FFF782FF0028EFD136
:102D500003B0BDE8F083002002E00830C0B20131CA
:102D60000B78002BF9D170472DE9F04F85B0019019
:102D7000884691469DF83820A3EB010A4FFA8AFA5B
:102D8000A2EB090B4FFA8BFBBAF1000F0EDD01230A
:102D90000293BBF1000F16DD01230393DA4520DD1A
:102DA0000FFA8AF70026354634461FE0BAF1000FC5
:102DB00006D0CB1A4FFA83FA4FF0FF330293E8E7BD
:102DC000CDF808A0E5E7BBF1000F07D0A9EB0202A0
:102DD0004FFA82FB4FF0FF330393DFE7CDF80CB0DF
:102DE000DCE70FFA8BF7DDE70136F6B2B7421EDB00
:102DF00001234A4641460198FFF70EFF5444E2B2D0
:102E000064B25D44EBB26DB221B2B94205DBD21BB4
:102E100054B2029A90445FFA88F82AB2BA42E3DBCD
:102E2000DB1B5DB2039B99445FFA89F9DCE705B0CF
:102E3000BDE8F08F2DE9F84380460F4691461C46C9
:102E40009DF820609DF8245015F0010F0AD115F06F
:102E5000020F18D115F0080F28D115F0040F38D142
:102E6000BDE8F883B21A59180123D2B2C9B2FFF7EC
:102E7000D3FEF21B04EB09010123D2B2C9B24046D2
:102E8000FFF7CAFEE3E7A6EB0902E11B0123D2B27A
:102E9000C9B24046FFF7C0FEF21BA4EB09010123B3
:102EA000D2B2C9B24046FFF7B7FED3E706EB09023C
:102EB000E1190123D2B2C9B24046FFF7ADFEBA19FB
:102EC00004EB09010123D2B2C9B24046FFF7A4FEC8
:102ED000C3E706EB0902E11B0123D2B2C9B24046A7
:102EE000FFF79AFEBA19A4EB09010123D2B2C9B2C5
:102EF0004046FFF791FEB3E72DE9F04F85B0039010
:102F0000894692461E469DF838B0C3F1010464B26A
:102F1000C3EBC3184FEA48084FFA88F8CDF804B05D
:102F200000920B4632460021FFF784FF002501275F
:102F300019E0013EF6B208F102034FFA83F854FAA1
:102F400083F464B20135EDB2BB1C5FB254FA83F472
:102F500064B2CDF804B0CDF800A04B463246294605
:102F60000398FFF767FFB54202D2002CE1DAE9E7E8
:102F700005B0BDE8F08F10B582B00F240094FFF7C4
:102F8000BBFF02B010BD2DE9F04383B080460E4672
:102F900017469DF82C90CD18EDB2013DEDB29DF88D
:102FA00028401444E4B2013CE4B2CDF8049000920D
:102FB0002B46FFF7D9FECDF80490009433463A46ED
:102FC00031464046FFF7D0FECDF8049000942B46E2
:102FD0003A4629464046FFF7C7FECDF804900094D4
:102FE0002B46224631464046FFF7BEFE03B0BDE801
:102FF000F083000070B586B004460D461E460949B0
:1030000003A803F017F99DF82C3001939DF82830A0
:103010000093334603AA29462046FFF77DFE06B0FB
:1030200070BD00BF0C910008042806D04FF0E022CC
:10303000136923F00403136170474FF0E022136912
:1030400043F004031361704721B1036843F00103A7
:1030500003607047036823F0010303607047416019
:103060007047406880B270470A4B98420AD8A3F272
:103070000F4311F0005F07D021F0F02121F0821101
:10308000D9607047044BF4E721F0F02121F0821160
:10309000996070470F64024000640240014B586120
:1030A000704700BF003C014000230F2B4ED830B5C5
:1030B00016E0C2681FFA83FE4FEA4E044FF0030E7B
:1030C0000EFA04FE22EA0E02C260C26891F807E01E
:1030D0000EFA0CFC42EA0C02C26001330F2B34D80A
:1030E00001229A400C68A243F7D104684FEA430CCE
:1030F000032202FA0CF26FEA020E24EA02020260D4
:1031000002680C7904FA0CF4224302600A79013A4D
:10311000D2B2012ACDD882680EEA020282608268A9
:103120004C7904FA0CF42243826044689DB24FF05B
:10313000010E0EFA05FE24EA0E04446044688A7902
:10314000AA4092B222434260B3E730BD70470369A0
:10315000194201D001207047002070470183704759
:103160004183704700B501F007039B0002FA03FC9E
:10317000C908083150F821204FF00F0E0EFA03F362
:1031800022EA030340F8213050F8212042EA0C02E1
:1031900040F821205DF804FB10B4294B9B6803F034
:1031A0000C03042B23D0082B24D013B1254B036030
:1031B00001E0244B0360224CA368C3F303132249AC
:1031C000CB5CDAB20368D3404360A268C2F38222C8
:1031D0008A5CD2B223FA02F28260A268C2F342325F
:1031E0008A5CD2B2D340C3605DF8044B7047174B82
:1031F0000360E0E7124B59685A6802F03F0211F48D
:10320000800F12D0114BB3FBF2F30D4A5268C2F398
:10321000881202FB03F30A4A5268C2F301420132E8
:103220005200B3FBF2F30360C5E7064BB3FBF2F3C6
:10323000034A5268C2F3881202FB03F3EBE700BFB4
:10324000003802400024F400B000002000127A0090
:1032500021B1054A136B184310637047024A136B80
:1032600023EA0000106370470038024021B1054A8C
:10327000136C184310647047024A136C23EA000071
:10328000106470470038024021B1054A536C18435E
:1032900050647047024A536C23EA00005064704740
:1032A0000038024021B1054A136A18431062704782
:1032B000024A136A23EA0000106270470038024095
:1032C00021B1054A536A184350627047024A536A53
:1032D00023EA0000506270470038024008B52A4BCC
:1032E00098420FD0294B984217D0294B98421FD0B3
:1032F000284B984227D0284B98422FD0274B9842F2
:1033000037D008BD01214FF48050FFF7D9FF0021CD
:103310004FF48050FFF7D4FFF3E701214FF48040D2
:10332000FFF7C0FF00214FF48040FFF7BBFFE8E745
:1033300001214FF40040FFF7B5FF00214FF400409A
:10334000FFF7B0FFDDE701214FF40050FFF7B8FFB2
:1033500000214FF40050FFF7B3FFD2E701214FF4F3
:103360008010FFF7ADFF00214FF48010FFF7A8FF9A
:10337000C7E701214FF40010FFF7A2FF00214FF42F
:103380000010FFF79DFFBCE700300140003800400F
:10339000003C004000340140005001400054014016
:1033A0002DE9F041038803F441520F88B1F80280FF
:1033B0008E88CD880C89B1F80AE0B1F80CC0CB89B1
:1033C00047EA08073E4335432C434EEA040E4CEAD5
:1033D0000E0C43EA0C0313430380838B9BB223F44C
:1033E00000639BB283830B8A0382BDE8F08129B11D
:1033F00003889BB243F040030380704703889BB26D
:1034000023F040039BB203807047808980B27047ED
:10341000818170470389194201D001207047002043
:103420007047028A83890B40114202D01BB90020E9
:1034300070470020704701207047C94389B201825C
:103440007047C1F30801818070478088C0F308008D
:103450007047C1F3421C01F01F01012303FA01F17F
:103460009C4508D0BCF1020F07D014303AB1036874
:103470001943016070470C30F8E71030F6E7036835
:1034800023EA010101607047C1F3421201F01F0CF1
:10349000012303FA0CF3012A0FD0022A11D0828AE9
:1034A00092B21340090A012202FA01F1028892B293
:1034B0000A4053B15AB900207047828992B2134032
:1034C000F0E7028A92B21340ECE700207047012037
:1034D0007047090A01238B409BB2DB439BB20380F8
:1034E0007047000010B582B001210846FFF7B0FE1A
:1034F000114C052206212046FFF734FE0522072144
:103500002046FFF72FFE052211462046FFF72AFE30
:10351000E023009302238DF8043000238DF8063059
:1035200003228DF805208DF8073069462046FFF705
:10353000BBFD02B010BD00BF0000024070B582B0FC
:1035400001210220FFF784FE194C05220E2120469E
:10355000FFF708FE05220F212046FFF703FE052294
:103560000D212046FFF7FEFD4FF440430093022655
:103570008DF8046000258DF8065003238DF8053082
:103580008DF8075069462046FFF78EFD4FF4005333
:1035900000938DF804608DF806508DF805608DF865
:1035A000075069462046FFF77FFD02B070BD00BF9F
:1035B0000004024010B582B001210420FFF748FE4C
:1035C000114C06220B212046FFF7CCFD06220C21D0
:1035D0002046FFF7C7FD06220A212046FFF7C2FD5D
:1035E0004FF4E053009302238DF8043000238DF84C
:1035F000063003228DF805208DF8073069462046F5
:10360000FFF752FD02B010BD0008024030B583B094
:103610000D4614460121FFF71BFE01238DF80430EF
:1036200000228DF806208DF8073002238DF8053032
:10363000009569462046FFF737FD03B030BD30B531
:1036400083B00D4614460121FFF702FE00238DF8DA
:1036500004308DF8063002238DF807308DF80530E0
:10366000009569462046FFF71FFD03B030BD08B541
:10367000FFF76DFD08BD08B522B1012A01D1FFF7A2
:103680006FFD08BDFFF76AFDFBE7000010B540F2D3
:1036900027711F48FFF7F8FE60B140F225511C4822
:1036A000FFF7F2FE80B940F224411948FFF7ECFE23
:1036B000A0B910BD002240F2266100F1804000F563
:1036C0008830FFF7C6FEE8E7114C2046FFF7BDFE45
:1036D00040F225512046FFF7FCFEE4E70D4C0021A7
:1036E0002046FFF7B1FC0A4B9A881B882046FFF75B
:1036F000B8FC09492046FFF7B7FC4FF4807120461B
:10370000FFF7ADFC01212046FFF79EFCD1E700BF8B
:1037100000100140886402400008002010B540F20B
:1037200027711F48FFF7B0FE60B140F225511C48D9
:10373000FFF7AAFE68B940F224411948FFF7A4FE3A
:10374000A8B910BD002240F226611548FFF781FE9E
:10375000EBE7134C2046FFF778FEC1B22046FFF797
:1037600070FE40F225512046FFF7B3FEE3E70D4C13
:1037700000212046FFF768FC094B9A881B882046E9
:10378000FFF76FFC08492046FFF76EFC4FF480718D
:103790002046FFF764FC01212046FFF755FCD0E7E7
:1037A00000440040886002400008002010B540F24C
:1037B00027711F48FFF768FE60B140F225511C4891
:1037C000FFF762FE68B940F224411948FFF75CFE3A
:1037D000A8B910BD002240F226611548FFF739FE56
:1037E000EBE7134C2046FFF730FEC1B22046FFF74F
:1037F00028FE40F225512046FFF76BFEE3E70D4C13
:1038000000212046FFF720FC094B9A881B882046A0
:10381000FFF727FC08492046FFF726FC4FF480718C
:103820002046FFF71CFC01212046FFF70DFCD0E7E6
:1038300000480040286002400008001010B540F227
:1038400027711F48FFF720FE60B140F225511C4848
:10385000FFF71AFE68B940F224411948FFF714FE39
:10386000A8B910BD002240F226611548FFF7F1FD0E
:10387000EBE7134C2046FFF7E8FDC1B22046FFF707
:10388000E0FD40F225512046FFF723FEE3E70D4C13
:1038900000212046FFF7D8FB094B9A881B88204659
:1038A000FFF7DFFB08492046FFF7DEFB4FF480718E
:1038B0002046FFF7D4FB01212046FFF7C5FBD0E7E8
:1038C00000140140286402400008001008B5034BB2
:1038D00053F82000FFF702FD08BD00BF2891000843
:1038E000F0B587B004460D4617461E46204B53F8E8
:1038F00020309847A4BB01211E4B53F82400FFF74A
:10390000C3FC1D4B53F824402046FFF7E7FC002181
:103910002046FFF76CFD4FF48273ADF806300023AC
:10392000ADF80430ADF808304FF40072ADF80E2059
:10393000ADF81230ADF80A70ADF80C600723ADF8A1
:1039400014300E4B33F81530ADF8103001A9204675
:10395000FFF726FD01212046FFF749FD07B0F0BD26
:103960000121044B53F82400FFF780FCC9E700BF96
:103970001C9100081091000828910008349100085B
:1039800038B50D460A4B53F8204000212046FFF77A
:103990002EFD23889BB223F03803064A32F8152007
:1039A0001343238001212046FFF721FD38BD00BFCE
:1039B000289100083491000870B505460E46002491
:1039C00002210A4B53F82500FFF724FD30B90134DA
:1039D000A4B2B4F57A7FF3D9002006E03146034B58
:1039E00053F82500FFF714FD012070BD2891000851
:1039F00070B505460E4600240221154B53F82500EC
:103A0000FFF708FD30B90134A4B2B4F57A7FF3D9D9
:103A100000201BE0FF210E4B53F82500FFF7F8FCB8
:103A2000002401210A4B53F82500FFF7F3FC30B9BD
:103A30000134A4B2B4F57A7FF3D9002006E0044B38
:103A400053F82500FFF7E1FC3070012070BD00BF86
:103A500028910008F8B505460F46164600240221B5
:103A6000144B53F82500FFF7D5FC30B90134A4B24C
:103A7000B4F57A7FF3D900201BE039460D4B53F89B
:103A80002500FFF7C5FC002401210A4B53F825004F
:103A9000FFF7C0FC30B90134A4B2B4F57A7FF3D992
:103AA000002006E0034B53F82500FFF7AEFC307012
:103AB0000120F8BD289100082DE9F84305460F467E
:103AC0001646204A52F8202092894FF47A7403F166
:103AD000FF381FFA88F883B36EB116F8019B0221F4
:103AE000184B53F82500FFF795FC38B9631E9BB2BD
:103AF00024B31C46F3E74FF0FF09F0E74946114BAA
:103B000053F82500FFF784FC4FF47A7401210D4B24
:103B100053F82500FFF77EFC20B9631E9BB26CB101
:103B20001C46F3E7074B53F82500FFF76EFCC0B2C5
:103B30000FB107F8010B4346C9E744462046BDE8EC
:103B4000F88300BF2891000808B501214FF080409C
:103B5000FFF767FC012800D008BD01214FF080402D
:103B6000FFF76BFCF8E7000008B501210548FFF7F7
:103B700058FC012800D008BD01210248FFF75DFC78
:103B8000F9E700BF0004004008B501210548FFF730
:103B900048FC012800D008BD01210248FFF74DFC78
:103BA000F9E700BF0008004070477047704708B54C
:103BB0008C46114662460078FFF77EFF08BD08B5C7
:103BC0000078FFF747FF08BD08B50078FFF710FF42
:103BD00008BD08B50078FFF7EFFE08BD08B54178CD
:103BE0000078FFF7CDFE08BD08B50078FFF76EFE40
:103BF00008BD08B58388428841780078FFF770FED9
:103C000008BD704710B5047B012C02D0002420466B
:103C100010BD81888068FFF72AFD0028F7D00224B4
:103C2000F5E708B5037B3BB9012907D0002281885D
:103C30008068FFF720FD08BD0020FCE70122818895
:103C40008068FFF718FDF6E708B5017311B1012987
:103C500006D008BD826881880068FFF7D7FCF8E7C6
:103C6000826881880068FFF7EAFCF2E708B500F097
:103C700009F808BD10B5084614461146FFF7F6FFCF
:103C8000204610BD08B500F03BFE002008BD000036
:103C9000C0EB0010C000064AA2FB0032801A02EB03
:103CA00050029208002301339A42FCD2704700BFB1
:103CB0002549922408B54FF48020FFF7EFF908BD9D
:103CC00008B5024800F0DDFC08BD00BF2CA50020AF
:103CD00010B4C47874B903334FEAA30C323200EB4A
:103CE00082008068002303E051F8042B0260013356
:103CF0006345F9D300205DF8044B704710B40346C8
:103D00000846D11C8910D3F8D040002303E0226874
:103D100040F8042B01338B42F9D35DF8044B704714
:103D200000B583B000230193019A42F02002019272
:103D3000019A61F38A120192C26801991161C26805
:103D4000126901920133074A934203D8019A12F093
:103D5000200FF4D10320FFF79BFF002003B05DF894
:103D600004FB00BF400D0300C368586900F0010068
:103D7000704708B5FFF7F8FF013818BF012008BDEC
:103D8000C36858699B691840704703699B68C3F30F
:103D90004103022B07D0032B07D0012B01D00320B6
:103DA0007047022070470120704702207047036966
:103DB0009B6882691168C3F34103022B09D06FF33A
:103DC0000A0111600269536843F480735360002054
:103DD0007047032363F30A01F3E710B54FF0000EB9
:103DE0004A78012A23D00B7803F1140C00EB8C0CD9
:103DF000DCF8044001229A4062F31F4E236813F45A
:103E0000004F0DD18A6862F30A03CA7862F39343C4
:103E1000CA8862F3995343F0805343F4004323600C
:103E20000269D36943EA0E03D361002010BD91F803
:103E300000C00CF1040200EB82029468012303FA33
:103E40000CF363F30F0ED9E770B54B78012B20D03C
:103E50000B78143300EB83035D682B682C694A6987
:103E6000002A6BD18A6862F31204012262F3DC44F7
:103E70002C61C278012A71D0CA78012A76D043F029
:103E800004430A78143200EB820042681360002079
:103E900070BD0B78043300EB83039D682B682C699D
:103EA0004A69B2B96FF31204012262F3DC442C6157
:103EB000C278012A1CD0CA78012A20D04A69F2B1FE
:103EC0000C78012202FA04F405696A6B22436A63E2
:103ED00015E062F312048E683244013AB2FBF6F246
:103EE00062F3DC44CA78012AE1D162F35E74DEE752
:103EF0000A78043200EB820292680C695461CA7835
:103F0000012A10D043F004430A78043200EB820205
:103F100092681360CB78012BB9D18B8A0A78C96873
:103F2000FFF7D6FEB3E70269926812F4807F02D1F0
:103F300043F00053E6E743F08053E3E78E683244F2
:103F4000013AB2FBF6F2C2F3090262F3DC44C6F3B3
:103F5000120606FB02F262F3120489E70A781432B1
:103F600000EB820252680C69546185E74A7912B10C
:103F700043F0005383E743F0805380E730B482B0CE
:103F8000002300934B78012B2ED00B7803F1140201
:103F900000EB820254682268246900944C69002C6A
:103FA0006CD18D689DF8004065F306048DF80040E3
:103FB0009DF80240012565F3C4048DF802401433D6
:103FC00000EB83035B68009C1C61C378012B65D008
:103FD00042F004420B78143300EB830043681A600C
:103FE000002002B030BC704783691A681C690094D5
:103FF0004C6914BB9DF800406FF306048DF8004037
:104000009DF80240012565F3C4048DF80240009C30
:104010001C61C478012C29D042F004421A60C37894
:10402000002BDDD14B69002BDAD00A7801239340B5
:104030000269516B0B435363D2E78D68AC420ED9D2
:104040004D619DF8004065F306048DF800409DF831
:104050000240012565F3C4048DF80240D7E79DF8BE
:10406000005064F306058DF80050F0E70C78043436
:1040700000EB8404A4680D696561CDE78D684D612E
:104080009DF8004065F306048DF800409DF802405D
:10409000012565F3C4048DF8024090E70B781433D2
:1040A00000EB83035B680C695C6191E74B78012B43
:1040B0000AD00B78143300EB83004268136843F492
:1040C00000131360002070470B78043300EB83006B
:1040D00082681368002B03DB43F400131360F1E7DD
:1040E00043F08043F8E74B78012B0FD00B78143363
:1040F00000EB8300406802686FF35552CB78023BB7
:10410000DBB2012B08D90260002070470B78043322
:1041100000EB83008068EEE742F08052F3E703692A
:104120009869DB691840000C7047143100EB81017D
:104130004B689A6803695869104070470369986929
:10414000DB69184080B2704782B0002300939DF86D
:10415000033043F0C0038DF803309DF80230012294
:1041600062F3C4038DF802309DF80030182262F328
:1041700006038DF80030436D02F1404202F5002243
:104180001A61C378012B01D002B0704700F2CC5203
:10419000436D5A61436D1A684FF080221A60F3E74D
:1041A00010B50446837A43B1D0F80C316FF3410364
:1041B0006FF30003D0F80C2113602269536823F0D9
:1041C00001035360054B1B689B6920469847E368D1
:1041D0004FF000425A61012010BD00BF18010020BD
:1041E00010B582B0044600238DF8073090F81231E4
:1041F0008DF80730164B1B685B69984723699968EF
:10420000E3684FF400625A61A37A33B111F0010FF1
:1042100003D094F81531012B02D0012002B010BD5B
:104220009DF80730DBB2032BF7D1D4F80C211368CB
:1042300043F001031360D4F80C21136843F0030327
:104240001360044A136943F006031361E5E700BFF6
:104250001801002000ED00E010B50446044B1B6877
:10426000DB689847E36808225A61012010BD00BF4F
:104270001801002010B50446044B1B68DB69984701
:10428000E3684FF480125A61012010BD180100202C
:1042900010B50446044B1B681B6A9847E3684FF44B
:1042A00000125A61012010BD1801002010B40269EB
:1042B0001469536BCB40DB01DBB22343043100EBC9
:1042C00081008268906818405DF8044B70470000D8
:1042D0002DE9F0418046FFF722FF044600252CE03F
:1042E00005F1140308EB83035B68196905EB85038B
:1042F00008EBC303D3F87C23C1F31201521AC3F8AD
:104300008C2332E016F0020F06D0022605F11403CA
:1043100008EB83035B689E6016F0080F0BD01E4B02
:104320001B689B684046984705F1140308EB83031C
:104330005B6808229A600135640854B314F0010FD9
:10434000F9D0EFB239464046FFF7EFFE064610F0CF
:10435000010FD7D0012605F1140308EB83035B6836
:104360009E6098F80330B342BAD00B4B1B681B68B1
:1043700039464046984798F80330012BC2D1002DAA
:10438000C0D198F81131052BBCD14046FFF7DCFEB7
:10439000B8E70120BDE8F081180100202DE9F041C7
:1043A00007460C4601EB810300EBC303D3F8302131
:1043B000D3F83411521AD3F82431934200D3134660
:1043C00003F103084FEA9808231D07EB83039B685A
:1043D0009B691DE006F103084FEA980804EB840589
:1043E00007EBC505B3B2E2B2D5F828113846FFF79E
:1043F0006FFCD5F828313344C5F82831D5F834316D
:104400003344C5F83431231D07EB83039B689B6954
:104410009BB2434515D904EB840207EBC202D2F8E4
:104420003411D2F8303199420BD253B15B1A04EBFC
:10443000840207EBC202D2F824619E42CAD31E4610
:10444000C8E70120BDE8F0812DE9F0418046FFF783
:1044500075FE0446002728E015F0080F05D0082552
:104460003B1D08EB83039B689D6015F0100F05D082
:1044700010253B1D08EB83039B689D6015F0400FE2
:1044800005D040253B1D08EB83039B689D6015F01C
:10449000020F05D002253B1D08EB83039B689D603E
:1044A00015F0800F32D101376408002C39D014F098
:1044B000010FF8D0FEB231464046FFF7F7FE054641
:1044C00010F0010FC8D0012303FA07F0D8F810103C
:1044D0004A6B22EA00024A631D463A1D08EB82023B
:1044E00092689360104B1B685B6831464046984762
:1044F00098F80330AB42AFD1002FADD198F811310D
:10450000042BA9D14046FFF71FFEA5E739464046D8
:10451000FFF744FF3B1D08EB83039B6880229A60F2
:10452000C1E70120BDE8F081180100202DE9F0412C
:104530000446C268936923F010039361C3681D6A3F
:1045400005F00F06C5F34343022B09D0062B21D0FB
:10455000E268936943F0100393610120BDE8F081A4
:1045600047F6F0732B42F3D0C5F30A1506EB860726
:1045700000EBC7072A46D7F88013FFF7BFFBD7F831
:1045800080332B44C7F88033D7F88C331D44C7F8E9
:104590008C53DDE7082200F2CC51FFF7AFFBC5F3E7
:1045A0000A1506EB860304EBC303D3F88C231544EA
:1045B000C3F88C53CCE7000070B5054600242646AE
:1045C0000269536823F0010353602146FFF7A8FBFB
:1045D00021460CE00B1D05EB83039B68FF229A60CC
:1045E00001F1140305EB83035B689A6001316B787A
:1045F0008B42EFD82B694FF0FF329A612B694FF055
:104600000112DA610B242B695C6126432B691E6160
:104610002A6913686FF30A1313602846FFF794FDA5
:10462000EB684FF480525A61034B1B681B692846A4
:104630009847012070BD00BF1801002038B504461E
:10464000FFF7B5FBE368DD682046FFF79EFB032814
:104650000ED00123A3704023A380052363F38D258F
:10466000E368DD60E3684FF400525A61012038BD11
:104670000023A3704FF40073A380092363F38D25F7
:10468000EEE72DE9F8430446FFF773FB18B9002560
:104690002846BDE8F8832046FFF772FB064600284F
:1046A0005BD0C0F3074710F4002F29D1002517F085
:1046B000040F2AD15FFA86F916F0020F02D0E368E0
:1046C00002225A61002E25DBC6F3072816F4006F7C
:1046D00025D119F0080F27D119F0100F29D118F0A2
:1046E000100F2BD118F0200F2DD117F0100F2FD154
:1046F00017F0200FCCD02046FFF7CAFD0543C7E7CF
:104700002046FFF7E5FD0546D1E72046FFF79CFE72
:104710000543CFE72046FFF743FD0543D4E7204696
:10472000FFF75EFD0543D4E72046FFF795FD0543FF
:10473000D2E72046FFF7FAFE0543D0E72046FFF711
:104740003BFF0543CEE72046FFF778FF0543CCE764
:104750002046FFF78FFD0543CAE7054698E710B5E9
:104760008E464CB2002C1BDB01F07F0C0CEB8C0C4A
:104770004FEACC0C0CF55C7C84440CF104010EF087
:104780007F0E81F800E0E40F4C708A60CB700CB1B2
:10479000A1F806E0022B0FD0FFF71FFB002010BD91
:1047A00001F07F0C0CEB8C0C4FEACC0C0CF58C7CE4
:1047B00084440CF10401E2E700230B71ECE710B52F
:1047C00001F07F0404EB8401C90001F55C71014430
:1047D000043104EB840C00EBCC0CCCF88023CCF837
:1047E00088330023CCF88C338CF875338CF8744301
:1047F000C378012B04D034B9FFF7C0FB002010BDF3
:10480000CCF88423F7E7FFF71FFBF7E710B501F0BB
:104810007F0404EB8401C90001F58C71014404316B
:1048200004EB840C00EBCC0C4FF0010E8CF81DE176
:104830008CF81C41CCF82821CCF82C210022CCF893
:104840003421CCF830311CB9FFF798FB002010BDA3
:10485000FFF7FAFAFAE708B50A464FFA81FCBCF10D
:10486000000F13DB01EB8103DB0003F55C730344F2
:10487000191D01238B7002F07F020A704FEADC7C65
:1048800081F801C0FFF712FC002008BD01F07F0392
:1048900003EB8303DB0003F58C730344191DE8E786
:1048A00010B50A464FFA81FCBCF1000F13DB01EB97
:1048B0008103DB0003F55C730344191D00248C7035
:1048C00002F07F020A704FEADC7C81F801C0FFF73A
:1048D0000AFC204610BD01F07F0303EB8303DB00DD
:1048E00003F58C730344191DE8E74FF0000C61F3E6
:1048F0000A1C0269136843EA0C0313607047000046
:1049000000228A4217D230B402E001328A420FD22A
:104910000A4C236810F802C0094D05F803C00133A2
:104920002360B3F5006FF0D3234600241C60ECE74E
:10493000002030BC70470020704700BF20B300202B
:1049400020AB00200369024A12685A6000207047B9
:1049500024B3002010B50446D0F8E8351B69984709
:1049600094F8133184F81231032384F812310020B3
:1049700010BD08B590F8123180F81331042380F887
:104980001231D0F8E835DB689847002008BD08B53B
:10499000D0F8E435DB6903B19847002008BD08B5BD
:1049A000D0F8E4351B6A9847002008BD08B5D0F858
:1049B000E4355B6A9847002008BD10B50446002323
:1049C00040221946FFF7CBFE0023402280212046DB
:1049D000FFF7C5FE012384F81231D4F8E8355B688F
:1049E000A0789847002010BD10B582B004466946F3
:1049F00000F04EF99DF8001001F01F03012B0FD0BD
:104A0000022B12D02BB101F080012046FFF723FFCB
:104A100003E06946204600F0ABFA002002B010BD6A
:104A20006946204600F0C8FAF7E76946204600F0DC
:104A3000DFFAF2E710B5044600294CD190F81131A5
:104A4000022B05D094F81631012B3DD0002010BD6B
:104A5000D0F83821D0F824319A4212D9D21AC0F8AD
:104A60003821C178012906D092B2D4F82811204605
:104A700000F0A0F8E6E7D0F828110B44C0F8283180
:104A8000F2E7D0F83C11B1FBF3F203FB12122AB9A2
:104A90008B4203D8D0F8403199420BD3D4F8E43597
:104AA000DB681BB194F81221032A0AD0204600F0DB
:104AB000A0F8C7E7114600F07DF80023C4F84031A4
:104AC000C0E720469847F1E72046FFF73BFF002369
:104AD00084F81631BAE70A46D0F8E4355B69002B52
:104AE000B4D090F812110329B0D111469847ADE720
:104AF00010B5044679BB90F81131032B01D000208A
:104B000010BDD0F89033D0F87C23934215D99B1A6E
:104B1000C0F89033C178012909D09A4228BF1A46BB
:104B200092B2D4F88013204600F04CF8E7E7D0F8B2
:104B300080131144C0F88013EFE7D0F8E4351B6907
:104B40001BB190F81221032A03D0204600F042F84E
:104B5000D5E79847F9E70A46D0F8E4359B69002B7A
:104B6000CDD090F812110329C9D111469847C6E754
:104B700010B50446D0F8E4351B689847D4F8E835FA
:104B80009B689847002010BD08B5D0F8E4355B68F5
:104B90009847002008BD08B51346C0F83C21C0F86E
:104BA0003821022280F811210A460021FFF72EFE4B
:104BB000002008BD08B513460A460021FFF726FE6F
:104BC000002008BD08B513460A460021FFF7F7FD8F
:104BD000002008BD10B50446042380F811310023DD
:104BE0001A461946FFF712FE2046FFF7ADFA0020DD
:104BF00010BD10B50446052380F8113100231A4674
:104C00001946FFF7DCFD2046FFF79EFA002010BD95
:104C100010B504464B88012B02D0022B0AD010BDE0
:104C2000C0F81831D0F8E4359B6898472046FFF764
:104C3000D1FFF4E78B8813F0FF0FF0D102695268BF
:104C40001B0A013B042B07D8DFE803F0030F1317FF
:104C50001B00012363F306120C4B1A60012384F836
:104C600016312046FFF7B6FFD9E7022363F3061299
:104C7000F2E7032363F30612EEE7042363F306125D
:104C8000EAE7052363F30612E6E700BF24B300203A
:104C900090F8CC350B7090F8CD354B7090F8CE3540
:104CA00090F8CF2503EB02234B8090F8D03590F895
:104CB000D12503EB02238B8090F8D23590F8D325D1
:104CC00003EB02239BB2CB80C0F84031012380F874
:104CD0001131704710B504468021FFF7BCFD00215B
:104CE0002046FFF7B8FD2046FFF72EFA10BD30B57D
:104CF00083B005460C464A88130A013B062B78D838
:104D0000DFE803F004163277776E7300D0F8EC35E5
:104D10001B680DF1060180789847E388402B03D08B
:104D200095F81231012B0ED10823ADF806300AE0B8
:104D3000D0F8E4359B6A0DF106018078984702238C
:104D40004370C5F8F005BDF80620002A4BD0E38873
:104D5000002B48D09A4228BF1A46ADF806200146DB
:104D60002846FFF718FF3EE0D2B2052A34D8DFE824
:104D700002F0030B131B232BD0F8EC355B680DF10D
:104D8000060180789847DEE7D0F8EC359B680DF196
:104D9000060180789847D6E7D0F8EC35DB680DF14E
:104DA000060180789847CEE7D0F8EC351B690DF105
:104DB000060180789847C6E7D0F8EC355B690DF1BD
:104DC000060180789847BEE7D0F8EC359B690DF175
:104DD000060180789847B6E72146FFF77BFF02E09F
:104DE0002146FFF777FF03B030BD2146FFF772FF82
:104DF000F9E72146FFF76EFFF5E738B504468B88E3
:104E0000E3B9CB88D3B98D7805F07F0590F81231DE
:104E1000032B0CD080F814512946FFF766FD20467D
:104E2000FFF7D8FE35B1022384F8123109E0FFF70D
:104E300051FF06E0012384F8123102E02046FFF71B
:104E400049FF38BD10B504468B78204A1370012BFA
:104E500008D890F81221022A07D0032A15D0FFF7AC
:104E600039FF01E0FFF736FF10BD5BB180F810316C
:104E7000032280F812211946FFF77AFE2046FFF739
:104E8000A9FEF1E7FFF7A6FEEEE783B190F8101157
:104E90008B4218D0FFF778FE0C4B197884F810116C
:104EA0002046FFF765FE2046FFF794FEDCE702226E
:104EB00080F8122180F810311946FFF765FE204670
:104EC000FFF788FED0E7FFF785FECDE734B300207B
:104ED00008B5CB88012B08D190F81231022B07D0EE
:104EE000032B0AD0FFF7F6FE01E0FFF7F3FE08BD43
:104EF00001220549FFF74FFEF9E7012200F588710D
:104F0000FFF749FEF3E700BF2CB3002008B590F887
:104F10001231023B012B0DD8084B01221A60D0F848
:104F2000183113B1054B03221A6002220349FFF71F
:104F300032FE08BDFFF7CEFEFBE700BF28B300201E
:104F400010B5044690F81231023B012B0DD84B8866
:104F5000012B0CD10023C0F81831D0F8E4359B6840
:104F600098472046FFF736FE01E0FFF7B3FE10BD7D
:104F700008B54B78092B1CD8DFE803F012181B1575
:104F80001B09051B0F0CFFF7B2FE002008BDFFF741
:104F900034FFFAE7FFF756FFF7E7FFF799FFF4E76B
:104FA000FFF7B4FFF1E7FFF733FEEEE7FFF7C8FFC7
:104FB000EBE7FFF78FFEE8E738B504460D4690F8BB
:104FC0001231032B0FD10B79012B09D8D0F8E4351E
:104FD0009B689847EB8843B92046FFF7FBFD04E048
:104FE000FFF778FE01E0FFF775FE002038BD0000F6
:104FF00038B505460C468A88D1B26378012B28D093
:10500000032B03D0002B48D0002038BD90F812317C
:10501000022B05D0032B0AD02146FFF75BFEF3E7F6
:105020000029F1D08029EFD0FFF715FCECE7638869
:1050300013B909B1802909D1D5F8E4359B68214617
:10504000284698472846FFF7C5FDDDE7FFF703FC34
:10505000F2E790F81231022B05D0032B0AD021463B
:10506000FFF738FED0E70029CED08029CCD0FFF75B
:10507000F2FBC9E76388002BC6D109B1802903D1AF
:105080002846FFF7A7FDBFE7FFF70AFCD5F8E43590
:105090009B68214628469847F2E790F81231022B88
:1050A00005D0032B0AD02146FFF714FEACE70029F8
:1050B000AAD08029A8D0FFF7CEFBA5E712F0800F79
:1050C0000FD101EB810100EBC10191F87633CBB137
:1050D0000E4B01221A6002220C492846FFF75BFDA5
:1050E00092E701F07F0101EB810100EBC10191F832
:1050F0001E311BB1054B01221A60ECE7034B002265
:105100001A60E8E7014B00221A60E4E730B30020A0
:10511000704700B583B000238DF80430FCF7B6F873
:105120008DF80400FEE7FEE7FEE7FEE770477047F4
:1051300008B5012210210B48FEF79DFA0A4B1B7897
:105140006BB9094B01221A700220FCF789FEFCF7AB
:105150002BFC002210210348FEF78DFA08BDFCF756
:1051600027FCF6E70004024035B3002010B5074CD9
:10517000012220212046FEF77EFAFCF761F9002289
:1051800020212046FEF777FA10BD00BF0004024040
:1051900082B00023019300932A4A136843F48033BA
:1051A0001360284B1B6803F400330093019B013309
:1051B0000193009B1BB9019BB3F5A04FF1D1214B8B
:1051C0001B6813F4003F06D001230093009B012BC2
:1051D00004D002B0704700230093F7E7194B1A6C14
:1051E00042F080521A6418490A6842F440420A6048
:1051F0009A689A609A6842F400429A609A6842F407
:10520000A0529A60114A5A601A6842F080721A607D
:105210000C4B1B6813F0007FFAD00D4B40F2057267
:105220001A60A3F580639A6822F003029A609A6874
:1052300042F002029A60034B9B6803F00C03082BB8
:10524000F9D1C6E70038024000700040085440071A
:10525000003C024010B5104CD4F8883043F4700381
:10526000C4F888300D4B1A6842F001021A60002120
:1052700099601A6822F0847222F480321A60084A17
:105280005A601A6822F480221A60D960FFF780FF02
:105290004FF00063A36010BD00ED00E00038024055
:1052A0001030002410B5064C012208212046FEF7DC
:1052B000E2F9002208212046FEF7DDF910BD00BF0B
:1052C0000004024010B5064C012204212046FEF7DE
:1052D000D2F9002204212046FEF7CDF910BD00BF0F
:1052E0000004024010B5064C012202212046FEF7C0
:1052F000C2F9002202212046FEF7BDF910BD00BF11
:105300000004024010B5064C012211462046FEF76B
:10531000B2F9002201212046FEF7ADF910BD00BF11
:105320000004024010B582B0414C22460121022007
:10533000FEF76CF9224602210846FEF767F922467D
:1053400004210220FEF762F9224608210220FEF71E
:105350005DF9224610210220FEF758F9224620214D
:105360000220FEF753F9012211462046FEF783F989
:10537000012202212046FEF77EF901220421204667
:10538000FEF779F9012208212046FEF774F901227F
:1053900010212046FEF76FF9012220212046FEF75A
:1053A0006AF9FFF757FF4FF4FA730193214B00930B
:1053B00000231A464FF47A711F48FCF709FC1F4B73
:1053C0001860C82401941E4B0093012300224FF45F
:1053D0007A611C48FCF7FCFB1B4B186001941B4BCB
:1053E0000093022300224FF4FA611948FCF7F0FB06
:1053F000184B18600194184B0093032300224FF4BC
:105400007A711648FCF7E4FB154B18600194154BB4
:105410000093042300224FF47A711348FCF7D8FB61
:10542000124B1860FCF7E4FC002002B010BD00BF76
:1054300000040240BD5600084091000848B3002017
:10544000A55200084891000838B30020C552000852
:10545000509100083CB30020E55200085891000824
:1054600040B30020055300086091000844B30020B9
:1054700070B582B01B4C23693220984723681B68A3
:105480000020984701250195174B009314231922FA
:10549000022118466668B047144B18600195144BFA
:1054A000009314233222052110466668B047114B41
:1054B00018600195104B0093282346220F210846BF
:1054C0006668B0470D4B1860646801950C4B0093FB
:1054D0004023802200210846A0470A4B186002B0F2
:1054E00070BD00BF6C0000206891000854B300201C
:1054F0007091000858B30020789100085CB3002038
:105500008091000860B300202DE9F04182B0614B2A
:105510001B7853B9604A13780133DBB213700A2B3E
:105520000AD95C4B01221A7006E05B4A1378013BF2
:10553000DBB21370012B0DD9584B1B7873B9584A45
:1055400013780133DBB213700A2B10D9534B0122AD
:105550001A700CE04F4B00221A70EDE7504A137896
:10556000013B13704C4B1B78012B40F28E804D4C4D
:10557000A3684D4E30689847C3689847A368306861
:1055800098474369984787680125009502230822B8
:1055900034210C20B847A3683068984703689847BF
:1055A000A368424E30689847C3689847A36830683C
:1055B000984743699847876800950223082231215C
:1055C0000C20B847A3683068984703689847A368D9
:1055D000374E30689847C3689847A3683068984743
:1055E00043699847876800950223082233210C20DD
:1055F000B847A368306898478368294F38780F30D8
:105600000F21C0B29847A36830689847436998470C
:10561000D0F804802B46204A127814212320C0475A
:10562000A3683068984743699847D0F80C80009584
:1056300016230F221F490C20C047A36830689847E3
:1056400003689847A3681C4E30689847C36898471A
:10565000A36830689847836839780531C9B2322029
:105660009847A368306898474369984787680095CA
:105670000223082232210C20B847A36830689847DB
:105680000368984702B0BDE8F081044B00221A700D
:105690006DE700BF4DB3002050B300204FB3002092
:1056A0004EB300206C00002060B3002054B30020F3
:1056B0005CB300208891000858B3002008B5114B56
:1056C0001B78012B09D0022B13D003B108BDFFF7C3
:1056D000CFFE0C4B01221A70F8E70B4B5B69984721
:1056E00018B1084B02221A70F0E7064B01221A701B
:1056F000ECE7FFF709FF044B9B699847014B012238
:105700001A70E3E74CB300206C000020DFF834D0BF
:10571000002103E00C4B5B58435004310B480C4B09
:1057200042189A42F6D30B4A02E0002342F8043BA7
:10573000094B9A42F9D3FFF78DFD00F011F8FFF7FE
:10574000F1FD7047000002207C9500080000002059
:10575000F0020020F002002078B30020FEE70000F5
:1057600070B50D4D0D4C641BA4100026A64209D146
:105770000B4D0C4C02F008FF641BA4100026A6423F
:1057800005D170BD55F8043B98470136EEE755F852
:10579000043B98470136F2E77495000874950008B9
:1057A0007495000878950008024B0146186800F0CF
:1057B0006DB800BF20010020024B0146186800F0C0
:1057C00019B800BF200100200A44914200F1FF33C4
:1057D00000D1704710B511F8014B03F8014F914209
:1057E000F9D110BD02440346934200D1704703F83B
:1057F000011BF9E737B5002944D051F8043C01906A
:10580000002BA1F10404B8BFE41801F093FE1E4A76
:105810000198136833B96360146003B0BDE8304089
:1058200001F08EBEA34208D9256861198B4201BFE1
:1058300019685B6849192160EDE71A465B680BB18E
:10584000A342FAD911685518A5420BD12468214406
:105850005418A3421160E0D11C685B685360214476
:105860001160DAE702D90C230360D6E725686119D5
:105870008B4204BF19685B68636004BF49192160EB
:105880005460CAE703B030BD64B30020F8B5CD1C46
:1058900025F0030508350C2D38BF0C25002D0646D4
:1058A00001DBA94203D90C2333600020F8BD01F0CD
:1058B00041FE21490A6814469CB9204F3B6823B930
:1058C0002146304600F0A6FC38602946304600F0FC
:1058D000A1FC431C23D10C233360304601F030FE81
:1058E000E3E723685B1B17D40B2B03D923601C440D
:1058F000256004E06368A2420CBF0B605360304631
:1059000001F01EFE04F10B00231D20F00700C21A57
:10591000CCD01B1AA350C9E722466468CCE7C41C4C
:1059200024F00304A042E3D0211A304600F072FCB8
:105930000130DDD1CFE700BF64B3002068B30020A1
:105940002DE9FF4755EC104B002D0E4619462B460E
:10595000BBBF05F100431D4600232D230B700D9B9B
:10596000DDF830A0914623F02008BCBF2246144643
:10597000B8F1460F05D0B8F1450F00D1013602212C
:1059800000E0032103AB019302AB009345EC104B05
:105990005346324600F0BCFDB8F1470F074602D12E
:1059A00019F0010F22D0B8F1460F07EB060910D10C
:1059B0003B78302B0AD10022002320462946FBF7F2
:1059C00083F818B9C6F10106CAF80060DAF80030A9
:1059D00099440022002320462946FBF775F808B1B8
:1059E000CDF80C903022039B4B4507D3039B0E9AB6
:1059F000DB1B3846136004B0BDE8F087591C0391E7
:105A00001A70F0E7F7B503460029B8BF494203F81A
:105A1000022BB4BF2D222B22092942702ADD0DF161
:105A20000704A4460A27A6460A4691FBF7F607FB99
:105A300016153035632A04F1FF340EF8015C314647
:105A4000F1DC3031AEF1020504F8011C441C29469A
:105A500061450AD30DF10902A2EB0E02654588BF2C
:105A600000221344181A03B0F0BD11F8012B04F8FA
:105A7000012FEDE7302330318370C170031DF1E752
:105A80002DE9F04F2DED028B8DB00C46DDF86080D6
:105A900016461F46054601F0E1FCD0F800A050462E
:105AA000FAF796FB00230A9323680593D8F8003091
:105AB00094F818B0073323F0070303F10802C8F87D
:105AC0000020D3E90023C4E91223D4E9128929F084
:105AD00000430793CDF8188008EE100A9F4BDDE9CC
